{
	"src/SimpleAccount.sol": {
		"SimpleAccount": {
			"abi": [
				{
					"inputs": [
						{
							"internalType": "contract IEntryPoint",
							"name": "anEntryPoint",
							"type": "address"
						}
					],
					"stateMutability": "nonpayable",
					"type": "constructor"
				},
				{
					"anonymous": false,
					"inputs": [
						{
							"indexed": false,
							"internalType": "address",
							"name": "previousAdmin",
							"type": "address"
						},
						{
							"indexed": false,
							"internalType": "address",
							"name": "newAdmin",
							"type": "address"
						}
					],
					"name": "AdminChanged",
					"type": "event"
				},
				{
					"anonymous": false,
					"inputs": [
						{
							"indexed": true,
							"internalType": "address",
							"name": "beacon",
							"type": "address"
						}
					],
					"name": "BeaconUpgraded",
					"type": "event"
				},
				{
					"anonymous": false,
					"inputs": [
						{
							"indexed": false,
							"internalType": "uint8",
							"name": "version",
							"type": "uint8"
						}
					],
					"name": "Initialized",
					"type": "event"
				},
				{
					"anonymous": false,
					"inputs": [
						{
							"indexed": true,
							"internalType": "contract IEntryPoint",
							"name": "entryPoint",
							"type": "address"
						},
						{
							"indexed": true,
							"internalType": "address",
							"name": "owner",
							"type": "address"
						}
					],
					"name": "SimpleAccountInitialized",
					"type": "event"
				},
				{
					"anonymous": false,
					"inputs": [
						{
							"indexed": true,
							"internalType": "address",
							"name": "implementation",
							"type": "address"
						}
					],
					"name": "Upgraded",
					"type": "event"
				},
				{
					"inputs": [],
					"name": "addDeposit",
					"outputs": [],
					"stateMutability": "payable",
					"type": "function"
				},
				{
					"inputs": [],
					"name": "entryPoint",
					"outputs": [
						{
							"internalType": "contract IEntryPoint",
							"name": "",
							"type": "address"
						}
					],
					"stateMutability": "view",
					"type": "function"
				},
				{
					"inputs": [
						{
							"internalType": "address",
							"name": "dest",
							"type": "address"
						},
						{
							"internalType": "uint256",
							"name": "value",
							"type": "uint256"
						},
						{
							"internalType": "bytes",
							"name": "func",
							"type": "bytes"
						}
					],
					"name": "execute",
					"outputs": [],
					"stateMutability": "nonpayable",
					"type": "function"
				},
				{
					"inputs": [
						{
							"internalType": "address[]",
							"name": "dest",
							"type": "address[]"
						},
						{
							"internalType": "bytes[]",
							"name": "func",
							"type": "bytes[]"
						}
					],
					"name": "executeBatch",
					"outputs": [],
					"stateMutability": "nonpayable",
					"type": "function"
				},
				{
					"inputs": [],
					"name": "getDeposit",
					"outputs": [
						{
							"internalType": "uint256",
							"name": "",
							"type": "uint256"
						}
					],
					"stateMutability": "view",
					"type": "function"
				},
				{
					"inputs": [
						{
							"internalType": "address",
							"name": "anOwner",
							"type": "address"
						},
						{
							"internalType": "contract IEntryPoint",
							"name": "anEntryPoint",
							"type": "address"
						}
					],
					"name": "initialize",
					"outputs": [],
					"stateMutability": "nonpayable",
					"type": "function"
				},
				{
					"inputs": [],
					"name": "nonce",
					"outputs": [
						{
							"internalType": "uint256",
							"name": "",
							"type": "uint256"
						}
					],
					"stateMutability": "view",
					"type": "function"
				},
				{
					"inputs": [],
					"name": "owner",
					"outputs": [
						{
							"internalType": "address",
							"name": "",
							"type": "address"
						}
					],
					"stateMutability": "view",
					"type": "function"
				},
				{
					"inputs": [],
					"name": "proxiableUUID",
					"outputs": [
						{
							"internalType": "bytes32",
							"name": "",
							"type": "bytes32"
						}
					],
					"stateMutability": "view",
					"type": "function"
				},
				{
					"inputs": [
						{
							"internalType": "address",
							"name": "newImplementation",
							"type": "address"
						}
					],
					"name": "upgradeTo",
					"outputs": [],
					"stateMutability": "nonpayable",
					"type": "function"
				},
				{
					"inputs": [
						{
							"internalType": "address",
							"name": "newImplementation",
							"type": "address"
						},
						{
							"internalType": "bytes",
							"name": "data",
							"type": "bytes"
						}
					],
					"name": "upgradeToAndCall",
					"outputs": [],
					"stateMutability": "payable",
					"type": "function"
				},
				{
					"inputs": [
						{
							"components": [
								{
									"internalType": "address",
									"name": "sender",
									"type": "address"
								},
								{
									"internalType": "uint256",
									"name": "nonce",
									"type": "uint256"
								},
								{
									"internalType": "bytes",
									"name": "initCode",
									"type": "bytes"
								},
								{
									"internalType": "bytes",
									"name": "callData",
									"type": "bytes"
								},
								{
									"internalType": "uint256",
									"name": "callGasLimit",
									"type": "uint256"
								},
								{
									"internalType": "uint256",
									"name": "verificationGasLimit",
									"type": "uint256"
								},
								{
									"internalType": "uint256",
									"name": "preVerificationGas",
									"type": "uint256"
								},
								{
									"internalType": "uint256",
									"name": "maxFeePerGas",
									"type": "uint256"
								},
								{
									"internalType": "uint256",
									"name": "maxPriorityFeePerGas",
									"type": "uint256"
								},
								{
									"internalType": "bytes",
									"name": "paymasterAndData",
									"type": "bytes"
								},
								{
									"internalType": "bytes",
									"name": "signature",
									"type": "bytes"
								}
							],
							"internalType": "struct UserOperation",
							"name": "userOp",
							"type": "tuple"
						},
						{
							"internalType": "bytes32",
							"name": "userOpHash",
							"type": "bytes32"
						},
						{
							"internalType": "address",
							"name": "aggregator",
							"type": "address"
						},
						{
							"internalType": "uint256",
							"name": "missingAccountFunds",
							"type": "uint256"
						}
					],
					"name": "validateUserOp",
					"outputs": [
						{
							"internalType": "uint256",
							"name": "sigTimeRange",
							"type": "uint256"
						}
					],
					"stateMutability": "nonpayable",
					"type": "function"
				},
				{
					"inputs": [
						{
							"internalType": "address payable",
							"name": "withdrawAddress",
							"type": "address"
						},
						{
							"internalType": "uint256",
							"name": "amount",
							"type": "uint256"
						}
					],
					"name": "withdrawDepositTo",
					"outputs": [],
					"stateMutability": "nonpayable",
					"type": "function"
				},
				{
					"stateMutability": "payable",
					"type": "receive"
				}
			],
			"devdoc": {
				"events": {
					"AdminChanged(address,address)": {
						"details": "Emitted when the admin account has changed."
					},
					"BeaconUpgraded(address)": {
						"details": "Emitted when the beacon is changed."
					},
					"Initialized(uint8)": {
						"details": "Triggered when the contract has been initialized or reinitialized."
					},
					"Upgraded(address)": {
						"details": "Emitted when the implementation is upgraded."
					}
				},
				"kind": "dev",
				"methods": {
					"proxiableUUID()": {
						"details": "Implementation of the ERC1822 {proxiableUUID} function. This returns the storage slot used by the implementation. It is used to validate the implementation's compatibility when performing an upgrade. IMPORTANT: A proxy pointing at a proxiable contract should not be considered proxiable itself, because this risks bricking a proxy that upgrades to it, by delegating to itself until out of gas. Thus it is critical that this function revert if invoked through a proxy. This is guaranteed by the `notDelegated` modifier."
					},
					"upgradeTo(address)": {
						"custom:oz-upgrades-unsafe-allow-reachable": "delegatecall",
						"details": "Upgrade the implementation of the proxy to `newImplementation`. Calls {_authorizeUpgrade}. Emits an {Upgraded} event."
					},
					"upgradeToAndCall(address,bytes)": {
						"custom:oz-upgrades-unsafe-allow-reachable": "delegatecall",
						"details": "Upgrade the implementation of the proxy to `newImplementation`, and subsequently execute the function call encoded in `data`. Calls {_authorizeUpgrade}. Emits an {Upgraded} event."
					},
					"withdrawDepositTo(address,uint256)": {
						"params": {
							"amount": "to withdraw",
							"withdrawAddress": "target to send to"
						}
					}
				},
				"version": 1
			},
			"evm": {
				"assembly": "    /* \"src/SimpleAccount.sol\":585:5057  contract SimpleAccount is BaseAccount, UUPSUpgradeable, Initializable {... */\n  mstore(0x40, 0xa0)\n    /* \"@openzeppelin/contracts/proxy/utils/UUPSUpgradeable.sol\":1088:1092  this */\n  address\n    /* \"@openzeppelin/contracts/proxy/utils/UUPSUpgradeable.sol\":1045:1093  address private immutable __self = address(this) */\n  0x80\n  mstore\n    /* \"src/SimpleAccount.sol\":1246:1327  constructor(IEntryPoint anEntryPoint) {... */\n  callvalue\n  dup1\n  iszero\n  tag_1\n  jumpi\n  0x00\n  dup1\n  revert\ntag_1:\n  pop\n  mload(0x40)\n  sub(codesize, bytecodeSize)\n  dup1\n  bytecodeSize\n  dup4\n  codecopy\n  dup2\n  add\n  0x40\n  dup2\n  swap1\n  mstore\n  tag_2\n  swap2\n  tag_3\n  jump\t// in\ntag_2:\n    /* \"src/SimpleAccount.sol\":1294:1305  _entryPoint */\n  0x02\n    /* \"src/SimpleAccount.sol\":1294:1320  _entryPoint = anEntryPoint */\n  dup1\n  sload\n  not(sub(shl(0xa0, 0x01), 0x01))\n  and\n  sub(shl(0xa0, 0x01), 0x01)\n  swap3\n  swap1\n  swap3\n  and\n  swap2\n  swap1\n  swap2\n  or\n  swap1\n  sstore\n    /* \"src/SimpleAccount.sol\":585:5057  contract SimpleAccount is BaseAccount, UUPSUpgradeable, Initializable {... */\n  jump(tag_7)\n    /* \"#utility.yul\":14:324   */\ntag_3:\n    /* \"#utility.yul\":104:110   */\n  0x00\n    /* \"#utility.yul\":157:159   */\n  0x20\n    /* \"#utility.yul\":145:154   */\n  dup3\n    /* \"#utility.yul\":136:143   */\n  dup5\n    /* \"#utility.yul\":132:155   */\n  sub\n    /* \"#utility.yul\":128:160   */\n  slt\n    /* \"#utility.yul\":125:177   */\n  iszero\n  tag_9\n  jumpi\n    /* \"#utility.yul\":173:174   */\n  0x00\n    /* \"#utility.yul\":170:171   */\n  dup1\n    /* \"#utility.yul\":163:175   */\n  revert\n    /* \"#utility.yul\":125:177   */\ntag_9:\n    /* \"#utility.yul\":199:215   */\n  dup2\n  mload\n  sub(shl(0xa0, 0x01), 0x01)\n    /* \"#utility.yul\":244:275   */\n  dup2\n  and\n    /* \"#utility.yul\":234:276   */\n  dup2\n  eq\n    /* \"#utility.yul\":224:294   */\n  tag_10\n  jumpi\n    /* \"#utility.yul\":290:291   */\n  0x00\n    /* \"#utility.yul\":287:288   */\n  dup1\n    /* \"#utility.yul\":280:292   */\n  revert\n    /* \"#utility.yul\":224:294   */\ntag_10:\n    /* \"#utility.yul\":313:318   */\n  swap4\n    /* \"#utility.yul\":14:324   */\n  swap3\n  pop\n  pop\n  pop\n  jump\t// out\ntag_7:\n    /* \"src/SimpleAccount.sol\":585:5057  contract SimpleAccount is BaseAccount, UUPSUpgradeable, Initializable {... */\n  mload(0x80)\n  codecopy(0x00, dataOffset(sub_0), dataSize(sub_0))\n  0x00\n  assignImmutable(\"0x26253e4b9754d7b70fa53c504adf7cef3bf444a45077af864d39a1233fe15035\")\n  return(0x00, dataSize(sub_0))\nstop\n\nsub_0: assembly {\n        /* \"src/SimpleAccount.sol\":585:5057  contract SimpleAccount is BaseAccount, UUPSUpgradeable, Initializable {... */\n      mstore(0x40, 0x80)\n      jumpi(tag_1, lt(calldatasize, 0x04))\n      shr(0xe0, calldataload(0x00))\n      dup1\n      0x4f1ef286\n      gt\n      tag_16\n      jumpi\n      dup1\n      0xaffed0e0\n      gt\n      tag_17\n      jumpi\n      dup1\n      0xaffed0e0\n      eq\n      tag_12\n      jumpi\n      dup1\n      0xb0d691fe\n      eq\n      tag_13\n      jumpi\n      dup1\n      0xb61d27f6\n      eq\n      tag_14\n      jumpi\n      dup1\n      0xc399ec88\n      eq\n      tag_15\n      jumpi\n      0x00\n      dup1\n      revert\n    tag_17:\n      dup1\n      0x4f1ef286\n      eq\n      tag_9\n      jumpi\n      dup1\n      0x52d1902d\n      eq\n      tag_10\n      jumpi\n      dup1\n      0x8da5cb5b\n      eq\n      tag_11\n      jumpi\n      0x00\n      dup1\n      revert\n    tag_16:\n      dup1\n      0x0825d1fc\n      eq\n      tag_3\n      jumpi\n      dup1\n      0x18dfb3c7\n      eq\n      tag_4\n      jumpi\n      dup1\n      0x3659cfe6\n      eq\n      tag_5\n      jumpi\n      dup1\n      0x485cc955\n      eq\n      tag_6\n      jumpi\n      dup1\n      0x4a58db19\n      eq\n      tag_7\n      jumpi\n      dup1\n      0x4d44560d\n      eq\n      tag_8\n      jumpi\n      0x00\n      dup1\n      revert\n    tag_1:\n      jumpi(tag_2, calldatasize)\n      stop\n    tag_2:\n      0x00\n      dup1\n      revert\n        /* \"src/BaseAccount.sol\":1964:2405  function validateUserOp(UserOperation calldata userOp, bytes32 userOpHash, address aggregator, uint256 missingAccountFunds)... */\n    tag_3:\n      callvalue\n      dup1\n      iszero\n      tag_20\n      jumpi\n      0x00\n      dup1\n      revert\n    tag_20:\n      pop\n      tag_21\n      tag_22\n      calldatasize\n      0x04\n      tag_23\n      jump\t// in\n    tag_22:\n      tag_24\n      jump\t// in\n    tag_21:\n      mload(0x40)\n        /* \"#utility.yul\":966:991   */\n      swap1\n      dup2\n      mstore\n        /* \"#utility.yul\":954:956   */\n      0x20\n        /* \"#utility.yul\":939:957   */\n      add\n        /* \"src/BaseAccount.sol\":1964:2405  function validateUserOp(UserOperation calldata userOp, bytes32 userOpHash, address aggregator, uint256 missingAccountFunds)... */\n    tag_25:\n      mload(0x40)\n      dup1\n      swap2\n      sub\n      swap1\n      return\n        /* \"src/SimpleAccount.sol\":1958:2255  function executeBatch(address[] calldata dest, bytes[] calldata func) external {... */\n    tag_4:\n      callvalue\n      dup1\n      iszero\n      tag_27\n      jumpi\n      0x00\n      dup1\n      revert\n    tag_27:\n      pop\n      tag_28\n      tag_29\n      calldatasize\n      0x04\n      tag_30\n      jump\t// in\n    tag_29:\n      tag_31\n      jump\t// in\n    tag_28:\n      stop\n        /* \"@openzeppelin/contracts/proxy/utils/UUPSUpgradeable.sol\":3143:3338  function upgradeTo(address newImplementation) public virtual onlyProxy {... */\n    tag_5:\n      callvalue\n      dup1\n      iszero\n      tag_32\n      jumpi\n      0x00\n      dup1\n      revert\n    tag_32:\n      pop\n      tag_28\n      tag_34\n      calldatasize\n      0x04\n      tag_35\n      jump\t// in\n    tag_34:\n      tag_36\n      jump\t// in\n        /* \"src/SimpleAccount.sol\":2437:2578  function initialize(address anOwner, IEntryPoint anEntryPoint) public virtual initializer {... */\n    tag_6:\n      callvalue\n      dup1\n      iszero\n      tag_37\n      jumpi\n      0x00\n      dup1\n      revert\n    tag_37:\n      pop\n      tag_28\n      tag_39\n      calldatasize\n      0x04\n      tag_40\n      jump\t// in\n    tag_39:\n      tag_41\n      jump\t// in\n        /* \"src/SimpleAccount.sol\":4464:4604  function addDeposit() public payable {... */\n    tag_7:\n      tag_28\n      tag_43\n      jump\t// in\n        /* \"src/SimpleAccount.sol\":4756:4914  function withdrawDepositTo(address payable withdrawAddress, uint256 amount) public onlyOwner {... */\n    tag_8:\n      callvalue\n      dup1\n      iszero\n      tag_44\n      jumpi\n      0x00\n      dup1\n      revert\n    tag_44:\n      pop\n      tag_28\n      tag_46\n      calldatasize\n      0x04\n      tag_47\n      jump\t// in\n    tag_46:\n      tag_48\n      jump\t// in\n        /* \"@openzeppelin/contracts/proxy/utils/UUPSUpgradeable.sol\":3657:3877  function upgradeToAndCall(address newImplementation, bytes memory data) public payable virtual onlyProxy {... */\n    tag_9:\n      tag_28\n      tag_50\n      calldatasize\n      0x04\n      tag_51\n      jump\t// in\n    tag_50:\n      tag_52\n      jump\t// in\n        /* \"@openzeppelin/contracts/proxy/utils/UUPSUpgradeable.sol\":2762:2893  function proxiableUUID() external view virtual override notDelegated returns (bytes32) {... */\n    tag_10:\n      callvalue\n      dup1\n      iszero\n      tag_53\n      jumpi\n      0x00\n      dup1\n      revert\n    tag_53:\n      pop\n      tag_21\n      tag_55\n      jump\t// in\n        /* \"src/SimpleAccount.sol\":791:811  address public owner */\n    tag_11:\n      callvalue\n      dup1\n      iszero\n      tag_58\n      jumpi\n      0x00\n      dup1\n      revert\n    tag_58:\n      pop\n      sload(0x01)\n      tag_59\n      swap1\n      sub(shl(0xa0, 0x01), 0x01)\n      and\n      dup2\n      jump\n    tag_59:\n      mload(0x40)\n      sub(shl(0xa0, 0x01), 0x01)\n        /* \"#utility.yul\":4695:4727   */\n      swap1\n      swap2\n      and\n        /* \"#utility.yul\":4677:4728   */\n      dup2\n      mstore\n        /* \"#utility.yul\":4665:4667   */\n      0x20\n        /* \"#utility.yul\":4650:4668   */\n      add\n        /* \"src/SimpleAccount.sol\":791:811  address public owner */\n      tag_25\n        /* \"#utility.yul\":4531:4734   */\n      jump\n        /* \"src/SimpleAccount.sol\":818:912  function nonce() public view virtual override returns (uint256) {... */\n    tag_12:\n      callvalue\n      dup1\n      iszero\n      tag_63\n      jumpi\n      0x00\n      dup1\n      revert\n    tag_63:\n      pop\n        /* \"src/SimpleAccount.sol\":873:880  uint256 */\n      0x00\n        /* \"src/SimpleAccount.sol\":899:905  _nonce */\n      sload\n      0x010000\n      swap1\n      div\n      sub(shl(0x60, 0x01), 0x01)\n      and\n        /* \"src/SimpleAccount.sol\":818:912  function nonce() public view virtual override returns (uint256) {... */\n      jump(tag_21)\n        /* \"src/SimpleAccount.sol\":918:1026  function entryPoint() public view virtual override returns (IEntryPoint) {... */\n    tag_13:\n      callvalue\n      dup1\n      iszero\n      tag_67\n      jumpi\n      0x00\n      dup1\n      revert\n    tag_67:\n      pop\n        /* \"src/SimpleAccount.sol\":1008:1019  _entryPoint */\n      and(sub(shl(0xa0, 0x01), 0x01), sload(0x02))\n        /* \"src/SimpleAccount.sol\":918:1026  function entryPoint() public view virtual override returns (IEntryPoint) {... */\n      jump(tag_59)\n        /* \"src/SimpleAccount.sol\":1737:1895  function execute(address dest, uint256 value, bytes calldata func) external {... */\n    tag_14:\n      callvalue\n      dup1\n      iszero\n      tag_72\n      jumpi\n      0x00\n      dup1\n      revert\n    tag_72:\n      pop\n      tag_28\n      tag_74\n      calldatasize\n      0x04\n      tag_75\n      jump\t// in\n    tag_74:\n      tag_76\n      jump\t// in\n        /* \"src/SimpleAccount.sol\":4268:4381  function getDeposit() public view returns (uint256) {... */\n    tag_15:\n      callvalue\n      dup1\n      iszero\n      tag_77\n      jumpi\n      0x00\n      dup1\n      revert\n    tag_77:\n      pop\n      tag_21\n      tag_79\n      jump\t// in\n        /* \"src/BaseAccount.sol\":1964:2405  function validateUserOp(UserOperation calldata userOp, bytes32 userOpHash, address aggregator, uint256 missingAccountFunds)... */\n    tag_24:\n        /* \"src/BaseAccount.sol\":2127:2147  uint256 sigTimeRange */\n      0x00\n        /* \"src/BaseAccount.sol\":2159:2183  _requireFromEntryPoint() */\n      tag_82\n        /* \"src/BaseAccount.sol\":2159:2181  _requireFromEntryPoint */\n      tag_83\n        /* \"src/BaseAccount.sol\":2159:2183  _requireFromEntryPoint() */\n      jump\t// in\n    tag_82:\n        /* \"src/BaseAccount.sol\":2208:2258  _validateSignature(userOp, userOpHash, aggregator) */\n      tag_84\n        /* \"src/BaseAccount.sol\":2227:2233  userOp */\n      dup6\n        /* \"src/BaseAccount.sol\":2235:2245  userOpHash */\n      dup6\n        /* \"src/BaseAccount.sol\":2247:2257  aggregator */\n      dup6\n        /* \"src/BaseAccount.sol\":2208:2226  _validateSignature */\n      tag_85\n        /* \"src/BaseAccount.sol\":2208:2258  _validateSignature(userOp, userOpHash, aggregator) */\n      jump\t// in\n    tag_84:\n        /* \"src/BaseAccount.sol\":2193:2258  sigTimeRange = _validateSignature(userOp, userOpHash, aggregator) */\n      swap1\n      pop\n        /* \"src/BaseAccount.sol\":2272:2287  userOp.initCode */\n      tag_86\n      0x40\n      dup7\n      add\n        /* \"src/BaseAccount.sol\":2272:2278  userOp */\n      dup7\n        /* \"src/BaseAccount.sol\":2272:2287  userOp.initCode */\n      tag_87\n      jump\t// in\n    tag_86:\n        /* \"src/BaseAccount.sol\":2272:2294  userOp.initCode.length */\n      swap1\n      pop\n        /* \"src/BaseAccount.sol\":2298:2299  0 */\n      0x00\n        /* \"src/BaseAccount.sol\":2272:2299  userOp.initCode.length == 0 */\n      sub\n        /* \"src/BaseAccount.sol\":2268:2357  if (userOp.initCode.length == 0) {... */\n      tag_89\n      jumpi\n        /* \"src/BaseAccount.sol\":2315:2346  _validateAndUpdateNonce(userOp) */\n      tag_89\n        /* \"src/BaseAccount.sol\":2339:2345  userOp */\n      dup6\n        /* \"src/BaseAccount.sol\":2315:2338  _validateAndUpdateNonce */\n      tag_90\n        /* \"src/BaseAccount.sol\":2315:2346  _validateAndUpdateNonce(userOp) */\n      jump\t// in\n    tag_89:\n        /* \"src/BaseAccount.sol\":2366:2398  _payPrefund(missingAccountFunds) */\n      tag_91\n        /* \"src/BaseAccount.sol\":2378:2397  missingAccountFunds */\n      dup3\n        /* \"src/BaseAccount.sol\":2366:2377  _payPrefund */\n      tag_92\n        /* \"src/BaseAccount.sol\":2366:2398  _payPrefund(missingAccountFunds) */\n      jump\t// in\n    tag_91:\n        /* \"src/BaseAccount.sol\":1964:2405  function validateUserOp(UserOperation calldata userOp, bytes32 userOpHash, address aggregator, uint256 missingAccountFunds)... */\n      swap5\n      swap4\n      pop\n      pop\n      pop\n      pop\n      jump\t// out\n        /* \"src/SimpleAccount.sol\":1958:2255  function executeBatch(address[] calldata dest, bytes[] calldata func) external {... */\n    tag_31:\n        /* \"src/SimpleAccount.sol\":2047:2078  _requireFromEntryPointOrOwner() */\n      tag_94\n        /* \"src/SimpleAccount.sol\":2047:2076  _requireFromEntryPointOrOwner */\n      tag_95\n        /* \"src/SimpleAccount.sol\":2047:2078  _requireFromEntryPointOrOwner() */\n      jump\t// in\n    tag_94:\n        /* \"src/SimpleAccount.sol\":2096:2122  dest.length == func.length */\n      dup3\n      dup2\n      eq\n        /* \"src/SimpleAccount.sol\":2088:2146  require(dest.length == func.length, \"wrong array lengths\") */\n      tag_96\n      jumpi\n      mload(0x40)\n      shl(0xe5, 0x461bcd)\n      dup2\n      mstore\n        /* \"#utility.yul\":6494:6496   */\n      0x20\n        /* \"src/SimpleAccount.sol\":2088:2146  require(dest.length == func.length, \"wrong array lengths\") */\n      0x04\n      dup3\n      add\n        /* \"#utility.yul\":6476:6497   */\n      mstore\n        /* \"#utility.yul\":6533:6535   */\n      0x13\n        /* \"#utility.yul\":6513:6531   */\n      0x24\n      dup3\n      add\n        /* \"#utility.yul\":6506:6536   */\n      mstore\n      shl(0x68, 0x77726f6e67206172726179206c656e67746873)\n        /* \"#utility.yul\":6552:6570   */\n      0x44\n      dup3\n      add\n        /* \"#utility.yul\":6545:6594   */\n      mstore\n        /* \"#utility.yul\":6611:6629   */\n      0x64\n      add\n        /* \"src/SimpleAccount.sol\":2088:2146  require(dest.length == func.length, \"wrong array lengths\") */\n    tag_97:\n      mload(0x40)\n      dup1\n      swap2\n      sub\n      swap1\n      revert\n    tag_96:\n        /* \"src/SimpleAccount.sol\":2161:2170  uint256 i */\n      0x00\n        /* \"src/SimpleAccount.sol\":2156:2249  for (uint256 i = 0; i < dest.length; i++) {... */\n    tag_99:\n        /* \"src/SimpleAccount.sol\":2176:2191  i < dest.length */\n      dup4\n      dup2\n      lt\n        /* \"src/SimpleAccount.sol\":2156:2249  for (uint256 i = 0; i < dest.length; i++) {... */\n      iszero\n      tag_100\n      jumpi\n        /* \"src/SimpleAccount.sol\":2212:2238  _call(dest[i], 0, func[i]) */\n      tag_102\n        /* \"src/SimpleAccount.sol\":2218:2222  dest */\n      dup6\n      dup6\n        /* \"src/SimpleAccount.sol\":2223:2224  i */\n      dup4\n        /* \"src/SimpleAccount.sol\":2218:2225  dest[i] */\n      dup2\n      dup2\n      lt\n      tag_104\n      jumpi\n      tag_104\n      tag_105\n      jump\t// in\n    tag_104:\n      swap1\n      pop\n      0x20\n      mul\n      add\n      0x20\n      dup2\n      add\n      swap1\n      tag_106\n      swap2\n      swap1\n      tag_35\n      jump\t// in\n    tag_106:\n        /* \"src/SimpleAccount.sol\":2227:2228  0 */\n      0x00\n        /* \"src/SimpleAccount.sol\":2230:2234  func */\n      dup6\n      dup6\n        /* \"src/SimpleAccount.sol\":2235:2236  i */\n      dup6\n        /* \"src/SimpleAccount.sol\":2230:2237  func[i] */\n      dup2\n      dup2\n      lt\n      tag_108\n      jumpi\n      tag_108\n      tag_105\n      jump\t// in\n    tag_108:\n      swap1\n      pop\n      0x20\n      mul\n      dup2\n      add\n      swap1\n      tag_109\n      swap2\n      swap1\n      tag_87\n      jump\t// in\n    tag_109:\n        /* \"src/SimpleAccount.sol\":2212:2238  _call(dest[i], 0, func[i]) */\n      dup1\n      dup1\n      0x1f\n      add\n      0x20\n      dup1\n      swap2\n      div\n      mul\n      0x20\n      add\n      mload(0x40)\n      swap1\n      dup2\n      add\n      0x40\n      mstore\n      dup1\n      swap4\n      swap3\n      swap2\n      swap1\n      dup2\n      dup2\n      mstore\n      0x20\n      add\n      dup4\n      dup4\n      dup1\n      dup3\n      dup5\n      calldatacopy\n      0x00\n      swap3\n      add\n      swap2\n      swap1\n      swap2\n      mstore\n      pop\n        /* \"src/SimpleAccount.sol\":2212:2217  _call */\n      tag_110\n      swap3\n      pop\n      pop\n      pop\n        /* \"src/SimpleAccount.sol\":2212:2238  _call(dest[i], 0, func[i]) */\n      jump\t// in\n    tag_102:\n        /* \"src/SimpleAccount.sol\":2193:2196  i++ */\n      dup1\n      tag_111\n      dup2\n      tag_112\n      jump\t// in\n    tag_111:\n      swap2\n      pop\n      pop\n        /* \"src/SimpleAccount.sol\":2156:2249  for (uint256 i = 0; i < dest.length; i++) {... */\n      jump(tag_99)\n    tag_100:\n      pop\n        /* \"src/SimpleAccount.sol\":1958:2255  function executeBatch(address[] calldata dest, bytes[] calldata func) external {... */\n      pop\n      pop\n      pop\n      pop\n      jump\t// out\n        /* \"@openzeppelin/contracts/proxy/utils/UUPSUpgradeable.sol\":3143:3338  function upgradeTo(address newImplementation) public virtual onlyProxy {... */\n    tag_36:\n      sub(shl(0xa0, 0x01), 0x01)\n        /* \"@openzeppelin/contracts/proxy/utils/UUPSUpgradeable.sol\":1654:1660  __self */\n      immutable(\"0x26253e4b9754d7b70fa53c504adf7cef3bf444a45077af864d39a1233fe15035\")\n        /* \"@openzeppelin/contracts/proxy/utils/UUPSUpgradeable.sol\":1637:1660  address(this) != __self */\n      and\n        /* \"@openzeppelin/contracts/proxy/utils/UUPSUpgradeable.sol\":1645:1649  this */\n      address\n        /* \"@openzeppelin/contracts/proxy/utils/UUPSUpgradeable.sol\":1637:1660  address(this) != __self */\n      sub\n        /* \"@openzeppelin/contracts/proxy/utils/UUPSUpgradeable.sol\":1629:1709  require(address(this) != __self, \"Function must be called through delegatecall\") */\n      tag_114\n      jumpi\n      mload(0x40)\n      shl(0xe5, 0x461bcd)\n      dup2\n      mstore\n      0x04\n      add\n      tag_97\n      swap1\n      tag_116\n      jump\t// in\n    tag_114:\n        /* \"@openzeppelin/contracts/proxy/utils/UUPSUpgradeable.sol\":1751:1757  __self */\n      immutable(\"0x26253e4b9754d7b70fa53c504adf7cef3bf444a45077af864d39a1233fe15035\")\n      sub(shl(0xa0, 0x01), 0x01)\n        /* \"@openzeppelin/contracts/proxy/utils/UUPSUpgradeable.sol\":1727:1757  _getImplementation() == __self */\n      and\n        /* \"@openzeppelin/contracts/proxy/utils/UUPSUpgradeable.sol\":1727:1747  _getImplementation() */\n      tag_117\n      0x00\n      dup1\n      mload\n      0x20\n      data_75b20eef8615de99c108b05f0dbda081c91897128caa336d75dffb97c4132b4d\n      dup4\n      codecopy\n      dup2\n      mload\n      swap2\n      mstore\n        /* \"@openzeppelin/contracts/proxy/ERC1967/ERC1967Upgrade.sol\":1254:1308  StorageSlot.getAddressSlot(_IMPLEMENTATION_SLOT).value */\n      sload\n      sub(shl(0xa0, 0x01), 0x01)\n      and\n      swap1\n        /* \"@openzeppelin/contracts/proxy/ERC1967/ERC1967Upgrade.sol\":1175:1315  function _getImplementation() internal view returns (address) {... */\n      jump\n        /* \"@openzeppelin/contracts/proxy/utils/UUPSUpgradeable.sol\":1727:1747  _getImplementation() */\n    tag_117:\n      sub(shl(0xa0, 0x01), 0x01)\n        /* \"@openzeppelin/contracts/proxy/utils/UUPSUpgradeable.sol\":1727:1757  _getImplementation() == __self */\n      and\n      eq\n        /* \"@openzeppelin/contracts/proxy/utils/UUPSUpgradeable.sol\":1719:1806  require(_getImplementation() == __self, \"Function must be called through active proxy\") */\n      tag_119\n      jumpi\n      mload(0x40)\n      shl(0xe5, 0x461bcd)\n      dup2\n      mstore\n      0x04\n      add\n      tag_97\n      swap1\n      tag_121\n      jump\t// in\n    tag_119:\n        /* \"@openzeppelin/contracts/proxy/utils/UUPSUpgradeable.sol\":3224:3260  _authorizeUpgrade(newImplementation) */\n      tag_123\n        /* \"@openzeppelin/contracts/proxy/utils/UUPSUpgradeable.sol\":3242:3259  newImplementation */\n      dup2\n        /* \"@openzeppelin/contracts/proxy/utils/UUPSUpgradeable.sol\":3224:3241  _authorizeUpgrade */\n      tag_124\n        /* \"@openzeppelin/contracts/proxy/utils/UUPSUpgradeable.sol\":3224:3260  _authorizeUpgrade(newImplementation) */\n      jump\t// in\n    tag_123:\n        /* \"@openzeppelin/contracts/proxy/utils/UUPSUpgradeable.sol\":3311:3323  new bytes(0) */\n      0x40\n      dup1\n      mload\n        /* \"@openzeppelin/contracts/proxy/utils/UUPSUpgradeable.sol\":3321:3322  0 */\n      0x00\n        /* \"@openzeppelin/contracts/proxy/utils/UUPSUpgradeable.sol\":3311:3323  new bytes(0) */\n      dup1\n      dup3\n      mstore\n      0x20\n      dup3\n      add\n      swap1\n      swap3\n      mstore\n        /* \"@openzeppelin/contracts/proxy/utils/UUPSUpgradeable.sol\":3270:3331  _upgradeToAndCallUUPS(newImplementation, new bytes(0), false) */\n      tag_125\n      swap2\n        /* \"@openzeppelin/contracts/proxy/utils/UUPSUpgradeable.sol\":3292:3309  newImplementation */\n      dup4\n      swap2\n        /* \"@openzeppelin/contracts/proxy/utils/UUPSUpgradeable.sol\":3311:3323  new bytes(0) */\n      swap1\n        /* \"@openzeppelin/contracts/proxy/utils/UUPSUpgradeable.sol\":3270:3291  _upgradeToAndCallUUPS */\n      tag_130\n        /* \"@openzeppelin/contracts/proxy/utils/UUPSUpgradeable.sol\":3270:3331  _upgradeToAndCallUUPS(newImplementation, new bytes(0), false) */\n      jump\t// in\n    tag_125:\n        /* \"@openzeppelin/contracts/proxy/utils/UUPSUpgradeable.sol\":3143:3338  function upgradeTo(address newImplementation) public virtual onlyProxy {... */\n      pop\n      jump\t// out\n        /* \"src/SimpleAccount.sol\":2437:2578  function initialize(address anOwner, IEntryPoint anEntryPoint) public virtual initializer {... */\n    tag_41:\n        /* \"@openzeppelin/contracts/proxy/utils/Initializable.sol\":3268:3287  bool isTopLevelCall */\n      0x00\n        /* \"@openzeppelin/contracts/proxy/utils/Initializable.sol\":3291:3304  _initializing */\n      sload\n      0x0100\n      swap1\n      div\n      0xff\n      and\n        /* \"@openzeppelin/contracts/proxy/utils/Initializable.sol\":3290:3304  !_initializing */\n      iszero\n      dup1\n        /* \"@openzeppelin/contracts/proxy/utils/Initializable.sol\":3336:3370  isTopLevelCall && _initialized < 1 */\n      dup1\n      iszero\n      tag_132\n      jumpi\n      pop\n        /* \"@openzeppelin/contracts/proxy/utils/Initializable.sol\":3354:3366  _initialized */\n      sload(0x00)\n        /* \"@openzeppelin/contracts/proxy/utils/Initializable.sol\":3369:3370  1 */\n      0x01\n        /* \"@openzeppelin/contracts/proxy/utils/Initializable.sol\":3354:3366  _initialized */\n      0xff\n      swap1\n      swap2\n      and\n        /* \"@openzeppelin/contracts/proxy/utils/Initializable.sol\":3354:3370  _initialized < 1 */\n      lt\n        /* \"@openzeppelin/contracts/proxy/utils/Initializable.sol\":3336:3370  isTopLevelCall && _initialized < 1 */\n    tag_132:\n        /* \"@openzeppelin/contracts/proxy/utils/Initializable.sol\":3335:3432  (isTopLevelCall && _initialized < 1) || (!Address.isContract(address(this)) && _initialized == 1) */\n      dup1\n      tag_136\n      jumpi\n      pop\n        /* \"@openzeppelin/contracts/proxy/utils/Initializable.sol\":3404:3408  this */\n      address\n        /* \"@openzeppelin/contracts/utils/Address.sol\":1702:1721  account.code.length */\n      extcodesize\n        /* \"@openzeppelin/contracts/utils/Address.sol\":1702:1725  account.code.length > 0 */\n      iszero\n      dup1\n      iszero\n        /* \"@openzeppelin/contracts/proxy/utils/Initializable.sol\":3376:3431  !Address.isContract(address(this)) && _initialized == 1 */\n      tag_136\n      jumpi\n      pop\n        /* \"@openzeppelin/contracts/proxy/utils/Initializable.sol\":3414:3426  _initialized */\n      and(0xff, sload(0x00))\n      0x01\n        /* \"@openzeppelin/contracts/proxy/utils/Initializable.sol\":3414:3431  _initialized == 1 */\n      eq\n        /* \"@openzeppelin/contracts/proxy/utils/Initializable.sol\":3376:3431  !Address.isContract(address(this)) && _initialized == 1 */\n    tag_136:\n        /* \"@openzeppelin/contracts/proxy/utils/Initializable.sol\":3314:3504  require(... */\n      tag_137\n      jumpi\n      mload(0x40)\n      shl(0xe5, 0x461bcd)\n      dup2\n      mstore\n        /* \"#utility.yul\":8072:8074   */\n      0x20\n        /* \"@openzeppelin/contracts/proxy/utils/Initializable.sol\":3314:3504  require(... */\n      0x04\n      dup3\n      add\n        /* \"#utility.yul\":8054:8075   */\n      mstore\n        /* \"#utility.yul\":8111:8113   */\n      0x2e\n        /* \"#utility.yul\":8091:8109   */\n      0x24\n      dup3\n      add\n        /* \"#utility.yul\":8084:8114   */\n      mstore\n        /* \"#utility.yul\":8150:8184   */\n      0x496e697469616c697a61626c653a20636f6e747261637420697320616c726561\n        /* \"#utility.yul\":8130:8148   */\n      0x44\n      dup3\n      add\n        /* \"#utility.yul\":8123:8185   */\n      mstore\n      shl(0x92, 0x191e481a5b9a5d1a585b1a5e9959)\n        /* \"#utility.yul\":8201:8219   */\n      0x64\n      dup3\n      add\n        /* \"#utility.yul\":8194:8238   */\n      mstore\n        /* \"#utility.yul\":8255:8274   */\n      0x84\n      add\n        /* \"@openzeppelin/contracts/proxy/utils/Initializable.sol\":3314:3504  require(... */\n      tag_97\n        /* \"#utility.yul\":7870:8280   */\n      jump\n        /* \"@openzeppelin/contracts/proxy/utils/Initializable.sol\":3314:3504  require(... */\n    tag_137:\n        /* \"@openzeppelin/contracts/proxy/utils/Initializable.sol\":3514:3526  _initialized */\n      0x00\n        /* \"@openzeppelin/contracts/proxy/utils/Initializable.sol\":3514:3530  _initialized = 1 */\n      dup1\n      sload\n      not(0xff)\n      and\n        /* \"@openzeppelin/contracts/proxy/utils/Initializable.sol\":3529:3530  1 */\n      0x01\n        /* \"@openzeppelin/contracts/proxy/utils/Initializable.sol\":3514:3530  _initialized = 1 */\n      or\n      swap1\n      sstore\n        /* \"@openzeppelin/contracts/proxy/utils/Initializable.sol\":3540:3605  if (isTopLevelCall) {... */\n      dup1\n      iszero\n      tag_140\n      jumpi\n        /* \"@openzeppelin/contracts/proxy/utils/Initializable.sol\":3574:3587  _initializing */\n      0x00\n        /* \"@openzeppelin/contracts/proxy/utils/Initializable.sol\":3574:3594  _initializing = true */\n      dup1\n      sload\n      not(0xff00)\n      and\n      0x0100\n      or\n      swap1\n      sstore\n        /* \"@openzeppelin/contracts/proxy/utils/Initializable.sol\":3540:3605  if (isTopLevelCall) {... */\n    tag_140:\n        /* \"src/SimpleAccount.sol\":2537:2571  _initialize(anOwner, anEntryPoint) */\n      tag_142\n        /* \"src/SimpleAccount.sol\":2549:2556  anOwner */\n      dup4\n        /* \"src/SimpleAccount.sol\":2558:2570  anEntryPoint */\n      dup4\n        /* \"src/SimpleAccount.sol\":2537:2548  _initialize */\n      tag_143\n        /* \"src/SimpleAccount.sol\":2537:2571  _initialize(anOwner, anEntryPoint) */\n      jump\t// in\n    tag_142:\n        /* \"@openzeppelin/contracts/proxy/utils/Initializable.sol\":3629:3643  isTopLevelCall */\n      dup1\n        /* \"@openzeppelin/contracts/proxy/utils/Initializable.sol\":3625:3724  if (isTopLevelCall) {... */\n      iszero\n      tag_144\n      jumpi\n        /* \"@openzeppelin/contracts/proxy/utils/Initializable.sol\":3675:3680  false */\n      0x00\n        /* \"@openzeppelin/contracts/proxy/utils/Initializable.sol\":3659:3680  _initializing = false */\n      dup1\n      sload\n      not(0xff00)\n      and\n      swap1\n      sstore\n        /* \"@openzeppelin/contracts/proxy/utils/Initializable.sol\":3699:3713  Initialized(1) */\n      mload(0x40)\n      0x01\n        /* \"#utility.yul\":8437:8473   */\n      dup2\n      mstore\n        /* \"@openzeppelin/contracts/proxy/utils/Initializable.sol\":3699:3713  Initialized(1) */\n      0x7f26b83ff96e1f2b6a682f133852f6798a09c465da95921460cefb3847402498\n      swap1\n        /* \"#utility.yul\":8425:8427   */\n      0x20\n        /* \"#utility.yul\":8410:8428   */\n      add\n        /* \"@openzeppelin/contracts/proxy/utils/Initializable.sol\":3699:3713  Initialized(1) */\n      mload(0x40)\n      dup1\n      swap2\n      sub\n      swap1\n      log1\n        /* \"@openzeppelin/contracts/proxy/utils/Initializable.sol\":3625:3724  if (isTopLevelCall) {... */\n    tag_144:\n        /* \"@openzeppelin/contracts/proxy/utils/Initializable.sol\":3258:3730  {... */\n      pop\n        /* \"src/SimpleAccount.sol\":2437:2578  function initialize(address anOwner, IEntryPoint anEntryPoint) public virtual initializer {... */\n      pop\n      pop\n      jump\t// out\n        /* \"src/SimpleAccount.sol\":4464:4604  function addDeposit() public payable {... */\n    tag_43:\n        /* \"src/SimpleAccount.sol\":4513:4521  bool req */\n      0x00\n        /* \"src/SimpleAccount.sol\":4534:4546  entryPoint() */\n      tag_148\n        /* \"src/SimpleAccount.sol\":1008:1019  _entryPoint */\n      and(sub(shl(0xa0, 0x01), 0x01), sload(0x02))\n      swap1\n        /* \"src/SimpleAccount.sol\":918:1026  function entryPoint() public view virtual override returns (IEntryPoint) {... */\n      jump\n        /* \"src/SimpleAccount.sol\":4534:4546  entryPoint() */\n    tag_148:\n      sub(shl(0xa0, 0x01), 0x01)\n        /* \"src/SimpleAccount.sol\":4526:4552  address(entryPoint()).call */\n      and\n        /* \"src/SimpleAccount.sol\":4561:4570  msg.value */\n      callvalue\n        /* \"src/SimpleAccount.sol\":4526:4575  address(entryPoint()).call{value : msg.value}(\"\") */\n      mload(0x40)\n      0x00\n      mload(0x40)\n      dup1\n      dup4\n      sub\n      dup2\n      dup6\n      dup8\n      gas\n      call\n      swap3\n      pop\n      pop\n      pop\n      returndatasize\n      dup1\n      0x00\n      dup2\n      eq\n      tag_153\n      jumpi\n      mload(0x40)\n      swap2\n      pop\n      and(add(returndatasize, 0x3f), not(0x1f))\n      dup3\n      add\n      0x40\n      mstore\n      returndatasize\n      dup3\n      mstore\n      returndatasize\n      0x00\n      0x20\n      dup5\n      add\n      returndatacopy\n      jump(tag_152)\n    tag_153:\n      0x60\n      swap2\n      pop\n    tag_152:\n      pop\n        /* \"src/SimpleAccount.sol\":4512:4575  (bool req,) = address(entryPoint()).call{value : msg.value}(\"\") */\n      pop\n      swap1\n      pop\n        /* \"src/SimpleAccount.sol\":4593:4596  req */\n      dup1\n        /* \"src/SimpleAccount.sol\":4585:4597  require(req) */\n      tag_125\n      jumpi\n      0x00\n      dup1\n      revert\n        /* \"src/SimpleAccount.sol\":4756:4914  function withdrawDepositTo(address payable withdrawAddress, uint256 amount) public onlyOwner {... */\n    tag_48:\n        /* \"src/SimpleAccount.sol\":1364:1376  _onlyOwner() */\n      tag_156\n        /* \"src/SimpleAccount.sol\":1364:1374  _onlyOwner */\n      tag_157\n        /* \"src/SimpleAccount.sol\":1364:1376  _onlyOwner() */\n      jump\t// in\n    tag_156:\n        /* \"src/SimpleAccount.sol\":1008:1019  _entryPoint */\n      and(sub(shl(0xa0, 0x01), 0x01), sload(0x02))\n        /* \"src/SimpleAccount.sol\":4859:4907  entryPoint().withdrawTo(withdrawAddress, amount) */\n      mload(0x40)\n      shl(0xe3, 0x040b850f)\n      dup2\n      mstore\n      sub(shl(0xa0, 0x01), 0x01)\n        /* \"#utility.yul\":8902:8934   */\n      dup5\n      dup2\n      and\n        /* \"src/SimpleAccount.sol\":4859:4907  entryPoint().withdrawTo(withdrawAddress, amount) */\n      0x04\n      dup4\n      add\n        /* \"#utility.yul\":8884:8935   */\n      mstore\n        /* \"#utility.yul\":8951:8969   */\n      0x24\n      dup3\n      add\n        /* \"#utility.yul\":8944:8978   */\n      dup5\n      swap1\n      mstore\n        /* \"src/SimpleAccount.sol\":4859:4882  entryPoint().withdrawTo */\n      swap2\n      swap1\n      swap2\n      and\n      swap1\n      0x205c2878\n      swap1\n        /* \"#utility.yul\":8857:8875   */\n      0x44\n      add\n        /* \"src/SimpleAccount.sol\":4859:4907  entryPoint().withdrawTo(withdrawAddress, amount) */\n      0x00\n      mload(0x40)\n      dup1\n      dup4\n      sub\n      dup2\n      0x00\n      dup8\n      dup1\n      extcodesize\n      iszero\n      dup1\n      iszero\n      tag_162\n      jumpi\n      0x00\n      dup1\n      revert\n    tag_162:\n      pop\n      gas\n      call\n      iszero\n      dup1\n      iszero\n      tag_164\n      jumpi\n      returndatasize\n      0x00\n      dup1\n      returndatacopy\n      revert(0x00, returndatasize)\n    tag_164:\n      pop\n      pop\n      pop\n      pop\n        /* \"src/SimpleAccount.sol\":4756:4914  function withdrawDepositTo(address payable withdrawAddress, uint256 amount) public onlyOwner {... */\n      pop\n      pop\n      jump\t// out\n        /* \"@openzeppelin/contracts/proxy/utils/UUPSUpgradeable.sol\":3657:3877  function upgradeToAndCall(address newImplementation, bytes memory data) public payable virtual onlyProxy {... */\n    tag_52:\n      sub(shl(0xa0, 0x01), 0x01)\n        /* \"@openzeppelin/contracts/proxy/utils/UUPSUpgradeable.sol\":1654:1660  __self */\n      immutable(\"0x26253e4b9754d7b70fa53c504adf7cef3bf444a45077af864d39a1233fe15035\")\n        /* \"@openzeppelin/contracts/proxy/utils/UUPSUpgradeable.sol\":1637:1660  address(this) != __self */\n      and\n        /* \"@openzeppelin/contracts/proxy/utils/UUPSUpgradeable.sol\":1645:1649  this */\n      address\n        /* \"@openzeppelin/contracts/proxy/utils/UUPSUpgradeable.sol\":1637:1660  address(this) != __self */\n      sub\n        /* \"@openzeppelin/contracts/proxy/utils/UUPSUpgradeable.sol\":1629:1709  require(address(this) != __self, \"Function must be called through delegatecall\") */\n      tag_166\n      jumpi\n      mload(0x40)\n      shl(0xe5, 0x461bcd)\n      dup2\n      mstore\n      0x04\n      add\n      tag_97\n      swap1\n      tag_116\n      jump\t// in\n    tag_166:\n        /* \"@openzeppelin/contracts/proxy/utils/UUPSUpgradeable.sol\":1751:1757  __self */\n      immutable(\"0x26253e4b9754d7b70fa53c504adf7cef3bf444a45077af864d39a1233fe15035\")\n      sub(shl(0xa0, 0x01), 0x01)\n        /* \"@openzeppelin/contracts/proxy/utils/UUPSUpgradeable.sol\":1727:1757  _getImplementation() == __self */\n      and\n        /* \"@openzeppelin/contracts/proxy/utils/UUPSUpgradeable.sol\":1727:1747  _getImplementation() */\n      tag_168\n      0x00\n      dup1\n      mload\n      0x20\n      data_75b20eef8615de99c108b05f0dbda081c91897128caa336d75dffb97c4132b4d\n      dup4\n      codecopy\n      dup2\n      mload\n      swap2\n      mstore\n        /* \"@openzeppelin/contracts/proxy/ERC1967/ERC1967Upgrade.sol\":1254:1308  StorageSlot.getAddressSlot(_IMPLEMENTATION_SLOT).value */\n      sload\n      sub(shl(0xa0, 0x01), 0x01)\n      and\n      swap1\n        /* \"@openzeppelin/contracts/proxy/ERC1967/ERC1967Upgrade.sol\":1175:1315  function _getImplementation() internal view returns (address) {... */\n      jump\n        /* \"@openzeppelin/contracts/proxy/utils/UUPSUpgradeable.sol\":1727:1747  _getImplementation() */\n    tag_168:\n      sub(shl(0xa0, 0x01), 0x01)\n        /* \"@openzeppelin/contracts/proxy/utils/UUPSUpgradeable.sol\":1727:1757  _getImplementation() == __self */\n      and\n      eq\n        /* \"@openzeppelin/contracts/proxy/utils/UUPSUpgradeable.sol\":1719:1806  require(_getImplementation() == __self, \"Function must be called through active proxy\") */\n      tag_169\n      jumpi\n      mload(0x40)\n      shl(0xe5, 0x461bcd)\n      dup2\n      mstore\n      0x04\n      add\n      tag_97\n      swap1\n      tag_121\n      jump\t// in\n    tag_169:\n        /* \"@openzeppelin/contracts/proxy/utils/UUPSUpgradeable.sol\":3772:3808  _authorizeUpgrade(newImplementation) */\n      tag_172\n        /* \"@openzeppelin/contracts/proxy/utils/UUPSUpgradeable.sol\":3790:3807  newImplementation */\n      dup3\n        /* \"@openzeppelin/contracts/proxy/utils/UUPSUpgradeable.sol\":3772:3789  _authorizeUpgrade */\n      tag_124\n        /* \"@openzeppelin/contracts/proxy/utils/UUPSUpgradeable.sol\":3772:3808  _authorizeUpgrade(newImplementation) */\n      jump\t// in\n    tag_172:\n        /* \"@openzeppelin/contracts/proxy/utils/UUPSUpgradeable.sol\":3818:3870  _upgradeToAndCallUUPS(newImplementation, data, true) */\n      tag_173\n        /* \"@openzeppelin/contracts/proxy/utils/UUPSUpgradeable.sol\":3840:3857  newImplementation */\n      dup3\n        /* \"@openzeppelin/contracts/proxy/utils/UUPSUpgradeable.sol\":3859:3863  data */\n      dup3\n        /* \"@openzeppelin/contracts/proxy/utils/UUPSUpgradeable.sol\":3865:3869  true */\n      0x01\n        /* \"@openzeppelin/contracts/proxy/utils/UUPSUpgradeable.sol\":3818:3839  _upgradeToAndCallUUPS */\n      tag_130\n        /* \"@openzeppelin/contracts/proxy/utils/UUPSUpgradeable.sol\":3818:3870  _upgradeToAndCallUUPS(newImplementation, data, true) */\n      jump\t// in\n    tag_173:\n        /* \"@openzeppelin/contracts/proxy/utils/UUPSUpgradeable.sol\":3657:3877  function upgradeToAndCall(address newImplementation, bytes memory data) public payable virtual onlyProxy {... */\n      pop\n      pop\n      jump\t// out\n        /* \"@openzeppelin/contracts/proxy/utils/UUPSUpgradeable.sol\":2762:2893  function proxiableUUID() external view virtual override notDelegated returns (bytes32) {... */\n    tag_55:\n        /* \"@openzeppelin/contracts/proxy/utils/UUPSUpgradeable.sol\":2840:2847  bytes32 */\n      0x00\n        /* \"@openzeppelin/contracts/proxy/utils/UUPSUpgradeable.sol\":2080:2084  this */\n      address\n      sub(shl(0xa0, 0x01), 0x01)\n        /* \"@openzeppelin/contracts/proxy/utils/UUPSUpgradeable.sol\":2089:2095  __self */\n      immutable(\"0x26253e4b9754d7b70fa53c504adf7cef3bf444a45077af864d39a1233fe15035\")\n        /* \"@openzeppelin/contracts/proxy/utils/UUPSUpgradeable.sol\":2072:2095  address(this) == __self */\n      and\n      eq\n        /* \"@openzeppelin/contracts/proxy/utils/UUPSUpgradeable.sol\":2064:2156  require(address(this) == __self, \"UUPSUpgradeable: must not be called through delegatecall\") */\n      tag_175\n      jumpi\n      mload(0x40)\n      shl(0xe5, 0x461bcd)\n      dup2\n      mstore\n        /* \"#utility.yul\":9191:9193   */\n      0x20\n        /* \"@openzeppelin/contracts/proxy/utils/UUPSUpgradeable.sol\":2064:2156  require(address(this) == __self, \"UUPSUpgradeable: must not be called through delegatecall\") */\n      0x04\n      dup3\n      add\n        /* \"#utility.yul\":9173:9194   */\n      mstore\n        /* \"#utility.yul\":9230:9232   */\n      0x38\n        /* \"#utility.yul\":9210:9228   */\n      0x24\n      dup3\n      add\n        /* \"#utility.yul\":9203:9233   */\n      mstore\n        /* \"#utility.yul\":9269:9303   */\n      0x555550535570677261646561626c653a206d757374206e6f742062652063616c\n        /* \"#utility.yul\":9249:9267   */\n      0x44\n      dup3\n      add\n        /* \"#utility.yul\":9242:9304   */\n      mstore\n        /* \"#utility.yul\":9340:9366   */\n      0x6c6564207468726f7567682064656c656761746563616c6c0000000000000000\n        /* \"#utility.yul\":9320:9338   */\n      0x64\n      dup3\n      add\n        /* \"#utility.yul\":9313:9367   */\n      mstore\n        /* \"#utility.yul\":9384:9403   */\n      0x84\n      add\n        /* \"@openzeppelin/contracts/proxy/utils/UUPSUpgradeable.sol\":2064:2156  require(address(this) == __self, \"UUPSUpgradeable: must not be called through delegatecall\") */\n      tag_97\n        /* \"#utility.yul\":8989:9409   */\n      jump\n        /* \"@openzeppelin/contracts/proxy/utils/UUPSUpgradeable.sol\":2064:2156  require(address(this) == __self, \"UUPSUpgradeable: must not be called through delegatecall\") */\n    tag_175:\n      pop\n      0x00\n      dup1\n      mload\n      0x20\n      data_75b20eef8615de99c108b05f0dbda081c91897128caa336d75dffb97c4132b4d\n      dup4\n      codecopy\n      dup2\n      mload\n      swap2\n      mstore\n        /* \"@openzeppelin/contracts/proxy/utils/UUPSUpgradeable.sol\":2762:2893  function proxiableUUID() external view virtual override notDelegated returns (bytes32) {... */\n      swap1\n      jump\t// out\n        /* \"src/SimpleAccount.sol\":1737:1895  function execute(address dest, uint256 value, bytes calldata func) external {... */\n    tag_76:\n        /* \"src/SimpleAccount.sol\":1823:1854  _requireFromEntryPointOrOwner() */\n      tag_182\n        /* \"src/SimpleAccount.sol\":1823:1852  _requireFromEntryPointOrOwner */\n      tag_95\n        /* \"src/SimpleAccount.sol\":1823:1854  _requireFromEntryPointOrOwner() */\n      jump\t// in\n    tag_182:\n        /* \"src/SimpleAccount.sol\":1864:1888  _call(dest, value, func) */\n      tag_183\n        /* \"src/SimpleAccount.sol\":1870:1874  dest */\n      dup5\n        /* \"src/SimpleAccount.sol\":1876:1881  value */\n      dup5\n        /* \"src/SimpleAccount.sol\":1883:1887  func */\n      dup5\n      dup5\n        /* \"src/SimpleAccount.sol\":1864:1888  _call(dest, value, func) */\n      dup1\n      dup1\n      0x1f\n      add\n      0x20\n      dup1\n      swap2\n      div\n      mul\n      0x20\n      add\n      mload(0x40)\n      swap1\n      dup2\n      add\n      0x40\n      mstore\n      dup1\n      swap4\n      swap3\n      swap2\n      swap1\n      dup2\n      dup2\n      mstore\n      0x20\n      add\n      dup4\n      dup4\n      dup1\n      dup3\n      dup5\n      calldatacopy\n      0x00\n      swap3\n      add\n      swap2\n      swap1\n      swap2\n      mstore\n      pop\n        /* \"src/SimpleAccount.sol\":1864:1869  _call */\n      tag_110\n      swap3\n      pop\n      pop\n      pop\n        /* \"src/SimpleAccount.sol\":1864:1888  _call(dest, value, func) */\n      jump\t// in\n    tag_183:\n        /* \"src/SimpleAccount.sol\":1737:1895  function execute(address dest, uint256 value, bytes calldata func) external {... */\n      pop\n      pop\n      pop\n      pop\n      jump\t// out\n        /* \"src/SimpleAccount.sol\":4268:4381  function getDeposit() public view returns (uint256) {... */\n    tag_79:\n        /* \"src/SimpleAccount.sol\":4311:4318  uint256 */\n      0x00\n        /* \"src/SimpleAccount.sol\":4337:4349  entryPoint() */\n      tag_185\n        /* \"src/SimpleAccount.sol\":1008:1019  _entryPoint */\n      and(sub(shl(0xa0, 0x01), 0x01), sload(0x02))\n      swap1\n        /* \"src/SimpleAccount.sol\":918:1026  function entryPoint() public view virtual override returns (IEntryPoint) {... */\n      jump\n        /* \"src/SimpleAccount.sol\":4337:4349  entryPoint() */\n    tag_185:\n        /* \"src/SimpleAccount.sol\":4337:4374  entryPoint().balanceOf(address(this)) */\n      mload(0x40)\n      shl(0xe0, 0x70a08231)\n      dup2\n      mstore\n        /* \"src/SimpleAccount.sol\":4368:4372  this */\n      address\n        /* \"src/SimpleAccount.sol\":4337:4374  entryPoint().balanceOf(address(this)) */\n      0x04\n      dup3\n      add\n        /* \"#utility.yul\":4677:4728   */\n      mstore\n      sub(shl(0xa0, 0x01), 0x01)\n        /* \"src/SimpleAccount.sol\":4337:4359  entryPoint().balanceOf */\n      swap2\n      swap1\n      swap2\n      and\n      swap1\n      0x70a08231\n      swap1\n        /* \"#utility.yul\":4650:4668   */\n      0x24\n      add\n        /* \"src/SimpleAccount.sol\":4337:4374  entryPoint().balanceOf(address(this)) */\n      0x20\n      mload(0x40)\n      dup1\n      dup4\n      sub\n      dup2\n      dup7\n      gas\n      staticcall\n      iszero\n      dup1\n      iszero\n      tag_188\n      jumpi\n      returndatasize\n      0x00\n      dup1\n      returndatacopy\n      revert(0x00, returndatasize)\n    tag_188:\n      pop\n      pop\n      pop\n      pop\n      mload(0x40)\n      returndatasize\n      not(0x1f)\n      0x1f\n      dup3\n      add\n      and\n      dup3\n      add\n      dup1\n      0x40\n      mstore\n      pop\n      dup2\n      add\n      swap1\n      tag_189\n      swap2\n      swap1\n      tag_190\n      jump\t// in\n    tag_189:\n        /* \"src/SimpleAccount.sol\":4330:4374  return entryPoint().balanceOf(address(this)) */\n      swap1\n      pop\n        /* \"src/SimpleAccount.sol\":4268:4381  function getDeposit() public view returns (uint256) {... */\n      swap1\n      jump\t// out\n        /* \"src/BaseAccount.sol\":2486:2635  function _requireFromEntryPoint() internal virtual view {... */\n    tag_83:\n        /* \"src/SimpleAccount.sol\":1008:1019  _entryPoint */\n      and(sub(shl(0xa0, 0x01), 0x01), sload(0x02))\n        /* \"src/BaseAccount.sol\":2560:2570  msg.sender */\n      caller\n        /* \"src/BaseAccount.sol\":2560:2595  msg.sender == address(entryPoint()) */\n      eq\n        /* \"src/BaseAccount.sol\":2552:2628  require(msg.sender == address(entryPoint()), \"account: not from EntryPoint\") */\n      tag_193\n      jumpi\n      mload(0x40)\n      shl(0xe5, 0x461bcd)\n      dup2\n      mstore\n        /* \"#utility.yul\":9805:9807   */\n      0x20\n        /* \"src/BaseAccount.sol\":2552:2628  require(msg.sender == address(entryPoint()), \"account: not from EntryPoint\") */\n      0x04\n      dup3\n      add\n        /* \"#utility.yul\":9787:9808   */\n      mstore\n        /* \"#utility.yul\":9844:9846   */\n      0x1c\n        /* \"#utility.yul\":9824:9842   */\n      0x24\n      dup3\n      add\n        /* \"#utility.yul\":9817:9847   */\n      mstore\n        /* \"#utility.yul\":9883:9913   */\n      0x6163636f756e743a206e6f742066726f6d20456e747279506f696e7400000000\n        /* \"#utility.yul\":9863:9881   */\n      0x44\n      dup3\n      add\n        /* \"#utility.yul\":9856:9914   */\n      mstore\n        /* \"#utility.yul\":9931:9949   */\n      0x64\n      add\n        /* \"src/BaseAccount.sol\":2552:2628  require(msg.sender == address(entryPoint()), \"account: not from EntryPoint\") */\n      tag_97\n        /* \"#utility.yul\":9603:9955   */\n      jump\n        /* \"src/BaseAccount.sol\":2552:2628  require(msg.sender == address(entryPoint()), \"account: not from EntryPoint\") */\n    tag_193:\n        /* \"src/BaseAccount.sol\":2486:2635  function _requireFromEntryPoint() internal virtual view {... */\n      jump\t// out\n        /* \"src/SimpleAccount.sol\":3569:3898  function _validateSignature(UserOperation calldata userOp, bytes32 userOpHash, address)... */\n    tag_85:\n        /* \"@openzeppelin/contracts/utils/cryptography/ECDSA.sol\":7389:7423  \"\\x19Ethereum Signed Message:\\n32\" */\n      0x19457468657265756d205369676e6564204d6573736167653a0a333200000000\n        /* \"src/SimpleAccount.sol\":3696:3716  uint256 sigTimeRange */\n      0x00\n        /* \"@openzeppelin/contracts/utils/cryptography/ECDSA.sol\":7376:7424  mstore(0x00, \"\\x19Ethereum Signed Message:\\n32\") */\n      swap1\n      dup2\n      mstore\n        /* \"@openzeppelin/contracts/utils/cryptography/ECDSA.sol\":7444:7448  0x1c */\n      0x1c\n        /* \"@openzeppelin/contracts/utils/cryptography/ECDSA.sol\":7437:7455  mstore(0x1c, hash) */\n      dup4\n      swap1\n      mstore\n        /* \"@openzeppelin/contracts/utils/cryptography/ECDSA.sol\":7495:7499  0x3c */\n      0x3c\n        /* \"@openzeppelin/contracts/utils/cryptography/ECDSA.sol\":7479:7500  keccak256(0x00, 0x3c) */\n      dup2\n      keccak256\n        /* \"src/SimpleAccount.sol\":3801:3831  hash.recover(userOp.signature) */\n      tag_199\n        /* \"src/SimpleAccount.sol\":3814:3830  userOp.signature */\n      tag_200\n      0x0140\n      dup8\n      add\n        /* \"src/SimpleAccount.sol\":3814:3820  userOp */\n      dup8\n        /* \"src/SimpleAccount.sol\":3814:3830  userOp.signature */\n      tag_87\n      jump\t// in\n    tag_200:\n        /* \"src/SimpleAccount.sol\":3801:3831  hash.recover(userOp.signature) */\n      dup1\n      dup1\n      0x1f\n      add\n      0x20\n      dup1\n      swap2\n      div\n      mul\n      0x20\n      add\n      mload(0x40)\n      swap1\n      dup2\n      add\n      0x40\n      mstore\n      dup1\n      swap4\n      swap3\n      swap2\n      swap1\n      dup2\n      dup2\n      mstore\n      0x20\n      add\n      dup4\n      dup4\n      dup1\n      dup3\n      dup5\n      calldatacopy\n      0x00\n      swap3\n      add\n      swap2\n      swap1\n      swap2\n      mstore\n      pop\n        /* \"src/SimpleAccount.sol\":3801:3805  hash */\n      dup6\n      swap4\n        /* \"src/SimpleAccount.sol\":3801:3831  hash.recover(userOp.signature) */\n      swap3\n      pop\n      pop\n        /* \"src/SimpleAccount.sol\":3801:3813  hash.recover */\n      tag_201\n        /* \"src/SimpleAccount.sol\":3801:3831  hash.recover(userOp.signature) */\n      swap1\n      pop\n      jump\t// in\n    tag_199:\n        /* \"src/SimpleAccount.sol\":3792:3797  owner */\n      sload(0x01)\n      sub(shl(0xa0, 0x01), 0x01)\n      swap1\n      dup2\n      and\n        /* \"src/SimpleAccount.sol\":3792:3831  owner != hash.recover(userOp.signature) */\n      swap2\n      and\n      eq\n        /* \"src/SimpleAccount.sol\":3788:3873  if (owner != hash.recover(userOp.signature))... */\n      tag_202\n      jumpi\n        /* \"src/BaseAccount.sol\":756:757  1 */\n      0x01\n        /* \"src/SimpleAccount.sol\":3845:3873  return SIG_VALIDATION_FAILED */\n      swap2\n      pop\n      pop\n      jump(tag_196)\n        /* \"src/SimpleAccount.sol\":3788:3873  if (owner != hash.recover(userOp.signature))... */\n    tag_202:\n        /* \"src/SimpleAccount.sol\":3890:3891  0 */\n      0x00\n        /* \"src/SimpleAccount.sol\":3883:3891  return 0 */\n      swap2\n      pop\n      pop\n        /* \"src/SimpleAccount.sol\":3569:3898  function _validateSignature(UserOperation calldata userOp, bytes32 userOpHash, address)... */\n    tag_196:\n      swap4\n      swap3\n      pop\n      pop\n      pop\n      jump\t// out\n        /* \"src/SimpleAccount.sol\":3356:3514  function _validateAndUpdateNonce(UserOperation calldata userOp) internal override {... */\n    tag_90:\n        /* \"src/SimpleAccount.sol\":3456:3462  _nonce */\n      0x00\n        /* \"src/SimpleAccount.sol\":3456:3464  _nonce++ */\n      dup1\n      sload\n        /* \"src/SimpleAccount.sol\":3468:3480  userOp.nonce */\n      0x20\n      dup4\n      add\n      calldataload\n      swap2\n        /* \"src/SimpleAccount.sol\":3456:3464  _nonce++ */\n      0x010000\n      swap1\n      swap2\n      div\n      sub(shl(0x60, 0x01), 0x01)\n      and\n      swap1\n        /* \"src/SimpleAccount.sol\":3456:3462  _nonce */\n      0x02\n        /* \"src/SimpleAccount.sol\":3456:3464  _nonce++ */\n      tag_204\n      dup4\n      tag_205\n      jump\t// in\n    tag_204:\n      swap2\n      swap1\n      0x0100\n      exp\n      dup2\n      sload\n      dup2\n      sub(shl(0x60, 0x01), 0x01)\n      mul\n      not\n      and\n      swap1\n      dup4\n      sub(shl(0x60, 0x01), 0x01)\n      and\n      mul\n      or\n      swap1\n      sstore\n      pop\n      sub(shl(0x60, 0x01), 0x01)\n        /* \"src/SimpleAccount.sol\":3456:3480  _nonce++ == userOp.nonce */\n      and\n      eq\n        /* \"src/SimpleAccount.sol\":3448:3507  require(_nonce++ == userOp.nonce, \"account: invalid nonce\") */\n      tag_125\n      jumpi\n      mload(0x40)\n      shl(0xe5, 0x461bcd)\n      dup2\n      mstore\n        /* \"#utility.yul\":10384:10386   */\n      0x20\n        /* \"src/SimpleAccount.sol\":3448:3507  require(_nonce++ == userOp.nonce, \"account: invalid nonce\") */\n      0x04\n      dup3\n      add\n        /* \"#utility.yul\":10366:10387   */\n      mstore\n        /* \"#utility.yul\":10423:10425   */\n      0x16\n        /* \"#utility.yul\":10403:10421   */\n      0x24\n      dup3\n      add\n        /* \"#utility.yul\":10396:10426   */\n      mstore\n      shl(0x50, 0x6163636f756e743a20696e76616c6964206e6f6e6365)\n        /* \"#utility.yul\":10442:10460   */\n      0x44\n      dup3\n      add\n        /* \"#utility.yul\":10435:10487   */\n      mstore\n        /* \"#utility.yul\":10504:10522   */\n      0x64\n      add\n        /* \"src/SimpleAccount.sol\":3448:3507  require(_nonce++ == userOp.nonce, \"account: invalid nonce\") */\n      tag_97\n        /* \"#utility.yul\":10182:10528   */\n      jump\n        /* \"src/BaseAccount.sol\":4641:4978  function _payPrefund(uint256 missingAccountFunds) internal virtual {... */\n    tag_92:\n        /* \"src/BaseAccount.sol\":4722:4746  missingAccountFunds != 0 */\n      dup1\n      iszero\n        /* \"src/BaseAccount.sol\":4718:4972  if (missingAccountFunds != 0) {... */\n      tag_125\n      jumpi\n        /* \"src/BaseAccount.sol\":4780:4862  payable(msg.sender).call{value : missingAccountFunds, gas : type(uint256).max}(\"\") */\n      mload(0x40)\n        /* \"src/BaseAccount.sol\":4763:4775  bool success */\n      0x00\n      swap1\n        /* \"src/BaseAccount.sol\":4788:4798  msg.sender */\n      caller\n      swap1\n      not(0x00)\n        /* \"src/BaseAccount.sol\":4840:4857  type(uint256).max */\n      swap1\n        /* \"src/BaseAccount.sol\":4813:4832  missingAccountFunds */\n      dup5\n      swap1\n        /* \"src/BaseAccount.sol\":4763:4775  bool success */\n      dup5\n        /* \"src/BaseAccount.sol\":4780:4862  payable(msg.sender).call{value : missingAccountFunds, gas : type(uint256).max}(\"\") */\n      dup2\n        /* \"src/BaseAccount.sol\":4763:4775  bool success */\n      dup2\n        /* \"src/BaseAccount.sol\":4780:4862  payable(msg.sender).call{value : missingAccountFunds, gas : type(uint256).max}(\"\") */\n      dup2\n        /* \"src/BaseAccount.sol\":4813:4832  missingAccountFunds */\n      dup6\n        /* \"src/BaseAccount.sol\":4788:4798  msg.sender */\n      dup9\n        /* \"src/BaseAccount.sol\":4840:4857  type(uint256).max */\n      dup9\n        /* \"src/BaseAccount.sol\":4780:4862  payable(msg.sender).call{value : missingAccountFunds, gas : type(uint256).max}(\"\") */\n      call\n      swap4\n      pop\n      pop\n      pop\n      pop\n      returndatasize\n      dup1\n      0x00\n      dup2\n      eq\n      tag_100\n      jumpi\n      mload(0x40)\n      swap2\n      pop\n      and(add(returndatasize, 0x3f), not(0x1f))\n      dup3\n      add\n      0x40\n      mstore\n      returndatasize\n      dup3\n      mstore\n      returndatasize\n      0x00\n      0x20\n      dup5\n      add\n      returndatacopy\n      jump(tag_100)\n        /* \"src/SimpleAccount.sol\":3126:3301  function _requireFromEntryPointOrOwner() internal view {... */\n    tag_95:\n        /* \"src/SimpleAccount.sol\":1008:1019  _entryPoint */\n      and(sub(shl(0xa0, 0x01), 0x01), sload(0x02))\n        /* \"src/SimpleAccount.sol\":3199:3209  msg.sender */\n      caller\n        /* \"src/SimpleAccount.sol\":3199:3234  msg.sender == address(entryPoint()) */\n      eq\n      dup1\n        /* \"src/SimpleAccount.sol\":3199:3257  msg.sender == address(entryPoint()) || msg.sender == owner */\n      tag_217\n      jumpi\n      pop\n        /* \"src/SimpleAccount.sol\":3252:3257  owner */\n      and(sub(shl(0xa0, 0x01), 0x01), sload(0x01))\n        /* \"src/SimpleAccount.sol\":3238:3248  msg.sender */\n      caller\n        /* \"src/SimpleAccount.sol\":3238:3257  msg.sender == owner */\n      eq\n        /* \"src/SimpleAccount.sol\":3199:3257  msg.sender == address(entryPoint()) || msg.sender == owner */\n    tag_217:\n        /* \"src/SimpleAccount.sol\":3191:3294  require(msg.sender == address(entryPoint()) || msg.sender == owner, \"account: not Owner or EntryPoint\") */\n      tag_193\n      jumpi\n      mload(0x40)\n      shl(0xe5, 0x461bcd)\n      dup2\n      mstore\n        /* \"#utility.yul\":10735:10737   */\n      0x20\n        /* \"src/SimpleAccount.sol\":3191:3294  require(msg.sender == address(entryPoint()) || msg.sender == owner, \"account: not Owner or EntryPoint\") */\n      0x04\n      dup3\n      add\n        /* \"#utility.yul\":10717:10738   */\n      dup2\n      swap1\n      mstore\n        /* \"#utility.yul\":10754:10772   */\n      0x24\n      dup3\n      add\n        /* \"#utility.yul\":10747:10777   */\n      mstore\n        /* \"#utility.yul\":10813:10847   */\n      0x6163636f756e743a206e6f74204f776e6572206f7220456e747279506f696e74\n        /* \"#utility.yul\":10793:10811   */\n      0x44\n      dup3\n      add\n        /* \"#utility.yul\":10786:10848   */\n      mstore\n        /* \"#utility.yul\":10865:10883   */\n      0x64\n      add\n        /* \"src/SimpleAccount.sol\":3191:3294  require(msg.sender == address(entryPoint()) || msg.sender == owner, \"account: not Owner or EntryPoint\") */\n      tag_97\n        /* \"#utility.yul\":10533:10889   */\n      jump\n        /* \"src/SimpleAccount.sol\":3904:4191  function _call(address target, uint256 value, bytes memory data) internal {... */\n    tag_110:\n        /* \"src/SimpleAccount.sol\":3989:4001  bool success */\n      0x00\n        /* \"src/SimpleAccount.sol\":4003:4022  bytes memory result */\n      dup1\n        /* \"src/SimpleAccount.sol\":4026:4032  target */\n      dup5\n      sub(shl(0xa0, 0x01), 0x01)\n        /* \"src/SimpleAccount.sol\":4026:4037  target.call */\n      and\n        /* \"src/SimpleAccount.sol\":4046:4051  value */\n      dup5\n        /* \"src/SimpleAccount.sol\":4053:4057  data */\n      dup5\n        /* \"src/SimpleAccount.sol\":4026:4058  target.call{value : value}(data) */\n      mload(0x40)\n      tag_222\n      swap2\n      swap1\n      tag_223\n      jump\t// in\n    tag_222:\n      0x00\n      mload(0x40)\n      dup1\n      dup4\n      sub\n      dup2\n      dup6\n      dup8\n      gas\n      call\n      swap3\n      pop\n      pop\n      pop\n      returndatasize\n      dup1\n      0x00\n      dup2\n      eq\n      tag_226\n      jumpi\n      mload(0x40)\n      swap2\n      pop\n      and(add(returndatasize, 0x3f), not(0x1f))\n      dup3\n      add\n      0x40\n      mstore\n      returndatasize\n      dup3\n      mstore\n      returndatasize\n      0x00\n      0x20\n      dup5\n      add\n      returndatacopy\n      jump(tag_225)\n    tag_226:\n      0x60\n      swap2\n      pop\n    tag_225:\n      pop\n        /* \"src/SimpleAccount.sol\":3988:4058  (bool success, bytes memory result) = target.call{value : value}(data) */\n      swap2\n      pop\n      swap2\n      pop\n        /* \"src/SimpleAccount.sol\":4073:4080  success */\n      dup2\n        /* \"src/SimpleAccount.sol\":4068:4185  if (!success) {... */\n      tag_100\n      jumpi\n        /* \"src/SimpleAccount.sol\":4153:4159  result */\n      dup1\n        /* \"src/SimpleAccount.sol\":4147:4160  mload(result) */\n      mload\n        /* \"src/SimpleAccount.sol\":4142:4144  32 */\n      0x20\n        /* \"src/SimpleAccount.sol\":4134:4140  result */\n      dup3\n        /* \"src/SimpleAccount.sol\":4130:4145  add(result, 32) */\n      add\n        /* \"src/SimpleAccount.sol\":4123:4161  revert(add(result, 32), mload(result)) */\n      revert\n        /* \"src/SimpleAccount.sol\":4920:5055  function _authorizeUpgrade(address newImplementation) internal view override {... */\n    tag_124:\n        /* \"src/SimpleAccount.sol\":5036:5048  _onlyOwner() */\n      tag_125\n        /* \"src/SimpleAccount.sol\":5036:5046  _onlyOwner */\n      tag_157\n        /* \"src/SimpleAccount.sol\":5036:5048  _onlyOwner() */\n      jump\t// in\n        /* \"@openzeppelin/contracts/proxy/ERC1967/ERC1967Upgrade.sol\":2494:3416  function _upgradeToAndCallUUPS(address newImplementation, bytes memory data, bool forceCall) internal {... */\n    tag_130:\n        /* \"@openzeppelin/contracts/proxy/ERC1967/ERC1967Upgrade.sol\":689:755  0x4910fdfa16fed3260ed0e7147f7cc6da11a60208b5b9406d12a635614ffd9143 */\n      0x4910fdfa16fed3260ed0e7147f7cc6da11a60208b5b9406d12a635614ffd9143\n        /* \"@openzeppelin/contracts/proxy/ERC1967/ERC1967Upgrade.sol\":2910:2958  StorageSlot.getBooleanSlot(_ROLLBACK_SLOT).value */\n      sload\n      0xff\n      and\n        /* \"@openzeppelin/contracts/proxy/ERC1967/ERC1967Upgrade.sol\":2906:3410  if (StorageSlot.getBooleanSlot(_ROLLBACK_SLOT).value) {... */\n      iszero\n      tag_236\n      jumpi\n        /* \"@openzeppelin/contracts/proxy/ERC1967/ERC1967Upgrade.sol\":2974:3011  _setImplementation(newImplementation) */\n      tag_144\n        /* \"@openzeppelin/contracts/proxy/ERC1967/ERC1967Upgrade.sol\":2993:3010  newImplementation */\n      dup4\n        /* \"@openzeppelin/contracts/proxy/ERC1967/ERC1967Upgrade.sol\":2974:2992  _setImplementation */\n      tag_238\n        /* \"@openzeppelin/contracts/proxy/ERC1967/ERC1967Upgrade.sol\":2974:3011  _setImplementation(newImplementation) */\n      jump\t// in\n        /* \"@openzeppelin/contracts/proxy/ERC1967/ERC1967Upgrade.sol\":2906:3410  if (StorageSlot.getBooleanSlot(_ROLLBACK_SLOT).value) {... */\n    tag_236:\n        /* \"@openzeppelin/contracts/proxy/ERC1967/ERC1967Upgrade.sol\":3064:3081  newImplementation */\n      dup3\n      sub(shl(0xa0, 0x01), 0x01)\n        /* \"@openzeppelin/contracts/proxy/ERC1967/ERC1967Upgrade.sol\":3046:3096  IERC1822Proxiable(newImplementation).proxiableUUID */\n      and\n      0x52d1902d\n        /* \"@openzeppelin/contracts/proxy/ERC1967/ERC1967Upgrade.sol\":3046:3098  IERC1822Proxiable(newImplementation).proxiableUUID() */\n      mload(0x40)\n      dup2\n      0xffffffff\n      and\n      0xe0\n      shl\n      dup2\n      mstore\n      0x04\n      add\n      0x20\n      mload(0x40)\n      dup1\n      dup4\n      sub\n      dup2\n      dup7\n      gas\n      staticcall\n      swap3\n      pop\n      pop\n      pop\n      dup1\n      iszero\n      tag_240\n      jumpi\n      pop\n      0x40\n      dup1\n      mload\n      0x1f\n      returndatasize\n      swap1\n      dup2\n      add\n      not(0x1f)\n      and\n      dup3\n      add\n      swap1\n      swap3\n      mstore\n      tag_241\n      swap2\n      dup2\n      add\n      swap1\n      tag_190\n      jump\t// in\n    tag_241:\n      0x01\n    tag_240:\n        /* \"@openzeppelin/contracts/proxy/ERC1967/ERC1967Upgrade.sol\":3042:3333  try IERC1822Proxiable(newImplementation).proxiableUUID() returns (bytes32 slot) {... */\n      tag_243\n      jumpi\n        /* \"@openzeppelin/contracts/proxy/ERC1967/ERC1967Upgrade.sol\":3262:3318  revert(\"ERC1967Upgrade: new implementation is not UUPS\") */\n      mload(0x40)\n      shl(0xe5, 0x461bcd)\n      dup2\n      mstore\n        /* \"#utility.yul\":11832:11834   */\n      0x20\n        /* \"@openzeppelin/contracts/proxy/ERC1967/ERC1967Upgrade.sol\":3262:3318  revert(\"ERC1967Upgrade: new implementation is not UUPS\") */\n      0x04\n      dup3\n      add\n        /* \"#utility.yul\":11814:11835   */\n      mstore\n        /* \"#utility.yul\":11871:11873   */\n      0x2e\n        /* \"#utility.yul\":11851:11869   */\n      0x24\n      dup3\n      add\n        /* \"#utility.yul\":11844:11874   */\n      mstore\n        /* \"#utility.yul\":11910:11944   */\n      0x45524331393637557067726164653a206e657720696d706c656d656e74617469\n        /* \"#utility.yul\":11890:11908   */\n      0x44\n      dup3\n      add\n        /* \"#utility.yul\":11883:11945   */\n      mstore\n      shl(0x90, 0x6f6e206973206e6f742055555053)\n        /* \"#utility.yul\":11961:11979   */\n      0x64\n      dup3\n      add\n        /* \"#utility.yul\":11954:11998   */\n      mstore\n        /* \"#utility.yul\":12015:12034   */\n      0x84\n      add\n        /* \"@openzeppelin/contracts/proxy/ERC1967/ERC1967Upgrade.sol\":3262:3318  revert(\"ERC1967Upgrade: new implementation is not UUPS\") */\n      tag_97\n        /* \"#utility.yul\":11630:12040   */\n      jump\n        /* \"@openzeppelin/contracts/proxy/ERC1967/ERC1967Upgrade.sol\":3042:3333  try IERC1822Proxiable(newImplementation).proxiableUUID() returns (bytes32 slot) {... */\n    tag_243:\n      0x00\n      dup1\n      mload\n      0x20\n      data_75b20eef8615de99c108b05f0dbda081c91897128caa336d75dffb97c4132b4d\n      dup4\n      codecopy\n      dup2\n      mload\n      swap2\n      mstore\n        /* \"@openzeppelin/contracts/proxy/ERC1967/ERC1967Upgrade.sol\":3148:3176  slot == _IMPLEMENTATION_SLOT */\n      dup2\n      eq\n        /* \"@openzeppelin/contracts/proxy/ERC1967/ERC1967Upgrade.sol\":3140:3222  require(slot == _IMPLEMENTATION_SLOT, \"ERC1967Upgrade: unsupported proxiableUUID\") */\n      tag_250\n      jumpi\n      mload(0x40)\n      shl(0xe5, 0x461bcd)\n      dup2\n      mstore\n        /* \"#utility.yul\":12247:12249   */\n      0x20\n        /* \"@openzeppelin/contracts/proxy/ERC1967/ERC1967Upgrade.sol\":3140:3222  require(slot == _IMPLEMENTATION_SLOT, \"ERC1967Upgrade: unsupported proxiableUUID\") */\n      0x04\n      dup3\n      add\n        /* \"#utility.yul\":12229:12250   */\n      mstore\n        /* \"#utility.yul\":12286:12288   */\n      0x29\n        /* \"#utility.yul\":12266:12284   */\n      0x24\n      dup3\n      add\n        /* \"#utility.yul\":12259:12289   */\n      mstore\n        /* \"#utility.yul\":12325:12359   */\n      0x45524331393637557067726164653a20756e737570706f727465642070726f78\n        /* \"#utility.yul\":12305:12323   */\n      0x44\n      dup3\n      add\n        /* \"#utility.yul\":12298:12360   */\n      mstore\n      shl(0xba, 0x1a58589b1955555251)\n        /* \"#utility.yul\":12376:12394   */\n      0x64\n      dup3\n      add\n        /* \"#utility.yul\":12369:12408   */\n      mstore\n        /* \"#utility.yul\":12425:12444   */\n      0x84\n      add\n        /* \"@openzeppelin/contracts/proxy/ERC1967/ERC1967Upgrade.sol\":3140:3222  require(slot == _IMPLEMENTATION_SLOT, \"ERC1967Upgrade: unsupported proxiableUUID\") */\n      tag_97\n        /* \"#utility.yul\":12045:12450   */\n      jump\n        /* \"@openzeppelin/contracts/proxy/ERC1967/ERC1967Upgrade.sol\":3140:3222  require(slot == _IMPLEMENTATION_SLOT, \"ERC1967Upgrade: unsupported proxiableUUID\") */\n    tag_250:\n        /* \"@openzeppelin/contracts/proxy/ERC1967/ERC1967Upgrade.sol\":3099:3237  returns (bytes32 slot) {... */\n      pop\n        /* \"@openzeppelin/contracts/proxy/ERC1967/ERC1967Upgrade.sol\":3346:3399  _upgradeToAndCall(newImplementation, data, forceCall) */\n      tag_144\n        /* \"@openzeppelin/contracts/proxy/ERC1967/ERC1967Upgrade.sol\":3364:3381  newImplementation */\n      dup4\n        /* \"@openzeppelin/contracts/proxy/ERC1967/ERC1967Upgrade.sol\":3383:3387  data */\n      dup4\n        /* \"@openzeppelin/contracts/proxy/ERC1967/ERC1967Upgrade.sol\":3389:3398  forceCall */\n      dup4\n        /* \"@openzeppelin/contracts/proxy/ERC1967/ERC1967Upgrade.sol\":3346:3363  _upgradeToAndCall */\n      tag_254\n        /* \"@openzeppelin/contracts/proxy/ERC1967/ERC1967Upgrade.sol\":3346:3399  _upgradeToAndCall(newImplementation, data, forceCall) */\n      jump\t// in\n        /* \"src/SimpleAccount.sol\":2584:2792  function _initialize(address anOwner, IEntryPoint anEntryPoint) internal virtual {... */\n    tag_143:\n        /* \"src/SimpleAccount.sol\":2675:2680  owner */\n      0x01\n        /* \"src/SimpleAccount.sol\":2675:2690  owner = anOwner */\n      dup1\n      sload\n      sub(shl(0xa0, 0x01), 0x01)\n      dup1\n      dup6\n      and\n      not(sub(shl(0xa0, 0x01), 0x01))\n      swap3\n      dup4\n      and\n      dup2\n      or\n      swap1\n      swap4\n      sstore\n        /* \"src/SimpleAccount.sol\":2700:2711  _entryPoint */\n      0x02\n        /* \"src/SimpleAccount.sol\":2700:2726  _entryPoint = anEntryPoint */\n      dup1\n      sload\n      swap2\n      dup6\n      and\n      swap2\n      swap1\n      swap3\n      and\n      dup2\n      or\n      swap1\n      swap2\n      sstore\n        /* \"src/SimpleAccount.sol\":2741:2785  SimpleAccountInitialized(_entryPoint, owner) */\n      mload(0x40)\n      0x47e55c76e7a6f1fd8996a1da8008c1ea29699cca35e7bcd057f2dec313b6e5de\n      swap1\n        /* \"src/SimpleAccount.sol\":2675:2680  owner */\n      0x00\n      swap1\n        /* \"src/SimpleAccount.sol\":2741:2785  SimpleAccountInitialized(_entryPoint, owner) */\n      log3\n        /* \"src/SimpleAccount.sol\":2584:2792  function _initialize(address anOwner, IEntryPoint anEntryPoint) internal virtual {... */\n      pop\n      pop\n      jump\t// out\n        /* \"src/SimpleAccount.sol\":1400:1638  function _onlyOwner() internal view {... */\n    tag_157:\n        /* \"src/SimpleAccount.sol\":1580:1585  owner */\n      and(sub(shl(0xa0, 0x01), 0x01), sload(0x01))\n        /* \"src/SimpleAccount.sol\":1566:1576  msg.sender */\n      caller\n        /* \"src/SimpleAccount.sol\":1566:1585  msg.sender == owner */\n      eq\n      dup1\n        /* \"src/SimpleAccount.sol\":1566:1616  msg.sender == owner || msg.sender == address(this) */\n      tag_258\n      jumpi\n      pop\n        /* \"src/SimpleAccount.sol\":1589:1599  msg.sender */\n      caller\n        /* \"src/SimpleAccount.sol\":1611:1615  this */\n      address\n        /* \"src/SimpleAccount.sol\":1589:1616  msg.sender == address(this) */\n      eq\n        /* \"src/SimpleAccount.sol\":1566:1616  msg.sender == owner || msg.sender == address(this) */\n    tag_258:\n        /* \"src/SimpleAccount.sol\":1558:1631  require(msg.sender == owner || msg.sender == address(this), \"only owner\") */\n      tag_193\n      jumpi\n      mload(0x40)\n      shl(0xe5, 0x461bcd)\n      dup2\n      mstore\n        /* \"#utility.yul\":12657:12659   */\n      0x20\n        /* \"src/SimpleAccount.sol\":1558:1631  require(msg.sender == owner || msg.sender == address(this), \"only owner\") */\n      0x04\n      dup3\n      add\n        /* \"#utility.yul\":12639:12660   */\n      mstore\n        /* \"#utility.yul\":12696:12698   */\n      0x0a\n        /* \"#utility.yul\":12676:12694   */\n      0x24\n      dup3\n      add\n        /* \"#utility.yul\":12669:12699   */\n      mstore\n      shl(0xb1, 0x37b7363c9037bbb732b9)\n        /* \"#utility.yul\":12715:12733   */\n      0x44\n      dup3\n      add\n        /* \"#utility.yul\":12708:12748   */\n      mstore\n        /* \"#utility.yul\":12765:12783   */\n      0x64\n      add\n        /* \"src/SimpleAccount.sol\":1558:1631  require(msg.sender == owner || msg.sender == address(this), \"only owner\") */\n      tag_97\n        /* \"#utility.yul\":12455:12789   */\n      jump\n        /* \"@openzeppelin/contracts/utils/cryptography/ECDSA.sol\":3661:3888  function recover(bytes32 hash, bytes memory signature) internal pure returns (address) {... */\n    tag_201:\n        /* \"@openzeppelin/contracts/utils/cryptography/ECDSA.sol\":3739:3746  address */\n      0x00\n        /* \"@openzeppelin/contracts/utils/cryptography/ECDSA.sol\":3759:3776  address recovered */\n      dup1\n        /* \"@openzeppelin/contracts/utils/cryptography/ECDSA.sol\":3778:3796  RecoverError error */\n      0x00\n        /* \"@openzeppelin/contracts/utils/cryptography/ECDSA.sol\":3800:3827  tryRecover(hash, signature) */\n      tag_264\n        /* \"@openzeppelin/contracts/utils/cryptography/ECDSA.sol\":3811:3815  hash */\n      dup6\n        /* \"@openzeppelin/contracts/utils/cryptography/ECDSA.sol\":3817:3826  signature */\n      dup6\n        /* \"@openzeppelin/contracts/utils/cryptography/ECDSA.sol\":3800:3810  tryRecover */\n      tag_265\n        /* \"@openzeppelin/contracts/utils/cryptography/ECDSA.sol\":3800:3827  tryRecover(hash, signature) */\n      jump\t// in\n    tag_264:\n        /* \"@openzeppelin/contracts/utils/cryptography/ECDSA.sol\":3758:3827  (address recovered, RecoverError error) = tryRecover(hash, signature) */\n      swap2\n      pop\n      swap2\n      pop\n        /* \"@openzeppelin/contracts/utils/cryptography/ECDSA.sol\":3837:3855  _throwError(error) */\n      tag_266\n        /* \"@openzeppelin/contracts/utils/cryptography/ECDSA.sol\":3849:3854  error */\n      dup2\n        /* \"@openzeppelin/contracts/utils/cryptography/ECDSA.sol\":3837:3848  _throwError */\n      tag_267\n        /* \"@openzeppelin/contracts/utils/cryptography/ECDSA.sol\":3837:3855  _throwError(error) */\n      jump\t// in\n    tag_266:\n      pop\n        /* \"@openzeppelin/contracts/utils/cryptography/ECDSA.sol\":3872:3881  recovered */\n      swap4\n        /* \"@openzeppelin/contracts/utils/cryptography/ECDSA.sol\":3661:3888  function recover(bytes32 hash, bytes memory signature) internal pure returns (address) {... */\n      swap3\n      pop\n      pop\n      pop\n      jump\t// out\n        /* \"@openzeppelin/contracts/proxy/ERC1967/ERC1967Upgrade.sol\":1406:1665  function _setImplementation(address newImplementation) private {... */\n    tag_238:\n      sub(shl(0xa0, 0x01), 0x01)\n        /* \"@openzeppelin/contracts/utils/Address.sol\":1702:1721  account.code.length */\n      dup2\n      and\n      extcodesize\n        /* \"@openzeppelin/contracts/proxy/ERC1967/ERC1967Upgrade.sol\":1479:1574  require(Address.isContract(newImplementation), \"ERC1967: new implementation is not a contract\") */\n      tag_272\n      jumpi\n      mload(0x40)\n      shl(0xe5, 0x461bcd)\n      dup2\n      mstore\n        /* \"#utility.yul\":12996:12998   */\n      0x20\n        /* \"@openzeppelin/contracts/proxy/ERC1967/ERC1967Upgrade.sol\":1479:1574  require(Address.isContract(newImplementation), \"ERC1967: new implementation is not a contract\") */\n      0x04\n      dup3\n      add\n        /* \"#utility.yul\":12978:12999   */\n      mstore\n        /* \"#utility.yul\":13035:13037   */\n      0x2d\n        /* \"#utility.yul\":13015:13033   */\n      0x24\n      dup3\n      add\n        /* \"#utility.yul\":13008:13038   */\n      mstore\n        /* \"#utility.yul\":13074:13108   */\n      0x455243313936373a206e657720696d706c656d656e746174696f6e206973206e\n        /* \"#utility.yul\":13054:13072   */\n      0x44\n      dup3\n      add\n        /* \"#utility.yul\":13047:13109   */\n      mstore\n      shl(0x9a, 0x1bdd08184818dbdb9d1c9858dd)\n        /* \"#utility.yul\":13125:13143   */\n      0x64\n      dup3\n      add\n        /* \"#utility.yul\":13118:13161   */\n      mstore\n        /* \"#utility.yul\":13178:13197   */\n      0x84\n      add\n        /* \"@openzeppelin/contracts/proxy/ERC1967/ERC1967Upgrade.sol\":1479:1574  require(Address.isContract(newImplementation), \"ERC1967: new implementation is not a contract\") */\n      tag_97\n        /* \"#utility.yul\":12794:13203   */\n      jump\n        /* \"@openzeppelin/contracts/proxy/ERC1967/ERC1967Upgrade.sol\":1479:1574  require(Address.isContract(newImplementation), \"ERC1967: new implementation is not a contract\") */\n    tag_272:\n      0x00\n      dup1\n      mload\n      0x20\n      data_75b20eef8615de99c108b05f0dbda081c91897128caa336d75dffb97c4132b4d\n      dup4\n      codecopy\n      dup2\n      mload\n      swap2\n      mstore\n        /* \"@openzeppelin/contracts/proxy/ERC1967/ERC1967Upgrade.sol\":1584:1658  StorageSlot.getAddressSlot(_IMPLEMENTATION_SLOT).value = newImplementation */\n      dup1\n      sload\n      not(sub(shl(0xa0, 0x01), 0x01))\n      and\n      sub(shl(0xa0, 0x01), 0x01)\n      swap3\n      swap1\n      swap3\n      and\n      swap2\n      swap1\n      swap2\n      or\n      swap1\n      sstore\n        /* \"@openzeppelin/contracts/proxy/ERC1967/ERC1967Upgrade.sol\":1406:1665  function _setImplementation(address newImplementation) private {... */\n      jump\t// out\n        /* \"@openzeppelin/contracts/proxy/ERC1967/ERC1967Upgrade.sol\":2057:2322  function _upgradeToAndCall(address newImplementation, bytes memory data, bool forceCall) internal {... */\n    tag_254:\n        /* \"@openzeppelin/contracts/proxy/ERC1967/ERC1967Upgrade.sol\":2165:2194  _upgradeTo(newImplementation) */\n      tag_277\n        /* \"@openzeppelin/contracts/proxy/ERC1967/ERC1967Upgrade.sol\":2176:2193  newImplementation */\n      dup4\n        /* \"@openzeppelin/contracts/proxy/ERC1967/ERC1967Upgrade.sol\":2165:2175  _upgradeTo */\n      tag_278\n        /* \"@openzeppelin/contracts/proxy/ERC1967/ERC1967Upgrade.sol\":2165:2194  _upgradeTo(newImplementation) */\n      jump\t// in\n    tag_277:\n        /* \"@openzeppelin/contracts/proxy/ERC1967/ERC1967Upgrade.sol\":2222:2223  0 */\n      0x00\n        /* \"@openzeppelin/contracts/proxy/ERC1967/ERC1967Upgrade.sol\":2208:2212  data */\n      dup3\n        /* \"@openzeppelin/contracts/proxy/ERC1967/ERC1967Upgrade.sol\":2208:2219  data.length */\n      mload\n        /* \"@openzeppelin/contracts/proxy/ERC1967/ERC1967Upgrade.sol\":2208:2223  data.length > 0 */\n      gt\n        /* \"@openzeppelin/contracts/proxy/ERC1967/ERC1967Upgrade.sol\":2208:2236  data.length > 0 || forceCall */\n      dup1\n      tag_279\n      jumpi\n      pop\n        /* \"@openzeppelin/contracts/proxy/ERC1967/ERC1967Upgrade.sol\":2227:2236  forceCall */\n      dup1\n        /* \"@openzeppelin/contracts/proxy/ERC1967/ERC1967Upgrade.sol\":2208:2236  data.length > 0 || forceCall */\n    tag_279:\n        /* \"@openzeppelin/contracts/proxy/ERC1967/ERC1967Upgrade.sol\":2204:2316  if (data.length > 0 || forceCall) {... */\n      iszero\n      tag_144\n      jumpi\n        /* \"@openzeppelin/contracts/proxy/ERC1967/ERC1967Upgrade.sol\":2252:2305  Address.functionDelegateCall(newImplementation, data) */\n      tag_183\n        /* \"@openzeppelin/contracts/proxy/ERC1967/ERC1967Upgrade.sol\":2281:2298  newImplementation */\n      dup4\n        /* \"@openzeppelin/contracts/proxy/ERC1967/ERC1967Upgrade.sol\":2300:2304  data */\n      dup4\n        /* \"@openzeppelin/contracts/proxy/ERC1967/ERC1967Upgrade.sol\":2252:2280  Address.functionDelegateCall */\n      tag_282\n        /* \"@openzeppelin/contracts/proxy/ERC1967/ERC1967Upgrade.sol\":2252:2305  Address.functionDelegateCall(newImplementation, data) */\n      jump\t// in\n        /* \"@openzeppelin/contracts/utils/cryptography/ECDSA.sol\":2145:2875  function tryRecover(bytes32 hash, bytes memory signature) internal pure returns (address, RecoverError) {... */\n    tag_265:\n        /* \"@openzeppelin/contracts/utils/cryptography/ECDSA.sol\":2226:2233  address */\n      0x00\n        /* \"@openzeppelin/contracts/utils/cryptography/ECDSA.sol\":2235:2247  RecoverError */\n      dup1\n        /* \"@openzeppelin/contracts/utils/cryptography/ECDSA.sol\":2263:2272  signature */\n      dup3\n        /* \"@openzeppelin/contracts/utils/cryptography/ECDSA.sol\":2263:2279  signature.length */\n      mload\n        /* \"@openzeppelin/contracts/utils/cryptography/ECDSA.sol\":2283:2285  65 */\n      0x41\n        /* \"@openzeppelin/contracts/utils/cryptography/ECDSA.sol\":2263:2285  signature.length == 65 */\n      sub\n        /* \"@openzeppelin/contracts/utils/cryptography/ECDSA.sol\":2259:2869  if (signature.length == 65) {... */\n      tag_284\n      jumpi\n        /* \"@openzeppelin/contracts/utils/cryptography/ECDSA.sol\":2599:2603  0x20 */\n      0x20\n        /* \"@openzeppelin/contracts/utils/cryptography/ECDSA.sol\":2584:2604  add(signature, 0x20) */\n      dup4\n      add\n        /* \"@openzeppelin/contracts/utils/cryptography/ECDSA.sol\":2578:2605  mload(add(signature, 0x20)) */\n      mload\n        /* \"@openzeppelin/contracts/utils/cryptography/ECDSA.sol\":2648:2652  0x40 */\n      0x40\n        /* \"@openzeppelin/contracts/utils/cryptography/ECDSA.sol\":2633:2653  add(signature, 0x40) */\n      dup5\n      add\n        /* \"@openzeppelin/contracts/utils/cryptography/ECDSA.sol\":2627:2654  mload(add(signature, 0x40)) */\n      mload\n        /* \"@openzeppelin/contracts/utils/cryptography/ECDSA.sol\":2705:2709  0x60 */\n      0x60\n        /* \"@openzeppelin/contracts/utils/cryptography/ECDSA.sol\":2690:2710  add(signature, 0x60) */\n      dup6\n      add\n        /* \"@openzeppelin/contracts/utils/cryptography/ECDSA.sol\":2684:2711  mload(add(signature, 0x60)) */\n      mload\n        /* \"@openzeppelin/contracts/utils/cryptography/ECDSA.sol\":2301:2310  bytes32 r */\n      0x00\n        /* \"@openzeppelin/contracts/utils/cryptography/ECDSA.sol\":2676:2712  byte(0, mload(add(signature, 0x60))) */\n      byte\n        /* \"@openzeppelin/contracts/utils/cryptography/ECDSA.sol\":2746:2771  tryRecover(hash, v, r, s) */\n      tag_285\n        /* \"@openzeppelin/contracts/utils/cryptography/ECDSA.sol\":2757:2761  hash */\n      dup8\n        /* \"@openzeppelin/contracts/utils/cryptography/ECDSA.sol\":2676:2712  byte(0, mload(add(signature, 0x60))) */\n      dup3\n        /* \"@openzeppelin/contracts/utils/cryptography/ECDSA.sol\":2578:2605  mload(add(signature, 0x20)) */\n      dup6\n        /* \"@openzeppelin/contracts/utils/cryptography/ECDSA.sol\":2627:2654  mload(add(signature, 0x40)) */\n      dup6\n        /* \"@openzeppelin/contracts/utils/cryptography/ECDSA.sol\":2746:2756  tryRecover */\n      tag_286\n        /* \"@openzeppelin/contracts/utils/cryptography/ECDSA.sol\":2746:2771  tryRecover(hash, v, r, s) */\n      jump\t// in\n    tag_285:\n        /* \"@openzeppelin/contracts/utils/cryptography/ECDSA.sol\":2739:2771  return tryRecover(hash, v, r, s) */\n      swap5\n      pop\n      swap5\n      pop\n      pop\n      pop\n      pop\n      jump(tag_287)\n        /* \"@openzeppelin/contracts/utils/cryptography/ECDSA.sol\":2259:2869  if (signature.length == 65) {... */\n    tag_284:\n      pop\n        /* \"@openzeppelin/contracts/utils/cryptography/ECDSA.sol\":2818:2819  0 */\n      0x00\n      swap1\n      pop\n        /* \"@openzeppelin/contracts/utils/cryptography/ECDSA.sol\":2822:2857  RecoverError.InvalidSignatureLength */\n      0x02\n        /* \"@openzeppelin/contracts/utils/cryptography/ECDSA.sol\":2259:2869  if (signature.length == 65) {... */\n    tag_287:\n        /* \"@openzeppelin/contracts/utils/cryptography/ECDSA.sol\":2145:2875  function tryRecover(bytes32 hash, bytes memory signature) internal pure returns (address, RecoverError) {... */\n      swap3\n      pop\n      swap3\n      swap1\n      pop\n      jump\t// out\n        /* \"@openzeppelin/contracts/utils/cryptography/ECDSA.sol\":570:1081  function _throwError(RecoverError error) private pure {... */\n    tag_267:\n        /* \"@openzeppelin/contracts/utils/cryptography/ECDSA.sol\":647:667  RecoverError.NoError */\n      0x00\n        /* \"@openzeppelin/contracts/utils/cryptography/ECDSA.sol\":638:643  error */\n      dup2\n        /* \"@openzeppelin/contracts/utils/cryptography/ECDSA.sol\":638:667  error == RecoverError.NoError */\n      0x04\n      dup2\n      gt\n      iszero\n      tag_293\n      jumpi\n      tag_293\n      tag_291\n      jump\t// in\n    tag_293:\n      sub\n        /* \"@openzeppelin/contracts/utils/cryptography/ECDSA.sol\":634:1075  if (error == RecoverError.NoError) {... */\n      tag_294\n      jumpi\n        /* \"@openzeppelin/contracts/utils/cryptography/ECDSA.sol\":570:1081  function _throwError(RecoverError error) private pure {... */\n      pop\n      jump\t// out\n        /* \"@openzeppelin/contracts/utils/cryptography/ECDSA.sol\":634:1075  if (error == RecoverError.NoError) {... */\n    tag_294:\n        /* \"@openzeppelin/contracts/utils/cryptography/ECDSA.sol\":743:772  RecoverError.InvalidSignature */\n      0x01\n        /* \"@openzeppelin/contracts/utils/cryptography/ECDSA.sol\":734:739  error */\n      dup2\n        /* \"@openzeppelin/contracts/utils/cryptography/ECDSA.sol\":734:772  error == RecoverError.InvalidSignature */\n      0x04\n      dup2\n      gt\n      iszero\n      tag_299\n      jumpi\n      tag_299\n      tag_291\n      jump\t// in\n    tag_299:\n      sub\n        /* \"@openzeppelin/contracts/utils/cryptography/ECDSA.sol\":730:1075  if (error == RecoverError.InvalidSignature) {... */\n      tag_300\n      jumpi\n        /* \"@openzeppelin/contracts/utils/cryptography/ECDSA.sol\":788:822  revert(\"ECDSA: invalid signature\") */\n      mload(0x40)\n      shl(0xe5, 0x461bcd)\n      dup2\n      mstore\n        /* \"#utility.yul\":13542:13544   */\n      0x20\n        /* \"@openzeppelin/contracts/utils/cryptography/ECDSA.sol\":788:822  revert(\"ECDSA: invalid signature\") */\n      0x04\n      dup3\n      add\n        /* \"#utility.yul\":13524:13545   */\n      mstore\n        /* \"#utility.yul\":13581:13583   */\n      0x18\n        /* \"#utility.yul\":13561:13579   */\n      0x24\n      dup3\n      add\n        /* \"#utility.yul\":13554:13584   */\n      mstore\n        /* \"#utility.yul\":13620:13646   */\n      0x45434453413a20696e76616c6964207369676e61747572650000000000000000\n        /* \"#utility.yul\":13600:13618   */\n      0x44\n      dup3\n      add\n        /* \"#utility.yul\":13593:13647   */\n      mstore\n        /* \"#utility.yul\":13664:13682   */\n      0x64\n      add\n        /* \"@openzeppelin/contracts/utils/cryptography/ECDSA.sol\":788:822  revert(\"ECDSA: invalid signature\") */\n      tag_97\n        /* \"#utility.yul\":13340:13688   */\n      jump\n        /* \"@openzeppelin/contracts/utils/cryptography/ECDSA.sol\":730:1075  if (error == RecoverError.InvalidSignature) {... */\n    tag_300:\n        /* \"@openzeppelin/contracts/utils/cryptography/ECDSA.sol\":852:887  RecoverError.InvalidSignatureLength */\n      0x02\n        /* \"@openzeppelin/contracts/utils/cryptography/ECDSA.sol\":843:848  error */\n      dup2\n        /* \"@openzeppelin/contracts/utils/cryptography/ECDSA.sol\":843:887  error == RecoverError.InvalidSignatureLength */\n      0x04\n      dup2\n      gt\n      iszero\n      tag_307\n      jumpi\n      tag_307\n      tag_291\n      jump\t// in\n    tag_307:\n      sub\n        /* \"@openzeppelin/contracts/utils/cryptography/ECDSA.sol\":839:1075  if (error == RecoverError.InvalidSignatureLength) {... */\n      tag_308\n      jumpi\n        /* \"@openzeppelin/contracts/utils/cryptography/ECDSA.sol\":903:944  revert(\"ECDSA: invalid signature length\") */\n      mload(0x40)\n      shl(0xe5, 0x461bcd)\n      dup2\n      mstore\n        /* \"#utility.yul\":13895:13897   */\n      0x20\n        /* \"@openzeppelin/contracts/utils/cryptography/ECDSA.sol\":903:944  revert(\"ECDSA: invalid signature length\") */\n      0x04\n      dup3\n      add\n        /* \"#utility.yul\":13877:13898   */\n      mstore\n        /* \"#utility.yul\":13934:13936   */\n      0x1f\n        /* \"#utility.yul\":13914:13932   */\n      0x24\n      dup3\n      add\n        /* \"#utility.yul\":13907:13937   */\n      mstore\n        /* \"#utility.yul\":13973:14006   */\n      0x45434453413a20696e76616c6964207369676e6174757265206c656e67746800\n        /* \"#utility.yul\":13953:13971   */\n      0x44\n      dup3\n      add\n        /* \"#utility.yul\":13946:14007   */\n      mstore\n        /* \"#utility.yul\":14024:14042   */\n      0x64\n      add\n        /* \"@openzeppelin/contracts/utils/cryptography/ECDSA.sol\":903:944  revert(\"ECDSA: invalid signature length\") */\n      tag_97\n        /* \"#utility.yul\":13693:14048   */\n      jump\n        /* \"@openzeppelin/contracts/utils/cryptography/ECDSA.sol\":839:1075  if (error == RecoverError.InvalidSignatureLength) {... */\n    tag_308:\n        /* \"@openzeppelin/contracts/utils/cryptography/ECDSA.sol\":974:1004  RecoverError.InvalidSignatureS */\n      0x03\n        /* \"@openzeppelin/contracts/utils/cryptography/ECDSA.sol\":965:970  error */\n      dup2\n        /* \"@openzeppelin/contracts/utils/cryptography/ECDSA.sol\":965:1004  error == RecoverError.InvalidSignatureS */\n      0x04\n      dup2\n      gt\n      iszero\n      tag_315\n      jumpi\n      tag_315\n      tag_291\n      jump\t// in\n    tag_315:\n      sub\n        /* \"@openzeppelin/contracts/utils/cryptography/ECDSA.sol\":961:1075  if (error == RecoverError.InvalidSignatureS) {... */\n      tag_125\n      jumpi\n        /* \"@openzeppelin/contracts/utils/cryptography/ECDSA.sol\":1020:1064  revert(\"ECDSA: invalid signature 's' value\") */\n      mload(0x40)\n      shl(0xe5, 0x461bcd)\n      dup2\n      mstore\n        /* \"#utility.yul\":14255:14257   */\n      0x20\n        /* \"@openzeppelin/contracts/utils/cryptography/ECDSA.sol\":1020:1064  revert(\"ECDSA: invalid signature 's' value\") */\n      0x04\n      dup3\n      add\n        /* \"#utility.yul\":14237:14258   */\n      mstore\n        /* \"#utility.yul\":14294:14296   */\n      0x22\n        /* \"#utility.yul\":14274:14292   */\n      0x24\n      dup3\n      add\n        /* \"#utility.yul\":14267:14297   */\n      mstore\n        /* \"#utility.yul\":14333:14367   */\n      0x45434453413a20696e76616c6964207369676e6174757265202773272076616c\n        /* \"#utility.yul\":14313:14331   */\n      0x44\n      dup3\n      add\n        /* \"#utility.yul\":14306:14368   */\n      mstore\n      shl(0xf0, 0x7565)\n        /* \"#utility.yul\":14384:14402   */\n      0x64\n      dup3\n      add\n        /* \"#utility.yul\":14377:14409   */\n      mstore\n        /* \"#utility.yul\":14426:14445   */\n      0x84\n      add\n        /* \"@openzeppelin/contracts/utils/cryptography/ECDSA.sol\":1020:1064  revert(\"ECDSA: invalid signature 's' value\") */\n      tag_97\n        /* \"#utility.yul\":14053:14451   */\n      jump\n        /* \"@openzeppelin/contracts/proxy/ERC1967/ERC1967Upgrade.sol\":1771:1923  function _upgradeTo(address newImplementation) internal {... */\n    tag_278:\n        /* \"@openzeppelin/contracts/proxy/ERC1967/ERC1967Upgrade.sol\":1837:1874  _setImplementation(newImplementation) */\n      tag_320\n        /* \"@openzeppelin/contracts/proxy/ERC1967/ERC1967Upgrade.sol\":1856:1873  newImplementation */\n      dup2\n        /* \"@openzeppelin/contracts/proxy/ERC1967/ERC1967Upgrade.sol\":1837:1855  _setImplementation */\n      tag_238\n        /* \"@openzeppelin/contracts/proxy/ERC1967/ERC1967Upgrade.sol\":1837:1874  _setImplementation(newImplementation) */\n      jump\t// in\n    tag_320:\n        /* \"@openzeppelin/contracts/proxy/ERC1967/ERC1967Upgrade.sol\":1889:1916  Upgraded(newImplementation) */\n      mload(0x40)\n      sub(shl(0xa0, 0x01), 0x01)\n      dup3\n      and\n      swap1\n      0xbc7cd75a20ee27fd9adebab32041f755214dbc6bffa90cc0225b39da2e5c2d3b\n      swap1\n      0x00\n      swap1\n      log2\n        /* \"@openzeppelin/contracts/proxy/ERC1967/ERC1967Upgrade.sol\":1771:1923  function _upgradeTo(address newImplementation) internal {... */\n      pop\n      jump\t// out\n        /* \"@openzeppelin/contracts/utils/Address.sol\":6674:6872  function functionDelegateCall(address target, bytes memory data) internal returns (bytes memory) {... */\n    tag_282:\n        /* \"@openzeppelin/contracts/utils/Address.sol\":6757:6769  bytes memory */\n      0x60\n        /* \"@openzeppelin/contracts/utils/Address.sol\":6788:6865  functionDelegateCall(target, data, \"Address: low-level delegate call failed\") */\n      tag_196\n        /* \"@openzeppelin/contracts/utils/Address.sol\":6809:6815  target */\n      dup4\n        /* \"@openzeppelin/contracts/utils/Address.sol\":6817:6821  data */\n      dup4\n        /* \"@openzeppelin/contracts/utils/Address.sol\":6788:6865  functionDelegateCall(target, data, \"Address: low-level delegate call failed\") */\n      mload(0x40)\n      dup1\n      0x60\n      add\n      0x40\n      mstore\n      dup1\n      0x27\n      dup2\n      mstore\n      0x20\n      add\n      data_9fdcd12e4b726339b32a442b0a448365d5d85c96b2d2cff917b4f66c63110398\n      0x27\n      swap2\n      codecopy\n        /* \"@openzeppelin/contracts/utils/Address.sol\":6788:6808  functionDelegateCall */\n      tag_323\n        /* \"@openzeppelin/contracts/utils/Address.sol\":6788:6865  functionDelegateCall(target, data, \"Address: low-level delegate call failed\") */\n      jump\t// in\n        /* \"@openzeppelin/contracts/utils/cryptography/ECDSA.sol\":5009:6465  function tryRecover(bytes32 hash, uint8 v, bytes32 r, bytes32 s) internal pure returns (address, RecoverError) {... */\n    tag_286:\n        /* \"@openzeppelin/contracts/utils/cryptography/ECDSA.sol\":5097:5104  address */\n      0x00\n      dup1\n        /* \"@openzeppelin/contracts/utils/cryptography/ECDSA.sol\":6021:6087  0x7FFFFFFFFFFFFFFFFFFFFFFFFFFFFFFF5D576E7357A4501DDFE92F46681B20A0 */\n      0x7fffffffffffffffffffffffffffffff5d576e7357a4501ddfe92f46681b20a0\n        /* \"@openzeppelin/contracts/utils/cryptography/ECDSA.sol\":6008:6087  uint256(s) > 0x7FFFFFFFFFFFFFFFFFFFFFFFFFFFFFFF5D576E7357A4501DDFE92F46681B20A0 */\n      dup4\n      gt\n        /* \"@openzeppelin/contracts/utils/cryptography/ECDSA.sol\":6004:6165  if (uint256(s) > 0x7FFFFFFFFFFFFFFFFFFFFFFFFFFFFFFF5D576E7357A4501DDFE92F46681B20A0) {... */\n      iszero\n      tag_325\n      jumpi\n      pop\n        /* \"@openzeppelin/contracts/utils/cryptography/ECDSA.sol\":6119:6120  0 */\n      0x00\n      swap1\n      pop\n        /* \"@openzeppelin/contracts/utils/cryptography/ECDSA.sol\":6123:6153  RecoverError.InvalidSignatureS */\n      0x03\n        /* \"@openzeppelin/contracts/utils/cryptography/ECDSA.sol\":6103:6154  return (address(0), RecoverError.InvalidSignatureS) */\n      jump(tag_324)\n        /* \"@openzeppelin/contracts/utils/cryptography/ECDSA.sol\":6004:6165  if (uint256(s) > 0x7FFFFFFFFFFFFFFFFFFFFFFFFFFFFFFF5D576E7357A4501DDFE92F46681B20A0) {... */\n    tag_325:\n        /* \"@openzeppelin/contracts/utils/cryptography/ECDSA.sol\":6276:6300  ecrecover(hash, v, r, s) */\n      0x40\n      dup1\n      mload\n        /* \"@openzeppelin/contracts/utils/cryptography/ECDSA.sol\":6259:6273  address signer */\n      0x00\n        /* \"@openzeppelin/contracts/utils/cryptography/ECDSA.sol\":6276:6300  ecrecover(hash, v, r, s) */\n      dup1\n      dup3\n      mstore\n      0x20\n      dup3\n      add\n      dup1\n      dup5\n      mstore\n        /* \"#utility.yul\":14683:14708   */\n      dup10\n      swap1\n      mstore\n        /* \"#utility.yul\":14756:14760   */\n      0xff\n        /* \"#utility.yul\":14744:14761   */\n      dup9\n      and\n        /* \"#utility.yul\":14724:14742   */\n      swap3\n      dup3\n      add\n        /* \"#utility.yul\":14717:14762   */\n      swap3\n      swap1\n      swap3\n      mstore\n        /* \"#utility.yul\":14778:14796   */\n      0x60\n      dup2\n      add\n        /* \"#utility.yul\":14771:14805   */\n      dup7\n      swap1\n      mstore\n        /* \"#utility.yul\":14821:14839   */\n      0x80\n      dup2\n      add\n        /* \"#utility.yul\":14814:14848   */\n      dup6\n      swap1\n      mstore\n        /* \"@openzeppelin/contracts/utils/cryptography/ECDSA.sol\":6276:6300  ecrecover(hash, v, r, s) */\n      0x01\n      swap1\n        /* \"#utility.yul\":14655:14674   */\n      0xa0\n      add\n        /* \"@openzeppelin/contracts/utils/cryptography/ECDSA.sol\":6276:6300  ecrecover(hash, v, r, s) */\n      0x20\n      mload(0x40)\n      0x20\n      dup2\n      sub\n      swap1\n      dup1\n      dup5\n      sub\n      swap1\n      dup6\n      gas\n      staticcall\n      iszero\n      dup1\n      iszero\n      tag_329\n      jumpi\n      returndatasize\n      0x00\n      dup1\n      returndatacopy\n      revert(0x00, returndatasize)\n    tag_329:\n      pop\n      pop\n      mload(add(not(0x1f), mload(0x40)))\n      swap2\n      pop\n      pop\n      sub(shl(0xa0, 0x01), 0x01)\n        /* \"@openzeppelin/contracts/utils/cryptography/ECDSA.sol\":6314:6334  signer == address(0) */\n      dup2\n      and\n        /* \"@openzeppelin/contracts/utils/cryptography/ECDSA.sol\":6310:6411  if (signer == address(0)) {... */\n      tag_330\n      jumpi\n        /* \"@openzeppelin/contracts/utils/cryptography/ECDSA.sol\":6366:6367  0 */\n      0x00\n        /* \"@openzeppelin/contracts/utils/cryptography/ECDSA.sol\":6370:6399  RecoverError.InvalidSignature */\n      0x01\n        /* \"@openzeppelin/contracts/utils/cryptography/ECDSA.sol\":6350:6400  return (address(0), RecoverError.InvalidSignature) */\n      swap3\n      pop\n      swap3\n      pop\n      pop\n      jump(tag_324)\n        /* \"@openzeppelin/contracts/utils/cryptography/ECDSA.sol\":6310:6411  if (signer == address(0)) {... */\n    tag_330:\n        /* \"@openzeppelin/contracts/utils/cryptography/ECDSA.sol\":6429:6435  signer */\n      swap2\n      pop\n        /* \"@openzeppelin/contracts/utils/cryptography/ECDSA.sol\":6437:6457  RecoverError.NoError */\n      0x00\n      swap1\n      pop\n        /* \"@openzeppelin/contracts/utils/cryptography/ECDSA.sol\":5009:6465  function tryRecover(bytes32 hash, uint8 v, bytes32 r, bytes32 s) internal pure returns (address, RecoverError) {... */\n    tag_324:\n      swap5\n      pop\n      swap5\n      swap3\n      pop\n      pop\n      pop\n      jump\t// out\n        /* \"@openzeppelin/contracts/utils/Address.sol\":7058:7383  function functionDelegateCall(... */\n    tag_323:\n        /* \"@openzeppelin/contracts/utils/Address.sol\":7199:7211  bytes memory */\n      0x60\n        /* \"@openzeppelin/contracts/utils/Address.sol\":7224:7236  bool success */\n      0x00\n        /* \"@openzeppelin/contracts/utils/Address.sol\":7238:7261  bytes memory returndata */\n      dup1\n        /* \"@openzeppelin/contracts/utils/Address.sol\":7265:7271  target */\n      dup6\n      sub(shl(0xa0, 0x01), 0x01)\n        /* \"@openzeppelin/contracts/utils/Address.sol\":7265:7284  target.delegatecall */\n      and\n        /* \"@openzeppelin/contracts/utils/Address.sol\":7285:7289  data */\n      dup6\n        /* \"@openzeppelin/contracts/utils/Address.sol\":7265:7290  target.delegatecall(data) */\n      mload(0x40)\n      tag_332\n      swap2\n      swap1\n      tag_223\n      jump\t// in\n    tag_332:\n      0x00\n      mload(0x40)\n      dup1\n      dup4\n      sub\n      dup2\n      dup6\n      gas\n      delegatecall\n      swap2\n      pop\n      pop\n      returndatasize\n      dup1\n      0x00\n      dup2\n      eq\n      tag_335\n      jumpi\n      mload(0x40)\n      swap2\n      pop\n      and(add(returndatasize, 0x3f), not(0x1f))\n      dup3\n      add\n      0x40\n      mstore\n      returndatasize\n      dup3\n      mstore\n      returndatasize\n      0x00\n      0x20\n      dup5\n      add\n      returndatacopy\n      jump(tag_334)\n    tag_335:\n      0x60\n      swap2\n      pop\n    tag_334:\n      pop\n        /* \"@openzeppelin/contracts/utils/Address.sol\":7223:7290  (bool success, bytes memory returndata) = target.delegatecall(data) */\n      swap2\n      pop\n      swap2\n      pop\n        /* \"@openzeppelin/contracts/utils/Address.sol\":7307:7376  verifyCallResultFromTarget(target, success, returndata, errorMessage) */\n      tag_336\n        /* \"@openzeppelin/contracts/utils/Address.sol\":7334:7340  target */\n      dup7\n        /* \"@openzeppelin/contracts/utils/Address.sol\":7342:7349  success */\n      dup4\n        /* \"@openzeppelin/contracts/utils/Address.sol\":7351:7361  returndata */\n      dup4\n        /* \"@openzeppelin/contracts/utils/Address.sol\":7363:7375  errorMessage */\n      dup8\n        /* \"@openzeppelin/contracts/utils/Address.sol\":7307:7333  verifyCallResultFromTarget */\n      tag_337\n        /* \"@openzeppelin/contracts/utils/Address.sol\":7307:7376  verifyCallResultFromTarget(target, success, returndata, errorMessage) */\n      jump\t// in\n    tag_336:\n        /* \"@openzeppelin/contracts/utils/Address.sol\":7300:7376  return verifyCallResultFromTarget(target, success, returndata, errorMessage) */\n      swap7\n        /* \"@openzeppelin/contracts/utils/Address.sol\":7058:7383  function functionDelegateCall(... */\n      swap6\n      pop\n      pop\n      pop\n      pop\n      pop\n      pop\n      jump\t// out\n        /* \"@openzeppelin/contracts/utils/Address.sol\":7671:8299  function verifyCallResultFromTarget(... */\n    tag_337:\n        /* \"@openzeppelin/contracts/utils/Address.sol\":7851:7863  bytes memory */\n      0x60\n        /* \"@openzeppelin/contracts/utils/Address.sol\":7879:7886  success */\n      dup4\n        /* \"@openzeppelin/contracts/utils/Address.sol\":7875:8293  if (success) {... */\n      iszero\n      tag_339\n      jumpi\n        /* \"@openzeppelin/contracts/utils/Address.sol\":7906:7916  returndata */\n      dup3\n        /* \"@openzeppelin/contracts/utils/Address.sol\":7906:7923  returndata.length */\n      mload\n        /* \"@openzeppelin/contracts/utils/Address.sol\":7927:7928  0 */\n      0x00\n        /* \"@openzeppelin/contracts/utils/Address.sol\":7906:7928  returndata.length == 0 */\n      sub\n        /* \"@openzeppelin/contracts/utils/Address.sol\":7902:8188  if (returndata.length == 0) {... */\n      tag_342\n      jumpi\n      sub(shl(0xa0, 0x01), 0x01)\n        /* \"@openzeppelin/contracts/utils/Address.sol\":1702:1721  account.code.length */\n      dup6\n      and\n      extcodesize\n        /* \"@openzeppelin/contracts/utils/Address.sol\":8113:8173  require(isContract(target), \"Address: call to non-contract\") */\n      tag_342\n      jumpi\n      mload(0x40)\n      shl(0xe5, 0x461bcd)\n      dup2\n      mstore\n        /* \"#utility.yul\":15061:15063   */\n      0x20\n        /* \"@openzeppelin/contracts/utils/Address.sol\":8113:8173  require(isContract(target), \"Address: call to non-contract\") */\n      0x04\n      dup3\n      add\n        /* \"#utility.yul\":15043:15064   */\n      mstore\n        /* \"#utility.yul\":15100:15102   */\n      0x1d\n        /* \"#utility.yul\":15080:15098   */\n      0x24\n      dup3\n      add\n        /* \"#utility.yul\":15073:15103   */\n      mstore\n        /* \"#utility.yul\":15139:15170   */\n      0x416464726573733a2063616c6c20746f206e6f6e2d636f6e7472616374000000\n        /* \"#utility.yul\":15119:15137   */\n      0x44\n      dup3\n      add\n        /* \"#utility.yul\":15112:15171   */\n      mstore\n        /* \"#utility.yul\":15188:15206   */\n      0x64\n      add\n        /* \"@openzeppelin/contracts/utils/Address.sol\":8113:8173  require(isContract(target), \"Address: call to non-contract\") */\n      tag_97\n        /* \"#utility.yul\":14859:15212   */\n      jump\n        /* \"@openzeppelin/contracts/utils/Address.sol\":8113:8173  require(isContract(target), \"Address: call to non-contract\") */\n    tag_342:\n      pop\n        /* \"@openzeppelin/contracts/utils/Address.sol\":8208:8218  returndata */\n      dup2\n        /* \"@openzeppelin/contracts/utils/Address.sol\":8201:8218  return returndata */\n      jump(tag_91)\n        /* \"@openzeppelin/contracts/utils/Address.sol\":7875:8293  if (success) {... */\n    tag_339:\n        /* \"@openzeppelin/contracts/utils/Address.sol\":8249:8282  _revert(returndata, errorMessage) */\n      tag_91\n        /* \"@openzeppelin/contracts/utils/Address.sol\":8257:8267  returndata */\n      dup4\n        /* \"@openzeppelin/contracts/utils/Address.sol\":8269:8281  errorMessage */\n      dup4\n        /* \"@openzeppelin/contracts/utils/Address.sol\":8980:8997  returndata.length */\n      dup2\n      mload\n        /* \"@openzeppelin/contracts/utils/Address.sol\":8980:9001  returndata.length > 0 */\n      iszero\n        /* \"@openzeppelin/contracts/utils/Address.sol\":8976:9355  if (returndata.length > 0) {... */\n      tag_349\n      jumpi\n        /* \"@openzeppelin/contracts/utils/Address.sol\":9208:9218  returndata */\n      dup2\n        /* \"@openzeppelin/contracts/utils/Address.sol\":9202:9219  mload(returndata) */\n      mload\n        /* \"@openzeppelin/contracts/utils/Address.sol\":9264:9279  returndata_size */\n      dup1\n        /* \"@openzeppelin/contracts/utils/Address.sol\":9251:9261  returndata */\n      dup4\n        /* \"@openzeppelin/contracts/utils/Address.sol\":9247:9249  32 */\n      0x20\n        /* \"@openzeppelin/contracts/utils/Address.sol\":9243:9262  add(32, returndata) */\n      add\n        /* \"@openzeppelin/contracts/utils/Address.sol\":9236:9280  revert(add(32, returndata), returndata_size) */\n      revert\n        /* \"@openzeppelin/contracts/utils/Address.sol\":8976:9355  if (returndata.length > 0) {... */\n    tag_349:\n        /* \"@openzeppelin/contracts/utils/Address.sol\":9331:9343  errorMessage */\n      dup1\n        /* \"@openzeppelin/contracts/utils/Address.sol\":9324:9344  revert(errorMessage) */\n      mload(0x40)\n      shl(0xe5, 0x461bcd)\n      dup2\n      mstore\n      0x04\n      add\n      tag_97\n      swap2\n      swap1\n      tag_352\n      jump\t// in\n        /* \"#utility.yul\":14:145   */\n    tag_353:\n      sub(shl(0xa0, 0x01), 0x01)\n        /* \"#utility.yul\":89:120   */\n      dup2\n      and\n        /* \"#utility.yul\":79:121   */\n      dup2\n      eq\n        /* \"#utility.yul\":69:139   */\n      tag_125\n      jumpi\n        /* \"#utility.yul\":135:136   */\n      0x00\n        /* \"#utility.yul\":132:133   */\n      dup1\n        /* \"#utility.yul\":125:137   */\n      revert\n        /* \"#utility.yul\":150:815   */\n    tag_23:\n        /* \"#utility.yul\":269:275   */\n      0x00\n        /* \"#utility.yul\":277:283   */\n      dup1\n        /* \"#utility.yul\":285:291   */\n      0x00\n        /* \"#utility.yul\":293:299   */\n      dup1\n        /* \"#utility.yul\":346:349   */\n      0x80\n        /* \"#utility.yul\":334:343   */\n      dup6\n        /* \"#utility.yul\":325:332   */\n      dup8\n        /* \"#utility.yul\":321:344   */\n      sub\n        /* \"#utility.yul\":317:350   */\n      slt\n        /* \"#utility.yul\":314:367   */\n      iszero\n      tag_361\n      jumpi\n        /* \"#utility.yul\":363:364   */\n      0x00\n        /* \"#utility.yul\":360:361   */\n      dup1\n        /* \"#utility.yul\":353:365   */\n      revert\n        /* \"#utility.yul\":314:367   */\n    tag_361:\n        /* \"#utility.yul\":403:412   */\n      dup5\n        /* \"#utility.yul\":390:413   */\n      calldataload\n        /* \"#utility.yul\":436:454   */\n      0xffffffffffffffff\n        /* \"#utility.yul\":428:434   */\n      dup2\n        /* \"#utility.yul\":425:455   */\n      gt\n        /* \"#utility.yul\":422:472   */\n      iszero\n      tag_362\n      jumpi\n        /* \"#utility.yul\":468:469   */\n      0x00\n        /* \"#utility.yul\":465:466   */\n      dup1\n        /* \"#utility.yul\":458:470   */\n      revert\n        /* \"#utility.yul\":422:472   */\n    tag_362:\n        /* \"#utility.yul\":491:513   */\n      dup6\n      add\n        /* \"#utility.yul\":547:550   */\n      0x0160\n        /* \"#utility.yul\":529:545   */\n      dup2\n      dup9\n      sub\n        /* \"#utility.yul\":525:551   */\n      slt\n        /* \"#utility.yul\":522:568   */\n      iszero\n      tag_363\n      jumpi\n        /* \"#utility.yul\":564:565   */\n      0x00\n        /* \"#utility.yul\":561:562   */\n      dup1\n        /* \"#utility.yul\":554:566   */\n      revert\n        /* \"#utility.yul\":522:568   */\n    tag_363:\n        /* \"#utility.yul\":587:589   */\n      swap4\n      pop\n        /* \"#utility.yul\":636:638   */\n      0x20\n        /* \"#utility.yul\":621:639   */\n      dup6\n      add\n        /* \"#utility.yul\":608:640   */\n      calldataload\n      swap3\n      pop\n        /* \"#utility.yul\":690:692   */\n      0x40\n        /* \"#utility.yul\":675:693   */\n      dup6\n      add\n        /* \"#utility.yul\":662:694   */\n      calldataload\n        /* \"#utility.yul\":703:734   */\n      tag_364\n        /* \"#utility.yul\":662:694   */\n      dup2\n        /* \"#utility.yul\":703:734   */\n      tag_353\n      jump\t// in\n    tag_364:\n        /* \"#utility.yul\":150:815   */\n      swap4\n      swap7\n      swap3\n      swap6\n      pop\n        /* \"#utility.yul\":753:758   */\n      swap3\n      swap4\n        /* \"#utility.yul\":805:807   */\n      0x60\n        /* \"#utility.yul\":790:808   */\n      add\n        /* \"#utility.yul\":777:809   */\n      calldataload\n      swap3\n      pop\n      pop\n        /* \"#utility.yul\":150:815   */\n      jump\t// out\n        /* \"#utility.yul\":1002:1369   */\n    tag_354:\n        /* \"#utility.yul\":1065:1073   */\n      0x00\n        /* \"#utility.yul\":1075:1081   */\n      dup1\n        /* \"#utility.yul\":1129:1132   */\n      dup4\n        /* \"#utility.yul\":1122:1126   */\n      0x1f\n        /* \"#utility.yul\":1114:1120   */\n      dup5\n        /* \"#utility.yul\":1110:1127   */\n      add\n        /* \"#utility.yul\":1106:1133   */\n      slt\n        /* \"#utility.yul\":1096:1151   */\n      tag_367\n      jumpi\n        /* \"#utility.yul\":1147:1148   */\n      0x00\n        /* \"#utility.yul\":1144:1145   */\n      dup1\n        /* \"#utility.yul\":1137:1149   */\n      revert\n        /* \"#utility.yul\":1096:1151   */\n    tag_367:\n      pop\n        /* \"#utility.yul\":1170:1190   */\n      dup2\n      calldataload\n        /* \"#utility.yul\":1213:1231   */\n      0xffffffffffffffff\n        /* \"#utility.yul\":1202:1232   */\n      dup2\n      gt\n        /* \"#utility.yul\":1199:1249   */\n      iszero\n      tag_368\n      jumpi\n        /* \"#utility.yul\":1245:1246   */\n      0x00\n        /* \"#utility.yul\":1242:1243   */\n      dup1\n        /* \"#utility.yul\":1235:1247   */\n      revert\n        /* \"#utility.yul\":1199:1249   */\n    tag_368:\n        /* \"#utility.yul\":1282:1286   */\n      0x20\n        /* \"#utility.yul\":1274:1280   */\n      dup4\n        /* \"#utility.yul\":1270:1287   */\n      add\n        /* \"#utility.yul\":1258:1287   */\n      swap2\n      pop\n        /* \"#utility.yul\":1342:1345   */\n      dup4\n        /* \"#utility.yul\":1335:1339   */\n      0x20\n        /* \"#utility.yul\":1325:1331   */\n      dup3\n        /* \"#utility.yul\":1322:1323   */\n      0x05\n        /* \"#utility.yul\":1318:1332   */\n      shl\n        /* \"#utility.yul\":1310:1316   */\n      dup6\n        /* \"#utility.yul\":1306:1333   */\n      add\n        /* \"#utility.yul\":1302:1340   */\n      add\n        /* \"#utility.yul\":1299:1346   */\n      gt\n        /* \"#utility.yul\":1296:1363   */\n      iszero\n      tag_287\n      jumpi\n        /* \"#utility.yul\":1359:1360   */\n      0x00\n        /* \"#utility.yul\":1356:1357   */\n      dup1\n        /* \"#utility.yul\":1349:1361   */\n      revert\n        /* \"#utility.yul\":1374:2158   */\n    tag_30:\n        /* \"#utility.yul\":1507:1513   */\n      0x00\n        /* \"#utility.yul\":1515:1521   */\n      dup1\n        /* \"#utility.yul\":1523:1529   */\n      0x00\n        /* \"#utility.yul\":1531:1537   */\n      dup1\n        /* \"#utility.yul\":1584:1586   */\n      0x40\n        /* \"#utility.yul\":1572:1581   */\n      dup6\n        /* \"#utility.yul\":1563:1570   */\n      dup8\n        /* \"#utility.yul\":1559:1582   */\n      sub\n        /* \"#utility.yul\":1555:1587   */\n      slt\n        /* \"#utility.yul\":1552:1604   */\n      iszero\n      tag_371\n      jumpi\n        /* \"#utility.yul\":1600:1601   */\n      0x00\n        /* \"#utility.yul\":1597:1598   */\n      dup1\n        /* \"#utility.yul\":1590:1602   */\n      revert\n        /* \"#utility.yul\":1552:1604   */\n    tag_371:\n        /* \"#utility.yul\":1640:1649   */\n      dup5\n        /* \"#utility.yul\":1627:1650   */\n      calldataload\n        /* \"#utility.yul\":1669:1687   */\n      0xffffffffffffffff\n        /* \"#utility.yul\":1710:1712   */\n      dup1\n        /* \"#utility.yul\":1702:1708   */\n      dup3\n        /* \"#utility.yul\":1699:1713   */\n      gt\n        /* \"#utility.yul\":1696:1730   */\n      iszero\n      tag_372\n      jumpi\n        /* \"#utility.yul\":1726:1727   */\n      0x00\n        /* \"#utility.yul\":1723:1724   */\n      dup1\n        /* \"#utility.yul\":1716:1728   */\n      revert\n        /* \"#utility.yul\":1696:1730   */\n    tag_372:\n        /* \"#utility.yul\":1765:1835   */\n      tag_373\n        /* \"#utility.yul\":1827:1834   */\n      dup9\n        /* \"#utility.yul\":1818:1824   */\n      dup4\n        /* \"#utility.yul\":1807:1816   */\n      dup10\n        /* \"#utility.yul\":1803:1825   */\n      add\n        /* \"#utility.yul\":1765:1835   */\n      tag_354\n      jump\t// in\n    tag_373:\n        /* \"#utility.yul\":1854:1862   */\n      swap1\n      swap7\n      pop\n        /* \"#utility.yul\":1739:1835   */\n      swap5\n      pop\n        /* \"#utility.yul\":1942:1944   */\n      0x20\n        /* \"#utility.yul\":1927:1945   */\n      dup8\n      add\n        /* \"#utility.yul\":1914:1946   */\n      calldataload\n      swap2\n      pop\n        /* \"#utility.yul\":1958:1974   */\n      dup1\n      dup3\n      gt\n        /* \"#utility.yul\":1955:1991   */\n      iszero\n      tag_374\n      jumpi\n        /* \"#utility.yul\":1987:1988   */\n      0x00\n        /* \"#utility.yul\":1984:1985   */\n      dup1\n        /* \"#utility.yul\":1977:1989   */\n      revert\n        /* \"#utility.yul\":1955:1991   */\n    tag_374:\n      pop\n        /* \"#utility.yul\":2026:2098   */\n      tag_375\n        /* \"#utility.yul\":2090:2097   */\n      dup8\n        /* \"#utility.yul\":2079:2087   */\n      dup3\n        /* \"#utility.yul\":2068:2077   */\n      dup9\n        /* \"#utility.yul\":2064:2088   */\n      add\n        /* \"#utility.yul\":2026:2098   */\n      tag_354\n      jump\t// in\n    tag_375:\n        /* \"#utility.yul\":1374:2158   */\n      swap6\n      swap9\n      swap5\n      swap8\n      pop\n        /* \"#utility.yul\":2117:2125   */\n      swap6\n      pop\n      pop\n      pop\n      pop\n        /* \"#utility.yul\":1374:2158   */\n      jump\t// out\n        /* \"#utility.yul\":2163:2410   */\n    tag_35:\n        /* \"#utility.yul\":2222:2228   */\n      0x00\n        /* \"#utility.yul\":2275:2277   */\n      0x20\n        /* \"#utility.yul\":2263:2272   */\n      dup3\n        /* \"#utility.yul\":2254:2261   */\n      dup5\n        /* \"#utility.yul\":2250:2273   */\n      sub\n        /* \"#utility.yul\":2246:2278   */\n      slt\n        /* \"#utility.yul\":2243:2295   */\n      iszero\n      tag_377\n      jumpi\n        /* \"#utility.yul\":2291:2292   */\n      0x00\n        /* \"#utility.yul\":2288:2289   */\n      dup1\n        /* \"#utility.yul\":2281:2293   */\n      revert\n        /* \"#utility.yul\":2243:2295   */\n    tag_377:\n        /* \"#utility.yul\":2330:2339   */\n      dup2\n        /* \"#utility.yul\":2317:2340   */\n      calldataload\n        /* \"#utility.yul\":2349:2380   */\n      tag_196\n        /* \"#utility.yul\":2374:2379   */\n      dup2\n        /* \"#utility.yul\":2349:2380   */\n      tag_353\n      jump\t// in\n        /* \"#utility.yul\":2415:2823   */\n    tag_40:\n        /* \"#utility.yul\":2503:2509   */\n      0x00\n        /* \"#utility.yul\":2511:2517   */\n      dup1\n        /* \"#utility.yul\":2564:2566   */\n      0x40\n        /* \"#utility.yul\":2552:2561   */\n      dup4\n        /* \"#utility.yul\":2543:2550   */\n      dup6\n        /* \"#utility.yul\":2539:2562   */\n      sub\n        /* \"#utility.yul\":2535:2567   */\n      slt\n        /* \"#utility.yul\":2532:2584   */\n      iszero\n      tag_380\n      jumpi\n        /* \"#utility.yul\":2580:2581   */\n      0x00\n        /* \"#utility.yul\":2577:2578   */\n      dup1\n        /* \"#utility.yul\":2570:2582   */\n      revert\n        /* \"#utility.yul\":2532:2584   */\n    tag_380:\n        /* \"#utility.yul\":2619:2628   */\n      dup3\n        /* \"#utility.yul\":2606:2629   */\n      calldataload\n        /* \"#utility.yul\":2638:2669   */\n      tag_381\n        /* \"#utility.yul\":2663:2668   */\n      dup2\n        /* \"#utility.yul\":2638:2669   */\n      tag_353\n      jump\t// in\n    tag_381:\n        /* \"#utility.yul\":2688:2693   */\n      swap2\n      pop\n        /* \"#utility.yul\":2745:2747   */\n      0x20\n        /* \"#utility.yul\":2730:2748   */\n      dup4\n      add\n        /* \"#utility.yul\":2717:2749   */\n      calldataload\n        /* \"#utility.yul\":2758:2791   */\n      tag_382\n        /* \"#utility.yul\":2717:2749   */\n      dup2\n        /* \"#utility.yul\":2758:2791   */\n      tag_353\n      jump\t// in\n    tag_382:\n        /* \"#utility.yul\":2810:2817   */\n      dup1\n        /* \"#utility.yul\":2800:2817   */\n      swap2\n      pop\n      pop\n        /* \"#utility.yul\":2415:2823   */\n      swap3\n      pop\n      swap3\n      swap1\n      pop\n      jump\t// out\n        /* \"#utility.yul\":2828:3151   */\n    tag_47:\n        /* \"#utility.yul\":2904:2910   */\n      0x00\n        /* \"#utility.yul\":2912:2918   */\n      dup1\n        /* \"#utility.yul\":2965:2967   */\n      0x40\n        /* \"#utility.yul\":2953:2962   */\n      dup4\n        /* \"#utility.yul\":2944:2951   */\n      dup6\n        /* \"#utility.yul\":2940:2963   */\n      sub\n        /* \"#utility.yul\":2936:2968   */\n      slt\n        /* \"#utility.yul\":2933:2985   */\n      iszero\n      tag_384\n      jumpi\n        /* \"#utility.yul\":2981:2982   */\n      0x00\n        /* \"#utility.yul\":2978:2979   */\n      dup1\n        /* \"#utility.yul\":2971:2983   */\n      revert\n        /* \"#utility.yul\":2933:2985   */\n    tag_384:\n        /* \"#utility.yul\":3020:3029   */\n      dup3\n        /* \"#utility.yul\":3007:3030   */\n      calldataload\n        /* \"#utility.yul\":3039:3070   */\n      tag_385\n        /* \"#utility.yul\":3064:3069   */\n      dup2\n        /* \"#utility.yul\":3039:3070   */\n      tag_353\n      jump\t// in\n    tag_385:\n        /* \"#utility.yul\":3089:3094   */\n      swap5\n        /* \"#utility.yul\":3141:3143   */\n      0x20\n        /* \"#utility.yul\":3126:3144   */\n      swap4\n      swap1\n      swap4\n      add\n        /* \"#utility.yul\":3113:3145   */\n      calldataload\n      swap4\n      pop\n      pop\n      pop\n        /* \"#utility.yul\":2828:3151   */\n      jump\t// out\n        /* \"#utility.yul\":3156:3283   */\n    tag_128:\n        /* \"#utility.yul\":3217:3227   */\n      0x4e487b71\n        /* \"#utility.yul\":3212:3215   */\n      0xe0\n        /* \"#utility.yul\":3208:3228   */\n      shl\n        /* \"#utility.yul\":3205:3206   */\n      0x00\n        /* \"#utility.yul\":3198:3229   */\n      mstore\n        /* \"#utility.yul\":3248:3252   */\n      0x41\n        /* \"#utility.yul\":3245:3246   */\n      0x04\n        /* \"#utility.yul\":3238:3253   */\n      mstore\n        /* \"#utility.yul\":3272:3276   */\n      0x24\n        /* \"#utility.yul\":3269:3270   */\n      0x00\n        /* \"#utility.yul\":3262:3277   */\n      revert\n        /* \"#utility.yul\":3288:4344   */\n    tag_51:\n        /* \"#utility.yul\":3365:3371   */\n      0x00\n        /* \"#utility.yul\":3373:3379   */\n      dup1\n        /* \"#utility.yul\":3426:3428   */\n      0x40\n        /* \"#utility.yul\":3414:3423   */\n      dup4\n        /* \"#utility.yul\":3405:3412   */\n      dup6\n        /* \"#utility.yul\":3401:3424   */\n      sub\n        /* \"#utility.yul\":3397:3429   */\n      slt\n        /* \"#utility.yul\":3394:3446   */\n      iszero\n      tag_388\n      jumpi\n        /* \"#utility.yul\":3442:3443   */\n      0x00\n        /* \"#utility.yul\":3439:3440   */\n      dup1\n        /* \"#utility.yul\":3432:3444   */\n      revert\n        /* \"#utility.yul\":3394:3446   */\n    tag_388:\n        /* \"#utility.yul\":3481:3490   */\n      dup3\n        /* \"#utility.yul\":3468:3491   */\n      calldataload\n        /* \"#utility.yul\":3500:3531   */\n      tag_389\n        /* \"#utility.yul\":3525:3530   */\n      dup2\n        /* \"#utility.yul\":3500:3531   */\n      tag_353\n      jump\t// in\n    tag_389:\n        /* \"#utility.yul\":3550:3555   */\n      swap2\n      pop\n        /* \"#utility.yul\":3606:3608   */\n      0x20\n        /* \"#utility.yul\":3591:3609   */\n      dup4\n      add\n        /* \"#utility.yul\":3578:3610   */\n      calldataload\n        /* \"#utility.yul\":3629:3647   */\n      0xffffffffffffffff\n        /* \"#utility.yul\":3659:3673   */\n      dup1\n      dup3\n      gt\n        /* \"#utility.yul\":3656:3690   */\n      iszero\n      tag_390\n      jumpi\n        /* \"#utility.yul\":3686:3687   */\n      0x00\n        /* \"#utility.yul\":3683:3684   */\n      dup1\n        /* \"#utility.yul\":3676:3688   */\n      revert\n        /* \"#utility.yul\":3656:3690   */\n    tag_390:\n        /* \"#utility.yul\":3724:3730   */\n      dup2\n        /* \"#utility.yul\":3713:3722   */\n      dup6\n        /* \"#utility.yul\":3709:3731   */\n      add\n        /* \"#utility.yul\":3699:3731   */\n      swap2\n      pop\n        /* \"#utility.yul\":3769:3776   */\n      dup6\n        /* \"#utility.yul\":3762:3766   */\n      0x1f\n        /* \"#utility.yul\":3758:3760   */\n      dup4\n        /* \"#utility.yul\":3754:3767   */\n      add\n        /* \"#utility.yul\":3750:3777   */\n      slt\n        /* \"#utility.yul\":3740:3795   */\n      tag_391\n      jumpi\n        /* \"#utility.yul\":3791:3792   */\n      0x00\n        /* \"#utility.yul\":3788:3789   */\n      dup1\n        /* \"#utility.yul\":3781:3793   */\n      revert\n        /* \"#utility.yul\":3740:3795   */\n    tag_391:\n        /* \"#utility.yul\":3827:3829   */\n      dup2\n        /* \"#utility.yul\":3814:3830   */\n      calldataload\n        /* \"#utility.yul\":3849:3851   */\n      dup2\n        /* \"#utility.yul\":3845:3847   */\n      dup2\n        /* \"#utility.yul\":3842:3852   */\n      gt\n        /* \"#utility.yul\":3839:3875   */\n      iszero\n      tag_393\n      jumpi\n        /* \"#utility.yul\":3855:3873   */\n      tag_393\n      tag_128\n      jump\t// in\n    tag_393:\n        /* \"#utility.yul\":3930:3932   */\n      0x40\n        /* \"#utility.yul\":3924:3933   */\n      mload\n        /* \"#utility.yul\":3898:3900   */\n      0x1f\n        /* \"#utility.yul\":3984:3997   */\n      dup3\n      add\n      not(0x1f)\n        /* \"#utility.yul\":3980:4002   */\n      swap1\n      dup2\n      and\n        /* \"#utility.yul\":4004:4006   */\n      0x3f\n        /* \"#utility.yul\":3976:4007   */\n      add\n        /* \"#utility.yul\":3972:4012   */\n      and\n        /* \"#utility.yul\":3960:4013   */\n      dup2\n      add\n      swap1\n        /* \"#utility.yul\":4028:4046   */\n      dup4\n      dup3\n      gt\n        /* \"#utility.yul\":4048:4070   */\n      dup2\n      dup4\n      lt\n        /* \"#utility.yul\":4025:4071   */\n      or\n        /* \"#utility.yul\":4022:4094   */\n      iszero\n      tag_395\n      jumpi\n        /* \"#utility.yul\":4074:4092   */\n      tag_395\n      tag_128\n      jump\t// in\n    tag_395:\n        /* \"#utility.yul\":4114:4124   */\n      dup2\n        /* \"#utility.yul\":4110:4112   */\n      0x40\n        /* \"#utility.yul\":4103:4125   */\n      mstore\n        /* \"#utility.yul\":4149:4151   */\n      dup3\n        /* \"#utility.yul\":4141:4147   */\n      dup2\n        /* \"#utility.yul\":4134:4152   */\n      mstore\n        /* \"#utility.yul\":4189:4196   */\n      dup9\n        /* \"#utility.yul\":4184:4186   */\n      0x20\n        /* \"#utility.yul\":4179:4181   */\n      dup5\n        /* \"#utility.yul\":4175:4177   */\n      dup8\n        /* \"#utility.yul\":4171:4182   */\n      add\n        /* \"#utility.yul\":4167:4187   */\n      add\n        /* \"#utility.yul\":4164:4197   */\n      gt\n        /* \"#utility.yul\":4161:4214   */\n      iszero\n      tag_396\n      jumpi\n        /* \"#utility.yul\":4210:4211   */\n      0x00\n        /* \"#utility.yul\":4207:4208   */\n      dup1\n        /* \"#utility.yul\":4200:4212   */\n      revert\n        /* \"#utility.yul\":4161:4214   */\n    tag_396:\n        /* \"#utility.yul\":4266:4268   */\n      dup3\n        /* \"#utility.yul\":4261:4263   */\n      0x20\n        /* \"#utility.yul\":4257:4259   */\n      dup7\n        /* \"#utility.yul\":4253:4264   */\n      add\n        /* \"#utility.yul\":4248:4250   */\n      0x20\n        /* \"#utility.yul\":4240:4246   */\n      dup4\n        /* \"#utility.yul\":4236:4251   */\n      add\n        /* \"#utility.yul\":4223:4269   */\n      calldatacopy\n        /* \"#utility.yul\":4311:4312   */\n      0x00\n        /* \"#utility.yul\":4306:4308   */\n      0x20\n        /* \"#utility.yul\":4301:4303   */\n      dup5\n        /* \"#utility.yul\":4293:4299   */\n      dup4\n        /* \"#utility.yul\":4289:4304   */\n      add\n        /* \"#utility.yul\":4285:4309   */\n      add\n        /* \"#utility.yul\":4278:4313   */\n      mstore\n        /* \"#utility.yul\":4332:4338   */\n      dup1\n        /* \"#utility.yul\":4322:4338   */\n      swap6\n      pop\n      pop\n      pop\n      pop\n      pop\n      pop\n        /* \"#utility.yul\":3288:4344   */\n      swap3\n      pop\n      swap3\n      swap1\n      pop\n      jump\t// out\n        /* \"#utility.yul\":4967:5761   */\n    tag_75:\n        /* \"#utility.yul\":5055:5061   */\n      0x00\n        /* \"#utility.yul\":5063:5069   */\n      dup1\n        /* \"#utility.yul\":5071:5077   */\n      0x00\n        /* \"#utility.yul\":5079:5085   */\n      dup1\n        /* \"#utility.yul\":5132:5134   */\n      0x60\n        /* \"#utility.yul\":5120:5129   */\n      dup6\n        /* \"#utility.yul\":5111:5118   */\n      dup8\n        /* \"#utility.yul\":5107:5130   */\n      sub\n        /* \"#utility.yul\":5103:5135   */\n      slt\n        /* \"#utility.yul\":5100:5152   */\n      iszero\n      tag_401\n      jumpi\n        /* \"#utility.yul\":5148:5149   */\n      0x00\n        /* \"#utility.yul\":5145:5146   */\n      dup1\n        /* \"#utility.yul\":5138:5150   */\n      revert\n        /* \"#utility.yul\":5100:5152   */\n    tag_401:\n        /* \"#utility.yul\":5187:5196   */\n      dup5\n        /* \"#utility.yul\":5174:5197   */\n      calldataload\n        /* \"#utility.yul\":5206:5237   */\n      tag_402\n        /* \"#utility.yul\":5231:5236   */\n      dup2\n        /* \"#utility.yul\":5206:5237   */\n      tag_353\n      jump\t// in\n    tag_402:\n        /* \"#utility.yul\":5256:5261   */\n      swap4\n      pop\n        /* \"#utility.yul\":5308:5310   */\n      0x20\n        /* \"#utility.yul\":5293:5311   */\n      dup6\n      add\n        /* \"#utility.yul\":5280:5312   */\n      calldataload\n      swap3\n      pop\n        /* \"#utility.yul\":5363:5365   */\n      0x40\n        /* \"#utility.yul\":5348:5366   */\n      dup6\n      add\n        /* \"#utility.yul\":5335:5367   */\n      calldataload\n        /* \"#utility.yul\":5386:5404   */\n      0xffffffffffffffff\n        /* \"#utility.yul\":5416:5430   */\n      dup1\n      dup3\n      gt\n        /* \"#utility.yul\":5413:5447   */\n      iszero\n      tag_403\n      jumpi\n        /* \"#utility.yul\":5443:5444   */\n      0x00\n        /* \"#utility.yul\":5440:5441   */\n      dup1\n        /* \"#utility.yul\":5433:5445   */\n      revert\n        /* \"#utility.yul\":5413:5447   */\n    tag_403:\n        /* \"#utility.yul\":5481:5487   */\n      dup2\n        /* \"#utility.yul\":5470:5479   */\n      dup8\n        /* \"#utility.yul\":5466:5488   */\n      add\n        /* \"#utility.yul\":5456:5488   */\n      swap2\n      pop\n        /* \"#utility.yul\":5526:5533   */\n      dup8\n        /* \"#utility.yul\":5519:5523   */\n      0x1f\n        /* \"#utility.yul\":5515:5517   */\n      dup4\n        /* \"#utility.yul\":5511:5524   */\n      add\n        /* \"#utility.yul\":5507:5534   */\n      slt\n        /* \"#utility.yul\":5497:5552   */\n      tag_404\n      jumpi\n        /* \"#utility.yul\":5548:5549   */\n      0x00\n        /* \"#utility.yul\":5545:5546   */\n      dup1\n        /* \"#utility.yul\":5538:5550   */\n      revert\n        /* \"#utility.yul\":5497:5552   */\n    tag_404:\n        /* \"#utility.yul\":5588:5590   */\n      dup2\n        /* \"#utility.yul\":5575:5591   */\n      calldataload\n        /* \"#utility.yul\":5614:5616   */\n      dup2\n        /* \"#utility.yul\":5606:5612   */\n      dup2\n        /* \"#utility.yul\":5603:5617   */\n      gt\n        /* \"#utility.yul\":5600:5634   */\n      iszero\n      tag_405\n      jumpi\n        /* \"#utility.yul\":5630:5631   */\n      0x00\n        /* \"#utility.yul\":5627:5628   */\n      dup1\n        /* \"#utility.yul\":5620:5632   */\n      revert\n        /* \"#utility.yul\":5600:5634   */\n    tag_405:\n        /* \"#utility.yul\":5675:5682   */\n      dup9\n        /* \"#utility.yul\":5670:5672   */\n      0x20\n        /* \"#utility.yul\":5661:5667   */\n      dup3\n        /* \"#utility.yul\":5657:5659   */\n      dup6\n        /* \"#utility.yul\":5653:5668   */\n      add\n        /* \"#utility.yul\":5649:5673   */\n      add\n        /* \"#utility.yul\":5646:5683   */\n      gt\n        /* \"#utility.yul\":5643:5700   */\n      iszero\n      tag_406\n      jumpi\n        /* \"#utility.yul\":5696:5697   */\n      0x00\n        /* \"#utility.yul\":5693:5694   */\n      dup1\n        /* \"#utility.yul\":5686:5698   */\n      revert\n        /* \"#utility.yul\":5643:5700   */\n    tag_406:\n        /* \"#utility.yul\":4967:5761   */\n      swap6\n      swap9\n      swap5\n      swap8\n      pop\n      pop\n        /* \"#utility.yul\":5727:5729   */\n      0x20\n        /* \"#utility.yul\":5719:5730   */\n      add\n      swap5\n      pop\n      pop\n      pop\n        /* \"#utility.yul\":4967:5761   */\n      jump\t// out\n        /* \"#utility.yul\":5766:6287   */\n    tag_87:\n        /* \"#utility.yul\":5843:5847   */\n      0x00\n        /* \"#utility.yul\":5849:5855   */\n      dup1\n        /* \"#utility.yul\":5909:5920   */\n      dup4\n        /* \"#utility.yul\":5896:5921   */\n      calldataload\n        /* \"#utility.yul\":6003:6005   */\n      0x1e\n        /* \"#utility.yul\":5999:6006   */\n      not\n        /* \"#utility.yul\":5988:5996   */\n      dup5\n        /* \"#utility.yul\":5972:5986   */\n      calldatasize\n        /* \"#utility.yul\":5968:5997   */\n      sub\n        /* \"#utility.yul\":5964:6007   */\n      add\n        /* \"#utility.yul\":5944:5962   */\n      dup2\n        /* \"#utility.yul\":5940:6008   */\n      slt\n        /* \"#utility.yul\":5930:6026   */\n      tag_408\n      jumpi\n        /* \"#utility.yul\":6022:6023   */\n      0x00\n        /* \"#utility.yul\":6019:6020   */\n      dup1\n        /* \"#utility.yul\":6012:6024   */\n      revert\n        /* \"#utility.yul\":5930:6026   */\n    tag_408:\n        /* \"#utility.yul\":6049:6082   */\n      dup4\n      add\n        /* \"#utility.yul\":6101:6121   */\n      dup1\n      calldataload\n      swap2\n      pop\n        /* \"#utility.yul\":6144:6162   */\n      0xffffffffffffffff\n        /* \"#utility.yul\":6133:6163   */\n      dup3\n      gt\n        /* \"#utility.yul\":6130:6180   */\n      iszero\n      tag_409\n      jumpi\n        /* \"#utility.yul\":6176:6177   */\n      0x00\n        /* \"#utility.yul\":6173:6174   */\n      dup1\n        /* \"#utility.yul\":6166:6178   */\n      revert\n        /* \"#utility.yul\":6130:6180   */\n    tag_409:\n        /* \"#utility.yul\":6209:6213   */\n      0x20\n        /* \"#utility.yul\":6197:6214   */\n      add\n      swap2\n      pop\n        /* \"#utility.yul\":6240:6254   */\n      calldatasize\n        /* \"#utility.yul\":6236:6263   */\n      dup2\n      swap1\n      sub\n        /* \"#utility.yul\":6226:6264   */\n      dup3\n      sgt\n        /* \"#utility.yul\":6223:6281   */\n      iszero\n      tag_287\n      jumpi\n        /* \"#utility.yul\":6277:6278   */\n      0x00\n        /* \"#utility.yul\":6274:6275   */\n      dup1\n        /* \"#utility.yul\":6267:6279   */\n      revert\n        /* \"#utility.yul\":6640:6767   */\n    tag_105:\n        /* \"#utility.yul\":6701:6711   */\n      0x4e487b71\n        /* \"#utility.yul\":6696:6699   */\n      0xe0\n        /* \"#utility.yul\":6692:6712   */\n      shl\n        /* \"#utility.yul\":6689:6690   */\n      0x00\n        /* \"#utility.yul\":6682:6713   */\n      mstore\n        /* \"#utility.yul\":6732:6736   */\n      0x32\n        /* \"#utility.yul\":6729:6730   */\n      0x04\n        /* \"#utility.yul\":6722:6737   */\n      mstore\n        /* \"#utility.yul\":6756:6760   */\n      0x24\n        /* \"#utility.yul\":6753:6754   */\n      0x00\n        /* \"#utility.yul\":6746:6761   */\n      revert\n        /* \"#utility.yul\":6772:6899   */\n    tag_355:\n        /* \"#utility.yul\":6833:6843   */\n      0x4e487b71\n        /* \"#utility.yul\":6828:6831   */\n      0xe0\n        /* \"#utility.yul\":6824:6844   */\n      shl\n        /* \"#utility.yul\":6821:6822   */\n      0x00\n        /* \"#utility.yul\":6814:6845   */\n      mstore\n        /* \"#utility.yul\":6864:6868   */\n      0x11\n        /* \"#utility.yul\":6861:6862   */\n      0x04\n        /* \"#utility.yul\":6854:6869   */\n      mstore\n        /* \"#utility.yul\":6888:6892   */\n      0x24\n        /* \"#utility.yul\":6885:6886   */\n      0x00\n        /* \"#utility.yul\":6878:6893   */\n      revert\n        /* \"#utility.yul\":6904:7039   */\n    tag_112:\n        /* \"#utility.yul\":6943:6946   */\n      0x00\n        /* \"#utility.yul\":6964:6981   */\n      0x01\n      dup3\n      add\n        /* \"#utility.yul\":6961:7004   */\n      tag_416\n      jumpi\n        /* \"#utility.yul\":6984:7002   */\n      tag_416\n      tag_355\n      jump\t// in\n    tag_416:\n      pop\n        /* \"#utility.yul\":7031:7032   */\n      0x01\n        /* \"#utility.yul\":7020:7033   */\n      add\n      swap1\n        /* \"#utility.yul\":6904:7039   */\n      jump\t// out\n        /* \"#utility.yul\":7044:7452   */\n    tag_116:\n        /* \"#utility.yul\":7246:7248   */\n      0x20\n        /* \"#utility.yul\":7228:7249   */\n      dup1\n      dup3\n      mstore\n        /* \"#utility.yul\":7285:7287   */\n      0x2c\n        /* \"#utility.yul\":7265:7283   */\n      swap1\n      dup3\n      add\n        /* \"#utility.yul\":7258:7288   */\n      mstore\n        /* \"#utility.yul\":7324:7358   */\n      0x46756e6374696f6e206d7573742062652063616c6c6564207468726f75676820\n        /* \"#utility.yul\":7319:7321   */\n      0x40\n        /* \"#utility.yul\":7304:7322   */\n      dup3\n      add\n        /* \"#utility.yul\":7297:7359   */\n      mstore\n      shl(0xa2, 0x19195b1959d85d1958d85b1b)\n        /* \"#utility.yul\":7390:7392   */\n      0x60\n        /* \"#utility.yul\":7375:7393   */\n      dup3\n      add\n        /* \"#utility.yul\":7368:7410   */\n      mstore\n        /* \"#utility.yul\":7442:7445   */\n      0x80\n        /* \"#utility.yul\":7427:7446   */\n      add\n      swap1\n        /* \"#utility.yul\":7044:7452   */\n      jump\t// out\n        /* \"#utility.yul\":7457:7865   */\n    tag_121:\n        /* \"#utility.yul\":7659:7661   */\n      0x20\n        /* \"#utility.yul\":7641:7662   */\n      dup1\n      dup3\n      mstore\n        /* \"#utility.yul\":7698:7700   */\n      0x2c\n        /* \"#utility.yul\":7678:7696   */\n      swap1\n      dup3\n      add\n        /* \"#utility.yul\":7671:7701   */\n      mstore\n        /* \"#utility.yul\":7737:7771   */\n      0x46756e6374696f6e206d7573742062652063616c6c6564207468726f75676820\n        /* \"#utility.yul\":7732:7734   */\n      0x40\n        /* \"#utility.yul\":7717:7735   */\n      dup3\n      add\n        /* \"#utility.yul\":7710:7772   */\n      mstore\n      shl(0xa0, 0x6163746976652070726f7879)\n        /* \"#utility.yul\":7803:7805   */\n      0x60\n        /* \"#utility.yul\":7788:7806   */\n      dup3\n      add\n        /* \"#utility.yul\":7781:7823   */\n      mstore\n        /* \"#utility.yul\":7855:7858   */\n      0x80\n        /* \"#utility.yul\":7840:7859   */\n      add\n      swap1\n        /* \"#utility.yul\":7457:7865   */\n      jump\t// out\n        /* \"#utility.yul\":9414:9598   */\n    tag_190:\n        /* \"#utility.yul\":9484:9490   */\n      0x00\n        /* \"#utility.yul\":9537:9539   */\n      0x20\n        /* \"#utility.yul\":9525:9534   */\n      dup3\n        /* \"#utility.yul\":9516:9523   */\n      dup5\n        /* \"#utility.yul\":9512:9535   */\n      sub\n        /* \"#utility.yul\":9508:9540   */\n      slt\n        /* \"#utility.yul\":9505:9557   */\n      iszero\n      tag_425\n      jumpi\n        /* \"#utility.yul\":9553:9554   */\n      0x00\n        /* \"#utility.yul\":9550:9551   */\n      dup1\n        /* \"#utility.yul\":9543:9555   */\n      revert\n        /* \"#utility.yul\":9505:9557   */\n    tag_425:\n      pop\n        /* \"#utility.yul\":9576:9592   */\n      mload\n      swap2\n        /* \"#utility.yul\":9414:9598   */\n      swap1\n      pop\n      jump\t// out\n        /* \"#utility.yul\":9960:10177   */\n    tag_205:\n        /* \"#utility.yul\":9998:10001   */\n      0x00\n      sub(shl(0x60, 0x01), 0x01)\n        /* \"#utility.yul\":10087:10089   */\n      dup1\n        /* \"#utility.yul\":10080:10085   */\n      dup4\n        /* \"#utility.yul\":10076:10090   */\n      and\n        /* \"#utility.yul\":10114:10116   */\n      dup2\n        /* \"#utility.yul\":10105:10112   */\n      dup2\n        /* \"#utility.yul\":10102:10117   */\n      sub\n        /* \"#utility.yul\":10099:10140   */\n      tag_429\n      jumpi\n        /* \"#utility.yul\":10120:10138   */\n      tag_429\n      tag_355\n      jump\t// in\n    tag_429:\n        /* \"#utility.yul\":10169:10170   */\n      0x01\n        /* \"#utility.yul\":10156:10171   */\n      add\n      swap4\n        /* \"#utility.yul\":9960:10177   */\n      swap3\n      pop\n      pop\n      pop\n      jump\t// out\n        /* \"#utility.yul\":10894:11144   */\n    tag_356:\n        /* \"#utility.yul\":10979:10980   */\n      0x00\n        /* \"#utility.yul\":10989:11102   */\n    tag_433:\n        /* \"#utility.yul\":11003:11009   */\n      dup4\n        /* \"#utility.yul\":11000:11001   */\n      dup2\n        /* \"#utility.yul\":10997:11010   */\n      lt\n        /* \"#utility.yul\":10989:11102   */\n      iszero\n      tag_435\n      jumpi\n        /* \"#utility.yul\":11079:11090   */\n      dup2\n      dup2\n      add\n        /* \"#utility.yul\":11073:11091   */\n      mload\n        /* \"#utility.yul\":11060:11071   */\n      dup4\n      dup3\n      add\n        /* \"#utility.yul\":11053:11092   */\n      mstore\n        /* \"#utility.yul\":11025:11027   */\n      0x20\n        /* \"#utility.yul\":11018:11028   */\n      add\n        /* \"#utility.yul\":10989:11102   */\n      jump(tag_433)\n    tag_435:\n      pop\n      pop\n        /* \"#utility.yul\":11136:11137   */\n      0x00\n        /* \"#utility.yul\":11118:11134   */\n      swap2\n      add\n        /* \"#utility.yul\":11111:11138   */\n      mstore\n        /* \"#utility.yul\":10894:11144   */\n      jump\t// out\n        /* \"#utility.yul\":11149:11436   */\n    tag_223:\n        /* \"#utility.yul\":11278:11281   */\n      0x00\n        /* \"#utility.yul\":11316:11322   */\n      dup3\n        /* \"#utility.yul\":11310:11323   */\n      mload\n        /* \"#utility.yul\":11332:11398   */\n      tag_437\n        /* \"#utility.yul\":11391:11397   */\n      dup2\n        /* \"#utility.yul\":11386:11389   */\n      dup5\n        /* \"#utility.yul\":11379:11383   */\n      0x20\n        /* \"#utility.yul\":11371:11377   */\n      dup8\n        /* \"#utility.yul\":11367:11384   */\n      add\n        /* \"#utility.yul\":11332:11398   */\n      tag_356\n      jump\t// in\n    tag_437:\n        /* \"#utility.yul\":11414:11430   */\n      swap2\n      swap1\n      swap2\n      add\n      swap3\n        /* \"#utility.yul\":11149:11436   */\n      swap2\n      pop\n      pop\n      jump\t// out\n        /* \"#utility.yul\":13208:13335   */\n    tag_291:\n        /* \"#utility.yul\":13269:13279   */\n      0x4e487b71\n        /* \"#utility.yul\":13264:13267   */\n      0xe0\n        /* \"#utility.yul\":13260:13280   */\n      shl\n        /* \"#utility.yul\":13257:13258   */\n      0x00\n        /* \"#utility.yul\":13250:13281   */\n      mstore\n        /* \"#utility.yul\":13300:13304   */\n      0x21\n        /* \"#utility.yul\":13297:13298   */\n      0x04\n        /* \"#utility.yul\":13290:13305   */\n      mstore\n        /* \"#utility.yul\":13324:13328   */\n      0x24\n        /* \"#utility.yul\":13321:13322   */\n      0x00\n        /* \"#utility.yul\":13314:13329   */\n      revert\n        /* \"#utility.yul\":15217:15613   */\n    tag_352:\n        /* \"#utility.yul\":15366:15368   */\n      0x20\n        /* \"#utility.yul\":15355:15364   */\n      dup2\n        /* \"#utility.yul\":15348:15369   */\n      mstore\n        /* \"#utility.yul\":15329:15333   */\n      0x00\n        /* \"#utility.yul\":15398:15404   */\n      dup3\n        /* \"#utility.yul\":15392:15405   */\n      mload\n        /* \"#utility.yul\":15441:15447   */\n      dup1\n        /* \"#utility.yul\":15436:15438   */\n      0x20\n        /* \"#utility.yul\":15425:15434   */\n      dup5\n        /* \"#utility.yul\":15421:15439   */\n      add\n        /* \"#utility.yul\":15414:15448   */\n      mstore\n        /* \"#utility.yul\":15457:15536   */\n      tag_451\n        /* \"#utility.yul\":15529:15535   */\n      dup2\n        /* \"#utility.yul\":15524:15526   */\n      0x40\n        /* \"#utility.yul\":15513:15522   */\n      dup6\n        /* \"#utility.yul\":15509:15527   */\n      add\n        /* \"#utility.yul\":15504:15506   */\n      0x20\n        /* \"#utility.yul\":15496:15502   */\n      dup8\n        /* \"#utility.yul\":15492:15507   */\n      add\n        /* \"#utility.yul\":15457:15536   */\n      tag_356\n      jump\t// in\n    tag_451:\n        /* \"#utility.yul\":15597:15599   */\n      0x1f\n        /* \"#utility.yul\":15576:15591   */\n      add\n      not(0x1f)\n        /* \"#utility.yul\":15572:15601   */\n      and\n        /* \"#utility.yul\":15557:15602   */\n      swap2\n      swap1\n      swap2\n      add\n        /* \"#utility.yul\":15604:15606   */\n      0x40\n        /* \"#utility.yul\":15553:15607   */\n      add\n      swap3\n        /* \"#utility.yul\":15217:15613   */\n      swap2\n      pop\n      pop\n      jump\t// out\n    stop\n    data_75b20eef8615de99c108b05f0dbda081c91897128caa336d75dffb97c4132b4d 360894a13ba1a3210667c828492db98dca3e2076cc3735a920a3ca505d382bbc\n    data_9fdcd12e4b726339b32a442b0a448365d5d85c96b2d2cff917b4f66c63110398 416464726573733a206c6f772d6c6576656c2064656c65676174652063616c6c206661696c6564\n\n    auxdata: 0xa26469706673582212205bbbca6dc477817fca3ad86f4a99ec370a0d53a12f9258e93656372a7c1db3a264736f6c63430008120033\n}\n",
				"bytecode": {
					"linkReferences": {},
					"object": "60a06040523060805234801561001457600080fd5b506040516118bb3803806118bb83398101604081905261003391610058565b600280546001600160a01b0319166001600160a01b0392909216919091179055610088565b60006020828403121561006a57600080fd5b81516001600160a01b038116811461008157600080fd5b9392505050565b6080516117fc6100bf600039600081816103b7015281816103f701528181610698015281816106d8015261076b01526117fc6000f3fe6080604052600436106100c65760003560e01c80634f1ef2861161007f578063affed0e011610059578063affed0e0146101ef578063b0d691fe14610213578063b61d27f614610231578063c399ec881461025157600080fd5b80634f1ef2861461018f57806352d1902d146101a25780638da5cb5b146101b757600080fd5b80630825d1fc146100d257806318dfb3c7146101055780633659cfe614610127578063485cc955146101475780634a58db19146101675780634d44560d1461016f57600080fd5b366100cd57005b600080fd5b3480156100de57600080fd5b506100f26100ed366004611296565b610266565b6040519081526020015b60405180910390f35b34801561011157600080fd5b50610125610120366004611342565b6102ad565b005b34801561013357600080fd5b506101256101423660046113ae565b6103ad565b34801561015357600080fd5b506101256101623660046113cb565b61048c565b6101256105a1565b34801561017b57600080fd5b5061012561018a366004611404565b610612565b61012561019d366004611446565b61068e565b3480156101ae57600080fd5b506100f261075e565b3480156101c357600080fd5b506001546101d7906001600160a01b031681565b6040516001600160a01b0390911681526020016100fc565b3480156101fb57600080fd5b506000546201000090046001600160601b03166100f2565b34801561021f57600080fd5b506002546001600160a01b03166101d7565b34801561023d57600080fd5b5061012561024c36600461150a565b610811565b34801561025d57600080fd5b506100f2610860565b60006102706108e3565b61027b85858561093f565b905061028a6040860186611593565b905060000361029c5761029c856109e8565b6102a582610a81565b949350505050565b6102b5610ace565b8281146102ff5760405162461bcd60e51b815260206004820152601360248201527277726f6e67206172726179206c656e6774687360681b60448201526064015b60405180910390fd5b60005b838110156103a65761039485858381811061031f5761031f6115da565b905060200201602081019061033491906113ae565b6000858585818110610348576103486115da565b905060200281019061035a9190611593565b8080601f016020809104026020016040519081016040528093929190818152602001838380828437600092019190915250610b3d92505050565b8061039e81611606565b915050610302565b5050505050565b6001600160a01b037f00000000000000000000000000000000000000000000000000000000000000001630036103f55760405162461bcd60e51b81526004016102f69061161f565b7f00000000000000000000000000000000000000000000000000000000000000006001600160a01b031661043e600080516020611780833981519152546001600160a01b031690565b6001600160a01b0316146104645760405162461bcd60e51b81526004016102f69061166b565b61046d81610bad565b6040805160008082526020820190925261048991839190610bb5565b50565b600054610100900460ff16158080156104ac5750600054600160ff909116105b806104c65750303b1580156104c6575060005460ff166001145b6105295760405162461bcd60e51b815260206004820152602e60248201527f496e697469616c697a61626c653a20636f6e747261637420697320616c72656160448201526d191e481a5b9a5d1a585b1a5e995960921b60648201526084016102f6565b6000805460ff19166001179055801561054c576000805461ff0019166101001790555b6105568383610d20565b801561059c576000805461ff0019169055604051600181527f7f26b83ff96e1f2b6a682f133852f6798a09c465da95921460cefb38474024989060200160405180910390a15b505050565b60006105b56002546001600160a01b031690565b6001600160a01b03163460405160006040518083038185875af1925050503d80600081146105ff576040519150601f19603f3d011682016040523d82523d6000602084013e610604565b606091505b505090508061048957600080fd5b61061a610d7d565b6002546001600160a01b031660405163040b850f60e31b81526001600160a01b03848116600483015260248201849052919091169063205c287890604401600060405180830381600087803b15801561067257600080fd5b505af1158015610686573d6000803e3d6000fd5b505050505050565b6001600160a01b037f00000000000000000000000000000000000000000000000000000000000000001630036106d65760405162461bcd60e51b81526004016102f69061161f565b7f00000000000000000000000000000000000000000000000000000000000000006001600160a01b031661071f600080516020611780833981519152546001600160a01b031690565b6001600160a01b0316146107455760405162461bcd60e51b81526004016102f69061166b565b61074e82610bad565b61075a82826001610bb5565b5050565b6000306001600160a01b037f000000000000000000000000000000000000000000000000000000000000000016146107fe5760405162461bcd60e51b815260206004820152603860248201527f555550535570677261646561626c653a206d757374206e6f742062652063616c60448201527f6c6564207468726f7567682064656c656761746563616c6c000000000000000060648201526084016102f6565b5060008051602061178083398151915290565b610819610ace565b61085a848484848080601f016020809104026020016040519081016040528093929190818152602001838380828437600092019190915250610b3d92505050565b50505050565b60006108746002546001600160a01b031690565b6040516370a0823160e01b81523060048201526001600160a01b0391909116906370a0823190602401602060405180830381865afa1580156108ba573d6000803e3d6000fd5b505050506040513d601f19601f820116820180604052508101906108de91906116b7565b905090565b6002546001600160a01b0316331461093d5760405162461bcd60e51b815260206004820152601c60248201527f6163636f756e743a206e6f742066726f6d20456e747279506f696e740000000060448201526064016102f6565b565b7f19457468657265756d205369676e6564204d6573736167653a0a3332000000006000908152601c839052603c81206109bc61097f610140870187611593565b8080601f0160208091040260200160405190810160405280939291908181526020018383808284376000920191909152508593925050610dce9050565b6001546001600160a01b039081169116146109db5760019150506109e1565b60009150505b9392505050565b60008054602083013591620100009091046001600160601b0316906002610a0e836116d0565b91906101000a8154816001600160601b0302191690836001600160601b031602179055506001600160601b0316146104895760405162461bcd60e51b81526020600482015260166024820152756163636f756e743a20696e76616c6964206e6f6e636560501b60448201526064016102f6565b801561048957604051600090339060001990849084818181858888f193505050503d80600081146103a6576040519150601f19603f3d011682016040523d82523d6000602084013e6103a6565b6002546001600160a01b0316331480610af157506001546001600160a01b031633145b61093d5760405162461bcd60e51b815260206004820181905260248201527f6163636f756e743a206e6f74204f776e6572206f7220456e747279506f696e7460448201526064016102f6565b600080846001600160a01b03168484604051610b59919061171a565b60006040518083038185875af1925050503d8060008114610b96576040519150601f19603f3d011682016040523d82523d6000602084013e610b9b565b606091505b5091509150816103a657805160208201fd5b610489610d7d565b7f4910fdfa16fed3260ed0e7147f7cc6da11a60208b5b9406d12a635614ffd91435460ff1615610be85761059c83610df2565b826001600160a01b03166352d1902d6040518163ffffffff1660e01b8152600401602060405180830381865afa925050508015610c42575060408051601f3d908101601f19168201909252610c3f918101906116b7565b60015b610ca55760405162461bcd60e51b815260206004820152602e60248201527f45524331393637557067726164653a206e657720696d706c656d656e7461746960448201526d6f6e206973206e6f74205555505360901b60648201526084016102f6565b6000805160206117808339815191528114610d145760405162461bcd60e51b815260206004820152602960248201527f45524331393637557067726164653a20756e737570706f727465642070726f786044820152681a58589b195555525160ba1b60648201526084016102f6565b5061059c838383610e8e565b600180546001600160a01b038085166001600160a01b03199283168117909355600280549185169190921681179091556040517f47e55c76e7a6f1fd8996a1da8008c1ea29699cca35e7bcd057f2dec313b6e5de90600090a35050565b6001546001600160a01b0316331480610d9557503330145b61093d5760405162461bcd60e51b815260206004820152600a60248201526937b7363c9037bbb732b960b11b60448201526064016102f6565b6000806000610ddd8585610eb3565b91509150610dea81610ef8565b509392505050565b6001600160a01b0381163b610e5f5760405162461bcd60e51b815260206004820152602d60248201527f455243313936373a206e657720696d706c656d656e746174696f6e206973206e60448201526c1bdd08184818dbdb9d1c9858dd609a1b60648201526084016102f6565b60008051602061178083398151915280546001600160a01b0319166001600160a01b0392909216919091179055565b610e9783611042565b600082511180610ea45750805b1561059c5761085a8383611082565b6000808251604103610ee95760208301516040840151606085015160001a610edd878285856110a7565b94509450505050610ef1565b506000905060025b9250929050565b6000816004811115610f0c57610f0c611736565b03610f145750565b6001816004811115610f2857610f28611736565b03610f755760405162461bcd60e51b815260206004820152601860248201527f45434453413a20696e76616c6964207369676e6174757265000000000000000060448201526064016102f6565b6002816004811115610f8957610f89611736565b03610fd65760405162461bcd60e51b815260206004820152601f60248201527f45434453413a20696e76616c6964207369676e6174757265206c656e6774680060448201526064016102f6565b6003816004811115610fea57610fea611736565b036104895760405162461bcd60e51b815260206004820152602260248201527f45434453413a20696e76616c6964207369676e6174757265202773272076616c604482015261756560f01b60648201526084016102f6565b61104b81610df2565b6040516001600160a01b038216907fbc7cd75a20ee27fd9adebab32041f755214dbc6bffa90cc0225b39da2e5c2d3b90600090a250565b60606109e183836040518060600160405280602781526020016117a06027913961116b565b6000807f7fffffffffffffffffffffffffffffff5d576e7357a4501ddfe92f46681b20a08311156110de5750600090506003611162565b6040805160008082526020820180845289905260ff881692820192909252606081018690526080810185905260019060a0016020604051602081039080840390855afa158015611132573d6000803e3d6000fd5b5050604051601f1901519150506001600160a01b03811661115b57600060019250925050611162565b9150600090505b94509492505050565b6060600080856001600160a01b031685604051611188919061171a565b600060405180830381855af49150503d80600081146111c3576040519150601f19603f3d011682016040523d82523d6000602084013e6111c8565b606091505b50915091506111d9868383876111e3565b9695505050505050565b6060831561125257825160000361124b576001600160a01b0385163b61124b5760405162461bcd60e51b815260206004820152601d60248201527f416464726573733a2063616c6c20746f206e6f6e2d636f6e747261637400000060448201526064016102f6565b50816102a5565b6102a583838151156112675781518083602001fd5b8060405162461bcd60e51b81526004016102f6919061174c565b6001600160a01b038116811461048957600080fd5b600080600080608085870312156112ac57600080fd5b843567ffffffffffffffff8111156112c357600080fd5b850161016081880312156112d657600080fd5b93506020850135925060408501356112ed81611281565b9396929550929360600135925050565b60008083601f84011261130f57600080fd5b50813567ffffffffffffffff81111561132757600080fd5b6020830191508360208260051b8501011115610ef157600080fd5b6000806000806040858703121561135857600080fd5b843567ffffffffffffffff8082111561137057600080fd5b61137c888389016112fd565b9096509450602087013591508082111561139557600080fd5b506113a2878288016112fd565b95989497509550505050565b6000602082840312156113c057600080fd5b81356109e181611281565b600080604083850312156113de57600080fd5b82356113e981611281565b915060208301356113f981611281565b809150509250929050565b6000806040838503121561141757600080fd5b823561142281611281565b946020939093013593505050565b634e487b7160e01b600052604160045260246000fd5b6000806040838503121561145957600080fd5b823561146481611281565b9150602083013567ffffffffffffffff8082111561148157600080fd5b818501915085601f83011261149557600080fd5b8135818111156114a7576114a7611430565b604051601f8201601f19908116603f011681019083821181831017156114cf576114cf611430565b816040528281528860208487010111156114e857600080fd5b8260208601602083013760006020848301015280955050505050509250929050565b6000806000806060858703121561152057600080fd5b843561152b81611281565b935060208501359250604085013567ffffffffffffffff8082111561154f57600080fd5b818701915087601f83011261156357600080fd5b81358181111561157257600080fd5b88602082850101111561158457600080fd5b95989497505060200194505050565b6000808335601e198436030181126115aa57600080fd5b83018035915067ffffffffffffffff8211156115c557600080fd5b602001915036819003821315610ef157600080fd5b634e487b7160e01b600052603260045260246000fd5b634e487b7160e01b600052601160045260246000fd5b600060018201611618576116186115f0565b5060010190565b6020808252602c908201527f46756e6374696f6e206d7573742062652063616c6c6564207468726f7567682060408201526b19195b1959d85d1958d85b1b60a21b606082015260800190565b6020808252602c908201527f46756e6374696f6e206d7573742062652063616c6c6564207468726f7567682060408201526b6163746976652070726f787960a01b606082015260800190565b6000602082840312156116c957600080fd5b5051919050565b60006001600160601b038083168181036116ec576116ec6115f0565b6001019392505050565b60005b838110156117115781810151838201526020016116f9565b50506000910152565b6000825161172c8184602087016116f6565b9190910192915050565b634e487b7160e01b600052602160045260246000fd5b602081526000825180602084015261176b8160408501602087016116f6565b601f01601f1916919091016040019291505056fe360894a13ba1a3210667c828492db98dca3e2076cc3735a920a3ca505d382bbc416464726573733a206c6f772d6c6576656c2064656c65676174652063616c6c206661696c6564a26469706673582212205bbbca6dc477817fca3ad86f4a99ec370a0d53a12f9258e93656372a7c1db3a264736f6c63430008120033",
					"opcodes": "PUSH1 0xA0 PUSH1 0x40 MSTORE ADDRESS PUSH1 0x80 MSTORE CALLVALUE DUP1 ISZERO PUSH2 0x14 JUMPI PUSH1 0x0 DUP1 REVERT JUMPDEST POP PUSH1 0x40 MLOAD PUSH2 0x18BB CODESIZE SUB DUP1 PUSH2 0x18BB DUP4 CODECOPY DUP2 ADD PUSH1 0x40 DUP2 SWAP1 MSTORE PUSH2 0x33 SWAP2 PUSH2 0x58 JUMP JUMPDEST PUSH1 0x2 DUP1 SLOAD PUSH1 0x1 PUSH1 0x1 PUSH1 0xA0 SHL SUB NOT AND PUSH1 0x1 PUSH1 0x1 PUSH1 0xA0 SHL SUB SWAP3 SWAP1 SWAP3 AND SWAP2 SWAP1 SWAP2 OR SWAP1 SSTORE PUSH2 0x88 JUMP JUMPDEST PUSH1 0x0 PUSH1 0x20 DUP3 DUP5 SUB SLT ISZERO PUSH2 0x6A JUMPI PUSH1 0x0 DUP1 REVERT JUMPDEST DUP2 MLOAD PUSH1 0x1 PUSH1 0x1 PUSH1 0xA0 SHL SUB DUP2 AND DUP2 EQ PUSH2 0x81 JUMPI PUSH1 0x0 DUP1 REVERT JUMPDEST SWAP4 SWAP3 POP POP POP JUMP JUMPDEST PUSH1 0x80 MLOAD PUSH2 0x17FC PUSH2 0xBF PUSH1 0x0 CODECOPY PUSH1 0x0 DUP2 DUP2 PUSH2 0x3B7 ADD MSTORE DUP2 DUP2 PUSH2 0x3F7 ADD MSTORE DUP2 DUP2 PUSH2 0x698 ADD MSTORE DUP2 DUP2 PUSH2 0x6D8 ADD MSTORE PUSH2 0x76B ADD MSTORE PUSH2 0x17FC PUSH1 0x0 RETURN INVALID PUSH1 0x80 PUSH1 0x40 MSTORE PUSH1 0x4 CALLDATASIZE LT PUSH2 0xC6 JUMPI PUSH1 0x0 CALLDATALOAD PUSH1 0xE0 SHR DUP1 PUSH4 0x4F1EF286 GT PUSH2 0x7F JUMPI DUP1 PUSH4 0xAFFED0E0 GT PUSH2 0x59 JUMPI DUP1 PUSH4 0xAFFED0E0 EQ PUSH2 0x1EF JUMPI DUP1 PUSH4 0xB0D691FE EQ PUSH2 0x213 JUMPI DUP1 PUSH4 0xB61D27F6 EQ PUSH2 0x231 JUMPI DUP1 PUSH4 0xC399EC88 EQ PUSH2 0x251 JUMPI PUSH1 0x0 DUP1 REVERT JUMPDEST DUP1 PUSH4 0x4F1EF286 EQ PUSH2 0x18F JUMPI DUP1 PUSH4 0x52D1902D EQ PUSH2 0x1A2 JUMPI DUP1 PUSH4 0x8DA5CB5B EQ PUSH2 0x1B7 JUMPI PUSH1 0x0 DUP1 REVERT JUMPDEST DUP1 PUSH4 0x825D1FC EQ PUSH2 0xD2 JUMPI DUP1 PUSH4 0x18DFB3C7 EQ PUSH2 0x105 JUMPI DUP1 PUSH4 0x3659CFE6 EQ PUSH2 0x127 JUMPI DUP1 PUSH4 0x485CC955 EQ PUSH2 0x147 JUMPI DUP1 PUSH4 0x4A58DB19 EQ PUSH2 0x167 JUMPI DUP1 PUSH4 0x4D44560D EQ PUSH2 0x16F JUMPI PUSH1 0x0 DUP1 REVERT JUMPDEST CALLDATASIZE PUSH2 0xCD JUMPI STOP JUMPDEST PUSH1 0x0 DUP1 REVERT JUMPDEST CALLVALUE DUP1 ISZERO PUSH2 0xDE JUMPI PUSH1 0x0 DUP1 REVERT JUMPDEST POP PUSH2 0xF2 PUSH2 0xED CALLDATASIZE PUSH1 0x4 PUSH2 0x1296 JUMP JUMPDEST PUSH2 0x266 JUMP JUMPDEST PUSH1 0x40 MLOAD SWAP1 DUP2 MSTORE PUSH1 0x20 ADD JUMPDEST PUSH1 0x40 MLOAD DUP1 SWAP2 SUB SWAP1 RETURN JUMPDEST CALLVALUE DUP1 ISZERO PUSH2 0x111 JUMPI PUSH1 0x0 DUP1 REVERT JUMPDEST POP PUSH2 0x125 PUSH2 0x120 CALLDATASIZE PUSH1 0x4 PUSH2 0x1342 JUMP JUMPDEST PUSH2 0x2AD JUMP JUMPDEST STOP JUMPDEST CALLVALUE DUP1 ISZERO PUSH2 0x133 JUMPI PUSH1 0x0 DUP1 REVERT JUMPDEST POP PUSH2 0x125 PUSH2 0x142 CALLDATASIZE PUSH1 0x4 PUSH2 0x13AE JUMP JUMPDEST PUSH2 0x3AD JUMP JUMPDEST CALLVALUE DUP1 ISZERO PUSH2 0x153 JUMPI PUSH1 0x0 DUP1 REVERT JUMPDEST POP PUSH2 0x125 PUSH2 0x162 CALLDATASIZE PUSH1 0x4 PUSH2 0x13CB JUMP JUMPDEST PUSH2 0x48C JUMP JUMPDEST PUSH2 0x125 PUSH2 0x5A1 JUMP JUMPDEST CALLVALUE DUP1 ISZERO PUSH2 0x17B JUMPI PUSH1 0x0 DUP1 REVERT JUMPDEST POP PUSH2 0x125 PUSH2 0x18A CALLDATASIZE PUSH1 0x4 PUSH2 0x1404 JUMP JUMPDEST PUSH2 0x612 JUMP JUMPDEST PUSH2 0x125 PUSH2 0x19D CALLDATASIZE PUSH1 0x4 PUSH2 0x1446 JUMP JUMPDEST PUSH2 0x68E JUMP JUMPDEST CALLVALUE DUP1 ISZERO PUSH2 0x1AE JUMPI PUSH1 0x0 DUP1 REVERT JUMPDEST POP PUSH2 0xF2 PUSH2 0x75E JUMP JUMPDEST CALLVALUE DUP1 ISZERO PUSH2 0x1C3 JUMPI PUSH1 0x0 DUP1 REVERT JUMPDEST POP PUSH1 0x1 SLOAD PUSH2 0x1D7 SWAP1 PUSH1 0x1 PUSH1 0x1 PUSH1 0xA0 SHL SUB AND DUP2 JUMP JUMPDEST PUSH1 0x40 MLOAD PUSH1 0x1 PUSH1 0x1 PUSH1 0xA0 SHL SUB SWAP1 SWAP2 AND DUP2 MSTORE PUSH1 0x20 ADD PUSH2 0xFC JUMP JUMPDEST CALLVALUE DUP1 ISZERO PUSH2 0x1FB JUMPI PUSH1 0x0 DUP1 REVERT JUMPDEST POP PUSH1 0x0 SLOAD PUSH3 0x10000 SWAP1 DIV PUSH1 0x1 PUSH1 0x1 PUSH1 0x60 SHL SUB AND PUSH2 0xF2 JUMP JUMPDEST CALLVALUE DUP1 ISZERO PUSH2 0x21F JUMPI PUSH1 0x0 DUP1 REVERT JUMPDEST POP PUSH1 0x2 SLOAD PUSH1 0x1 PUSH1 0x1 PUSH1 0xA0 SHL SUB AND PUSH2 0x1D7 JUMP JUMPDEST CALLVALUE DUP1 ISZERO PUSH2 0x23D JUMPI PUSH1 0x0 DUP1 REVERT JUMPDEST POP PUSH2 0x125 PUSH2 0x24C CALLDATASIZE PUSH1 0x4 PUSH2 0x150A JUMP JUMPDEST PUSH2 0x811 JUMP JUMPDEST CALLVALUE DUP1 ISZERO PUSH2 0x25D JUMPI PUSH1 0x0 DUP1 REVERT JUMPDEST POP PUSH2 0xF2 PUSH2 0x860 JUMP JUMPDEST PUSH1 0x0 PUSH2 0x270 PUSH2 0x8E3 JUMP JUMPDEST PUSH2 0x27B DUP6 DUP6 DUP6 PUSH2 0x93F JUMP JUMPDEST SWAP1 POP PUSH2 0x28A PUSH1 0x40 DUP7 ADD DUP7 PUSH2 0x1593 JUMP JUMPDEST SWAP1 POP PUSH1 0x0 SUB PUSH2 0x29C JUMPI PUSH2 0x29C DUP6 PUSH2 0x9E8 JUMP JUMPDEST PUSH2 0x2A5 DUP3 PUSH2 0xA81 JUMP JUMPDEST SWAP5 SWAP4 POP POP POP POP JUMP JUMPDEST PUSH2 0x2B5 PUSH2 0xACE JUMP JUMPDEST DUP3 DUP2 EQ PUSH2 0x2FF JUMPI PUSH1 0x40 MLOAD PUSH3 0x461BCD PUSH1 0xE5 SHL DUP2 MSTORE PUSH1 0x20 PUSH1 0x4 DUP3 ADD MSTORE PUSH1 0x13 PUSH1 0x24 DUP3 ADD MSTORE PUSH19 0x77726F6E67206172726179206C656E67746873 PUSH1 0x68 SHL PUSH1 0x44 DUP3 ADD MSTORE PUSH1 0x64 ADD JUMPDEST PUSH1 0x40 MLOAD DUP1 SWAP2 SUB SWAP1 REVERT JUMPDEST PUSH1 0x0 JUMPDEST DUP4 DUP2 LT ISZERO PUSH2 0x3A6 JUMPI PUSH2 0x394 DUP6 DUP6 DUP4 DUP2 DUP2 LT PUSH2 0x31F JUMPI PUSH2 0x31F PUSH2 0x15DA JUMP JUMPDEST SWAP1 POP PUSH1 0x20 MUL ADD PUSH1 0x20 DUP2 ADD SWAP1 PUSH2 0x334 SWAP2 SWAP1 PUSH2 0x13AE JUMP JUMPDEST PUSH1 0x0 DUP6 DUP6 DUP6 DUP2 DUP2 LT PUSH2 0x348 JUMPI PUSH2 0x348 PUSH2 0x15DA JUMP JUMPDEST SWAP1 POP PUSH1 0x20 MUL DUP2 ADD SWAP1 PUSH2 0x35A SWAP2 SWAP1 PUSH2 0x1593 JUMP JUMPDEST DUP1 DUP1 PUSH1 0x1F ADD PUSH1 0x20 DUP1 SWAP2 DIV MUL PUSH1 0x20 ADD PUSH1 0x40 MLOAD SWAP1 DUP2 ADD PUSH1 0x40 MSTORE DUP1 SWAP4 SWAP3 SWAP2 SWAP1 DUP2 DUP2 MSTORE PUSH1 0x20 ADD DUP4 DUP4 DUP1 DUP3 DUP5 CALLDATACOPY PUSH1 0x0 SWAP3 ADD SWAP2 SWAP1 SWAP2 MSTORE POP PUSH2 0xB3D SWAP3 POP POP POP JUMP JUMPDEST DUP1 PUSH2 0x39E DUP2 PUSH2 0x1606 JUMP JUMPDEST SWAP2 POP POP PUSH2 0x302 JUMP JUMPDEST POP POP POP POP POP JUMP JUMPDEST PUSH1 0x1 PUSH1 0x1 PUSH1 0xA0 SHL SUB PUSH32 0x0 AND ADDRESS SUB PUSH2 0x3F5 JUMPI PUSH1 0x40 MLOAD PUSH3 0x461BCD PUSH1 0xE5 SHL DUP2 MSTORE PUSH1 0x4 ADD PUSH2 0x2F6 SWAP1 PUSH2 0x161F JUMP JUMPDEST PUSH32 0x0 PUSH1 0x1 PUSH1 0x1 PUSH1 0xA0 SHL SUB AND PUSH2 0x43E PUSH1 0x0 DUP1 MLOAD PUSH1 0x20 PUSH2 0x1780 DUP4 CODECOPY DUP2 MLOAD SWAP2 MSTORE SLOAD PUSH1 0x1 PUSH1 0x1 PUSH1 0xA0 SHL SUB AND SWAP1 JUMP JUMPDEST PUSH1 0x1 PUSH1 0x1 PUSH1 0xA0 SHL SUB AND EQ PUSH2 0x464 JUMPI PUSH1 0x40 MLOAD PUSH3 0x461BCD PUSH1 0xE5 SHL DUP2 MSTORE PUSH1 0x4 ADD PUSH2 0x2F6 SWAP1 PUSH2 0x166B JUMP JUMPDEST PUSH2 0x46D DUP2 PUSH2 0xBAD JUMP JUMPDEST PUSH1 0x40 DUP1 MLOAD PUSH1 0x0 DUP1 DUP3 MSTORE PUSH1 0x20 DUP3 ADD SWAP1 SWAP3 MSTORE PUSH2 0x489 SWAP2 DUP4 SWAP2 SWAP1 PUSH2 0xBB5 JUMP JUMPDEST POP JUMP JUMPDEST PUSH1 0x0 SLOAD PUSH2 0x100 SWAP1 DIV PUSH1 0xFF AND ISZERO DUP1 DUP1 ISZERO PUSH2 0x4AC JUMPI POP PUSH1 0x0 SLOAD PUSH1 0x1 PUSH1 0xFF SWAP1 SWAP2 AND LT JUMPDEST DUP1 PUSH2 0x4C6 JUMPI POP ADDRESS EXTCODESIZE ISZERO DUP1 ISZERO PUSH2 0x4C6 JUMPI POP PUSH1 0x0 SLOAD PUSH1 0xFF AND PUSH1 0x1 EQ JUMPDEST PUSH2 0x529 JUMPI PUSH1 0x40 MLOAD PUSH3 0x461BCD PUSH1 0xE5 SHL DUP2 MSTORE PUSH1 0x20 PUSH1 0x4 DUP3 ADD MSTORE PUSH1 0x2E PUSH1 0x24 DUP3 ADD MSTORE PUSH32 0x496E697469616C697A61626C653A20636F6E747261637420697320616C726561 PUSH1 0x44 DUP3 ADD MSTORE PUSH14 0x191E481A5B9A5D1A585B1A5E9959 PUSH1 0x92 SHL PUSH1 0x64 DUP3 ADD MSTORE PUSH1 0x84 ADD PUSH2 0x2F6 JUMP JUMPDEST PUSH1 0x0 DUP1 SLOAD PUSH1 0xFF NOT AND PUSH1 0x1 OR SWAP1 SSTORE DUP1 ISZERO PUSH2 0x54C JUMPI PUSH1 0x0 DUP1 SLOAD PUSH2 0xFF00 NOT AND PUSH2 0x100 OR SWAP1 SSTORE JUMPDEST PUSH2 0x556 DUP4 DUP4 PUSH2 0xD20 JUMP JUMPDEST DUP1 ISZERO PUSH2 0x59C JUMPI PUSH1 0x0 DUP1 SLOAD PUSH2 0xFF00 NOT AND SWAP1 SSTORE PUSH1 0x40 MLOAD PUSH1 0x1 DUP2 MSTORE PUSH32 0x7F26B83FF96E1F2B6A682F133852F6798A09C465DA95921460CEFB3847402498 SWAP1 PUSH1 0x20 ADD PUSH1 0x40 MLOAD DUP1 SWAP2 SUB SWAP1 LOG1 JUMPDEST POP POP POP JUMP JUMPDEST PUSH1 0x0 PUSH2 0x5B5 PUSH1 0x2 SLOAD PUSH1 0x1 PUSH1 0x1 PUSH1 0xA0 SHL SUB AND SWAP1 JUMP JUMPDEST PUSH1 0x1 PUSH1 0x1 PUSH1 0xA0 SHL SUB AND CALLVALUE PUSH1 0x40 MLOAD PUSH1 0x0 PUSH1 0x40 MLOAD DUP1 DUP4 SUB DUP2 DUP6 DUP8 GAS CALL SWAP3 POP POP POP RETURNDATASIZE DUP1 PUSH1 0x0 DUP2 EQ PUSH2 0x5FF JUMPI PUSH1 0x40 MLOAD SWAP2 POP PUSH1 0x1F NOT PUSH1 0x3F RETURNDATASIZE ADD AND DUP3 ADD PUSH1 0x40 MSTORE RETURNDATASIZE DUP3 MSTORE RETURNDATASIZE PUSH1 0x0 PUSH1 0x20 DUP5 ADD RETURNDATACOPY PUSH2 0x604 JUMP JUMPDEST PUSH1 0x60 SWAP2 POP JUMPDEST POP POP SWAP1 POP DUP1 PUSH2 0x489 JUMPI PUSH1 0x0 DUP1 REVERT JUMPDEST PUSH2 0x61A PUSH2 0xD7D JUMP JUMPDEST PUSH1 0x2 SLOAD PUSH1 0x1 PUSH1 0x1 PUSH1 0xA0 SHL SUB AND PUSH1 0x40 MLOAD PUSH4 0x40B850F PUSH1 0xE3 SHL DUP2 MSTORE PUSH1 0x1 PUSH1 0x1 PUSH1 0xA0 SHL SUB DUP5 DUP2 AND PUSH1 0x4 DUP4 ADD MSTORE PUSH1 0x24 DUP3 ADD DUP5 SWAP1 MSTORE SWAP2 SWAP1 SWAP2 AND SWAP1 PUSH4 0x205C2878 SWAP1 PUSH1 0x44 ADD PUSH1 0x0 PUSH1 0x40 MLOAD DUP1 DUP4 SUB DUP2 PUSH1 0x0 DUP8 DUP1 EXTCODESIZE ISZERO DUP1 ISZERO PUSH2 0x672 JUMPI PUSH1 0x0 DUP1 REVERT JUMPDEST POP GAS CALL ISZERO DUP1 ISZERO PUSH2 0x686 JUMPI RETURNDATASIZE PUSH1 0x0 DUP1 RETURNDATACOPY RETURNDATASIZE PUSH1 0x0 REVERT JUMPDEST POP POP POP POP POP POP JUMP JUMPDEST PUSH1 0x1 PUSH1 0x1 PUSH1 0xA0 SHL SUB PUSH32 0x0 AND ADDRESS SUB PUSH2 0x6D6 JUMPI PUSH1 0x40 MLOAD PUSH3 0x461BCD PUSH1 0xE5 SHL DUP2 MSTORE PUSH1 0x4 ADD PUSH2 0x2F6 SWAP1 PUSH2 0x161F JUMP JUMPDEST PUSH32 0x0 PUSH1 0x1 PUSH1 0x1 PUSH1 0xA0 SHL SUB AND PUSH2 0x71F PUSH1 0x0 DUP1 MLOAD PUSH1 0x20 PUSH2 0x1780 DUP4 CODECOPY DUP2 MLOAD SWAP2 MSTORE SLOAD PUSH1 0x1 PUSH1 0x1 PUSH1 0xA0 SHL SUB AND SWAP1 JUMP JUMPDEST PUSH1 0x1 PUSH1 0x1 PUSH1 0xA0 SHL SUB AND EQ PUSH2 0x745 JUMPI PUSH1 0x40 MLOAD PUSH3 0x461BCD PUSH1 0xE5 SHL DUP2 MSTORE PUSH1 0x4 ADD PUSH2 0x2F6 SWAP1 PUSH2 0x166B JUMP JUMPDEST PUSH2 0x74E DUP3 PUSH2 0xBAD JUMP JUMPDEST PUSH2 0x75A DUP3 DUP3 PUSH1 0x1 PUSH2 0xBB5 JUMP JUMPDEST POP POP JUMP JUMPDEST PUSH1 0x0 ADDRESS PUSH1 0x1 PUSH1 0x1 PUSH1 0xA0 SHL SUB PUSH32 0x0 AND EQ PUSH2 0x7FE JUMPI PUSH1 0x40 MLOAD PUSH3 0x461BCD PUSH1 0xE5 SHL DUP2 MSTORE PUSH1 0x20 PUSH1 0x4 DUP3 ADD MSTORE PUSH1 0x38 PUSH1 0x24 DUP3 ADD MSTORE PUSH32 0x555550535570677261646561626C653A206D757374206E6F742062652063616C PUSH1 0x44 DUP3 ADD MSTORE PUSH32 0x6C6564207468726F7567682064656C656761746563616C6C0000000000000000 PUSH1 0x64 DUP3 ADD MSTORE PUSH1 0x84 ADD PUSH2 0x2F6 JUMP JUMPDEST POP PUSH1 0x0 DUP1 MLOAD PUSH1 0x20 PUSH2 0x1780 DUP4 CODECOPY DUP2 MLOAD SWAP2 MSTORE SWAP1 JUMP JUMPDEST PUSH2 0x819 PUSH2 0xACE JUMP JUMPDEST PUSH2 0x85A DUP5 DUP5 DUP5 DUP5 DUP1 DUP1 PUSH1 0x1F ADD PUSH1 0x20 DUP1 SWAP2 DIV MUL PUSH1 0x20 ADD PUSH1 0x40 MLOAD SWAP1 DUP2 ADD PUSH1 0x40 MSTORE DUP1 SWAP4 SWAP3 SWAP2 SWAP1 DUP2 DUP2 MSTORE PUSH1 0x20 ADD DUP4 DUP4 DUP1 DUP3 DUP5 CALLDATACOPY PUSH1 0x0 SWAP3 ADD SWAP2 SWAP1 SWAP2 MSTORE POP PUSH2 0xB3D SWAP3 POP POP POP JUMP JUMPDEST POP POP POP POP JUMP JUMPDEST PUSH1 0x0 PUSH2 0x874 PUSH1 0x2 SLOAD PUSH1 0x1 PUSH1 0x1 PUSH1 0xA0 SHL SUB AND SWAP1 JUMP JUMPDEST PUSH1 0x40 MLOAD PUSH4 0x70A08231 PUSH1 0xE0 SHL DUP2 MSTORE ADDRESS PUSH1 0x4 DUP3 ADD MSTORE PUSH1 0x1 PUSH1 0x1 PUSH1 0xA0 SHL SUB SWAP2 SWAP1 SWAP2 AND SWAP1 PUSH4 0x70A08231 SWAP1 PUSH1 0x24 ADD PUSH1 0x20 PUSH1 0x40 MLOAD DUP1 DUP4 SUB DUP2 DUP7 GAS STATICCALL ISZERO DUP1 ISZERO PUSH2 0x8BA JUMPI RETURNDATASIZE PUSH1 0x0 DUP1 RETURNDATACOPY RETURNDATASIZE PUSH1 0x0 REVERT JUMPDEST POP POP POP POP PUSH1 0x40 MLOAD RETURNDATASIZE PUSH1 0x1F NOT PUSH1 0x1F DUP3 ADD AND DUP3 ADD DUP1 PUSH1 0x40 MSTORE POP DUP2 ADD SWAP1 PUSH2 0x8DE SWAP2 SWAP1 PUSH2 0x16B7 JUMP JUMPDEST SWAP1 POP SWAP1 JUMP JUMPDEST PUSH1 0x2 SLOAD PUSH1 0x1 PUSH1 0x1 PUSH1 0xA0 SHL SUB AND CALLER EQ PUSH2 0x93D JUMPI PUSH1 0x40 MLOAD PUSH3 0x461BCD PUSH1 0xE5 SHL DUP2 MSTORE PUSH1 0x20 PUSH1 0x4 DUP3 ADD MSTORE PUSH1 0x1C PUSH1 0x24 DUP3 ADD MSTORE PUSH32 0x6163636F756E743A206E6F742066726F6D20456E747279506F696E7400000000 PUSH1 0x44 DUP3 ADD MSTORE PUSH1 0x64 ADD PUSH2 0x2F6 JUMP JUMPDEST JUMP JUMPDEST PUSH32 0x19457468657265756D205369676E6564204D6573736167653A0A333200000000 PUSH1 0x0 SWAP1 DUP2 MSTORE PUSH1 0x1C DUP4 SWAP1 MSTORE PUSH1 0x3C DUP2 KECCAK256 PUSH2 0x9BC PUSH2 0x97F PUSH2 0x140 DUP8 ADD DUP8 PUSH2 0x1593 JUMP JUMPDEST DUP1 DUP1 PUSH1 0x1F ADD PUSH1 0x20 DUP1 SWAP2 DIV MUL PUSH1 0x20 ADD PUSH1 0x40 MLOAD SWAP1 DUP2 ADD PUSH1 0x40 MSTORE DUP1 SWAP4 SWAP3 SWAP2 SWAP1 DUP2 DUP2 MSTORE PUSH1 0x20 ADD DUP4 DUP4 DUP1 DUP3 DUP5 CALLDATACOPY PUSH1 0x0 SWAP3 ADD SWAP2 SWAP1 SWAP2 MSTORE POP DUP6 SWAP4 SWAP3 POP POP PUSH2 0xDCE SWAP1 POP JUMP JUMPDEST PUSH1 0x1 SLOAD PUSH1 0x1 PUSH1 0x1 PUSH1 0xA0 SHL SUB SWAP1 DUP2 AND SWAP2 AND EQ PUSH2 0x9DB JUMPI PUSH1 0x1 SWAP2 POP POP PUSH2 0x9E1 JUMP JUMPDEST PUSH1 0x0 SWAP2 POP POP JUMPDEST SWAP4 SWAP3 POP POP POP JUMP JUMPDEST PUSH1 0x0 DUP1 SLOAD PUSH1 0x20 DUP4 ADD CALLDATALOAD SWAP2 PUSH3 0x10000 SWAP1 SWAP2 DIV PUSH1 0x1 PUSH1 0x1 PUSH1 0x60 SHL SUB AND SWAP1 PUSH1 0x2 PUSH2 0xA0E DUP4 PUSH2 0x16D0 JUMP JUMPDEST SWAP2 SWAP1 PUSH2 0x100 EXP DUP2 SLOAD DUP2 PUSH1 0x1 PUSH1 0x1 PUSH1 0x60 SHL SUB MUL NOT AND SWAP1 DUP4 PUSH1 0x1 PUSH1 0x1 PUSH1 0x60 SHL SUB AND MUL OR SWAP1 SSTORE POP PUSH1 0x1 PUSH1 0x1 PUSH1 0x60 SHL SUB AND EQ PUSH2 0x489 JUMPI PUSH1 0x40 MLOAD PUSH3 0x461BCD PUSH1 0xE5 SHL DUP2 MSTORE PUSH1 0x20 PUSH1 0x4 DUP3 ADD MSTORE PUSH1 0x16 PUSH1 0x24 DUP3 ADD MSTORE PUSH22 0x6163636F756E743A20696E76616C6964206E6F6E6365 PUSH1 0x50 SHL PUSH1 0x44 DUP3 ADD MSTORE PUSH1 0x64 ADD PUSH2 0x2F6 JUMP JUMPDEST DUP1 ISZERO PUSH2 0x489 JUMPI PUSH1 0x40 MLOAD PUSH1 0x0 SWAP1 CALLER SWAP1 PUSH1 0x0 NOT SWAP1 DUP5 SWAP1 DUP5 DUP2 DUP2 DUP2 DUP6 DUP9 DUP9 CALL SWAP4 POP POP POP POP RETURNDATASIZE DUP1 PUSH1 0x0 DUP2 EQ PUSH2 0x3A6 JUMPI PUSH1 0x40 MLOAD SWAP2 POP PUSH1 0x1F NOT PUSH1 0x3F RETURNDATASIZE ADD AND DUP3 ADD PUSH1 0x40 MSTORE RETURNDATASIZE DUP3 MSTORE RETURNDATASIZE PUSH1 0x0 PUSH1 0x20 DUP5 ADD RETURNDATACOPY PUSH2 0x3A6 JUMP JUMPDEST PUSH1 0x2 SLOAD PUSH1 0x1 PUSH1 0x1 PUSH1 0xA0 SHL SUB AND CALLER EQ DUP1 PUSH2 0xAF1 JUMPI POP PUSH1 0x1 SLOAD PUSH1 0x1 PUSH1 0x1 PUSH1 0xA0 SHL SUB AND CALLER EQ JUMPDEST PUSH2 0x93D JUMPI PUSH1 0x40 MLOAD PUSH3 0x461BCD PUSH1 0xE5 SHL DUP2 MSTORE PUSH1 0x20 PUSH1 0x4 DUP3 ADD DUP2 SWAP1 MSTORE PUSH1 0x24 DUP3 ADD MSTORE PUSH32 0x6163636F756E743A206E6F74204F776E6572206F7220456E747279506F696E74 PUSH1 0x44 DUP3 ADD MSTORE PUSH1 0x64 ADD PUSH2 0x2F6 JUMP JUMPDEST PUSH1 0x0 DUP1 DUP5 PUSH1 0x1 PUSH1 0x1 PUSH1 0xA0 SHL SUB AND DUP5 DUP5 PUSH1 0x40 MLOAD PUSH2 0xB59 SWAP2 SWAP1 PUSH2 0x171A JUMP JUMPDEST PUSH1 0x0 PUSH1 0x40 MLOAD DUP1 DUP4 SUB DUP2 DUP6 DUP8 GAS CALL SWAP3 POP POP POP RETURNDATASIZE DUP1 PUSH1 0x0 DUP2 EQ PUSH2 0xB96 JUMPI PUSH1 0x40 MLOAD SWAP2 POP PUSH1 0x1F NOT PUSH1 0x3F RETURNDATASIZE ADD AND DUP3 ADD PUSH1 0x40 MSTORE RETURNDATASIZE DUP3 MSTORE RETURNDATASIZE PUSH1 0x0 PUSH1 0x20 DUP5 ADD RETURNDATACOPY PUSH2 0xB9B JUMP JUMPDEST PUSH1 0x60 SWAP2 POP JUMPDEST POP SWAP2 POP SWAP2 POP DUP2 PUSH2 0x3A6 JUMPI DUP1 MLOAD PUSH1 0x20 DUP3 ADD REVERT JUMPDEST PUSH2 0x489 PUSH2 0xD7D JUMP JUMPDEST PUSH32 0x4910FDFA16FED3260ED0E7147F7CC6DA11A60208B5B9406D12A635614FFD9143 SLOAD PUSH1 0xFF AND ISZERO PUSH2 0xBE8 JUMPI PUSH2 0x59C DUP4 PUSH2 0xDF2 JUMP JUMPDEST DUP3 PUSH1 0x1 PUSH1 0x1 PUSH1 0xA0 SHL SUB AND PUSH4 0x52D1902D PUSH1 0x40 MLOAD DUP2 PUSH4 0xFFFFFFFF AND PUSH1 0xE0 SHL DUP2 MSTORE PUSH1 0x4 ADD PUSH1 0x20 PUSH1 0x40 MLOAD DUP1 DUP4 SUB DUP2 DUP7 GAS STATICCALL SWAP3 POP POP POP DUP1 ISZERO PUSH2 0xC42 JUMPI POP PUSH1 0x40 DUP1 MLOAD PUSH1 0x1F RETURNDATASIZE SWAP1 DUP2 ADD PUSH1 0x1F NOT AND DUP3 ADD SWAP1 SWAP3 MSTORE PUSH2 0xC3F SWAP2 DUP2 ADD SWAP1 PUSH2 0x16B7 JUMP JUMPDEST PUSH1 0x1 JUMPDEST PUSH2 0xCA5 JUMPI PUSH1 0x40 MLOAD PUSH3 0x461BCD PUSH1 0xE5 SHL DUP2 MSTORE PUSH1 0x20 PUSH1 0x4 DUP3 ADD MSTORE PUSH1 0x2E PUSH1 0x24 DUP3 ADD MSTORE PUSH32 0x45524331393637557067726164653A206E657720696D706C656D656E74617469 PUSH1 0x44 DUP3 ADD MSTORE PUSH14 0x6F6E206973206E6F742055555053 PUSH1 0x90 SHL PUSH1 0x64 DUP3 ADD MSTORE PUSH1 0x84 ADD PUSH2 0x2F6 JUMP JUMPDEST PUSH1 0x0 DUP1 MLOAD PUSH1 0x20 PUSH2 0x1780 DUP4 CODECOPY DUP2 MLOAD SWAP2 MSTORE DUP2 EQ PUSH2 0xD14 JUMPI PUSH1 0x40 MLOAD PUSH3 0x461BCD PUSH1 0xE5 SHL DUP2 MSTORE PUSH1 0x20 PUSH1 0x4 DUP3 ADD MSTORE PUSH1 0x29 PUSH1 0x24 DUP3 ADD MSTORE PUSH32 0x45524331393637557067726164653A20756E737570706F727465642070726F78 PUSH1 0x44 DUP3 ADD MSTORE PUSH9 0x1A58589B1955555251 PUSH1 0xBA SHL PUSH1 0x64 DUP3 ADD MSTORE PUSH1 0x84 ADD PUSH2 0x2F6 JUMP JUMPDEST POP PUSH2 0x59C DUP4 DUP4 DUP4 PUSH2 0xE8E JUMP JUMPDEST PUSH1 0x1 DUP1 SLOAD PUSH1 0x1 PUSH1 0x1 PUSH1 0xA0 SHL SUB DUP1 DUP6 AND PUSH1 0x1 PUSH1 0x1 PUSH1 0xA0 SHL SUB NOT SWAP3 DUP4 AND DUP2 OR SWAP1 SWAP4 SSTORE PUSH1 0x2 DUP1 SLOAD SWAP2 DUP6 AND SWAP2 SWAP1 SWAP3 AND DUP2 OR SWAP1 SWAP2 SSTORE PUSH1 0x40 MLOAD PUSH32 0x47E55C76E7A6F1FD8996A1DA8008C1EA29699CCA35E7BCD057F2DEC313B6E5DE SWAP1 PUSH1 0x0 SWAP1 LOG3 POP POP JUMP JUMPDEST PUSH1 0x1 SLOAD PUSH1 0x1 PUSH1 0x1 PUSH1 0xA0 SHL SUB AND CALLER EQ DUP1 PUSH2 0xD95 JUMPI POP CALLER ADDRESS EQ JUMPDEST PUSH2 0x93D JUMPI PUSH1 0x40 MLOAD PUSH3 0x461BCD PUSH1 0xE5 SHL DUP2 MSTORE PUSH1 0x20 PUSH1 0x4 DUP3 ADD MSTORE PUSH1 0xA PUSH1 0x24 DUP3 ADD MSTORE PUSH10 0x37B7363C9037BBB732B9 PUSH1 0xB1 SHL PUSH1 0x44 DUP3 ADD MSTORE PUSH1 0x64 ADD PUSH2 0x2F6 JUMP JUMPDEST PUSH1 0x0 DUP1 PUSH1 0x0 PUSH2 0xDDD DUP6 DUP6 PUSH2 0xEB3 JUMP JUMPDEST SWAP2 POP SWAP2 POP PUSH2 0xDEA DUP2 PUSH2 0xEF8 JUMP JUMPDEST POP SWAP4 SWAP3 POP POP POP JUMP JUMPDEST PUSH1 0x1 PUSH1 0x1 PUSH1 0xA0 SHL SUB DUP2 AND EXTCODESIZE PUSH2 0xE5F JUMPI PUSH1 0x40 MLOAD PUSH3 0x461BCD PUSH1 0xE5 SHL DUP2 MSTORE PUSH1 0x20 PUSH1 0x4 DUP3 ADD MSTORE PUSH1 0x2D PUSH1 0x24 DUP3 ADD MSTORE PUSH32 0x455243313936373A206E657720696D706C656D656E746174696F6E206973206E PUSH1 0x44 DUP3 ADD MSTORE PUSH13 0x1BDD08184818DBDB9D1C9858DD PUSH1 0x9A SHL PUSH1 0x64 DUP3 ADD MSTORE PUSH1 0x84 ADD PUSH2 0x2F6 JUMP JUMPDEST PUSH1 0x0 DUP1 MLOAD PUSH1 0x20 PUSH2 0x1780 DUP4 CODECOPY DUP2 MLOAD SWAP2 MSTORE DUP1 SLOAD PUSH1 0x1 PUSH1 0x1 PUSH1 0xA0 SHL SUB NOT AND PUSH1 0x1 PUSH1 0x1 PUSH1 0xA0 SHL SUB SWAP3 SWAP1 SWAP3 AND SWAP2 SWAP1 SWAP2 OR SWAP1 SSTORE JUMP JUMPDEST PUSH2 0xE97 DUP4 PUSH2 0x1042 JUMP JUMPDEST PUSH1 0x0 DUP3 MLOAD GT DUP1 PUSH2 0xEA4 JUMPI POP DUP1 JUMPDEST ISZERO PUSH2 0x59C JUMPI PUSH2 0x85A DUP4 DUP4 PUSH2 0x1082 JUMP JUMPDEST PUSH1 0x0 DUP1 DUP3 MLOAD PUSH1 0x41 SUB PUSH2 0xEE9 JUMPI PUSH1 0x20 DUP4 ADD MLOAD PUSH1 0x40 DUP5 ADD MLOAD PUSH1 0x60 DUP6 ADD MLOAD PUSH1 0x0 BYTE PUSH2 0xEDD DUP8 DUP3 DUP6 DUP6 PUSH2 0x10A7 JUMP JUMPDEST SWAP5 POP SWAP5 POP POP POP POP PUSH2 0xEF1 JUMP JUMPDEST POP PUSH1 0x0 SWAP1 POP PUSH1 0x2 JUMPDEST SWAP3 POP SWAP3 SWAP1 POP JUMP JUMPDEST PUSH1 0x0 DUP2 PUSH1 0x4 DUP2 GT ISZERO PUSH2 0xF0C JUMPI PUSH2 0xF0C PUSH2 0x1736 JUMP JUMPDEST SUB PUSH2 0xF14 JUMPI POP JUMP JUMPDEST PUSH1 0x1 DUP2 PUSH1 0x4 DUP2 GT ISZERO PUSH2 0xF28 JUMPI PUSH2 0xF28 PUSH2 0x1736 JUMP JUMPDEST SUB PUSH2 0xF75 JUMPI PUSH1 0x40 MLOAD PUSH3 0x461BCD PUSH1 0xE5 SHL DUP2 MSTORE PUSH1 0x20 PUSH1 0x4 DUP3 ADD MSTORE PUSH1 0x18 PUSH1 0x24 DUP3 ADD MSTORE PUSH32 0x45434453413A20696E76616C6964207369676E61747572650000000000000000 PUSH1 0x44 DUP3 ADD MSTORE PUSH1 0x64 ADD PUSH2 0x2F6 JUMP JUMPDEST PUSH1 0x2 DUP2 PUSH1 0x4 DUP2 GT ISZERO PUSH2 0xF89 JUMPI PUSH2 0xF89 PUSH2 0x1736 JUMP JUMPDEST SUB PUSH2 0xFD6 JUMPI PUSH1 0x40 MLOAD PUSH3 0x461BCD PUSH1 0xE5 SHL DUP2 MSTORE PUSH1 0x20 PUSH1 0x4 DUP3 ADD MSTORE PUSH1 0x1F PUSH1 0x24 DUP3 ADD MSTORE PUSH32 0x45434453413A20696E76616C6964207369676E6174757265206C656E67746800 PUSH1 0x44 DUP3 ADD MSTORE PUSH1 0x64 ADD PUSH2 0x2F6 JUMP JUMPDEST PUSH1 0x3 DUP2 PUSH1 0x4 DUP2 GT ISZERO PUSH2 0xFEA JUMPI PUSH2 0xFEA PUSH2 0x1736 JUMP JUMPDEST SUB PUSH2 0x489 JUMPI PUSH1 0x40 MLOAD PUSH3 0x461BCD PUSH1 0xE5 SHL DUP2 MSTORE PUSH1 0x20 PUSH1 0x4 DUP3 ADD MSTORE PUSH1 0x22 PUSH1 0x24 DUP3 ADD MSTORE PUSH32 0x45434453413A20696E76616C6964207369676E6174757265202773272076616C PUSH1 0x44 DUP3 ADD MSTORE PUSH2 0x7565 PUSH1 0xF0 SHL PUSH1 0x64 DUP3 ADD MSTORE PUSH1 0x84 ADD PUSH2 0x2F6 JUMP JUMPDEST PUSH2 0x104B DUP2 PUSH2 0xDF2 JUMP JUMPDEST PUSH1 0x40 MLOAD PUSH1 0x1 PUSH1 0x1 PUSH1 0xA0 SHL SUB DUP3 AND SWAP1 PUSH32 0xBC7CD75A20EE27FD9ADEBAB32041F755214DBC6BFFA90CC0225B39DA2E5C2D3B SWAP1 PUSH1 0x0 SWAP1 LOG2 POP JUMP JUMPDEST PUSH1 0x60 PUSH2 0x9E1 DUP4 DUP4 PUSH1 0x40 MLOAD DUP1 PUSH1 0x60 ADD PUSH1 0x40 MSTORE DUP1 PUSH1 0x27 DUP2 MSTORE PUSH1 0x20 ADD PUSH2 0x17A0 PUSH1 0x27 SWAP2 CODECOPY PUSH2 0x116B JUMP JUMPDEST PUSH1 0x0 DUP1 PUSH32 0x7FFFFFFFFFFFFFFFFFFFFFFFFFFFFFFF5D576E7357A4501DDFE92F46681B20A0 DUP4 GT ISZERO PUSH2 0x10DE JUMPI POP PUSH1 0x0 SWAP1 POP PUSH1 0x3 PUSH2 0x1162 JUMP JUMPDEST PUSH1 0x40 DUP1 MLOAD PUSH1 0x0 DUP1 DUP3 MSTORE PUSH1 0x20 DUP3 ADD DUP1 DUP5 MSTORE DUP10 SWAP1 MSTORE PUSH1 0xFF DUP9 AND SWAP3 DUP3 ADD SWAP3 SWAP1 SWAP3 MSTORE PUSH1 0x60 DUP2 ADD DUP7 SWAP1 MSTORE PUSH1 0x80 DUP2 ADD DUP6 SWAP1 MSTORE PUSH1 0x1 SWAP1 PUSH1 0xA0 ADD PUSH1 0x20 PUSH1 0x40 MLOAD PUSH1 0x20 DUP2 SUB SWAP1 DUP1 DUP5 SUB SWAP1 DUP6 GAS STATICCALL ISZERO DUP1 ISZERO PUSH2 0x1132 JUMPI RETURNDATASIZE PUSH1 0x0 DUP1 RETURNDATACOPY RETURNDATASIZE PUSH1 0x0 REVERT JUMPDEST POP POP PUSH1 0x40 MLOAD PUSH1 0x1F NOT ADD MLOAD SWAP2 POP POP PUSH1 0x1 PUSH1 0x1 PUSH1 0xA0 SHL SUB DUP2 AND PUSH2 0x115B JUMPI PUSH1 0x0 PUSH1 0x1 SWAP3 POP SWAP3 POP POP PUSH2 0x1162 JUMP JUMPDEST SWAP2 POP PUSH1 0x0 SWAP1 POP JUMPDEST SWAP5 POP SWAP5 SWAP3 POP POP POP JUMP JUMPDEST PUSH1 0x60 PUSH1 0x0 DUP1 DUP6 PUSH1 0x1 PUSH1 0x1 PUSH1 0xA0 SHL SUB AND DUP6 PUSH1 0x40 MLOAD PUSH2 0x1188 SWAP2 SWAP1 PUSH2 0x171A JUMP JUMPDEST PUSH1 0x0 PUSH1 0x40 MLOAD DUP1 DUP4 SUB DUP2 DUP6 GAS DELEGATECALL SWAP2 POP POP RETURNDATASIZE DUP1 PUSH1 0x0 DUP2 EQ PUSH2 0x11C3 JUMPI PUSH1 0x40 MLOAD SWAP2 POP PUSH1 0x1F NOT PUSH1 0x3F RETURNDATASIZE ADD AND DUP3 ADD PUSH1 0x40 MSTORE RETURNDATASIZE DUP3 MSTORE RETURNDATASIZE PUSH1 0x0 PUSH1 0x20 DUP5 ADD RETURNDATACOPY PUSH2 0x11C8 JUMP JUMPDEST PUSH1 0x60 SWAP2 POP JUMPDEST POP SWAP2 POP SWAP2 POP PUSH2 0x11D9 DUP7 DUP4 DUP4 DUP8 PUSH2 0x11E3 JUMP JUMPDEST SWAP7 SWAP6 POP POP POP POP POP POP JUMP JUMPDEST PUSH1 0x60 DUP4 ISZERO PUSH2 0x1252 JUMPI DUP3 MLOAD PUSH1 0x0 SUB PUSH2 0x124B JUMPI PUSH1 0x1 PUSH1 0x1 PUSH1 0xA0 SHL SUB DUP6 AND EXTCODESIZE PUSH2 0x124B JUMPI PUSH1 0x40 MLOAD PUSH3 0x461BCD PUSH1 0xE5 SHL DUP2 MSTORE PUSH1 0x20 PUSH1 0x4 DUP3 ADD MSTORE PUSH1 0x1D PUSH1 0x24 DUP3 ADD MSTORE PUSH32 0x416464726573733A2063616C6C20746F206E6F6E2D636F6E7472616374000000 PUSH1 0x44 DUP3 ADD MSTORE PUSH1 0x64 ADD PUSH2 0x2F6 JUMP JUMPDEST POP DUP2 PUSH2 0x2A5 JUMP JUMPDEST PUSH2 0x2A5 DUP4 DUP4 DUP2 MLOAD ISZERO PUSH2 0x1267 JUMPI DUP2 MLOAD DUP1 DUP4 PUSH1 0x20 ADD REVERT JUMPDEST DUP1 PUSH1 0x40 MLOAD PUSH3 0x461BCD PUSH1 0xE5 SHL DUP2 MSTORE PUSH1 0x4 ADD PUSH2 0x2F6 SWAP2 SWAP1 PUSH2 0x174C JUMP JUMPDEST PUSH1 0x1 PUSH1 0x1 PUSH1 0xA0 SHL SUB DUP2 AND DUP2 EQ PUSH2 0x489 JUMPI PUSH1 0x0 DUP1 REVERT JUMPDEST PUSH1 0x0 DUP1 PUSH1 0x0 DUP1 PUSH1 0x80 DUP6 DUP8 SUB SLT ISZERO PUSH2 0x12AC JUMPI PUSH1 0x0 DUP1 REVERT JUMPDEST DUP5 CALLDATALOAD PUSH8 0xFFFFFFFFFFFFFFFF DUP2 GT ISZERO PUSH2 0x12C3 JUMPI PUSH1 0x0 DUP1 REVERT JUMPDEST DUP6 ADD PUSH2 0x160 DUP2 DUP9 SUB SLT ISZERO PUSH2 0x12D6 JUMPI PUSH1 0x0 DUP1 REVERT JUMPDEST SWAP4 POP PUSH1 0x20 DUP6 ADD CALLDATALOAD SWAP3 POP PUSH1 0x40 DUP6 ADD CALLDATALOAD PUSH2 0x12ED DUP2 PUSH2 0x1281 JUMP JUMPDEST SWAP4 SWAP7 SWAP3 SWAP6 POP SWAP3 SWAP4 PUSH1 0x60 ADD CALLDATALOAD SWAP3 POP POP JUMP JUMPDEST PUSH1 0x0 DUP1 DUP4 PUSH1 0x1F DUP5 ADD SLT PUSH2 0x130F JUMPI PUSH1 0x0 DUP1 REVERT JUMPDEST POP DUP2 CALLDATALOAD PUSH8 0xFFFFFFFFFFFFFFFF DUP2 GT ISZERO PUSH2 0x1327 JUMPI PUSH1 0x0 DUP1 REVERT JUMPDEST PUSH1 0x20 DUP4 ADD SWAP2 POP DUP4 PUSH1 0x20 DUP3 PUSH1 0x5 SHL DUP6 ADD ADD GT ISZERO PUSH2 0xEF1 JUMPI PUSH1 0x0 DUP1 REVERT JUMPDEST PUSH1 0x0 DUP1 PUSH1 0x0 DUP1 PUSH1 0x40 DUP6 DUP8 SUB SLT ISZERO PUSH2 0x1358 JUMPI PUSH1 0x0 DUP1 REVERT JUMPDEST DUP5 CALLDATALOAD PUSH8 0xFFFFFFFFFFFFFFFF DUP1 DUP3 GT ISZERO PUSH2 0x1370 JUMPI PUSH1 0x0 DUP1 REVERT JUMPDEST PUSH2 0x137C DUP9 DUP4 DUP10 ADD PUSH2 0x12FD JUMP JUMPDEST SWAP1 SWAP7 POP SWAP5 POP PUSH1 0x20 DUP8 ADD CALLDATALOAD SWAP2 POP DUP1 DUP3 GT ISZERO PUSH2 0x1395 JUMPI PUSH1 0x0 DUP1 REVERT JUMPDEST POP PUSH2 0x13A2 DUP8 DUP3 DUP9 ADD PUSH2 0x12FD JUMP JUMPDEST SWAP6 SWAP9 SWAP5 SWAP8 POP SWAP6 POP POP POP POP JUMP JUMPDEST PUSH1 0x0 PUSH1 0x20 DUP3 DUP5 SUB SLT ISZERO PUSH2 0x13C0 JUMPI PUSH1 0x0 DUP1 REVERT JUMPDEST DUP2 CALLDATALOAD PUSH2 0x9E1 DUP2 PUSH2 0x1281 JUMP JUMPDEST PUSH1 0x0 DUP1 PUSH1 0x40 DUP4 DUP6 SUB SLT ISZERO PUSH2 0x13DE JUMPI PUSH1 0x0 DUP1 REVERT JUMPDEST DUP3 CALLDATALOAD PUSH2 0x13E9 DUP2 PUSH2 0x1281 JUMP JUMPDEST SWAP2 POP PUSH1 0x20 DUP4 ADD CALLDATALOAD PUSH2 0x13F9 DUP2 PUSH2 0x1281 JUMP JUMPDEST DUP1 SWAP2 POP POP SWAP3 POP SWAP3 SWAP1 POP JUMP JUMPDEST PUSH1 0x0 DUP1 PUSH1 0x40 DUP4 DUP6 SUB SLT ISZERO PUSH2 0x1417 JUMPI PUSH1 0x0 DUP1 REVERT JUMPDEST DUP3 CALLDATALOAD PUSH2 0x1422 DUP2 PUSH2 0x1281 JUMP JUMPDEST SWAP5 PUSH1 0x20 SWAP4 SWAP1 SWAP4 ADD CALLDATALOAD SWAP4 POP POP POP JUMP JUMPDEST PUSH4 0x4E487B71 PUSH1 0xE0 SHL PUSH1 0x0 MSTORE PUSH1 0x41 PUSH1 0x4 MSTORE PUSH1 0x24 PUSH1 0x0 REVERT JUMPDEST PUSH1 0x0 DUP1 PUSH1 0x40 DUP4 DUP6 SUB SLT ISZERO PUSH2 0x1459 JUMPI PUSH1 0x0 DUP1 REVERT JUMPDEST DUP3 CALLDATALOAD PUSH2 0x1464 DUP2 PUSH2 0x1281 JUMP JUMPDEST SWAP2 POP PUSH1 0x20 DUP4 ADD CALLDATALOAD PUSH8 0xFFFFFFFFFFFFFFFF DUP1 DUP3 GT ISZERO PUSH2 0x1481 JUMPI PUSH1 0x0 DUP1 REVERT JUMPDEST DUP2 DUP6 ADD SWAP2 POP DUP6 PUSH1 0x1F DUP4 ADD SLT PUSH2 0x1495 JUMPI PUSH1 0x0 DUP1 REVERT JUMPDEST DUP2 CALLDATALOAD DUP2 DUP2 GT ISZERO PUSH2 0x14A7 JUMPI PUSH2 0x14A7 PUSH2 0x1430 JUMP JUMPDEST PUSH1 0x40 MLOAD PUSH1 0x1F DUP3 ADD PUSH1 0x1F NOT SWAP1 DUP2 AND PUSH1 0x3F ADD AND DUP2 ADD SWAP1 DUP4 DUP3 GT DUP2 DUP4 LT OR ISZERO PUSH2 0x14CF JUMPI PUSH2 0x14CF PUSH2 0x1430 JUMP JUMPDEST DUP2 PUSH1 0x40 MSTORE DUP3 DUP2 MSTORE DUP9 PUSH1 0x20 DUP5 DUP8 ADD ADD GT ISZERO PUSH2 0x14E8 JUMPI PUSH1 0x0 DUP1 REVERT JUMPDEST DUP3 PUSH1 0x20 DUP7 ADD PUSH1 0x20 DUP4 ADD CALLDATACOPY PUSH1 0x0 PUSH1 0x20 DUP5 DUP4 ADD ADD MSTORE DUP1 SWAP6 POP POP POP POP POP POP SWAP3 POP SWAP3 SWAP1 POP JUMP JUMPDEST PUSH1 0x0 DUP1 PUSH1 0x0 DUP1 PUSH1 0x60 DUP6 DUP8 SUB SLT ISZERO PUSH2 0x1520 JUMPI PUSH1 0x0 DUP1 REVERT JUMPDEST DUP5 CALLDATALOAD PUSH2 0x152B DUP2 PUSH2 0x1281 JUMP JUMPDEST SWAP4 POP PUSH1 0x20 DUP6 ADD CALLDATALOAD SWAP3 POP PUSH1 0x40 DUP6 ADD CALLDATALOAD PUSH8 0xFFFFFFFFFFFFFFFF DUP1 DUP3 GT ISZERO PUSH2 0x154F JUMPI PUSH1 0x0 DUP1 REVERT JUMPDEST DUP2 DUP8 ADD SWAP2 POP DUP8 PUSH1 0x1F DUP4 ADD SLT PUSH2 0x1563 JUMPI PUSH1 0x0 DUP1 REVERT JUMPDEST DUP2 CALLDATALOAD DUP2 DUP2 GT ISZERO PUSH2 0x1572 JUMPI PUSH1 0x0 DUP1 REVERT JUMPDEST DUP9 PUSH1 0x20 DUP3 DUP6 ADD ADD GT ISZERO PUSH2 0x1584 JUMPI PUSH1 0x0 DUP1 REVERT JUMPDEST SWAP6 SWAP9 SWAP5 SWAP8 POP POP PUSH1 0x20 ADD SWAP5 POP POP POP JUMP JUMPDEST PUSH1 0x0 DUP1 DUP4 CALLDATALOAD PUSH1 0x1E NOT DUP5 CALLDATASIZE SUB ADD DUP2 SLT PUSH2 0x15AA JUMPI PUSH1 0x0 DUP1 REVERT JUMPDEST DUP4 ADD DUP1 CALLDATALOAD SWAP2 POP PUSH8 0xFFFFFFFFFFFFFFFF DUP3 GT ISZERO PUSH2 0x15C5 JUMPI PUSH1 0x0 DUP1 REVERT JUMPDEST PUSH1 0x20 ADD SWAP2 POP CALLDATASIZE DUP2 SWAP1 SUB DUP3 SGT ISZERO PUSH2 0xEF1 JUMPI PUSH1 0x0 DUP1 REVERT JUMPDEST PUSH4 0x4E487B71 PUSH1 0xE0 SHL PUSH1 0x0 MSTORE PUSH1 0x32 PUSH1 0x4 MSTORE PUSH1 0x24 PUSH1 0x0 REVERT JUMPDEST PUSH4 0x4E487B71 PUSH1 0xE0 SHL PUSH1 0x0 MSTORE PUSH1 0x11 PUSH1 0x4 MSTORE PUSH1 0x24 PUSH1 0x0 REVERT JUMPDEST PUSH1 0x0 PUSH1 0x1 DUP3 ADD PUSH2 0x1618 JUMPI PUSH2 0x1618 PUSH2 0x15F0 JUMP JUMPDEST POP PUSH1 0x1 ADD SWAP1 JUMP JUMPDEST PUSH1 0x20 DUP1 DUP3 MSTORE PUSH1 0x2C SWAP1 DUP3 ADD MSTORE PUSH32 0x46756E6374696F6E206D7573742062652063616C6C6564207468726F75676820 PUSH1 0x40 DUP3 ADD MSTORE PUSH12 0x19195B1959D85D1958D85B1B PUSH1 0xA2 SHL PUSH1 0x60 DUP3 ADD MSTORE PUSH1 0x80 ADD SWAP1 JUMP JUMPDEST PUSH1 0x20 DUP1 DUP3 MSTORE PUSH1 0x2C SWAP1 DUP3 ADD MSTORE PUSH32 0x46756E6374696F6E206D7573742062652063616C6C6564207468726F75676820 PUSH1 0x40 DUP3 ADD MSTORE PUSH12 0x6163746976652070726F7879 PUSH1 0xA0 SHL PUSH1 0x60 DUP3 ADD MSTORE PUSH1 0x80 ADD SWAP1 JUMP JUMPDEST PUSH1 0x0 PUSH1 0x20 DUP3 DUP5 SUB SLT ISZERO PUSH2 0x16C9 JUMPI PUSH1 0x0 DUP1 REVERT JUMPDEST POP MLOAD SWAP2 SWAP1 POP JUMP JUMPDEST PUSH1 0x0 PUSH1 0x1 PUSH1 0x1 PUSH1 0x60 SHL SUB DUP1 DUP4 AND DUP2 DUP2 SUB PUSH2 0x16EC JUMPI PUSH2 0x16EC PUSH2 0x15F0 JUMP JUMPDEST PUSH1 0x1 ADD SWAP4 SWAP3 POP POP POP JUMP JUMPDEST PUSH1 0x0 JUMPDEST DUP4 DUP2 LT ISZERO PUSH2 0x1711 JUMPI DUP2 DUP2 ADD MLOAD DUP4 DUP3 ADD MSTORE PUSH1 0x20 ADD PUSH2 0x16F9 JUMP JUMPDEST POP POP PUSH1 0x0 SWAP2 ADD MSTORE JUMP JUMPDEST PUSH1 0x0 DUP3 MLOAD PUSH2 0x172C DUP2 DUP5 PUSH1 0x20 DUP8 ADD PUSH2 0x16F6 JUMP JUMPDEST SWAP2 SWAP1 SWAP2 ADD SWAP3 SWAP2 POP POP JUMP JUMPDEST PUSH4 0x4E487B71 PUSH1 0xE0 SHL PUSH1 0x0 MSTORE PUSH1 0x21 PUSH1 0x4 MSTORE PUSH1 0x24 PUSH1 0x0 REVERT JUMPDEST PUSH1 0x20 DUP2 MSTORE PUSH1 0x0 DUP3 MLOAD DUP1 PUSH1 0x20 DUP5 ADD MSTORE PUSH2 0x176B DUP2 PUSH1 0x40 DUP6 ADD PUSH1 0x20 DUP8 ADD PUSH2 0x16F6 JUMP JUMPDEST PUSH1 0x1F ADD PUSH1 0x1F NOT AND SWAP2 SWAP1 SWAP2 ADD PUSH1 0x40 ADD SWAP3 SWAP2 POP POP JUMP INVALID CALLDATASIZE ADDMOD SWAP5 LOG1 EXTCODESIZE LOG1 LOG3 0x21 MOD PUSH8 0xC828492DB98DCA3E KECCAK256 PUSH23 0xCC3735A920A3CA505D382BBC416464726573733A206C6F PUSH24 0x2D6C6576656C2064656C65676174652063616C6C20666169 PUSH13 0x6564A26469706673582212205B 0xBB 0xCA PUSH14 0xC477817FCA3AD86F4A99EC370A0D MSTORE8 LOG1 0x2F SWAP3 PC 0xE9 CALLDATASIZE JUMP CALLDATACOPY 0x2A PUSH29 0x1DB3A264736F6C63430008120033000000000000000000000000000000 "
				},
				"gasEstimates": {
					"creation": {
						"codeDepositCost": "1228000",
						"executionCost": "infinite",
						"totalCost": "infinite"
					},
					"external": {
						"addDeposit()": "infinite",
						"entryPoint()": "2375",
						"execute(address,uint256,bytes)": "infinite",
						"executeBatch(address[],bytes[])": "infinite",
						"getDeposit()": "infinite",
						"initialize(address,address)": "infinite",
						"nonce()": "2332",
						"owner()": "2404",
						"proxiableUUID()": "infinite",
						"upgradeTo(address)": "infinite",
						"upgradeToAndCall(address,bytes)": "infinite",
						"validateUserOp((address,uint256,bytes,bytes,uint256,uint256,uint256,uint256,uint256,bytes,bytes),bytes32,address,uint256)": "infinite",
						"withdrawDepositTo(address,uint256)": "infinite"
					},
					"internal": {
						"_authorizeUpgrade(address)": "infinite",
						"_call(address,uint256,bytes memory)": "infinite",
						"_initialize(address,contract IEntryPoint)": "50048",
						"_onlyOwner()": "infinite",
						"_requireFromEntryPointOrOwner()": "infinite",
						"_validateAndUpdateNonce(struct UserOperation calldata)": "infinite",
						"_validateSignature(struct UserOperation calldata,bytes32,address)": "infinite"
					}
				},
				"methodIdentifiers": {
					"addDeposit()": "4a58db19",
					"entryPoint()": "b0d691fe",
					"execute(address,uint256,bytes)": "b61d27f6",
					"executeBatch(address[],bytes[])": "18dfb3c7",
					"getDeposit()": "c399ec88",
					"initialize(address,address)": "485cc955",
					"nonce()": "affed0e0",
					"owner()": "8da5cb5b",
					"proxiableUUID()": "52d1902d",
					"upgradeTo(address)": "3659cfe6",
					"upgradeToAndCall(address,bytes)": "4f1ef286",
					"validateUserOp((address,uint256,bytes,bytes,uint256,uint256,uint256,uint256,uint256,bytes,bytes),bytes32,address,uint256)": "0825d1fc",
					"withdrawDepositTo(address,uint256)": "4d44560d"
				}
			},
			"storageLayout": {
				"storage": [
					{
						"astId": 351,
						"contract": "src/SimpleAccount.sol:SimpleAccount",
						"label": "_initialized",
						"offset": 0,
						"slot": "0",
						"type": "t_uint8"
					},
					{
						"astId": 354,
						"contract": "src/SimpleAccount.sol:SimpleAccount",
						"label": "_initializing",
						"offset": 1,
						"slot": "0",
						"type": "t_bool"
					},
					{
						"astId": 2832,
						"contract": "src/SimpleAccount.sol:SimpleAccount",
						"label": "_nonce",
						"offset": 2,
						"slot": "0",
						"type": "t_uint96"
					},
					{
						"astId": 2834,
						"contract": "src/SimpleAccount.sol:SimpleAccount",
						"label": "owner",
						"offset": 0,
						"slot": "1",
						"type": "t_address"
					},
					{
						"astId": 2856,
						"contract": "src/SimpleAccount.sol:SimpleAccount",
						"label": "_entryPoint",
						"offset": 0,
						"slot": "2",
						"type": "t_contract(IEntryPoint)3424"
					}
				],
				"types": {
					"t_address": {
						"encoding": "inplace",
						"label": "address",
						"numberOfBytes": "20"
					},
					"t_bool": {
						"encoding": "inplace",
						"label": "bool",
						"numberOfBytes": "1"
					},
					"t_contract(IEntryPoint)3424": {
						"encoding": "inplace",
						"label": "contract IEntryPoint",
						"numberOfBytes": "20"
					},
					"t_uint8": {
						"encoding": "inplace",
						"label": "uint8",
						"numberOfBytes": "1"
					},
					"t_uint96": {
						"encoding": "inplace",
						"label": "uint96",
						"numberOfBytes": "12"
					}
				}
			},
			"userdoc": {
				"kind": "user",
				"methods": {
					"addDeposit()": {
						"notice": "deposit more funds for this account in the entryPoint"
					},
					"entryPoint()": {
						"notice": "return the entryPoint used by this account. subclass should return the current entryPoint used by this account."
					},
					"execute(address,uint256,bytes)": {
						"notice": "execute a transaction (called directly from owner, not by entryPoint)"
					},
					"executeBatch(address[],bytes[])": {
						"notice": "execute a sequence of transaction"
					},
					"getDeposit()": {
						"notice": "check current account deposit in the entryPoint"
					},
					"initialize(address,address)": {
						"notice": "change entry-point: an account must have a method for replacing the entryPoint, in case the the entryPoint is upgraded to a newer version."
					},
					"nonce()": {
						"notice": "return the account nonce. subclass should return a nonce value that is used both by _validateAndUpdateNonce, and by the external provider (to read the current nonce)"
					},
					"validateUserOp((address,uint256,bytes,bytes,uint256,uint256,uint256,uint256,uint256,bytes,bytes),bytes32,address,uint256)": {
						"notice": "Validate user's signature and nonce. subclass doesn't need to override this method. Instead, it should override the specific internal validation methods."
					},
					"withdrawDepositTo(address,uint256)": {
						"notice": "withdraw value from the account's deposit"
					}
				},
				"notice": "minimal account.  this is sample minimal account.  has execute, eth handling methods  has a single signer that can send requests through the entryPoint.",
				"version": 1
			}
		}
	}
}