{
	"src/Paymaster.sol": {
		"Paymaster": {
			"abi": [
				{
					"inputs": [
						{
							"internalType": "address",
							"name": "_subscriptionToken",
							"type": "address"
						},
						{
							"internalType": "contract IEntryPoint",
							"name": "_entryPoint",
							"type": "address"
						}
					],
					"stateMutability": "nonpayable",
					"type": "constructor"
				},
				{
					"anonymous": false,
					"inputs": [
						{
							"indexed": true,
							"internalType": "address",
							"name": "previousOwner",
							"type": "address"
						},
						{
							"indexed": true,
							"internalType": "address",
							"name": "newOwner",
							"type": "address"
						}
					],
					"name": "OwnershipTransferred",
					"type": "event"
				},
				{
					"inputs": [],
					"name": "COST_OF_POST",
					"outputs": [
						{
							"internalType": "uint256",
							"name": "",
							"type": "uint256"
						}
					],
					"stateMutability": "view",
					"type": "function"
				},
				{
					"inputs": [
						{
							"internalType": "uint32",
							"name": "unstakeDelaySec",
							"type": "uint32"
						}
					],
					"name": "addStake",
					"outputs": [],
					"stateMutability": "payable",
					"type": "function"
				},
				{
					"inputs": [],
					"name": "deposit",
					"outputs": [],
					"stateMutability": "payable",
					"type": "function"
				},
				{
					"inputs": [],
					"name": "duration",
					"outputs": [
						{
							"internalType": "uint256",
							"name": "",
							"type": "uint256"
						}
					],
					"stateMutability": "view",
					"type": "function"
				},
				{
					"inputs": [],
					"name": "entryPoint",
					"outputs": [
						{
							"internalType": "contract IEntryPoint",
							"name": "",
							"type": "address"
						}
					],
					"stateMutability": "view",
					"type": "function"
				},
				{
					"inputs": [],
					"name": "getDeposit",
					"outputs": [
						{
							"internalType": "uint256",
							"name": "",
							"type": "uint256"
						}
					],
					"stateMutability": "view",
					"type": "function"
				},
				{
					"inputs": [
						{
							"internalType": "address",
							"name": "_user",
							"type": "address"
						}
					],
					"name": "isSubscribed",
					"outputs": [
						{
							"internalType": "bool",
							"name": "",
							"type": "bool"
						}
					],
					"stateMutability": "view",
					"type": "function"
				},
				{
					"inputs": [],
					"name": "owner",
					"outputs": [
						{
							"internalType": "address",
							"name": "",
							"type": "address"
						}
					],
					"stateMutability": "view",
					"type": "function"
				},
				{
					"inputs": [
						{
							"internalType": "enum IPaymaster.PostOpMode",
							"name": "mode",
							"type": "uint8"
						},
						{
							"internalType": "bytes",
							"name": "context",
							"type": "bytes"
						},
						{
							"internalType": "uint256",
							"name": "actualGasCost",
							"type": "uint256"
						}
					],
					"name": "postOp",
					"outputs": [],
					"stateMutability": "nonpayable",
					"type": "function"
				},
				{
					"inputs": [],
					"name": "renounceOwnership",
					"outputs": [],
					"stateMutability": "nonpayable",
					"type": "function"
				},
				{
					"inputs": [],
					"name": "subscribe",
					"outputs": [],
					"stateMutability": "nonpayable",
					"type": "function"
				},
				{
					"inputs": [],
					"name": "subscriptionFee",
					"outputs": [
						{
							"internalType": "uint256",
							"name": "",
							"type": "uint256"
						}
					],
					"stateMutability": "view",
					"type": "function"
				},
				{
					"inputs": [
						{
							"internalType": "address",
							"name": "newOwner",
							"type": "address"
						}
					],
					"name": "transferOwnership",
					"outputs": [],
					"stateMutability": "nonpayable",
					"type": "function"
				},
				{
					"inputs": [],
					"name": "unlockStake",
					"outputs": [],
					"stateMutability": "nonpayable",
					"type": "function"
				},
				{
					"inputs": [
						{
							"components": [
								{
									"internalType": "address",
									"name": "sender",
									"type": "address"
								},
								{
									"internalType": "uint256",
									"name": "nonce",
									"type": "uint256"
								},
								{
									"internalType": "bytes",
									"name": "initCode",
									"type": "bytes"
								},
								{
									"internalType": "bytes",
									"name": "callData",
									"type": "bytes"
								},
								{
									"internalType": "uint256",
									"name": "callGasLimit",
									"type": "uint256"
								},
								{
									"internalType": "uint256",
									"name": "verificationGasLimit",
									"type": "uint256"
								},
								{
									"internalType": "uint256",
									"name": "preVerificationGas",
									"type": "uint256"
								},
								{
									"internalType": "uint256",
									"name": "maxFeePerGas",
									"type": "uint256"
								},
								{
									"internalType": "uint256",
									"name": "maxPriorityFeePerGas",
									"type": "uint256"
								},
								{
									"internalType": "bytes",
									"name": "paymasterAndData",
									"type": "bytes"
								},
								{
									"internalType": "bytes",
									"name": "signature",
									"type": "bytes"
								}
							],
							"internalType": "struct UserOperation",
							"name": "userOp",
							"type": "tuple"
						},
						{
							"internalType": "bytes32",
							"name": "userOpHash",
							"type": "bytes32"
						},
						{
							"internalType": "uint256",
							"name": "maxCost",
							"type": "uint256"
						}
					],
					"name": "validatePaymasterUserOp",
					"outputs": [
						{
							"internalType": "bytes",
							"name": "context",
							"type": "bytes"
						},
						{
							"internalType": "uint256",
							"name": "validationData",
							"type": "uint256"
						}
					],
					"stateMutability": "nonpayable",
					"type": "function"
				},
				{
					"inputs": [],
					"name": "withdraw",
					"outputs": [],
					"stateMutability": "nonpayable",
					"type": "function"
				},
				{
					"inputs": [
						{
							"internalType": "address payable",
							"name": "withdrawAddress",
							"type": "address"
						}
					],
					"name": "withdrawStake",
					"outputs": [],
					"stateMutability": "nonpayable",
					"type": "function"
				},
				{
					"inputs": [
						{
							"internalType": "address payable",
							"name": "withdrawAddress",
							"type": "address"
						},
						{
							"internalType": "uint256",
							"name": "amount",
							"type": "uint256"
						}
					],
					"name": "withdrawTo",
					"outputs": [],
					"stateMutability": "nonpayable",
					"type": "function"
				}
			],
			"devdoc": {
				"kind": "dev",
				"methods": {
					"addStake(uint32)": {
						"params": {
							"unstakeDelaySec": "- the unstake delay for this paymaster. Can only be increased."
						}
					},
					"owner()": {
						"details": "Returns the address of the current owner."
					},
					"postOp(uint8,bytes,uint256)": {
						"params": {
							"actualGasCost": "- actual gas used so far (without this postOp call).",
							"context": "- the context value returned by validatePaymasterUserOp",
							"mode": "enum with the following options:      opSucceeded - user operation succeeded.      opReverted  - user op reverted. still has to pay for gas.      postOpReverted - user op succeeded, but caused postOp (in mode=opSucceeded) to revert.                       Now this is the 2nd call, after user's op was deliberately reverted."
						}
					},
					"renounceOwnership()": {
						"details": "Leaves the contract without owner. It will not be possible to call `onlyOwner` functions. Can only be called by the current owner. NOTE: Renouncing ownership will leave the contract without an owner, thereby disabling any functionality that is only available to the owner."
					},
					"transferOwnership(address)": {
						"details": "Transfers ownership of the contract to a new account (`newOwner`). Can only be called by the current owner."
					},
					"validatePaymasterUserOp((address,uint256,bytes,bytes,uint256,uint256,uint256,uint256,uint256,bytes,bytes),bytes32,uint256)": {
						"params": {
							"maxCost": "the maximum cost of this transaction (based on maximum gas and gas price from userOp)",
							"userOp": "the user operation",
							"userOpHash": "hash of the user's request data."
						},
						"returns": {
							"context": "value to send to a postOp  zero length to signify postOp is not required.",
							"validationData": "signature and time-range of this operation, encoded the same as the return value of validateUserOperation      <byte> sigFailure - (1) to mark signature failure (needed only if paymaster uses signature-based validation,)      <4-byte> validUntil - last timestamp this operation is valid. 0 for \"indefinite\"      <4-byte> validAfter - first timestamp this operation is valid      Note that the validation code cannot use block.timestamp (or block.number) directly."
						}
					},
					"withdrawStake(address)": {
						"params": {
							"withdrawAddress": "the address to send withdrawn value."
						}
					},
					"withdrawTo(address,uint256)": {
						"params": {
							"amount": "to withdraw",
							"withdrawAddress": "target to send to"
						}
					}
				},
				"version": 1
			},
			"evm": {
				"assembly": "    /* \"src/Paymaster.sol\":337:2470  contract Paymaster is Ownable, BasePaymaster {... */\n  mstore(0x40, 0xa0)\n    /* \"src/Paymaster.sol\":703:857  constructor(address _subscriptionToken, IEntryPoint _entryPoint) BasePaymaster(_entryPoint) {... */\n  callvalue\n  dup1\n  iszero\n  tag_1\n  jumpi\n  0x00\n  dup1\n  revert\ntag_1:\n  pop\n  mload(0x40)\n  sub(codesize, bytecodeSize)\n  dup1\n  bytecodeSize\n  dup4\n  codecopy\n  dup2\n  add\n  0x40\n  dup2\n  swap1\n  mstore\n  tag_2\n  swap2\n  tag_3\n  jump\t// in\ntag_2:\n    /* \"src/Paymaster.sol\":782:793  _entryPoint */\n  dup1\n    /* \"@openzeppelin/contracts/access/Ownable.sol\":936:968  _transferOwnership(_msgSender()) */\n  tag_8\n    /* \"@openzeppelin/contracts/utils/Context.sol\":719:729  msg.sender */\n  caller\n    /* \"@openzeppelin/contracts/access/Ownable.sol\":936:954  _transferOwnership */\n  tag_11\n    /* \"@openzeppelin/contracts/access/Ownable.sol\":936:968  _transferOwnership(_msgSender()) */\n  jump\t// in\ntag_8:\n  sub(shl(0xa0, 0x01), 0x01)\n    /* \"src/BasePaymaster.sol\":562:586  entryPoint = _entryPoint */\n  swap1\n  dup2\n  and\n  0x80\n  mstore\n    /* \"src/Paymaster.sol\":805:822  subscriptionToken */\n  0x01\n    /* \"src/Paymaster.sol\":805:850  subscriptionToken = ERC20(_subscriptionToken) */\n  dup1\n  sload\n  not(sub(shl(0xa0, 0x01), 0x01))\n  and\n  swap4\n  swap1\n  swap2\n  and\n  swap3\n  swap1\n  swap3\n  or\n  swap1\n  swap2\n  sstore\n  pop\n    /* \"src/Paymaster.sol\":337:2470  contract Paymaster is Ownable, BasePaymaster {... */\n  jump(tag_18)\n    /* \"@openzeppelin/contracts/access/Ownable.sol\":2426:2613  function _transferOwnership(address newOwner) internal virtual {... */\ntag_11:\n    /* \"@openzeppelin/contracts/access/Ownable.sol\":2499:2515  address oldOwner */\n  0x00\n    /* \"@openzeppelin/contracts/access/Ownable.sol\":2518:2524  _owner */\n  dup1\n  sload\n  sub(shl(0xa0, 0x01), 0x01)\n    /* \"@openzeppelin/contracts/access/Ownable.sol\":2534:2551  _owner = newOwner */\n  dup4\n  dup2\n  and\n  not(sub(shl(0xa0, 0x01), 0x01))\n  dup4\n  and\n  dup2\n  or\n  dup5\n  sstore\n    /* \"@openzeppelin/contracts/access/Ownable.sol\":2566:2606  OwnershipTransferred(oldOwner, newOwner) */\n  mload(0x40)\n    /* \"@openzeppelin/contracts/access/Ownable.sol\":2518:2524  _owner */\n  swap2\n  swap1\n  swap3\n  and\n  swap3\n  dup4\n  swap2\n    /* \"@openzeppelin/contracts/access/Ownable.sol\":2566:2606  OwnershipTransferred(oldOwner, newOwner) */\n  0x8be0079c531659141344cd1fd0a4f28419497f9722a3daafe3b4186f6b6457e0\n  swap2\n    /* \"@openzeppelin/contracts/access/Ownable.sol\":2499:2515  address oldOwner */\n  swap1\n    /* \"@openzeppelin/contracts/access/Ownable.sol\":2566:2606  OwnershipTransferred(oldOwner, newOwner) */\n  log3\n    /* \"@openzeppelin/contracts/access/Ownable.sol\":2489:2613  {... */\n  pop\n    /* \"@openzeppelin/contracts/access/Ownable.sol\":2426:2613  function _transferOwnership(address newOwner) internal virtual {... */\n  pop\n  jump\t// out\n    /* \"#utility.yul\":14:145   */\ntag_17:\n  sub(shl(0xa0, 0x01), 0x01)\n    /* \"#utility.yul\":89:120   */\n  dup2\n  and\n    /* \"#utility.yul\":79:121   */\n  dup2\n  eq\n    /* \"#utility.yul\":69:139   */\n  tag_20\n  jumpi\n    /* \"#utility.yul\":135:136   */\n  0x00\n    /* \"#utility.yul\":132:133   */\n  dup1\n    /* \"#utility.yul\":125:137   */\n  revert\n    /* \"#utility.yul\":69:139   */\ntag_20:\n    /* \"#utility.yul\":14:145   */\n  pop\n  jump\t// out\n    /* \"#utility.yul\":150:555   */\ntag_3:\n    /* \"#utility.yul\":249:255   */\n  0x00\n    /* \"#utility.yul\":257:263   */\n  dup1\n    /* \"#utility.yul\":310:312   */\n  0x40\n    /* \"#utility.yul\":298:307   */\n  dup4\n    /* \"#utility.yul\":289:296   */\n  dup6\n    /* \"#utility.yul\":285:308   */\n  sub\n    /* \"#utility.yul\":281:313   */\n  slt\n    /* \"#utility.yul\":278:330   */\n  iszero\n  tag_22\n  jumpi\n    /* \"#utility.yul\":326:327   */\n  0x00\n    /* \"#utility.yul\":323:324   */\n  dup1\n    /* \"#utility.yul\":316:328   */\n  revert\n    /* \"#utility.yul\":278:330   */\ntag_22:\n    /* \"#utility.yul\":358:367   */\n  dup3\n    /* \"#utility.yul\":352:368   */\n  mload\n    /* \"#utility.yul\":377:408   */\n  tag_23\n    /* \"#utility.yul\":402:407   */\n  dup2\n    /* \"#utility.yul\":377:408   */\n  tag_17\n  jump\t// in\ntag_23:\n    /* \"#utility.yul\":477:479   */\n  0x20\n    /* \"#utility.yul\":462:480   */\n  dup5\n  add\n    /* \"#utility.yul\":456:481   */\n  mload\n    /* \"#utility.yul\":427:432   */\n  swap1\n  swap3\n  pop\n    /* \"#utility.yul\":490:523   */\n  tag_24\n    /* \"#utility.yul\":456:481   */\n  dup2\n    /* \"#utility.yul\":490:523   */\n  tag_17\n  jump\t// in\ntag_24:\n    /* \"#utility.yul\":542:549   */\n  dup1\n    /* \"#utility.yul\":532:549   */\n  swap2\n  pop\n  pop\n    /* \"#utility.yul\":150:555   */\n  swap3\n  pop\n  swap3\n  swap1\n  pop\n  jump\t// out\ntag_18:\n    /* \"src/Paymaster.sol\":337:2470  contract Paymaster is Ownable, BasePaymaster {... */\n  mload(0x80)\n  codecopy(0x00, dataOffset(sub_0), dataSize(sub_0))\n  0x00\n  assignImmutable(\"0x94bf69fb65508f6e4ddb8e9d68af175b29ca55b7385169421c8fce2c4390b244\")\n  return(0x00, dataSize(sub_0))\nstop\n\nsub_0: assembly {\n        /* \"src/Paymaster.sol\":337:2470  contract Paymaster is Ownable, BasePaymaster {... */\n      mstore(0x40, 0x80)\n      jumpi(tag_1, lt(calldatasize, 0x04))\n      shr(0xe0, calldataload(0x00))\n      dup1\n      0xa9a23409\n      gt\n      tag_20\n      jumpi\n      dup1\n      0xc23a5cea\n      gt\n      tag_21\n      jumpi\n      dup1\n      0xc23a5cea\n      eq\n      tag_15\n      jumpi\n      dup1\n      0xc399ec88\n      eq\n      tag_16\n      jumpi\n      dup1\n      0xd0e30db0\n      eq\n      tag_17\n      jumpi\n      dup1\n      0xf2fde38b\n      eq\n      tag_18\n      jumpi\n      dup1\n      0xf465c77e\n      eq\n      tag_19\n      jumpi\n      0x00\n      dup1\n      revert\n    tag_21:\n      dup1\n      0xa9a23409\n      eq\n      tag_11\n      jumpi\n      dup1\n      0xb0d691fe\n      eq\n      tag_12\n      jumpi\n      dup1\n      0xb92ae87c\n      eq\n      tag_13\n      jumpi\n      dup1\n      0xbb9fe6bf\n      eq\n      tag_14\n      jumpi\n      0x00\n      dup1\n      revert\n    tag_20:\n      dup1\n      0x3ccfd60b\n      gt\n      tag_22\n      jumpi\n      dup1\n      0x3ccfd60b\n      eq\n      tag_6\n      jumpi\n      dup1\n      0x715018a6\n      eq\n      tag_7\n      jumpi\n      dup1\n      0x796d4371\n      eq\n      tag_8\n      jumpi\n      dup1\n      0x8da5cb5b\n      eq\n      tag_9\n      jumpi\n      dup1\n      0x8f449a05\n      eq\n      tag_10\n      jumpi\n      0x00\n      dup1\n      revert\n    tag_22:\n      dup1\n      0x0396cb60\n      eq\n      tag_2\n      jumpi\n      dup1\n      0x0aa0a175\n      eq\n      tag_3\n      jumpi\n      dup1\n      0x0fb5a6b4\n      eq\n      tag_4\n      jumpi\n      dup1\n      0x205c2878\n      eq\n      tag_5\n      jumpi\n    tag_1:\n      0x00\n      dup1\n      revert\n        /* \"src/BasePaymaster.sol\":3092:3233  function addStake(uint32 unstakeDelaySec) external payable onlyOwner {... */\n    tag_2:\n      tag_23\n      tag_24\n      calldatasize\n      0x04\n      tag_25\n      jump\t// in\n    tag_24:\n      tag_26\n      jump\t// in\n    tag_23:\n      stop\n        /* \"src/Paymaster.sol\":436:498  uint256 public constant subscriptionFee = 20000000000000000000 */\n    tag_3:\n      callvalue\n      dup1\n      iszero\n      tag_27\n      jumpi\n      0x00\n      dup1\n      revert\n    tag_27:\n      pop\n      tag_28\n        /* \"src/Paymaster.sol\":478:498  20000000000000000000 */\n      0x01158e460913d00000\n        /* \"src/Paymaster.sol\":436:498  uint256 public constant subscriptionFee = 20000000000000000000 */\n      dup2\n      jump\n    tag_28:\n      mload(0x40)\n        /* \"#utility.yul\":441:466   */\n      swap1\n      dup2\n      mstore\n        /* \"#utility.yul\":429:431   */\n      0x20\n        /* \"#utility.yul\":414:432   */\n      add\n        /* \"src/Paymaster.sol\":436:498  uint256 public constant subscriptionFee = 20000000000000000000 */\n    tag_30:\n      mload(0x40)\n      dup1\n      swap2\n      sub\n      swap1\n      return\n        /* \"src/Paymaster.sol\":388:430  uint256 public constant duration = 2678400 */\n    tag_4:\n      callvalue\n      dup1\n      iszero\n      tag_32\n      jumpi\n      0x00\n      dup1\n      revert\n    tag_32:\n      pop\n      tag_28\n        /* \"src/Paymaster.sol\":423:430  2678400 */\n      0x28de80\n        /* \"src/Paymaster.sol\":388:430  uint256 public constant duration = 2678400 */\n      dup2\n      jump\n        /* \"src/BasePaymaster.sol\":2719:2868  function withdrawTo(address payable withdrawAddress, uint256 amount) public onlyOwner {... */\n    tag_5:\n      callvalue\n      dup1\n      iszero\n      tag_36\n      jumpi\n      0x00\n      dup1\n      revert\n    tag_36:\n      pop\n      tag_23\n      tag_38\n      calldatasize\n      0x04\n      tag_39\n      jump\t// in\n    tag_38:\n      tag_40\n      jump\t// in\n        /* \"src/Paymaster.sol\":1182:1352  function withdraw() external onlyOwner {... */\n    tag_6:\n      callvalue\n      dup1\n      iszero\n      tag_41\n      jumpi\n      0x00\n      dup1\n      revert\n    tag_41:\n      pop\n      tag_23\n      tag_43\n      jump\t// in\n        /* \"@openzeppelin/contracts/access/Ownable.sol\":1824:1925  function renounceOwnership() public virtual onlyOwner {... */\n    tag_7:\n      callvalue\n      dup1\n      iszero\n      tag_44\n      jumpi\n      0x00\n      dup1\n      revert\n    tag_44:\n      pop\n      tag_23\n      tag_46\n      jump\t// in\n        /* \"src/Paymaster.sol\":529:573  uint256 constant public COST_OF_POST = 35000 */\n    tag_8:\n      callvalue\n      dup1\n      iszero\n      tag_47\n      jumpi\n      0x00\n      dup1\n      revert\n    tag_47:\n      pop\n      tag_28\n        /* \"src/Paymaster.sol\":568:573  35000 */\n      0x88b8\n        /* \"src/Paymaster.sol\":529:573  uint256 constant public COST_OF_POST = 35000 */\n      dup2\n      jump\n        /* \"@openzeppelin/contracts/access/Ownable.sol\":1201:1286  function owner() public view virtual returns (address) {... */\n    tag_9:\n      callvalue\n      dup1\n      iszero\n      tag_51\n      jumpi\n      0x00\n      dup1\n      revert\n    tag_51:\n      pop\n        /* \"@openzeppelin/contracts/access/Ownable.sol\":1247:1254  address */\n      0x00\n        /* \"@openzeppelin/contracts/access/Ownable.sol\":1273:1279  _owner */\n      sload\n      sub(shl(0xa0, 0x01), 0x01)\n      and\n        /* \"@openzeppelin/contracts/access/Ownable.sol\":1201:1286  function owner() public view virtual returns (address) {... */\n    tag_52:\n      mload(0x40)\n      sub(shl(0xa0, 0x01), 0x01)\n        /* \"#utility.yul\":1121:1153   */\n      swap1\n      swap2\n      and\n        /* \"#utility.yul\":1103:1154   */\n      dup2\n      mstore\n        /* \"#utility.yul\":1091:1093   */\n      0x20\n        /* \"#utility.yul\":1076:1094   */\n      add\n        /* \"@openzeppelin/contracts/access/Ownable.sol\":1201:1286  function owner() public view virtual returns (address) {... */\n      tag_30\n        /* \"#utility.yul\":957:1160   */\n      jump\n        /* \"src/Paymaster.sol\":863:1035  function subscribe() external {... */\n    tag_10:\n      callvalue\n      dup1\n      iszero\n      tag_56\n      jumpi\n      0x00\n      dup1\n      revert\n    tag_56:\n      pop\n      tag_23\n      tag_58\n      jump\t// in\n        /* \"src/BasePaymaster.sol\":1141:1327  function postOp(PostOpMode mode, bytes calldata context, uint256 actualGasCost) external override {... */\n    tag_11:\n      callvalue\n      dup1\n      iszero\n      tag_59\n      jumpi\n      0x00\n      dup1\n      revert\n    tag_59:\n      pop\n      tag_23\n      tag_61\n      calldatasize\n      0x04\n      tag_62\n      jump\t// in\n    tag_61:\n      tag_63\n      jump\t// in\n        /* \"src/BasePaymaster.sol\":469:508  IEntryPoint immutable public entryPoint */\n    tag_12:\n      callvalue\n      dup1\n      iszero\n      tag_64\n      jumpi\n      0x00\n      dup1\n      revert\n    tag_64:\n      pop\n      tag_52\n      immutable(\"0x94bf69fb65508f6e4ddb8e9d68af175b29ca55b7385169421c8fce2c4390b244\")\n      dup2\n      jump\n        /* \"src/Paymaster.sol\":1041:1176  function isSubscribed(address _user) public view returns (bool) {... */\n    tag_13:\n      callvalue\n      dup1\n      iszero\n      tag_69\n      jumpi\n      0x00\n      dup1\n      revert\n    tag_69:\n      pop\n      tag_70\n      tag_71\n      calldatasize\n      0x04\n      tag_72\n      jump\t// in\n    tag_71:\n      tag_73\n      jump\t// in\n    tag_70:\n      mload(0x40)\n        /* \"#utility.yul\":2641:2655   */\n      swap1\n      iszero\n        /* \"#utility.yul\":2634:2656   */\n      iszero\n        /* \"#utility.yul\":2616:2657   */\n      dup2\n      mstore\n        /* \"#utility.yul\":2604:2606   */\n      0x20\n        /* \"#utility.yul\":2589:2607   */\n      add\n        /* \"src/Paymaster.sol\":1041:1176  function isSubscribed(address _user) public view returns (bool) {... */\n      tag_30\n        /* \"#utility.yul\":2476:2663   */\n      jump\n        /* \"src/BasePaymaster.sol\":3586:3669  function unlockStake() external onlyOwner {... */\n    tag_14:\n      callvalue\n      dup1\n      iszero\n      tag_76\n      jumpi\n      0x00\n      dup1\n      revert\n    tag_76:\n      pop\n      tag_23\n      tag_78\n      jump\t// in\n        /* \"src/BasePaymaster.sol\":3888:4021  function withdrawStake(address payable withdrawAddress) external onlyOwner {... */\n    tag_15:\n      callvalue\n      dup1\n      iszero\n      tag_79\n      jumpi\n      0x00\n      dup1\n      revert\n    tag_79:\n      pop\n      tag_23\n      tag_81\n      calldatasize\n      0x04\n      tag_72\n      jump\t// in\n    tag_81:\n      tag_83\n      jump\t// in\n        /* \"src/BasePaymaster.sol\":3316:3427  function getDeposit() public view returns (uint256) {... */\n    tag_16:\n      callvalue\n      dup1\n      iszero\n      tag_84\n      jumpi\n      0x00\n      dup1\n      revert\n    tag_84:\n      pop\n      tag_28\n      tag_86\n      jump\t// in\n        /* \"src/BasePaymaster.sol\":2472:2577  function deposit() public payable {... */\n    tag_17:\n      tag_23\n      tag_89\n      jump\t// in\n        /* \"@openzeppelin/contracts/access/Ownable.sol\":2074:2272  function transferOwnership(address newOwner) public virtual onlyOwner {... */\n    tag_18:\n      callvalue\n      dup1\n      iszero\n      tag_90\n      jumpi\n      0x00\n      dup1\n      revert\n    tag_90:\n      pop\n      tag_23\n      tag_92\n      calldatasize\n      0x04\n      tag_72\n      jump\t// in\n    tag_92:\n      tag_93\n      jump\t// in\n        /* \"src/BasePaymaster.sol\":630:920  function validatePaymasterUserOp(UserOperation calldata userOp, bytes32 userOpHash, uint256 maxCost)... */\n    tag_19:\n      callvalue\n      dup1\n      iszero\n      tag_94\n      jumpi\n      0x00\n      dup1\n      revert\n    tag_94:\n      pop\n      tag_95\n      tag_96\n      calldatasize\n      0x04\n      tag_97\n      jump\t// in\n    tag_96:\n      tag_98\n      jump\t// in\n    tag_95:\n      mload(0x40)\n      tag_30\n      swap3\n      swap2\n      swap1\n      tag_100\n      jump\t// in\n        /* \"src/BasePaymaster.sol\":3092:3233  function addStake(uint32 unstakeDelaySec) external payable onlyOwner {... */\n    tag_26:\n        /* \"@openzeppelin/contracts/access/Ownable.sol\":1094:1107  _checkOwner() */\n      tag_102\n        /* \"@openzeppelin/contracts/access/Ownable.sol\":1094:1105  _checkOwner */\n      tag_103\n        /* \"@openzeppelin/contracts/access/Ownable.sol\":1094:1107  _checkOwner() */\n      jump\t// in\n    tag_102:\n        /* \"src/BasePaymaster.sol\":3171:3226  entryPoint.addStake{value : msg.value}(unstakeDelaySec) */\n      mload(0x40)\n      shl(0xe5, 0x1cb65b)\n      dup2\n      mstore\n        /* \"#utility.yul\":4251:4261   */\n      0xffffffff\n        /* \"#utility.yul\":4239:4262   */\n      dup3\n      and\n        /* \"src/BasePaymaster.sol\":3171:3226  entryPoint.addStake{value : msg.value}(unstakeDelaySec) */\n      0x04\n      dup3\n      add\n        /* \"#utility.yul\":4221:4263   */\n      mstore\n        /* \"src/BasePaymaster.sol\":3171:3181  entryPoint */\n      immutable(\"0x94bf69fb65508f6e4ddb8e9d68af175b29ca55b7385169421c8fce2c4390b244\")\n      sub(shl(0xa0, 0x01), 0x01)\n        /* \"src/BasePaymaster.sol\":3171:3190  entryPoint.addStake */\n      and\n      swap1\n      0x0396cb60\n      swap1\n        /* \"src/BasePaymaster.sol\":3199:3208  msg.value */\n      callvalue\n      swap1\n        /* \"#utility.yul\":4194:4212   */\n      0x24\n      add\n        /* \"src/BasePaymaster.sol\":3171:3226  entryPoint.addStake{value : msg.value}(unstakeDelaySec) */\n      0x00\n      mload(0x40)\n      dup1\n      dup4\n      sub\n      dup2\n      dup6\n      dup9\n      dup1\n      extcodesize\n      iszero\n      dup1\n      iszero\n      tag_107\n      jumpi\n      0x00\n      dup1\n      revert\n    tag_107:\n      pop\n      gas\n      call\n      iszero\n      dup1\n      iszero\n      tag_109\n      jumpi\n      returndatasize\n      0x00\n      dup1\n      returndatacopy\n      revert(0x00, returndatasize)\n    tag_109:\n      pop\n      pop\n      pop\n      pop\n      pop\n        /* \"src/BasePaymaster.sol\":3092:3233  function addStake(uint32 unstakeDelaySec) external payable onlyOwner {... */\n      pop\n      jump\t// out\n        /* \"src/BasePaymaster.sol\":2719:2868  function withdrawTo(address payable withdrawAddress, uint256 amount) public onlyOwner {... */\n    tag_40:\n        /* \"@openzeppelin/contracts/access/Ownable.sol\":1094:1107  _checkOwner() */\n      tag_111\n        /* \"@openzeppelin/contracts/access/Ownable.sol\":1094:1105  _checkOwner */\n      tag_103\n        /* \"@openzeppelin/contracts/access/Ownable.sol\":1094:1107  _checkOwner() */\n      jump\t// in\n    tag_111:\n        /* \"src/BasePaymaster.sol\":2815:2861  entryPoint.withdrawTo(withdrawAddress, amount) */\n      mload(0x40)\n      shl(0xe3, 0x040b850f)\n      dup2\n      mstore\n      sub(shl(0xa0, 0x01), 0x01)\n        /* \"#utility.yul\":4482:4514   */\n      dup4\n      dup2\n      and\n        /* \"src/BasePaymaster.sol\":2815:2861  entryPoint.withdrawTo(withdrawAddress, amount) */\n      0x04\n      dup4\n      add\n        /* \"#utility.yul\":4464:4515   */\n      mstore\n        /* \"#utility.yul\":4531:4549   */\n      0x24\n      dup3\n      add\n        /* \"#utility.yul\":4524:4558   */\n      dup4\n      swap1\n      mstore\n        /* \"src/BasePaymaster.sol\":2815:2825  entryPoint */\n      immutable(\"0x94bf69fb65508f6e4ddb8e9d68af175b29ca55b7385169421c8fce2c4390b244\")\n        /* \"src/BasePaymaster.sol\":2815:2836  entryPoint.withdrawTo */\n      and\n      swap1\n      0x205c2878\n      swap1\n        /* \"#utility.yul\":4437:4455   */\n      0x44\n      add\n        /* \"src/BasePaymaster.sol\":2815:2861  entryPoint.withdrawTo(withdrawAddress, amount) */\n      0x00\n      mload(0x40)\n      dup1\n      dup4\n      sub\n      dup2\n      0x00\n      dup8\n      dup1\n      extcodesize\n      iszero\n      dup1\n      iszero\n      tag_107\n      jumpi\n      0x00\n      dup1\n      revert\n        /* \"src/Paymaster.sol\":1182:1352  function withdraw() external onlyOwner {... */\n    tag_43:\n        /* \"@openzeppelin/contracts/access/Ownable.sol\":1094:1107  _checkOwner() */\n      tag_119\n        /* \"@openzeppelin/contracts/access/Ownable.sol\":1094:1105  _checkOwner */\n      tag_103\n        /* \"@openzeppelin/contracts/access/Ownable.sol\":1094:1107  _checkOwner() */\n      jump\t// in\n    tag_119:\n        /* \"src/Paymaster.sol\":1249:1266  subscriptionToken */\n      sload(0x01)\n        /* \"src/Paymaster.sol\":1249:1291  subscriptionToken.balanceOf(address(this)) */\n      mload(0x40)\n      shl(0xe0, 0x70a08231)\n      dup2\n      mstore\n        /* \"src/Paymaster.sol\":1285:1289  this */\n      address\n        /* \"src/Paymaster.sol\":1249:1291  subscriptionToken.balanceOf(address(this)) */\n      0x04\n      dup3\n      add\n        /* \"#utility.yul\":1103:1154   */\n      mstore\n        /* \"src/Paymaster.sol\":1231:1246  uint256 balance */\n      0x00\n      swap2\n      sub(shl(0xa0, 0x01), 0x01)\n        /* \"src/Paymaster.sol\":1249:1266  subscriptionToken */\n      and\n      swap1\n        /* \"src/Paymaster.sol\":1249:1276  subscriptionToken.balanceOf */\n      0x70a08231\n      swap1\n        /* \"#utility.yul\":1076:1094   */\n      0x24\n      add\n        /* \"src/Paymaster.sol\":1249:1291  subscriptionToken.balanceOf(address(this)) */\n      0x20\n      mload(0x40)\n      dup1\n      dup4\n      sub\n      dup2\n      dup7\n      gas\n      staticcall\n      iszero\n      dup1\n      iszero\n      tag_123\n      jumpi\n      returndatasize\n      0x00\n      dup1\n      returndatacopy\n      revert(0x00, returndatasize)\n    tag_123:\n      pop\n      pop\n      pop\n      pop\n      mload(0x40)\n      returndatasize\n      not(0x1f)\n      0x1f\n      dup3\n      add\n      and\n      dup3\n      add\n      dup1\n      0x40\n      mstore\n      pop\n      dup2\n      add\n      swap1\n      tag_124\n      swap2\n      swap1\n      tag_125\n      jump\t// in\n    tag_124:\n        /* \"src/Paymaster.sol\":1301:1318  subscriptionToken */\n      sload(0x01)\n        /* \"src/Paymaster.sol\":1231:1291  uint256 balance = subscriptionToken.balanceOf(address(this)) */\n      swap1\n      swap2\n      pop\n      sub(shl(0xa0, 0x01), 0x01)\n        /* \"src/Paymaster.sol\":1301:1318  subscriptionToken */\n      and\n        /* \"src/Paymaster.sol\":1301:1327  subscriptionToken.transfer */\n      0xa9059cbb\n        /* \"src/Paymaster.sol\":1328:1335  owner() */\n      tag_126\n        /* \"@openzeppelin/contracts/access/Ownable.sol\":1247:1254  address */\n      0x00\n        /* \"@openzeppelin/contracts/access/Ownable.sol\":1273:1279  _owner */\n      sload\n      sub(shl(0xa0, 0x01), 0x01)\n      and\n      swap1\n        /* \"@openzeppelin/contracts/access/Ownable.sol\":1201:1286  function owner() public view virtual returns (address) {... */\n      jump\n        /* \"src/Paymaster.sol\":1328:1335  owner() */\n    tag_126:\n        /* \"src/Paymaster.sol\":1301:1345  subscriptionToken.transfer(owner(), balance) */\n      mload(0x40)\n      not(sub(shl(0xe0, 0x01), 0x01))\n      0xe0\n      dup5\n      swap1\n      shl\n      and\n      dup2\n      mstore\n      sub(shl(0xa0, 0x01), 0x01)\n        /* \"#utility.yul\":4482:4514   */\n      swap1\n      swap2\n      and\n        /* \"src/Paymaster.sol\":1301:1345  subscriptionToken.transfer(owner(), balance) */\n      0x04\n      dup3\n      add\n        /* \"#utility.yul\":4464:4515   */\n      mstore\n        /* \"#utility.yul\":4531:4549   */\n      0x24\n      dup2\n      add\n        /* \"#utility.yul\":4524:4558   */\n      dup5\n      swap1\n      mstore\n        /* \"#utility.yul\":4437:4455   */\n      0x44\n      add\n        /* \"src/Paymaster.sol\":1301:1345  subscriptionToken.transfer(owner(), balance) */\n      0x20\n      mload(0x40)\n      dup1\n      dup4\n      sub\n      dup2\n      0x00\n      dup8\n      gas\n      call\n      iszero\n      dup1\n      iszero\n      tag_130\n      jumpi\n      returndatasize\n      0x00\n      dup1\n      returndatacopy\n      revert(0x00, returndatasize)\n    tag_130:\n      pop\n      pop\n      pop\n      pop\n      mload(0x40)\n      returndatasize\n      not(0x1f)\n      0x1f\n      dup3\n      add\n      and\n      dup3\n      add\n      dup1\n      0x40\n      mstore\n      pop\n      dup2\n      add\n      swap1\n      tag_131\n      swap2\n      swap1\n      tag_132\n      jump\t// in\n    tag_131:\n      pop\n        /* \"src/Paymaster.sol\":1221:1352  {... */\n      pop\n        /* \"src/Paymaster.sol\":1182:1352  function withdraw() external onlyOwner {... */\n      jump\t// out\n        /* \"@openzeppelin/contracts/access/Ownable.sol\":1824:1925  function renounceOwnership() public virtual onlyOwner {... */\n    tag_46:\n        /* \"@openzeppelin/contracts/access/Ownable.sol\":1094:1107  _checkOwner() */\n      tag_134\n        /* \"@openzeppelin/contracts/access/Ownable.sol\":1094:1105  _checkOwner */\n      tag_103\n        /* \"@openzeppelin/contracts/access/Ownable.sol\":1094:1107  _checkOwner() */\n      jump\t// in\n    tag_134:\n        /* \"@openzeppelin/contracts/access/Ownable.sol\":1888:1918  _transferOwnership(address(0)) */\n      tag_136\n        /* \"@openzeppelin/contracts/access/Ownable.sol\":1915:1916  0 */\n      0x00\n        /* \"@openzeppelin/contracts/access/Ownable.sol\":1888:1906  _transferOwnership */\n      tag_137\n        /* \"@openzeppelin/contracts/access/Ownable.sol\":1888:1918  _transferOwnership(address(0)) */\n      jump\t// in\n    tag_136:\n        /* \"@openzeppelin/contracts/access/Ownable.sol\":1824:1925  function renounceOwnership() public virtual onlyOwner {... */\n      jump\t// out\n        /* \"src/Paymaster.sol\":863:1035  function subscribe() external {... */\n    tag_58:\n        /* \"src/Paymaster.sol\":903:920  subscriptionToken */\n      sload(0x01)\n        /* \"src/Paymaster.sol\":903:977  subscriptionToken.transferFrom(msg.sender, address(this), subscriptionFee) */\n      mload(0x40)\n      shl(0xe0, 0x23b872dd)\n      dup2\n      mstore\n        /* \"src/Paymaster.sol\":934:944  msg.sender */\n      caller\n        /* \"src/Paymaster.sol\":903:977  subscriptionToken.transferFrom(msg.sender, address(this), subscriptionFee) */\n      0x04\n      dup3\n      add\n        /* \"#utility.yul\":5559:5593   */\n      mstore\n        /* \"src/Paymaster.sol\":954:958  this */\n      address\n        /* \"#utility.yul\":5609:5627   */\n      0x24\n      dup3\n      add\n        /* \"#utility.yul\":5602:5645   */\n      mstore\n        /* \"src/Paymaster.sol\":478:498  20000000000000000000 */\n      0x01158e460913d00000\n        /* \"#utility.yul\":5661:5679   */\n      0x44\n      dup3\n      add\n        /* \"#utility.yul\":5654:5688   */\n      mstore\n      sub(shl(0xa0, 0x01), 0x01)\n        /* \"src/Paymaster.sol\":903:920  subscriptionToken */\n      swap1\n      swap2\n      and\n      swap1\n        /* \"src/Paymaster.sol\":903:933  subscriptionToken.transferFrom */\n      0x23b872dd\n      swap1\n        /* \"#utility.yul\":5494:5512   */\n      0x64\n      add\n        /* \"src/Paymaster.sol\":903:977  subscriptionToken.transferFrom(msg.sender, address(this), subscriptionFee) */\n      0x20\n      mload(0x40)\n      dup1\n      dup4\n      sub\n      dup2\n      0x00\n      dup8\n      gas\n      call\n      iszero\n      dup1\n      iszero\n      tag_143\n      jumpi\n      returndatasize\n      0x00\n      dup1\n      returndatacopy\n      revert(0x00, returndatasize)\n    tag_143:\n      pop\n      pop\n      pop\n      pop\n      mload(0x40)\n      returndatasize\n      not(0x1f)\n      0x1f\n      dup3\n      add\n      and\n      dup3\n      add\n      dup1\n      0x40\n      mstore\n      pop\n      dup2\n      add\n      swap1\n      tag_144\n      swap2\n      swap1\n      tag_132\n      jump\t// in\n    tag_144:\n      pop\n        /* \"src/Paymaster.sol\":999:1009  msg.sender */\n      caller\n        /* \"src/Paymaster.sol\":987:1010  subscribers[msg.sender] */\n      0x00\n      swap1\n      dup2\n      mstore\n        /* \"src/Paymaster.sol\":987:998  subscribers */\n      0x02\n        /* \"src/Paymaster.sol\":987:1010  subscribers[msg.sender] */\n      0x20\n      mstore\n      0x40\n      swap1\n      keccak256\n        /* \"src/Paymaster.sol\":1013:1028  block.timestamp */\n      timestamp\n        /* \"src/Paymaster.sol\":987:1028  subscribers[msg.sender] = block.timestamp */\n      swap1\n      sstore\n        /* \"src/Paymaster.sol\":863:1035  function subscribe() external {... */\n      jump\t// out\n        /* \"src/BasePaymaster.sol\":1141:1327  function postOp(PostOpMode mode, bytes calldata context, uint256 actualGasCost) external override {... */\n    tag_63:\n        /* \"src/BasePaymaster.sol\":1249:1273  _requireFromEntryPoint() */\n      tag_146\n        /* \"src/BasePaymaster.sol\":1249:1271  _requireFromEntryPoint */\n      tag_147\n        /* \"src/BasePaymaster.sol\":1249:1273  _requireFromEntryPoint() */\n      jump\t// in\n    tag_146:\n        /* \"src/BasePaymaster.sol\":1141:1327  function postOp(PostOpMode mode, bytes calldata context, uint256 actualGasCost) external override {... */\n      pop\n      pop\n      pop\n      pop\n      jump\t// out\n        /* \"src/Paymaster.sol\":1041:1176  function isSubscribed(address _user) public view returns (bool) {... */\n    tag_73:\n      sub(shl(0xa0, 0x01), 0x01)\n        /* \"src/Paymaster.sol\":1122:1140  subscribers[_user] */\n      dup2\n      and\n        /* \"src/Paymaster.sol\":1099:1103  bool */\n      0x00\n        /* \"src/Paymaster.sol\":1122:1140  subscribers[_user] */\n      swap1\n      dup2\n      mstore\n        /* \"src/Paymaster.sol\":1122:1133  subscribers */\n      0x02\n        /* \"src/Paymaster.sol\":1122:1140  subscribers[_user] */\n      0x20\n      mstore\n      0x40\n      dup2\n      keccak256\n      sload\n        /* \"src/Paymaster.sol\":1154:1169  block.timestamp */\n      timestamp\n      swap1\n        /* \"src/Paymaster.sol\":1122:1151  subscribers[_user] + duration */\n      tag_151\n      swap1\n        /* \"src/Paymaster.sol\":423:430  2678400 */\n      0x28de80\n      swap1\n        /* \"src/Paymaster.sol\":1122:1151  subscribers[_user] + duration */\n      tag_152\n      jump\t// in\n    tag_151:\n        /* \"src/Paymaster.sol\":1122:1169  subscribers[_user] + duration > block.timestamp */\n      gt\n      swap3\n        /* \"src/Paymaster.sol\":1041:1176  function isSubscribed(address _user) public view returns (bool) {... */\n      swap2\n      pop\n      pop\n      jump\t// out\n        /* \"src/BasePaymaster.sol\":3586:3669  function unlockStake() external onlyOwner {... */\n    tag_78:\n        /* \"@openzeppelin/contracts/access/Ownable.sol\":1094:1107  _checkOwner() */\n      tag_154\n        /* \"@openzeppelin/contracts/access/Ownable.sol\":1094:1105  _checkOwner */\n      tag_103\n        /* \"@openzeppelin/contracts/access/Ownable.sol\":1094:1107  _checkOwner() */\n      jump\t// in\n    tag_154:\n        /* \"src/BasePaymaster.sol\":3638:3648  entryPoint */\n      immutable(\"0x94bf69fb65508f6e4ddb8e9d68af175b29ca55b7385169421c8fce2c4390b244\")\n      sub(shl(0xa0, 0x01), 0x01)\n        /* \"src/BasePaymaster.sol\":3638:3660  entryPoint.unlockStake */\n      and\n      0xbb9fe6bf\n        /* \"src/BasePaymaster.sol\":3638:3662  entryPoint.unlockStake() */\n      mload(0x40)\n      dup2\n      0xffffffff\n      and\n      0xe0\n      shl\n      dup2\n      mstore\n      0x04\n      add\n      0x00\n      mload(0x40)\n      dup1\n      dup4\n      sub\n      dup2\n      0x00\n      dup8\n      dup1\n      extcodesize\n      iszero\n      dup1\n      iszero\n      tag_156\n      jumpi\n      0x00\n      dup1\n      revert\n    tag_156:\n      pop\n      gas\n      call\n      iszero\n      dup1\n      iszero\n      tag_146\n      jumpi\n      returndatasize\n      0x00\n      dup1\n      returndatacopy\n      revert(0x00, returndatasize)\n        /* \"src/BasePaymaster.sol\":3888:4021  function withdrawStake(address payable withdrawAddress) external onlyOwner {... */\n    tag_83:\n        /* \"@openzeppelin/contracts/access/Ownable.sol\":1094:1107  _checkOwner() */\n      tag_160\n        /* \"@openzeppelin/contracts/access/Ownable.sol\":1094:1105  _checkOwner */\n      tag_103\n        /* \"@openzeppelin/contracts/access/Ownable.sol\":1094:1107  _checkOwner() */\n      jump\t// in\n    tag_160:\n        /* \"src/BasePaymaster.sol\":3973:4014  entryPoint.withdrawStake(withdrawAddress) */\n      mload(0x40)\n      shl(0xe1, 0x611d2e75)\n      dup2\n      mstore\n      sub(shl(0xa0, 0x01), 0x01)\n        /* \"#utility.yul\":1121:1153   */\n      dup3\n      dup2\n      and\n        /* \"src/BasePaymaster.sol\":3973:4014  entryPoint.withdrawStake(withdrawAddress) */\n      0x04\n      dup4\n      add\n        /* \"#utility.yul\":1103:1154   */\n      mstore\n        /* \"src/BasePaymaster.sol\":3973:3983  entryPoint */\n      immutable(\"0x94bf69fb65508f6e4ddb8e9d68af175b29ca55b7385169421c8fce2c4390b244\")\n        /* \"src/BasePaymaster.sol\":3973:3997  entryPoint.withdrawStake */\n      and\n      swap1\n      0xc23a5cea\n      swap1\n        /* \"#utility.yul\":1076:1094   */\n      0x24\n      add\n        /* \"src/BasePaymaster.sol\":3973:4014  entryPoint.withdrawStake(withdrawAddress) */\n      0x00\n      mload(0x40)\n      dup1\n      dup4\n      sub\n      dup2\n      0x00\n      dup8\n      dup1\n      extcodesize\n      iszero\n      dup1\n      iszero\n      tag_164\n      jumpi\n      0x00\n      dup1\n      revert\n    tag_164:\n      pop\n      gas\n      call\n      iszero\n      dup1\n      iszero\n      tag_166\n      jumpi\n      returndatasize\n      0x00\n      dup1\n      returndatacopy\n      revert(0x00, returndatasize)\n    tag_166:\n      pop\n      pop\n      pop\n      pop\n        /* \"src/BasePaymaster.sol\":3888:4021  function withdrawStake(address payable withdrawAddress) external onlyOwner {... */\n      pop\n      jump\t// out\n        /* \"src/BasePaymaster.sol\":3316:3427  function getDeposit() public view returns (uint256) {... */\n    tag_86:\n        /* \"src/BasePaymaster.sol\":3385:3420  entryPoint.balanceOf(address(this)) */\n      mload(0x40)\n      shl(0xe0, 0x70a08231)\n      dup2\n      mstore\n        /* \"src/BasePaymaster.sol\":3414:3418  this */\n      address\n        /* \"src/BasePaymaster.sol\":3385:3420  entryPoint.balanceOf(address(this)) */\n      0x04\n      dup3\n      add\n        /* \"#utility.yul\":1103:1154   */\n      mstore\n        /* \"src/BasePaymaster.sol\":3359:3366  uint256 */\n      0x00\n      swap1\n        /* \"src/BasePaymaster.sol\":3385:3395  entryPoint */\n      immutable(\"0x94bf69fb65508f6e4ddb8e9d68af175b29ca55b7385169421c8fce2c4390b244\")\n      sub(shl(0xa0, 0x01), 0x01)\n        /* \"src/BasePaymaster.sol\":3385:3405  entryPoint.balanceOf */\n      and\n      swap1\n      0x70a08231\n      swap1\n        /* \"#utility.yul\":1076:1094   */\n      0x24\n      add\n        /* \"src/BasePaymaster.sol\":3385:3420  entryPoint.balanceOf(address(this)) */\n      0x20\n      mload(0x40)\n      dup1\n      dup4\n      sub\n      dup2\n      dup7\n      gas\n      staticcall\n      iszero\n      dup1\n      iszero\n      tag_170\n      jumpi\n      returndatasize\n      0x00\n      dup1\n      returndatacopy\n      revert(0x00, returndatasize)\n    tag_170:\n      pop\n      pop\n      pop\n      pop\n      mload(0x40)\n      returndatasize\n      not(0x1f)\n      0x1f\n      dup3\n      add\n      and\n      dup3\n      add\n      dup1\n      0x40\n      mstore\n      pop\n      dup2\n      add\n      swap1\n      tag_171\n      swap2\n      swap1\n      tag_125\n      jump\t// in\n    tag_171:\n        /* \"src/BasePaymaster.sol\":3378:3420  return entryPoint.balanceOf(address(this)) */\n      swap1\n      pop\n        /* \"src/BasePaymaster.sol\":3316:3427  function getDeposit() public view returns (uint256) {... */\n      swap1\n      jump\t// out\n        /* \"src/BasePaymaster.sol\":2472:2577  function deposit() public payable {... */\n    tag_89:\n        /* \"src/BasePaymaster.sol\":2516:2570  entryPoint.depositTo{value : msg.value}(address(this)) */\n      mload(0x40)\n      shl(0xe0, 0xb760faf9)\n      dup2\n      mstore\n        /* \"src/BasePaymaster.sol\":2564:2568  this */\n      address\n        /* \"src/BasePaymaster.sol\":2516:2570  entryPoint.depositTo{value : msg.value}(address(this)) */\n      0x04\n      dup3\n      add\n        /* \"#utility.yul\":1103:1154   */\n      mstore\n        /* \"src/BasePaymaster.sol\":2516:2526  entryPoint */\n      immutable(\"0x94bf69fb65508f6e4ddb8e9d68af175b29ca55b7385169421c8fce2c4390b244\")\n      sub(shl(0xa0, 0x01), 0x01)\n        /* \"src/BasePaymaster.sol\":2516:2536  entryPoint.depositTo */\n      and\n      swap1\n      0xb760faf9\n      swap1\n        /* \"src/BasePaymaster.sol\":2545:2554  msg.value */\n      callvalue\n      swap1\n        /* \"#utility.yul\":1076:1094   */\n      0x24\n      add\n        /* \"src/BasePaymaster.sol\":2516:2570  entryPoint.depositTo{value : msg.value}(address(this)) */\n      0x00\n      mload(0x40)\n      dup1\n      dup4\n      sub\n      dup2\n      dup6\n      dup9\n      dup1\n      extcodesize\n      iszero\n      dup1\n      iszero\n      tag_164\n      jumpi\n      0x00\n      dup1\n      revert\n        /* \"@openzeppelin/contracts/access/Ownable.sol\":2074:2272  function transferOwnership(address newOwner) public virtual onlyOwner {... */\n    tag_93:\n        /* \"@openzeppelin/contracts/access/Ownable.sol\":1094:1107  _checkOwner() */\n      tag_178\n        /* \"@openzeppelin/contracts/access/Ownable.sol\":1094:1105  _checkOwner */\n      tag_103\n        /* \"@openzeppelin/contracts/access/Ownable.sol\":1094:1107  _checkOwner() */\n      jump\t// in\n    tag_178:\n      sub(shl(0xa0, 0x01), 0x01)\n        /* \"@openzeppelin/contracts/access/Ownable.sol\":2162:2184  newOwner != address(0) */\n      dup2\n      and\n        /* \"@openzeppelin/contracts/access/Ownable.sol\":2154:2227  require(newOwner != address(0), \"Ownable: new owner is the zero address\") */\n      tag_180\n      jumpi\n      mload(0x40)\n      shl(0xe5, 0x461bcd)\n      dup2\n      mstore\n        /* \"#utility.yul\":6352:6354   */\n      0x20\n        /* \"@openzeppelin/contracts/access/Ownable.sol\":2154:2227  require(newOwner != address(0), \"Ownable: new owner is the zero address\") */\n      0x04\n      dup3\n      add\n        /* \"#utility.yul\":6334:6355   */\n      mstore\n        /* \"#utility.yul\":6391:6393   */\n      0x26\n        /* \"#utility.yul\":6371:6389   */\n      0x24\n      dup3\n      add\n        /* \"#utility.yul\":6364:6394   */\n      mstore\n        /* \"#utility.yul\":6430:6464   */\n      0x4f776e61626c653a206e6577206f776e657220697320746865207a65726f2061\n        /* \"#utility.yul\":6410:6428   */\n      0x44\n      dup3\n      add\n        /* \"#utility.yul\":6403:6465   */\n      mstore\n      shl(0xd0, 0x646472657373)\n        /* \"#utility.yul\":6481:6499   */\n      0x64\n      dup3\n      add\n        /* \"#utility.yul\":6474:6510   */\n      mstore\n        /* \"#utility.yul\":6527:6546   */\n      0x84\n      add\n        /* \"@openzeppelin/contracts/access/Ownable.sol\":2154:2227  require(newOwner != address(0), \"Ownable: new owner is the zero address\") */\n    tag_181:\n      mload(0x40)\n      dup1\n      swap2\n      sub\n      swap1\n      revert\n    tag_180:\n        /* \"@openzeppelin/contracts/access/Ownable.sol\":2237:2265  _transferOwnership(newOwner) */\n      tag_183\n        /* \"@openzeppelin/contracts/access/Ownable.sol\":2256:2264  newOwner */\n      dup2\n        /* \"@openzeppelin/contracts/access/Ownable.sol\":2237:2255  _transferOwnership */\n      tag_137\n        /* \"@openzeppelin/contracts/access/Ownable.sol\":2237:2265  _transferOwnership(newOwner) */\n      jump\t// in\n    tag_183:\n        /* \"@openzeppelin/contracts/access/Ownable.sol\":2074:2272  function transferOwnership(address newOwner) public virtual onlyOwner {... */\n      pop\n      jump\t// out\n        /* \"src/BasePaymaster.sol\":630:920  function validatePaymasterUserOp(UserOperation calldata userOp, bytes32 userOpHash, uint256 maxCost)... */\n    tag_98:\n        /* \"src/BasePaymaster.sol\":762:782  bytes memory context */\n      0x60\n        /* \"src/BasePaymaster.sol\":784:806  uint256 validationData */\n      0x00\n        /* \"src/BasePaymaster.sol\":819:843  _requireFromEntryPoint() */\n      tag_185\n        /* \"src/BasePaymaster.sol\":819:841  _requireFromEntryPoint */\n      tag_147\n        /* \"src/BasePaymaster.sol\":819:843  _requireFromEntryPoint() */\n      jump\t// in\n    tag_185:\n        /* \"src/BasePaymaster.sol\":860:913  _validatePaymasterUserOp(userOp, userOpHash, maxCost) */\n      tag_186\n        /* \"src/BasePaymaster.sol\":885:891  userOp */\n      dup6\n        /* \"src/BasePaymaster.sol\":893:903  userOpHash */\n      dup6\n        /* \"src/BasePaymaster.sol\":905:912  maxCost */\n      dup6\n        /* \"src/BasePaymaster.sol\":860:884  _validatePaymasterUserOp */\n      tag_187\n        /* \"src/BasePaymaster.sol\":860:913  _validatePaymasterUserOp(userOp, userOpHash, maxCost) */\n      jump\t// in\n    tag_186:\n        /* \"src/BasePaymaster.sol\":853:913  return _validatePaymasterUserOp(userOp, userOpHash, maxCost) */\n      swap2\n      pop\n      swap2\n      pop\n        /* \"src/BasePaymaster.sol\":630:920  function validatePaymasterUserOp(UserOperation calldata userOp, bytes32 userOpHash, uint256 maxCost)... */\n      swap4\n      pop\n      swap4\n      swap2\n      pop\n      pop\n      jump\t// out\n        /* \"@openzeppelin/contracts/access/Ownable.sol\":1359:1489  function _checkOwner() internal view virtual {... */\n    tag_103:\n        /* \"@openzeppelin/contracts/access/Ownable.sol\":1247:1254  address */\n      0x00\n        /* \"@openzeppelin/contracts/access/Ownable.sol\":1273:1279  _owner */\n      sload\n      sub(shl(0xa0, 0x01), 0x01)\n      and\n        /* \"@openzeppelin/contracts/utils/Context.sol\":719:729  msg.sender */\n      caller\n        /* \"@openzeppelin/contracts/access/Ownable.sol\":1422:1445  owner() == _msgSender() */\n      eq\n        /* \"@openzeppelin/contracts/access/Ownable.sol\":1414:1482  require(owner() == _msgSender(), \"Ownable: caller is not the owner\") */\n      tag_136\n      jumpi\n      mload(0x40)\n      shl(0xe5, 0x461bcd)\n      dup2\n      mstore\n        /* \"#utility.yul\":6759:6761   */\n      0x20\n        /* \"@openzeppelin/contracts/access/Ownable.sol\":1414:1482  require(owner() == _msgSender(), \"Ownable: caller is not the owner\") */\n      0x04\n      dup3\n      add\n        /* \"#utility.yul\":6741:6762   */\n      dup2\n      swap1\n      mstore\n        /* \"#utility.yul\":6778:6796   */\n      0x24\n      dup3\n      add\n        /* \"#utility.yul\":6771:6801   */\n      mstore\n        /* \"#utility.yul\":6837:6871   */\n      0x4f776e61626c653a2063616c6c6572206973206e6f7420746865206f776e6572\n        /* \"#utility.yul\":6817:6835   */\n      0x44\n      dup3\n      add\n        /* \"#utility.yul\":6810:6872   */\n      mstore\n        /* \"#utility.yul\":6889:6907   */\n      0x64\n      add\n        /* \"@openzeppelin/contracts/access/Ownable.sol\":1414:1482  require(owner() == _msgSender(), \"Ownable: caller is not the owner\") */\n      tag_181\n        /* \"#utility.yul\":6557:6913   */\n      jump\n        /* \"@openzeppelin/contracts/access/Ownable.sol\":2426:2613  function _transferOwnership(address newOwner) internal virtual {... */\n    tag_137:\n        /* \"@openzeppelin/contracts/access/Ownable.sol\":2499:2515  address oldOwner */\n      0x00\n        /* \"@openzeppelin/contracts/access/Ownable.sol\":2518:2524  _owner */\n      dup1\n      sload\n      sub(shl(0xa0, 0x01), 0x01)\n        /* \"@openzeppelin/contracts/access/Ownable.sol\":2534:2551  _owner = newOwner */\n      dup4\n      dup2\n      and\n      not(sub(shl(0xa0, 0x01), 0x01))\n      dup4\n      and\n      dup2\n      or\n      dup5\n      sstore\n        /* \"@openzeppelin/contracts/access/Ownable.sol\":2566:2606  OwnershipTransferred(oldOwner, newOwner) */\n      mload(0x40)\n        /* \"@openzeppelin/contracts/access/Ownable.sol\":2518:2524  _owner */\n      swap2\n      swap1\n      swap3\n      and\n      swap3\n      dup4\n      swap2\n        /* \"@openzeppelin/contracts/access/Ownable.sol\":2566:2606  OwnershipTransferred(oldOwner, newOwner) */\n      0x8be0079c531659141344cd1fd0a4f28419497f9722a3daafe3b4186f6b6457e0\n      swap2\n        /* \"@openzeppelin/contracts/access/Ownable.sol\":2499:2515  address oldOwner */\n      swap1\n        /* \"@openzeppelin/contracts/access/Ownable.sol\":2566:2606  OwnershipTransferred(oldOwner, newOwner) */\n      log3\n        /* \"@openzeppelin/contracts/access/Ownable.sol\":2489:2613  {... */\n      pop\n        /* \"@openzeppelin/contracts/access/Ownable.sol\":2426:2613  function _transferOwnership(address newOwner) internal virtual {... */\n      pop\n      jump\t// out\n        /* \"src/BasePaymaster.sol\":4085:4220  function _requireFromEntryPoint() internal virtual {... */\n    tag_147:\n        /* \"src/BasePaymaster.sol\":4154:4164  msg.sender */\n      caller\n      sub(shl(0xa0, 0x01), 0x01)\n        /* \"src/BasePaymaster.sol\":4176:4186  entryPoint */\n      immutable(\"0x94bf69fb65508f6e4ddb8e9d68af175b29ca55b7385169421c8fce2c4390b244\")\n        /* \"src/BasePaymaster.sol\":4154:4187  msg.sender == address(entryPoint) */\n      and\n      eq\n        /* \"src/BasePaymaster.sol\":4146:4213  require(msg.sender == address(entryPoint), \"Sender not EntryPoint\") */\n      tag_136\n      jumpi\n      mload(0x40)\n      shl(0xe5, 0x461bcd)\n      dup2\n      mstore\n        /* \"#utility.yul\":7120:7122   */\n      0x20\n        /* \"src/BasePaymaster.sol\":4146:4213  require(msg.sender == address(entryPoint), \"Sender not EntryPoint\") */\n      0x04\n      dup3\n      add\n        /* \"#utility.yul\":7102:7123   */\n      mstore\n        /* \"#utility.yul\":7159:7161   */\n      0x15\n        /* \"#utility.yul\":7139:7157   */\n      0x24\n      dup3\n      add\n        /* \"#utility.yul\":7132:7162   */\n      mstore\n      shl(0x5a, 0x14d95b99195c881b9bdd08115b9d1c9e541bda5b9d)\n        /* \"#utility.yul\":7178:7196   */\n      0x44\n      dup3\n      add\n        /* \"#utility.yul\":7171:7222   */\n      mstore\n        /* \"#utility.yul\":7239:7257   */\n      0x64\n      add\n        /* \"src/BasePaymaster.sol\":4146:4213  require(msg.sender == address(entryPoint), \"Sender not EntryPoint\") */\n      tag_181\n        /* \"#utility.yul\":6918:7263   */\n      jump\n        /* \"src/Paymaster.sol\":1358:2347  function _validatePaymasterUserOp(UserOperation calldata userOp, bytes32 userOpHash, uint256 maxCost)... */\n    tag_187:\n        /* \"src/Paymaster.sol\":1496:1516  bytes memory context */\n      0x60\n        /* \"src/Paymaster.sol\":1518:1540  uint256 validationData */\n      0x00\n        /* \"src/Paymaster.sol\":568:573  35000 */\n      0x88b8\n        /* \"src/Paymaster.sol\":1685:1691  userOp */\n      dup6\n        /* \"src/Paymaster.sol\":1685:1712  userOp.verificationGasLimit */\n      0xa0\n      add\n      calldataload\n        /* \"src/Paymaster.sol\":1685:1727  userOp.verificationGasLimit > COST_OF_POST */\n      gt\n        /* \"src/Paymaster.sol\":1677:1765  require(userOp.verificationGasLimit > COST_OF_POST, \"Paymaster: gas too low for postOp\") */\n      tag_202\n      jumpi\n      mload(0x40)\n      shl(0xe5, 0x461bcd)\n      dup2\n      mstore\n        /* \"#utility.yul\":7470:7472   */\n      0x20\n        /* \"src/Paymaster.sol\":1677:1765  require(userOp.verificationGasLimit > COST_OF_POST, \"Paymaster: gas too low for postOp\") */\n      0x04\n      dup3\n      add\n        /* \"#utility.yul\":7452:7473   */\n      mstore\n        /* \"#utility.yul\":7509:7511   */\n      0x21\n        /* \"#utility.yul\":7489:7507   */\n      0x24\n      dup3\n      add\n        /* \"#utility.yul\":7482:7512   */\n      mstore\n        /* \"#utility.yul\":7548:7582   */\n      0x5061796d61737465723a2067617320746f6f206c6f7720666f7220706f73744f\n        /* \"#utility.yul\":7528:7546   */\n      0x44\n      dup3\n      add\n        /* \"#utility.yul\":7521:7583   */\n      mstore\n      shl(0xfc, 0x07)\n        /* \"#utility.yul\":7599:7617   */\n      0x64\n      dup3\n      add\n        /* \"#utility.yul\":7592:7623   */\n      mstore\n        /* \"#utility.yul\":7640:7659   */\n      0x84\n      add\n        /* \"src/Paymaster.sol\":1677:1765  require(userOp.verificationGasLimit > COST_OF_POST, \"Paymaster: gas too low for postOp\") */\n      tag_181\n        /* \"#utility.yul\":7268:7665   */\n      jump\n        /* \"src/Paymaster.sol\":1677:1765  require(userOp.verificationGasLimit > COST_OF_POST, \"Paymaster: gas too low for postOp\") */\n    tag_202:\n        /* \"src/Paymaster.sol\":1776:1807  bytes calldata paymasterAndData */\n      calldatasize\n      0x00\n        /* \"src/Paymaster.sol\":1810:1833  userOp.paymasterAndData */\n      tag_205\n      0x0120\n      dup9\n      add\n        /* \"src/Paymaster.sol\":1810:1816  userOp */\n      dup9\n        /* \"src/Paymaster.sol\":1810:1833  userOp.paymasterAndData */\n      tag_206\n      jump\t// in\n    tag_205:\n        /* \"src/Paymaster.sol\":1776:1833  bytes calldata paymasterAndData = userOp.paymasterAndData */\n      swap1\n      swap3\n      pop\n      swap1\n      pop\n        /* \"src/Paymaster.sol\":1878:1883  20+20 */\n      0x28\n        /* \"src/Paymaster.sol\":1851:1883  paymasterAndData.length == 20+20 */\n      dup2\n      eq\n        /* \"src/Paymaster.sol\":1843:1941  require(paymasterAndData.length == 20+20, \"DepositPaymaster: paymasterAndData must specify token\") */\n      tag_207\n      jumpi\n      mload(0x40)\n      shl(0xe5, 0x461bcd)\n      dup2\n      mstore\n        /* \"#utility.yul\":8398:8400   */\n      0x20\n        /* \"src/Paymaster.sol\":1843:1941  require(paymasterAndData.length == 20+20, \"DepositPaymaster: paymasterAndData must specify token\") */\n      0x04\n      dup3\n      add\n        /* \"#utility.yul\":8380:8401   */\n      mstore\n        /* \"#utility.yul\":8437:8439   */\n      0x35\n        /* \"#utility.yul\":8417:8435   */\n      0x24\n      dup3\n      add\n        /* \"#utility.yul\":8410:8440   */\n      mstore\n        /* \"#utility.yul\":8476:8510   */\n      0x4465706f7369745061796d61737465723a207061796d6173746572416e644461\n        /* \"#utility.yul\":8456:8474   */\n      0x44\n      dup3\n      add\n        /* \"#utility.yul\":8449:8511   */\n      mstore\n      shl(0x59, 0x3a309036bab9ba1039b832b1b4b33c903a37b5b2b7)\n        /* \"#utility.yul\":8527:8545   */\n      0x64\n      dup3\n      add\n        /* \"#utility.yul\":8520:8571   */\n      mstore\n        /* \"#utility.yul\":8588:8607   */\n      0x84\n      add\n        /* \"src/Paymaster.sol\":1843:1941  require(paymasterAndData.length == 20+20, \"DepositPaymaster: paymasterAndData must specify token\") */\n      tag_181\n        /* \"#utility.yul\":8196:8613   */\n      jump\n        /* \"src/Paymaster.sol\":1843:1941  require(paymasterAndData.length == 20+20, \"DepositPaymaster: paymasterAndData must specify token\") */\n    tag_207:\n        /* \"src/Paymaster.sol\":1951:1963  IERC20 token */\n      0x00\n        /* \"src/Paymaster.sol\":1989:2010  paymasterAndData[20:] */\n      tag_210\n        /* \"src/Paymaster.sol\":1989:2005  paymasterAndData */\n      dup3\n        /* \"src/Paymaster.sol\":2006:2008  20 */\n      0x14\n        /* \"src/Paymaster.sol\":1989:2005  paymasterAndData */\n      dup2\n      dup7\n        /* \"src/Paymaster.sol\":1989:2010  paymasterAndData[20:] */\n      tag_211\n      jump\t// in\n    tag_210:\n        /* \"src/Paymaster.sol\":1981:2011  bytes20(paymasterAndData[20:]) */\n      tag_212\n      swap2\n      tag_213\n      jump\t// in\n    tag_212:\n        /* \"src/Paymaster.sol\":1973:2012  address(bytes20(paymasterAndData[20:])) */\n      0x60\n      shr\n      swap1\n      pop\n        /* \"src/interfaces/UserOperation.sol\":1676:1696  calldataload(userOp) */\n      dup8\n      calldataload\n        /* \"src/Paymaster.sol\":2023:2038  address account */\n      0x00\n        /* \"src/Paymaster.sol\":2110:2143  UserOperationLib.gasPrice(userOp) */\n      tag_216\n        /* \"src/interfaces/UserOperation.sol\":1676:1696  calldataload(userOp) */\n      dup11\n        /* \"src/Paymaster.sol\":2110:2135  UserOperationLib.gasPrice */\n      tag_217\n        /* \"src/Paymaster.sol\":2110:2143  UserOperationLib.gasPrice(userOp) */\n      jump\t// in\n    tag_216:\n        /* \"src/Paymaster.sol\":2085:2143  uint256 gasPriceUserOp = UserOperationLib.gasPrice(userOp) */\n      swap1\n      pop\n        /* \"src/Paymaster.sol\":2154:2172  bool _isSubscribed */\n      0x00\n        /* \"src/Paymaster.sol\":2175:2196  isSubscribed(account) */\n      tag_218\n        /* \"src/Paymaster.sol\":2188:2195  account */\n      dup4\n        /* \"src/Paymaster.sol\":2175:2187  isSubscribed */\n      tag_73\n        /* \"src/Paymaster.sol\":2175:2196  isSubscribed(account) */\n      jump\t// in\n    tag_218:\n        /* \"src/Paymaster.sol\":2154:2196  bool _isSubscribed = isSubscribed(account) */\n      swap1\n      pop\n        /* \"src/Paymaster.sol\":2214:2227  _isSubscribed */\n      dup1\n        /* \"src/Paymaster.sol\":2206:2267  require(_isSubscribed, \"Paymaster: Call from non-subscriber\") */\n      tag_219\n      jumpi\n      mload(0x40)\n      shl(0xe5, 0x461bcd)\n      dup2\n      mstore\n        /* \"#utility.yul\":9498:9500   */\n      0x20\n        /* \"src/Paymaster.sol\":2206:2267  require(_isSubscribed, \"Paymaster: Call from non-subscriber\") */\n      0x04\n      dup3\n      add\n        /* \"#utility.yul\":9480:9501   */\n      mstore\n        /* \"#utility.yul\":9537:9539   */\n      0x23\n        /* \"#utility.yul\":9517:9535   */\n      0x24\n      dup3\n      add\n        /* \"#utility.yul\":9510:9540   */\n      mstore\n        /* \"#utility.yul\":9576:9610   */\n      0x5061796d61737465723a2043616c6c2066726f6d206e6f6e2d73756273637269\n        /* \"#utility.yul\":9556:9574   */\n      0x44\n      dup3\n      add\n        /* \"#utility.yul\":9549:9611   */\n      mstore\n      shl(0xe9, 0x3132b9)\n        /* \"#utility.yul\":9627:9645   */\n      0x64\n      dup3\n      add\n        /* \"#utility.yul\":9620:9653   */\n      mstore\n        /* \"#utility.yul\":9670:9689   */\n      0x84\n      add\n        /* \"src/Paymaster.sol\":2206:2267  require(_isSubscribed, \"Paymaster: Call from non-subscriber\") */\n      tag_181\n        /* \"#utility.yul\":9296:9695   */\n      jump\n        /* \"src/Paymaster.sol\":2206:2267  require(_isSubscribed, \"Paymaster: Call from non-subscriber\") */\n    tag_219:\n      pop\n        /* \"src/Paymaster.sol\":2286:2337  abi.encode(account, token, gasPriceUserOp, maxCost) */\n      0x40\n      dup1\n      mload\n      sub(shl(0xa0, 0x01), 0x01)\n        /* \"#utility.yul\":10001:10016   */\n      swap4\n      dup5\n      and\n        /* \"src/Paymaster.sol\":2286:2337  abi.encode(account, token, gasPriceUserOp, maxCost) */\n      0x20\n      dup3\n      add\n        /* \"#utility.yul\":9983:10017   */\n      mstore\n        /* \"#utility.yul\":10053:10068   */\n      swap4\n      swap1\n      swap3\n      and\n        /* \"#utility.yul\":10033:10051   */\n      dup4\n      dup4\n      add\n        /* \"#utility.yul\":10026:10069   */\n      mstore\n        /* \"#utility.yul\":10085:10103   */\n      0x60\n      dup4\n      add\n        /* \"#utility.yul\":10078:10112   */\n      mstore\n        /* \"#utility.yul\":10128:10146   */\n      0x80\n      dup1\n      dup4\n      add\n        /* \"#utility.yul\":10121:10155   */\n      swap8\n      swap1\n      swap8\n      mstore\n        /* \"src/Paymaster.sol\":2286:2337  abi.encode(account, token, gasPriceUserOp, maxCost) */\n      dup1\n      mload\n      dup1\n      dup4\n      sub\n      swap1\n      swap8\n      add\n      dup8\n      mstore\n        /* \"#utility.yul\":9917:9936   */\n      0xa0\n      swap1\n      swap2\n      add\n        /* \"src/Paymaster.sol\":2286:2337  abi.encode(account, token, gasPriceUserOp, maxCost) */\n      swap1\n      mstore\n      pop\n      swap3\n      swap6\n      0x00\n      swap6\n      pop\n      swap4\n      pop\n      pop\n      pop\n      pop\n        /* \"src/Paymaster.sol\":1358:2347  function _validatePaymasterUserOp(UserOperation calldata userOp, bytes32 userOpHash, uint256 maxCost)... */\n      jump\t// out\n        /* \"src/interfaces/UserOperation.sol\":1882:2354  function gasPrice(UserOperation calldata userOp) internal view returns (uint256) {... */\n    tag_217:\n        /* \"src/interfaces/UserOperation.sol\":1954:1961  uint256 */\n      0x00\n        /* \"src/interfaces/UserOperation.sol\":2012:2031  userOp.maxFeePerGas */\n      0xe0\n      dup3\n      add\n      calldataload\n        /* \"src/interfaces/UserOperation.sol\":2072:2099  userOp.maxPriorityFeePerGas */\n      0x0100\n      dup4\n      add\n      calldataload\n        /* \"src/interfaces/UserOperation.sol\":2113:2149  maxFeePerGas == maxPriorityFeePerGas */\n      dup1\n      dup3\n      sub\n        /* \"src/interfaces/UserOperation.sol\":2109:2270  if (maxFeePerGas == maxPriorityFeePerGas) {... */\n      tag_227\n      jumpi\n      pop\n        /* \"src/interfaces/UserOperation.sol\":2247:2259  maxFeePerGas */\n      swap3\n        /* \"src/interfaces/UserOperation.sol\":1882:2354  function gasPrice(UserOperation calldata userOp) internal view returns (uint256) {... */\n      swap2\n      pop\n      pop\n      jump\t// out\n        /* \"src/interfaces/UserOperation.sol\":2109:2270  if (maxFeePerGas == maxPriorityFeePerGas) {... */\n    tag_227:\n        /* \"src/interfaces/UserOperation.sol\":2286:2341  min(maxFeePerGas, maxPriorityFeePerGas + block.basefee) */\n      tag_228\n        /* \"src/interfaces/UserOperation.sol\":2290:2302  maxFeePerGas */\n      dup3\n        /* \"src/interfaces/UserOperation.sol\":2327:2340  block.basefee */\n      basefee\n        /* \"src/interfaces/UserOperation.sol\":2304:2324  maxPriorityFeePerGas */\n      dup4\n        /* \"src/interfaces/UserOperation.sol\":2304:2340  maxPriorityFeePerGas + block.basefee */\n      add\n        /* \"src/interfaces/UserOperation.sol\":2286:2289  min */\n      tag_229\n        /* \"src/interfaces/UserOperation.sol\":2286:2341  min(maxFeePerGas, maxPriorityFeePerGas + block.basefee) */\n      jump\t// in\n    tag_228:\n        /* \"src/interfaces/UserOperation.sol\":2279:2341  return min(maxFeePerGas, maxPriorityFeePerGas + block.basefee) */\n      swap5\n        /* \"src/interfaces/UserOperation.sol\":1882:2354  function gasPrice(UserOperation calldata userOp) internal view returns (uint256) {... */\n      swap4\n      pop\n      pop\n      pop\n      pop\n      jump\t// out\n        /* \"src/interfaces/UserOperation.sol\":3210:3314  function min(uint256 a, uint256 b) internal pure returns (uint256) {... */\n    tag_229:\n        /* \"src/interfaces/UserOperation.sol\":3268:3275  uint256 */\n      0x00\n        /* \"src/interfaces/UserOperation.sol\":3298:3299  b */\n      dup2\n        /* \"src/interfaces/UserOperation.sol\":3294:3295  a */\n      dup4\n        /* \"src/interfaces/UserOperation.sol\":3294:3299  a < b */\n      lt\n        /* \"src/interfaces/UserOperation.sol\":3294:3307  a < b ? a : b */\n      tag_231\n      jumpi\n        /* \"src/interfaces/UserOperation.sol\":3306:3307  b */\n      dup2\n        /* \"src/interfaces/UserOperation.sol\":3294:3307  a < b ? a : b */\n      jump(tag_232)\n    tag_231:\n        /* \"src/interfaces/UserOperation.sol\":3302:3303  a */\n      dup3\n        /* \"src/interfaces/UserOperation.sol\":3294:3307  a < b ? a : b */\n    tag_232:\n        /* \"src/interfaces/UserOperation.sol\":3287:3307  return a < b ? a : b */\n      swap1\n      pop\n        /* \"src/interfaces/UserOperation.sol\":3210:3314  function min(uint256 a, uint256 b) internal pure returns (uint256) {... */\n    tag_230:\n      swap3\n      swap2\n      pop\n      pop\n      jump\t// out\n        /* \"#utility.yul\":14:290   */\n    tag_25:\n        /* \"#utility.yul\":72:78   */\n      0x00\n        /* \"#utility.yul\":125:127   */\n      0x20\n        /* \"#utility.yul\":113:122   */\n      dup3\n        /* \"#utility.yul\":104:111   */\n      dup5\n        /* \"#utility.yul\":100:123   */\n      sub\n        /* \"#utility.yul\":96:128   */\n      slt\n        /* \"#utility.yul\":93:145   */\n      iszero\n      tag_236\n      jumpi\n        /* \"#utility.yul\":141:142   */\n      0x00\n        /* \"#utility.yul\":138:139   */\n      dup1\n        /* \"#utility.yul\":131:143   */\n      revert\n        /* \"#utility.yul\":93:145   */\n    tag_236:\n        /* \"#utility.yul\":180:189   */\n      dup2\n        /* \"#utility.yul\":167:190   */\n      calldataload\n        /* \"#utility.yul\":230:240   */\n      0xffffffff\n        /* \"#utility.yul\":223:228   */\n      dup2\n        /* \"#utility.yul\":219:241   */\n      and\n        /* \"#utility.yul\":212:217   */\n      dup2\n        /* \"#utility.yul\":209:242   */\n      eq\n        /* \"#utility.yul\":199:260   */\n      tag_237\n      jumpi\n        /* \"#utility.yul\":256:257   */\n      0x00\n        /* \"#utility.yul\":253:254   */\n      dup1\n        /* \"#utility.yul\":246:258   */\n      revert\n        /* \"#utility.yul\":199:260   */\n    tag_237:\n        /* \"#utility.yul\":279:284   */\n      swap4\n        /* \"#utility.yul\":14:290   */\n      swap3\n      pop\n      pop\n      pop\n      jump\t// out\n        /* \"#utility.yul\":477:616   */\n    tag_233:\n      sub(shl(0xa0, 0x01), 0x01)\n        /* \"#utility.yul\":560:591   */\n      dup2\n      and\n        /* \"#utility.yul\":550:592   */\n      dup2\n      eq\n        /* \"#utility.yul\":540:610   */\n      tag_183\n      jumpi\n        /* \"#utility.yul\":606:607   */\n      0x00\n        /* \"#utility.yul\":603:604   */\n      dup1\n        /* \"#utility.yul\":596:608   */\n      revert\n        /* \"#utility.yul\":621:952   */\n    tag_39:\n        /* \"#utility.yul\":697:703   */\n      0x00\n        /* \"#utility.yul\":705:711   */\n      dup1\n        /* \"#utility.yul\":758:760   */\n      0x40\n        /* \"#utility.yul\":746:755   */\n      dup4\n        /* \"#utility.yul\":737:744   */\n      dup6\n        /* \"#utility.yul\":733:756   */\n      sub\n        /* \"#utility.yul\":729:761   */\n      slt\n        /* \"#utility.yul\":726:778   */\n      iszero\n      tag_242\n      jumpi\n        /* \"#utility.yul\":774:775   */\n      0x00\n        /* \"#utility.yul\":771:772   */\n      dup1\n        /* \"#utility.yul\":764:776   */\n      revert\n        /* \"#utility.yul\":726:778   */\n    tag_242:\n        /* \"#utility.yul\":813:822   */\n      dup3\n        /* \"#utility.yul\":800:823   */\n      calldataload\n        /* \"#utility.yul\":832:871   */\n      tag_243\n        /* \"#utility.yul\":865:870   */\n      dup2\n        /* \"#utility.yul\":832:871   */\n      tag_233\n      jump\t// in\n    tag_243:\n        /* \"#utility.yul\":890:895   */\n      swap5\n        /* \"#utility.yul\":942:944   */\n      0x20\n        /* \"#utility.yul\":927:945   */\n      swap4\n      swap1\n      swap4\n      add\n        /* \"#utility.yul\":914:946   */\n      calldataload\n      swap4\n      pop\n      pop\n      pop\n        /* \"#utility.yul\":621:952   */\n      jump\t// out\n        /* \"#utility.yul\":1165:1983   */\n    tag_62:\n        /* \"#utility.yul\":1268:1274   */\n      0x00\n        /* \"#utility.yul\":1276:1282   */\n      dup1\n        /* \"#utility.yul\":1284:1290   */\n      0x00\n        /* \"#utility.yul\":1292:1298   */\n      dup1\n        /* \"#utility.yul\":1345:1347   */\n      0x60\n        /* \"#utility.yul\":1333:1342   */\n      dup6\n        /* \"#utility.yul\":1324:1331   */\n      dup8\n        /* \"#utility.yul\":1320:1343   */\n      sub\n        /* \"#utility.yul\":1316:1348   */\n      slt\n        /* \"#utility.yul\":1313:1365   */\n      iszero\n      tag_246\n      jumpi\n        /* \"#utility.yul\":1361:1362   */\n      0x00\n        /* \"#utility.yul\":1358:1359   */\n      dup1\n        /* \"#utility.yul\":1351:1363   */\n      revert\n        /* \"#utility.yul\":1313:1365   */\n    tag_246:\n        /* \"#utility.yul\":1400:1409   */\n      dup5\n        /* \"#utility.yul\":1387:1410   */\n      calldataload\n        /* \"#utility.yul\":1439:1440   */\n      0x03\n        /* \"#utility.yul\":1432:1437   */\n      dup2\n        /* \"#utility.yul\":1429:1441   */\n      lt\n        /* \"#utility.yul\":1419:1459   */\n      tag_247\n      jumpi\n        /* \"#utility.yul\":1455:1456   */\n      0x00\n        /* \"#utility.yul\":1452:1453   */\n      dup1\n        /* \"#utility.yul\":1445:1457   */\n      revert\n        /* \"#utility.yul\":1419:1459   */\n    tag_247:\n        /* \"#utility.yul\":1478:1483   */\n      swap4\n      pop\n        /* \"#utility.yul\":1534:1536   */\n      0x20\n        /* \"#utility.yul\":1519:1537   */\n      dup6\n      add\n        /* \"#utility.yul\":1506:1538   */\n      calldataload\n        /* \"#utility.yul\":1557:1575   */\n      0xffffffffffffffff\n        /* \"#utility.yul\":1587:1601   */\n      dup1\n      dup3\n      gt\n        /* \"#utility.yul\":1584:1618   */\n      iszero\n      tag_248\n      jumpi\n        /* \"#utility.yul\":1614:1615   */\n      0x00\n        /* \"#utility.yul\":1611:1612   */\n      dup1\n        /* \"#utility.yul\":1604:1616   */\n      revert\n        /* \"#utility.yul\":1584:1618   */\n    tag_248:\n        /* \"#utility.yul\":1652:1658   */\n      dup2\n        /* \"#utility.yul\":1641:1650   */\n      dup8\n        /* \"#utility.yul\":1637:1659   */\n      add\n        /* \"#utility.yul\":1627:1659   */\n      swap2\n      pop\n        /* \"#utility.yul\":1697:1704   */\n      dup8\n        /* \"#utility.yul\":1690:1694   */\n      0x1f\n        /* \"#utility.yul\":1686:1688   */\n      dup4\n        /* \"#utility.yul\":1682:1695   */\n      add\n        /* \"#utility.yul\":1678:1705   */\n      slt\n        /* \"#utility.yul\":1668:1723   */\n      tag_249\n      jumpi\n        /* \"#utility.yul\":1719:1720   */\n      0x00\n        /* \"#utility.yul\":1716:1717   */\n      dup1\n        /* \"#utility.yul\":1709:1721   */\n      revert\n        /* \"#utility.yul\":1668:1723   */\n    tag_249:\n        /* \"#utility.yul\":1759:1761   */\n      dup2\n        /* \"#utility.yul\":1746:1762   */\n      calldataload\n        /* \"#utility.yul\":1785:1787   */\n      dup2\n        /* \"#utility.yul\":1777:1783   */\n      dup2\n        /* \"#utility.yul\":1774:1788   */\n      gt\n        /* \"#utility.yul\":1771:1805   */\n      iszero\n      tag_250\n      jumpi\n        /* \"#utility.yul\":1801:1802   */\n      0x00\n        /* \"#utility.yul\":1798:1799   */\n      dup1\n        /* \"#utility.yul\":1791:1803   */\n      revert\n        /* \"#utility.yul\":1771:1805   */\n    tag_250:\n        /* \"#utility.yul\":1846:1853   */\n      dup9\n        /* \"#utility.yul\":1841:1843   */\n      0x20\n        /* \"#utility.yul\":1832:1838   */\n      dup3\n        /* \"#utility.yul\":1828:1830   */\n      dup6\n        /* \"#utility.yul\":1824:1839   */\n      add\n        /* \"#utility.yul\":1820:1844   */\n      add\n        /* \"#utility.yul\":1817:1854   */\n      gt\n        /* \"#utility.yul\":1814:1871   */\n      iszero\n      tag_251\n      jumpi\n        /* \"#utility.yul\":1867:1868   */\n      0x00\n        /* \"#utility.yul\":1864:1865   */\n      dup1\n        /* \"#utility.yul\":1857:1869   */\n      revert\n        /* \"#utility.yul\":1814:1871   */\n    tag_251:\n        /* \"#utility.yul\":1165:1983   */\n      swap6\n      swap9\n        /* \"#utility.yul\":1898:1900   */\n      0x20\n        /* \"#utility.yul\":1890:1901   */\n      swap3\n      swap1\n      swap3\n      add\n      swap8\n      pop\n        /* \"#utility.yul\":1920:1926   */\n      swap5\n      swap6\n        /* \"#utility.yul\":1973:1975   */\n      0x40\n        /* \"#utility.yul\":1958:1976   */\n      add\n        /* \"#utility.yul\":1945:1977   */\n      calldataload\n      swap5\n      pop\n        /* \"#utility.yul\":1165:1983   */\n      swap3\n      pop\n      pop\n      pop\n      jump\t// out\n        /* \"#utility.yul\":2216:2471   */\n    tag_72:\n        /* \"#utility.yul\":2275:2281   */\n      0x00\n        /* \"#utility.yul\":2328:2330   */\n      0x20\n        /* \"#utility.yul\":2316:2325   */\n      dup3\n        /* \"#utility.yul\":2307:2314   */\n      dup5\n        /* \"#utility.yul\":2303:2326   */\n      sub\n        /* \"#utility.yul\":2299:2331   */\n      slt\n        /* \"#utility.yul\":2296:2348   */\n      iszero\n      tag_254\n      jumpi\n        /* \"#utility.yul\":2344:2345   */\n      0x00\n        /* \"#utility.yul\":2341:2342   */\n      dup1\n        /* \"#utility.yul\":2334:2346   */\n      revert\n        /* \"#utility.yul\":2296:2348   */\n    tag_254:\n        /* \"#utility.yul\":2383:2392   */\n      dup2\n        /* \"#utility.yul\":2370:2393   */\n      calldataload\n        /* \"#utility.yul\":2402:2441   */\n      tag_237\n        /* \"#utility.yul\":2435:2440   */\n      dup2\n        /* \"#utility.yul\":2402:2441   */\n      tag_233\n      jump\t// in\n        /* \"#utility.yul\":2936:3465   */\n    tag_97:\n        /* \"#utility.yul\":3046:3052   */\n      0x00\n        /* \"#utility.yul\":3054:3060   */\n      dup1\n        /* \"#utility.yul\":3062:3068   */\n      0x00\n        /* \"#utility.yul\":3115:3117   */\n      0x60\n        /* \"#utility.yul\":3103:3112   */\n      dup5\n        /* \"#utility.yul\":3094:3101   */\n      dup7\n        /* \"#utility.yul\":3090:3113   */\n      sub\n        /* \"#utility.yul\":3086:3118   */\n      slt\n        /* \"#utility.yul\":3083:3135   */\n      iszero\n      tag_261\n      jumpi\n        /* \"#utility.yul\":3131:3132   */\n      0x00\n        /* \"#utility.yul\":3128:3129   */\n      dup1\n        /* \"#utility.yul\":3121:3133   */\n      revert\n        /* \"#utility.yul\":3083:3135   */\n    tag_261:\n        /* \"#utility.yul\":3171:3180   */\n      dup4\n        /* \"#utility.yul\":3158:3181   */\n      calldataload\n        /* \"#utility.yul\":3204:3222   */\n      0xffffffffffffffff\n        /* \"#utility.yul\":3196:3202   */\n      dup2\n        /* \"#utility.yul\":3193:3223   */\n      gt\n        /* \"#utility.yul\":3190:3240   */\n      iszero\n      tag_262\n      jumpi\n        /* \"#utility.yul\":3236:3237   */\n      0x00\n        /* \"#utility.yul\":3233:3234   */\n      dup1\n        /* \"#utility.yul\":3226:3238   */\n      revert\n        /* \"#utility.yul\":3190:3240   */\n    tag_262:\n        /* \"#utility.yul\":3259:3281   */\n      dup5\n      add\n        /* \"#utility.yul\":3315:3318   */\n      0x0160\n        /* \"#utility.yul\":3297:3313   */\n      dup2\n      dup8\n      sub\n        /* \"#utility.yul\":3293:3319   */\n      slt\n        /* \"#utility.yul\":3290:3336   */\n      iszero\n      tag_263\n      jumpi\n        /* \"#utility.yul\":3332:3333   */\n      0x00\n        /* \"#utility.yul\":3329:3330   */\n      dup1\n        /* \"#utility.yul\":3322:3334   */\n      revert\n        /* \"#utility.yul\":3290:3336   */\n    tag_263:\n        /* \"#utility.yul\":3355:3357   */\n      swap6\n        /* \"#utility.yul\":3404:3406   */\n      0x20\n        /* \"#utility.yul\":3389:3407   */\n      dup6\n      add\n        /* \"#utility.yul\":3376:3408   */\n      calldataload\n      swap6\n      pop\n        /* \"#utility.yul\":3455:3457   */\n      0x40\n        /* \"#utility.yul\":3440:3458   */\n      swap1\n      swap5\n      add\n        /* \"#utility.yul\":3427:3459   */\n      calldataload\n      swap4\n        /* \"#utility.yul\":2936:3465   */\n      swap3\n      pop\n      pop\n      pop\n      jump\t// out\n        /* \"#utility.yul\":3470:4072   */\n    tag_100:\n        /* \"#utility.yul\":3645:3647   */\n      0x40\n        /* \"#utility.yul\":3634:3643   */\n      dup2\n        /* \"#utility.yul\":3627:3648   */\n      mstore\n        /* \"#utility.yul\":3608:3612   */\n      0x00\n        /* \"#utility.yul\":3677:3683   */\n      dup4\n        /* \"#utility.yul\":3671:3684   */\n      mload\n        /* \"#utility.yul\":3720:3726   */\n      dup1\n        /* \"#utility.yul\":3715:3717   */\n      0x40\n        /* \"#utility.yul\":3704:3713   */\n      dup5\n        /* \"#utility.yul\":3700:3718   */\n      add\n        /* \"#utility.yul\":3693:3727   */\n      mstore\n        /* \"#utility.yul\":3745:3746   */\n      0x00\n        /* \"#utility.yul\":3755:3899   */\n    tag_265:\n        /* \"#utility.yul\":3769:3775   */\n      dup2\n        /* \"#utility.yul\":3766:3767   */\n      dup2\n        /* \"#utility.yul\":3763:3776   */\n      lt\n        /* \"#utility.yul\":3755:3899   */\n      iszero\n      tag_267\n      jumpi\n        /* \"#utility.yul\":3882:3886   */\n      0x20\n        /* \"#utility.yul\":3866:3880   */\n      dup2\n      dup8\n      add\n        /* \"#utility.yul\":3862:3887   */\n      dup2\n      add\n        /* \"#utility.yul\":3856:3888   */\n      mload\n        /* \"#utility.yul\":3851:3853   */\n      0x60\n        /* \"#utility.yul\":3832:3849   */\n      dup7\n      dup5\n      add\n        /* \"#utility.yul\":3828:3854   */\n      add\n        /* \"#utility.yul\":3821:3889   */\n      mstore\n        /* \"#utility.yul\":3784:3796   */\n      add\n        /* \"#utility.yul\":3755:3899   */\n      jump(tag_265)\n    tag_267:\n        /* \"#utility.yul\":3759:3762   */\n      pop\n        /* \"#utility.yul\":3948:3949   */\n      0x00\n        /* \"#utility.yul\":3943:3945   */\n      0x60\n        /* \"#utility.yul\":3934:3940   */\n      dup3\n        /* \"#utility.yul\":3923:3932   */\n      dup6\n        /* \"#utility.yul\":3919:3941   */\n      add\n        /* \"#utility.yul\":3915:3946   */\n      add\n        /* \"#utility.yul\":3908:3950   */\n      mstore\n        /* \"#utility.yul\":4018:4020   */\n      0x60\n        /* \"#utility.yul\":4011:4013   */\n      0x1f\n        /* \"#utility.yul\":4007:4014   */\n      not\n        /* \"#utility.yul\":4002:4004   */\n      0x1f\n        /* \"#utility.yul\":3994:4000   */\n      dup4\n        /* \"#utility.yul\":3990:4005   */\n      add\n        /* \"#utility.yul\":3986:4015   */\n      and\n        /* \"#utility.yul\":3975:3984   */\n      dup5\n        /* \"#utility.yul\":3971:4016   */\n      add\n        /* \"#utility.yul\":3967:4021   */\n      add\n        /* \"#utility.yul\":3959:4021   */\n      swap2\n      pop\n      pop\n        /* \"#utility.yul\":4059:4065   */\n      dup3\n        /* \"#utility.yul\":4052:4056   */\n      0x20\n        /* \"#utility.yul\":4041:4050   */\n      dup4\n        /* \"#utility.yul\":4037:4057   */\n      add\n        /* \"#utility.yul\":4030:4066   */\n      mstore\n        /* \"#utility.yul\":3470:4072   */\n      swap4\n      swap3\n      pop\n      pop\n      pop\n      jump\t// out\n        /* \"#utility.yul\":4569:4753   */\n    tag_125:\n        /* \"#utility.yul\":4639:4645   */\n      0x00\n        /* \"#utility.yul\":4692:4694   */\n      0x20\n        /* \"#utility.yul\":4680:4689   */\n      dup3\n        /* \"#utility.yul\":4671:4678   */\n      dup5\n        /* \"#utility.yul\":4667:4690   */\n      sub\n        /* \"#utility.yul\":4663:4695   */\n      slt\n        /* \"#utility.yul\":4660:4712   */\n      iszero\n      tag_271\n      jumpi\n        /* \"#utility.yul\":4708:4709   */\n      0x00\n        /* \"#utility.yul\":4705:4706   */\n      dup1\n        /* \"#utility.yul\":4698:4710   */\n      revert\n        /* \"#utility.yul\":4660:4712   */\n    tag_271:\n      pop\n        /* \"#utility.yul\":4731:4747   */\n      mload\n      swap2\n        /* \"#utility.yul\":4569:4753   */\n      swap1\n      pop\n      jump\t// out\n        /* \"#utility.yul\":5037:5314   */\n    tag_132:\n        /* \"#utility.yul\":5104:5110   */\n      0x00\n        /* \"#utility.yul\":5157:5159   */\n      0x20\n        /* \"#utility.yul\":5145:5154   */\n      dup3\n        /* \"#utility.yul\":5136:5143   */\n      dup5\n        /* \"#utility.yul\":5132:5155   */\n      sub\n        /* \"#utility.yul\":5128:5160   */\n      slt\n        /* \"#utility.yul\":5125:5177   */\n      iszero\n      tag_274\n      jumpi\n        /* \"#utility.yul\":5173:5174   */\n      0x00\n        /* \"#utility.yul\":5170:5171   */\n      dup1\n        /* \"#utility.yul\":5163:5175   */\n      revert\n        /* \"#utility.yul\":5125:5177   */\n    tag_274:\n        /* \"#utility.yul\":5205:5214   */\n      dup2\n        /* \"#utility.yul\":5199:5215   */\n      mload\n        /* \"#utility.yul\":5258:5263   */\n      dup1\n        /* \"#utility.yul\":5251:5264   */\n      iszero\n        /* \"#utility.yul\":5244:5265   */\n      iszero\n        /* \"#utility.yul\":5237:5242   */\n      dup2\n        /* \"#utility.yul\":5234:5266   */\n      eq\n        /* \"#utility.yul\":5224:5284   */\n      tag_237\n      jumpi\n        /* \"#utility.yul\":5280:5281   */\n      0x00\n        /* \"#utility.yul\":5277:5278   */\n      dup1\n        /* \"#utility.yul\":5270:5282   */\n      revert\n        /* \"#utility.yul\":5699:5921   */\n    tag_152:\n        /* \"#utility.yul\":5764:5773   */\n      dup1\n      dup3\n      add\n        /* \"#utility.yul\":5785:5795   */\n      dup1\n      dup3\n      gt\n        /* \"#utility.yul\":5782:5915   */\n      iszero\n      tag_230\n      jumpi\n        /* \"#utility.yul\":5837:5847   */\n      0x4e487b71\n        /* \"#utility.yul\":5832:5835   */\n      0xe0\n        /* \"#utility.yul\":5828:5848   */\n      shl\n        /* \"#utility.yul\":5825:5826   */\n      0x00\n        /* \"#utility.yul\":5818:5849   */\n      mstore\n        /* \"#utility.yul\":5872:5876   */\n      0x11\n        /* \"#utility.yul\":5869:5870   */\n      0x04\n        /* \"#utility.yul\":5862:5877   */\n      mstore\n        /* \"#utility.yul\":5900:5904   */\n      0x24\n        /* \"#utility.yul\":5897:5898   */\n      0x00\n        /* \"#utility.yul\":5890:5905   */\n      revert\n        /* \"#utility.yul\":7670:8191   */\n    tag_206:\n        /* \"#utility.yul\":7747:7751   */\n      0x00\n        /* \"#utility.yul\":7753:7759   */\n      dup1\n        /* \"#utility.yul\":7813:7824   */\n      dup4\n        /* \"#utility.yul\":7800:7825   */\n      calldataload\n        /* \"#utility.yul\":7907:7909   */\n      0x1e\n        /* \"#utility.yul\":7903:7910   */\n      not\n        /* \"#utility.yul\":7892:7900   */\n      dup5\n        /* \"#utility.yul\":7876:7890   */\n      calldatasize\n        /* \"#utility.yul\":7872:7901   */\n      sub\n        /* \"#utility.yul\":7868:7911   */\n      add\n        /* \"#utility.yul\":7848:7866   */\n      dup2\n        /* \"#utility.yul\":7844:7912   */\n      slt\n        /* \"#utility.yul\":7834:7930   */\n      tag_285\n      jumpi\n        /* \"#utility.yul\":7926:7927   */\n      0x00\n        /* \"#utility.yul\":7923:7924   */\n      dup1\n        /* \"#utility.yul\":7916:7928   */\n      revert\n        /* \"#utility.yul\":7834:7930   */\n    tag_285:\n        /* \"#utility.yul\":7953:7986   */\n      dup4\n      add\n        /* \"#utility.yul\":8005:8025   */\n      dup1\n      calldataload\n      swap2\n      pop\n        /* \"#utility.yul\":8048:8066   */\n      0xffffffffffffffff\n        /* \"#utility.yul\":8037:8067   */\n      dup3\n      gt\n        /* \"#utility.yul\":8034:8084   */\n      iszero\n      tag_286\n      jumpi\n        /* \"#utility.yul\":8080:8081   */\n      0x00\n        /* \"#utility.yul\":8077:8078   */\n      dup1\n        /* \"#utility.yul\":8070:8082   */\n      revert\n        /* \"#utility.yul\":8034:8084   */\n    tag_286:\n        /* \"#utility.yul\":8113:8117   */\n      0x20\n        /* \"#utility.yul\":8101:8118   */\n      add\n      swap2\n      pop\n        /* \"#utility.yul\":8144:8158   */\n      calldatasize\n        /* \"#utility.yul\":8140:8167   */\n      dup2\n      swap1\n      sub\n        /* \"#utility.yul\":8130:8168   */\n      dup3\n      sgt\n        /* \"#utility.yul\":8127:8185   */\n      iszero\n      tag_287\n      jumpi\n        /* \"#utility.yul\":8181:8182   */\n      0x00\n        /* \"#utility.yul\":8178:8179   */\n      dup1\n        /* \"#utility.yul\":8171:8183   */\n      revert\n        /* \"#utility.yul\":8127:8185   */\n    tag_287:\n        /* \"#utility.yul\":7670:8191   */\n      swap3\n      pop\n      swap3\n      swap1\n      pop\n      jump\t// out\n        /* \"#utility.yul\":8618:8949   */\n    tag_211:\n        /* \"#utility.yul\":8723:8732   */\n      0x00\n        /* \"#utility.yul\":8734:8743   */\n      dup1\n        /* \"#utility.yul\":8776:8784   */\n      dup6\n        /* \"#utility.yul\":8764:8774   */\n      dup6\n        /* \"#utility.yul\":8761:8785   */\n      gt\n        /* \"#utility.yul\":8758:8802   */\n      iszero\n      tag_290\n      jumpi\n        /* \"#utility.yul\":8798:8799   */\n      0x00\n        /* \"#utility.yul\":8795:8796   */\n      dup1\n        /* \"#utility.yul\":8788:8800   */\n      revert\n        /* \"#utility.yul\":8758:8802   */\n    tag_290:\n        /* \"#utility.yul\":8827:8833   */\n      dup4\n        /* \"#utility.yul\":8817:8825   */\n      dup7\n        /* \"#utility.yul\":8814:8834   */\n      gt\n        /* \"#utility.yul\":8811:8851   */\n      iszero\n      tag_291\n      jumpi\n        /* \"#utility.yul\":8847:8848   */\n      0x00\n        /* \"#utility.yul\":8844:8845   */\n      dup1\n        /* \"#utility.yul\":8837:8849   */\n      revert\n        /* \"#utility.yul\":8811:8851   */\n    tag_291:\n      pop\n      pop\n        /* \"#utility.yul\":8873:8896   */\n      dup3\n      add\n      swap4\n        /* \"#utility.yul\":8918:8943   */\n      swap2\n      swap1\n      swap3\n      sub\n      swap2\n      pop\n        /* \"#utility.yul\":8618:8949   */\n      jump\t// out\n        /* \"#utility.yul\":8954:9291   */\n    tag_213:\n      not(0xffffffffffffffffffffffff)\n        /* \"#utility.yul\":9075:9094   */\n      dup2\n      calldataload\n        /* \"#utility.yul\":9162:9173   */\n      dup2\n      dup2\n      and\n      swap2\n        /* \"#utility.yul\":9193:9195   */\n      0x14\n        /* \"#utility.yul\":9185:9196   */\n      dup6\n      lt\n        /* \"#utility.yul\":9182:9285   */\n      iszero\n      tag_293\n      jumpi\n        /* \"#utility.yul\":9272:9274   */\n      dup1\n        /* \"#utility.yul\":9266:9268   */\n      dup2\n        /* \"#utility.yul\":9259:9262   */\n      dup7\n        /* \"#utility.yul\":9255:9257   */\n      0x14\n        /* \"#utility.yul\":9251:9263   */\n      sub\n        /* \"#utility.yul\":9248:9249   */\n      0x03\n        /* \"#utility.yul\":9244:9264   */\n      shl\n        /* \"#utility.yul\":9240:9269   */\n      shl\n        /* \"#utility.yul\":9236:9238   */\n      dup4\n        /* \"#utility.yul\":9232:9270   */\n      and\n        /* \"#utility.yul\":9228:9275   */\n      and\n        /* \"#utility.yul\":9219:9275   */\n      swap3\n      pop\n        /* \"#utility.yul\":9182:9285   */\n    tag_293:\n      pop\n      pop\n        /* \"#utility.yul\":8954:9291   */\n      swap3\n      swap2\n      pop\n      pop\n      jump\t// out\n\n    auxdata: 0xa26469706673582212202f36ac0c267e7c30d10565158a0fe32701f71b3494aa8007dfa9c5fbf7315c3564736f6c63430008120033\n}\n",
				"bytecode": {
					"linkReferences": {},
					"object": "60a060405234801561001057600080fd5b5060405161103838038061103883398101604081905261002f916100ce565b8061003933610066565b6001600160a01b03908116608052600180546001600160a01b031916939091169290921790915550610108565b600080546001600160a01b038381166001600160a01b0319831681178455604051919092169283917f8be0079c531659141344cd1fd0a4f28419497f9722a3daafe3b4186f6b6457e09190a35050565b6001600160a01b03811681146100cb57600080fd5b50565b600080604083850312156100e157600080fd5b82516100ec816100b6565b60208401519092506100fd816100b6565b809150509250929050565b608051610ee46101546000396000818161024301528181610357015281816103ee01528181610636015281816106ca01528181610741015281816107ce01526109710152610ee46000f3fe6080604052600436106101095760003560e01c8063a9a2340911610095578063c23a5cea11610064578063c23a5cea146102aa578063c399ec88146102ca578063d0e30db0146102df578063f2fde38b146102e7578063f465c77e1461030757600080fd5b8063a9a2340914610211578063b0d691fe14610231578063b92ae87c14610265578063bb9fe6bf1461029557600080fd5b80633ccfd60b116100dc5780633ccfd60b1461018a578063715018a61461019f578063796d4371146101b45780638da5cb5b146101ca5780638f449a05146101fc57600080fd5b80630396cb601461010e5780630aa0a175146101235780630fb5a6b414610153578063205c28781461016a575b600080fd5b61012161011c366004610be2565b610335565b005b34801561012f57600080fd5b506101406801158e460913d0000081565b6040519081526020015b60405180910390f35b34801561015f57600080fd5b506101406228de8081565b34801561017657600080fd5b50610121610185366004610c24565b6103c0565b34801561019657600080fd5b50610121610432565b3480156101ab57600080fd5b50610121610542565b3480156101c057600080fd5b506101406188b881565b3480156101d657600080fd5b506000546001600160a01b03165b6040516001600160a01b03909116815260200161014a565b34801561020857600080fd5b50610121610556565b34801561021d57600080fd5b5061012161022c366004610c50565b6105ee565b34801561023d57600080fd5b506101e47f000000000000000000000000000000000000000000000000000000000000000081565b34801561027157600080fd5b50610285610280366004610cdf565b6105fc565b604051901515815260200161014a565b3480156102a157600080fd5b5061012161062c565b3480156102b657600080fd5b506101216102c5366004610cdf565b6106a3565b3480156102d657600080fd5b50610140610729565b6101216107b9565b3480156102f357600080fd5b50610121610302366004610cdf565b61081b565b34801561031357600080fd5b50610327610322366004610cfc565b610899565b60405161014a929190610d50565b61033d6108bc565b604051621cb65b60e51b815263ffffffff821660048201527f00000000000000000000000000000000000000000000000000000000000000006001600160a01b031690630396cb609034906024016000604051808303818588803b1580156103a457600080fd5b505af11580156103b8573d6000803e3d6000fd5b505050505050565b6103c86108bc565b60405163040b850f60e31b81526001600160a01b038381166004830152602482018390527f0000000000000000000000000000000000000000000000000000000000000000169063205c287890604401600060405180830381600087803b1580156103a457600080fd5b61043a6108bc565b6001546040516370a0823160e01b81523060048201526000916001600160a01b0316906370a0823190602401602060405180830381865afa158015610483573d6000803e3d6000fd5b505050506040513d601f19601f820116820180604052508101906104a79190610da5565b6001549091506001600160a01b031663a9059cbb6104cd6000546001600160a01b031690565b6040516001600160e01b031960e084901b1681526001600160a01b039091166004820152602481018490526044016020604051808303816000875af115801561051a573d6000803e3d6000fd5b505050506040513d601f19601f8201168201806040525081019061053e9190610dbe565b5050565b61054a6108bc565b6105546000610916565b565b6001546040516323b872dd60e01b81523360048201523060248201526801158e460913d0000060448201526001600160a01b03909116906323b872dd906064016020604051808303816000875af11580156105b5573d6000803e3d6000fd5b505050506040513d601f19601f820116820180604052508101906105d99190610dbe565b50336000908152600260205260409020429055565b6105f6610966565b50505050565b6001600160a01b0381166000908152600260205260408120544290610625906228de8090610de0565b1192915050565b6106346108bc565b7f00000000000000000000000000000000000000000000000000000000000000006001600160a01b031663bb9fe6bf6040518163ffffffff1660e01b8152600401600060405180830381600087803b15801561068f57600080fd5b505af11580156105f6573d6000803e3d6000fd5b6106ab6108bc565b60405163611d2e7560e11b81526001600160a01b0382811660048301527f0000000000000000000000000000000000000000000000000000000000000000169063c23a5cea90602401600060405180830381600087803b15801561070e57600080fd5b505af1158015610722573d6000803e3d6000fd5b5050505050565b6040516370a0823160e01b81523060048201526000907f00000000000000000000000000000000000000000000000000000000000000006001600160a01b0316906370a0823190602401602060405180830381865afa158015610790573d6000803e3d6000fd5b505050506040513d601f19601f820116820180604052508101906107b49190610da5565b905090565b60405163b760faf960e01b81523060048201527f00000000000000000000000000000000000000000000000000000000000000006001600160a01b03169063b760faf99034906024016000604051808303818588803b15801561070e57600080fd5b6108236108bc565b6001600160a01b03811661088d5760405162461bcd60e51b815260206004820152602660248201527f4f776e61626c653a206e6577206f776e657220697320746865207a65726f206160448201526564647265737360d01b60648201526084015b60405180910390fd5b61089681610916565b50565b606060006108a5610966565b6108b08585856109d6565b91509150935093915050565b6000546001600160a01b031633146105545760405162461bcd60e51b815260206004820181905260248201527f4f776e61626c653a2063616c6c6572206973206e6f7420746865206f776e65726044820152606401610884565b600080546001600160a01b038381166001600160a01b0319831681178455604051919092169283917f8be0079c531659141344cd1fd0a4f28419497f9722a3daafe3b4186f6b6457e09190a35050565b336001600160a01b037f000000000000000000000000000000000000000000000000000000000000000016146105545760405162461bcd60e51b815260206004820152601560248201527414d95b99195c881b9bdd08115b9d1c9e541bda5b9d605a1b6044820152606401610884565b606060006188b88560a0013511610a395760405162461bcd60e51b815260206004820152602160248201527f5061796d61737465723a2067617320746f6f206c6f7720666f7220706f73744f6044820152600760fc1b6064820152608401610884565b366000610a4a610120880188610e01565b909250905060288114610abd5760405162461bcd60e51b815260206004820152603560248201527f4465706f7369745061796d61737465723a207061796d6173746572416e6444616044820152743a309036bab9ba1039b832b1b4b33c903a37b5b2b760591b6064820152608401610884565b6000610acc8260148186610e4f565b610ad591610e79565b60601c905087356000610ae78a610b99565b90506000610af4836105fc565b905080610b4f5760405162461bcd60e51b815260206004820152602360248201527f5061796d61737465723a2043616c6c2066726f6d206e6f6e2d737562736372696044820152623132b960e91b6064820152608401610884565b50604080516001600160a01b039384166020820152939092168383015260608301526080808301979097528051808303909701875260a09091019052509295600095509350505050565b600060e0820135610100830135808203610bb4575092915050565b610bc082488301610bc8565b949350505050565b6000818310610bd75781610bd9565b825b90505b92915050565b600060208284031215610bf457600080fd5b813563ffffffff81168114610c0857600080fd5b9392505050565b6001600160a01b038116811461089657600080fd5b60008060408385031215610c3757600080fd5b8235610c4281610c0f565b946020939093013593505050565b60008060008060608587031215610c6657600080fd5b843560038110610c7557600080fd5b9350602085013567ffffffffffffffff80821115610c9257600080fd5b818701915087601f830112610ca657600080fd5b813581811115610cb557600080fd5b886020828501011115610cc757600080fd5b95986020929092019750949560400135945092505050565b600060208284031215610cf157600080fd5b8135610c0881610c0f565b600080600060608486031215610d1157600080fd5b833567ffffffffffffffff811115610d2857600080fd5b84016101608187031215610d3b57600080fd5b95602085013595506040909401359392505050565b604081526000835180604084015260005b81811015610d7e5760208187018101516060868401015201610d61565b506000606082850101526060601f19601f8301168401019150508260208301529392505050565b600060208284031215610db757600080fd5b5051919050565b600060208284031215610dd057600080fd5b81518015158114610c0857600080fd5b80820180821115610bdc57634e487b7160e01b600052601160045260246000fd5b6000808335601e19843603018112610e1857600080fd5b83018035915067ffffffffffffffff821115610e3357600080fd5b602001915036819003821315610e4857600080fd5b9250929050565b60008085851115610e5f57600080fd5b83861115610e6c57600080fd5b5050820193919092039150565b6bffffffffffffffffffffffff198135818116916014851015610ea65780818660140360031b1b83161692505b50509291505056fea26469706673582212202f36ac0c267e7c30d10565158a0fe32701f71b3494aa8007dfa9c5fbf7315c3564736f6c63430008120033",
					"opcodes": "PUSH1 0xA0 PUSH1 0x40 MSTORE CALLVALUE DUP1 ISZERO PUSH2 0x10 JUMPI PUSH1 0x0 DUP1 REVERT JUMPDEST POP PUSH1 0x40 MLOAD PUSH2 0x1038 CODESIZE SUB DUP1 PUSH2 0x1038 DUP4 CODECOPY DUP2 ADD PUSH1 0x40 DUP2 SWAP1 MSTORE PUSH2 0x2F SWAP2 PUSH2 0xCE JUMP JUMPDEST DUP1 PUSH2 0x39 CALLER PUSH2 0x66 JUMP JUMPDEST PUSH1 0x1 PUSH1 0x1 PUSH1 0xA0 SHL SUB SWAP1 DUP2 AND PUSH1 0x80 MSTORE PUSH1 0x1 DUP1 SLOAD PUSH1 0x1 PUSH1 0x1 PUSH1 0xA0 SHL SUB NOT AND SWAP4 SWAP1 SWAP2 AND SWAP3 SWAP1 SWAP3 OR SWAP1 SWAP2 SSTORE POP PUSH2 0x108 JUMP JUMPDEST PUSH1 0x0 DUP1 SLOAD PUSH1 0x1 PUSH1 0x1 PUSH1 0xA0 SHL SUB DUP4 DUP2 AND PUSH1 0x1 PUSH1 0x1 PUSH1 0xA0 SHL SUB NOT DUP4 AND DUP2 OR DUP5 SSTORE PUSH1 0x40 MLOAD SWAP2 SWAP1 SWAP3 AND SWAP3 DUP4 SWAP2 PUSH32 0x8BE0079C531659141344CD1FD0A4F28419497F9722A3DAAFE3B4186F6B6457E0 SWAP2 SWAP1 LOG3 POP POP JUMP JUMPDEST PUSH1 0x1 PUSH1 0x1 PUSH1 0xA0 SHL SUB DUP2 AND DUP2 EQ PUSH2 0xCB JUMPI PUSH1 0x0 DUP1 REVERT JUMPDEST POP JUMP JUMPDEST PUSH1 0x0 DUP1 PUSH1 0x40 DUP4 DUP6 SUB SLT ISZERO PUSH2 0xE1 JUMPI PUSH1 0x0 DUP1 REVERT JUMPDEST DUP3 MLOAD PUSH2 0xEC DUP2 PUSH2 0xB6 JUMP JUMPDEST PUSH1 0x20 DUP5 ADD MLOAD SWAP1 SWAP3 POP PUSH2 0xFD DUP2 PUSH2 0xB6 JUMP JUMPDEST DUP1 SWAP2 POP POP SWAP3 POP SWAP3 SWAP1 POP JUMP JUMPDEST PUSH1 0x80 MLOAD PUSH2 0xEE4 PUSH2 0x154 PUSH1 0x0 CODECOPY PUSH1 0x0 DUP2 DUP2 PUSH2 0x243 ADD MSTORE DUP2 DUP2 PUSH2 0x357 ADD MSTORE DUP2 DUP2 PUSH2 0x3EE ADD MSTORE DUP2 DUP2 PUSH2 0x636 ADD MSTORE DUP2 DUP2 PUSH2 0x6CA ADD MSTORE DUP2 DUP2 PUSH2 0x741 ADD MSTORE DUP2 DUP2 PUSH2 0x7CE ADD MSTORE PUSH2 0x971 ADD MSTORE PUSH2 0xEE4 PUSH1 0x0 RETURN INVALID PUSH1 0x80 PUSH1 0x40 MSTORE PUSH1 0x4 CALLDATASIZE LT PUSH2 0x109 JUMPI PUSH1 0x0 CALLDATALOAD PUSH1 0xE0 SHR DUP1 PUSH4 0xA9A23409 GT PUSH2 0x95 JUMPI DUP1 PUSH4 0xC23A5CEA GT PUSH2 0x64 JUMPI DUP1 PUSH4 0xC23A5CEA EQ PUSH2 0x2AA JUMPI DUP1 PUSH4 0xC399EC88 EQ PUSH2 0x2CA JUMPI DUP1 PUSH4 0xD0E30DB0 EQ PUSH2 0x2DF JUMPI DUP1 PUSH4 0xF2FDE38B EQ PUSH2 0x2E7 JUMPI DUP1 PUSH4 0xF465C77E EQ PUSH2 0x307 JUMPI PUSH1 0x0 DUP1 REVERT JUMPDEST DUP1 PUSH4 0xA9A23409 EQ PUSH2 0x211 JUMPI DUP1 PUSH4 0xB0D691FE EQ PUSH2 0x231 JUMPI DUP1 PUSH4 0xB92AE87C EQ PUSH2 0x265 JUMPI DUP1 PUSH4 0xBB9FE6BF EQ PUSH2 0x295 JUMPI PUSH1 0x0 DUP1 REVERT JUMPDEST DUP1 PUSH4 0x3CCFD60B GT PUSH2 0xDC JUMPI DUP1 PUSH4 0x3CCFD60B EQ PUSH2 0x18A JUMPI DUP1 PUSH4 0x715018A6 EQ PUSH2 0x19F JUMPI DUP1 PUSH4 0x796D4371 EQ PUSH2 0x1B4 JUMPI DUP1 PUSH4 0x8DA5CB5B EQ PUSH2 0x1CA JUMPI DUP1 PUSH4 0x8F449A05 EQ PUSH2 0x1FC JUMPI PUSH1 0x0 DUP1 REVERT JUMPDEST DUP1 PUSH4 0x396CB60 EQ PUSH2 0x10E JUMPI DUP1 PUSH4 0xAA0A175 EQ PUSH2 0x123 JUMPI DUP1 PUSH4 0xFB5A6B4 EQ PUSH2 0x153 JUMPI DUP1 PUSH4 0x205C2878 EQ PUSH2 0x16A JUMPI JUMPDEST PUSH1 0x0 DUP1 REVERT JUMPDEST PUSH2 0x121 PUSH2 0x11C CALLDATASIZE PUSH1 0x4 PUSH2 0xBE2 JUMP JUMPDEST PUSH2 0x335 JUMP JUMPDEST STOP JUMPDEST CALLVALUE DUP1 ISZERO PUSH2 0x12F JUMPI PUSH1 0x0 DUP1 REVERT JUMPDEST POP PUSH2 0x140 PUSH9 0x1158E460913D00000 DUP2 JUMP JUMPDEST PUSH1 0x40 MLOAD SWAP1 DUP2 MSTORE PUSH1 0x20 ADD JUMPDEST PUSH1 0x40 MLOAD DUP1 SWAP2 SUB SWAP1 RETURN JUMPDEST CALLVALUE DUP1 ISZERO PUSH2 0x15F JUMPI PUSH1 0x0 DUP1 REVERT JUMPDEST POP PUSH2 0x140 PUSH3 0x28DE80 DUP2 JUMP JUMPDEST CALLVALUE DUP1 ISZERO PUSH2 0x176 JUMPI PUSH1 0x0 DUP1 REVERT JUMPDEST POP PUSH2 0x121 PUSH2 0x185 CALLDATASIZE PUSH1 0x4 PUSH2 0xC24 JUMP JUMPDEST PUSH2 0x3C0 JUMP JUMPDEST CALLVALUE DUP1 ISZERO PUSH2 0x196 JUMPI PUSH1 0x0 DUP1 REVERT JUMPDEST POP PUSH2 0x121 PUSH2 0x432 JUMP JUMPDEST CALLVALUE DUP1 ISZERO PUSH2 0x1AB JUMPI PUSH1 0x0 DUP1 REVERT JUMPDEST POP PUSH2 0x121 PUSH2 0x542 JUMP JUMPDEST CALLVALUE DUP1 ISZERO PUSH2 0x1C0 JUMPI PUSH1 0x0 DUP1 REVERT JUMPDEST POP PUSH2 0x140 PUSH2 0x88B8 DUP2 JUMP JUMPDEST CALLVALUE DUP1 ISZERO PUSH2 0x1D6 JUMPI PUSH1 0x0 DUP1 REVERT JUMPDEST POP PUSH1 0x0 SLOAD PUSH1 0x1 PUSH1 0x1 PUSH1 0xA0 SHL SUB AND JUMPDEST PUSH1 0x40 MLOAD PUSH1 0x1 PUSH1 0x1 PUSH1 0xA0 SHL SUB SWAP1 SWAP2 AND DUP2 MSTORE PUSH1 0x20 ADD PUSH2 0x14A JUMP JUMPDEST CALLVALUE DUP1 ISZERO PUSH2 0x208 JUMPI PUSH1 0x0 DUP1 REVERT JUMPDEST POP PUSH2 0x121 PUSH2 0x556 JUMP JUMPDEST CALLVALUE DUP1 ISZERO PUSH2 0x21D JUMPI PUSH1 0x0 DUP1 REVERT JUMPDEST POP PUSH2 0x121 PUSH2 0x22C CALLDATASIZE PUSH1 0x4 PUSH2 0xC50 JUMP JUMPDEST PUSH2 0x5EE JUMP JUMPDEST CALLVALUE DUP1 ISZERO PUSH2 0x23D JUMPI PUSH1 0x0 DUP1 REVERT JUMPDEST POP PUSH2 0x1E4 PUSH32 0x0 DUP2 JUMP JUMPDEST CALLVALUE DUP1 ISZERO PUSH2 0x271 JUMPI PUSH1 0x0 DUP1 REVERT JUMPDEST POP PUSH2 0x285 PUSH2 0x280 CALLDATASIZE PUSH1 0x4 PUSH2 0xCDF JUMP JUMPDEST PUSH2 0x5FC JUMP JUMPDEST PUSH1 0x40 MLOAD SWAP1 ISZERO ISZERO DUP2 MSTORE PUSH1 0x20 ADD PUSH2 0x14A JUMP JUMPDEST CALLVALUE DUP1 ISZERO PUSH2 0x2A1 JUMPI PUSH1 0x0 DUP1 REVERT JUMPDEST POP PUSH2 0x121 PUSH2 0x62C JUMP JUMPDEST CALLVALUE DUP1 ISZERO PUSH2 0x2B6 JUMPI PUSH1 0x0 DUP1 REVERT JUMPDEST POP PUSH2 0x121 PUSH2 0x2C5 CALLDATASIZE PUSH1 0x4 PUSH2 0xCDF JUMP JUMPDEST PUSH2 0x6A3 JUMP JUMPDEST CALLVALUE DUP1 ISZERO PUSH2 0x2D6 JUMPI PUSH1 0x0 DUP1 REVERT JUMPDEST POP PUSH2 0x140 PUSH2 0x729 JUMP JUMPDEST PUSH2 0x121 PUSH2 0x7B9 JUMP JUMPDEST CALLVALUE DUP1 ISZERO PUSH2 0x2F3 JUMPI PUSH1 0x0 DUP1 REVERT JUMPDEST POP PUSH2 0x121 PUSH2 0x302 CALLDATASIZE PUSH1 0x4 PUSH2 0xCDF JUMP JUMPDEST PUSH2 0x81B JUMP JUMPDEST CALLVALUE DUP1 ISZERO PUSH2 0x313 JUMPI PUSH1 0x0 DUP1 REVERT JUMPDEST POP PUSH2 0x327 PUSH2 0x322 CALLDATASIZE PUSH1 0x4 PUSH2 0xCFC JUMP JUMPDEST PUSH2 0x899 JUMP JUMPDEST PUSH1 0x40 MLOAD PUSH2 0x14A SWAP3 SWAP2 SWAP1 PUSH2 0xD50 JUMP JUMPDEST PUSH2 0x33D PUSH2 0x8BC JUMP JUMPDEST PUSH1 0x40 MLOAD PUSH3 0x1CB65B PUSH1 0xE5 SHL DUP2 MSTORE PUSH4 0xFFFFFFFF DUP3 AND PUSH1 0x4 DUP3 ADD MSTORE PUSH32 0x0 PUSH1 0x1 PUSH1 0x1 PUSH1 0xA0 SHL SUB AND SWAP1 PUSH4 0x396CB60 SWAP1 CALLVALUE SWAP1 PUSH1 0x24 ADD PUSH1 0x0 PUSH1 0x40 MLOAD DUP1 DUP4 SUB DUP2 DUP6 DUP9 DUP1 EXTCODESIZE ISZERO DUP1 ISZERO PUSH2 0x3A4 JUMPI PUSH1 0x0 DUP1 REVERT JUMPDEST POP GAS CALL ISZERO DUP1 ISZERO PUSH2 0x3B8 JUMPI RETURNDATASIZE PUSH1 0x0 DUP1 RETURNDATACOPY RETURNDATASIZE PUSH1 0x0 REVERT JUMPDEST POP POP POP POP POP POP JUMP JUMPDEST PUSH2 0x3C8 PUSH2 0x8BC JUMP JUMPDEST PUSH1 0x40 MLOAD PUSH4 0x40B850F PUSH1 0xE3 SHL DUP2 MSTORE PUSH1 0x1 PUSH1 0x1 PUSH1 0xA0 SHL SUB DUP4 DUP2 AND PUSH1 0x4 DUP4 ADD MSTORE PUSH1 0x24 DUP3 ADD DUP4 SWAP1 MSTORE PUSH32 0x0 AND SWAP1 PUSH4 0x205C2878 SWAP1 PUSH1 0x44 ADD PUSH1 0x0 PUSH1 0x40 MLOAD DUP1 DUP4 SUB DUP2 PUSH1 0x0 DUP8 DUP1 EXTCODESIZE ISZERO DUP1 ISZERO PUSH2 0x3A4 JUMPI PUSH1 0x0 DUP1 REVERT JUMPDEST PUSH2 0x43A PUSH2 0x8BC JUMP JUMPDEST PUSH1 0x1 SLOAD PUSH1 0x40 MLOAD PUSH4 0x70A08231 PUSH1 0xE0 SHL DUP2 MSTORE ADDRESS PUSH1 0x4 DUP3 ADD MSTORE PUSH1 0x0 SWAP2 PUSH1 0x1 PUSH1 0x1 PUSH1 0xA0 SHL SUB AND SWAP1 PUSH4 0x70A08231 SWAP1 PUSH1 0x24 ADD PUSH1 0x20 PUSH1 0x40 MLOAD DUP1 DUP4 SUB DUP2 DUP7 GAS STATICCALL ISZERO DUP1 ISZERO PUSH2 0x483 JUMPI RETURNDATASIZE PUSH1 0x0 DUP1 RETURNDATACOPY RETURNDATASIZE PUSH1 0x0 REVERT JUMPDEST POP POP POP POP PUSH1 0x40 MLOAD RETURNDATASIZE PUSH1 0x1F NOT PUSH1 0x1F DUP3 ADD AND DUP3 ADD DUP1 PUSH1 0x40 MSTORE POP DUP2 ADD SWAP1 PUSH2 0x4A7 SWAP2 SWAP1 PUSH2 0xDA5 JUMP JUMPDEST PUSH1 0x1 SLOAD SWAP1 SWAP2 POP PUSH1 0x1 PUSH1 0x1 PUSH1 0xA0 SHL SUB AND PUSH4 0xA9059CBB PUSH2 0x4CD PUSH1 0x0 SLOAD PUSH1 0x1 PUSH1 0x1 PUSH1 0xA0 SHL SUB AND SWAP1 JUMP JUMPDEST PUSH1 0x40 MLOAD PUSH1 0x1 PUSH1 0x1 PUSH1 0xE0 SHL SUB NOT PUSH1 0xE0 DUP5 SWAP1 SHL AND DUP2 MSTORE PUSH1 0x1 PUSH1 0x1 PUSH1 0xA0 SHL SUB SWAP1 SWAP2 AND PUSH1 0x4 DUP3 ADD MSTORE PUSH1 0x24 DUP2 ADD DUP5 SWAP1 MSTORE PUSH1 0x44 ADD PUSH1 0x20 PUSH1 0x40 MLOAD DUP1 DUP4 SUB DUP2 PUSH1 0x0 DUP8 GAS CALL ISZERO DUP1 ISZERO PUSH2 0x51A JUMPI RETURNDATASIZE PUSH1 0x0 DUP1 RETURNDATACOPY RETURNDATASIZE PUSH1 0x0 REVERT JUMPDEST POP POP POP POP PUSH1 0x40 MLOAD RETURNDATASIZE PUSH1 0x1F NOT PUSH1 0x1F DUP3 ADD AND DUP3 ADD DUP1 PUSH1 0x40 MSTORE POP DUP2 ADD SWAP1 PUSH2 0x53E SWAP2 SWAP1 PUSH2 0xDBE JUMP JUMPDEST POP POP JUMP JUMPDEST PUSH2 0x54A PUSH2 0x8BC JUMP JUMPDEST PUSH2 0x554 PUSH1 0x0 PUSH2 0x916 JUMP JUMPDEST JUMP JUMPDEST PUSH1 0x1 SLOAD PUSH1 0x40 MLOAD PUSH4 0x23B872DD PUSH1 0xE0 SHL DUP2 MSTORE CALLER PUSH1 0x4 DUP3 ADD MSTORE ADDRESS PUSH1 0x24 DUP3 ADD MSTORE PUSH9 0x1158E460913D00000 PUSH1 0x44 DUP3 ADD MSTORE PUSH1 0x1 PUSH1 0x1 PUSH1 0xA0 SHL SUB SWAP1 SWAP2 AND SWAP1 PUSH4 0x23B872DD SWAP1 PUSH1 0x64 ADD PUSH1 0x20 PUSH1 0x40 MLOAD DUP1 DUP4 SUB DUP2 PUSH1 0x0 DUP8 GAS CALL ISZERO DUP1 ISZERO PUSH2 0x5B5 JUMPI RETURNDATASIZE PUSH1 0x0 DUP1 RETURNDATACOPY RETURNDATASIZE PUSH1 0x0 REVERT JUMPDEST POP POP POP POP PUSH1 0x40 MLOAD RETURNDATASIZE PUSH1 0x1F NOT PUSH1 0x1F DUP3 ADD AND DUP3 ADD DUP1 PUSH1 0x40 MSTORE POP DUP2 ADD SWAP1 PUSH2 0x5D9 SWAP2 SWAP1 PUSH2 0xDBE JUMP JUMPDEST POP CALLER PUSH1 0x0 SWAP1 DUP2 MSTORE PUSH1 0x2 PUSH1 0x20 MSTORE PUSH1 0x40 SWAP1 KECCAK256 TIMESTAMP SWAP1 SSTORE JUMP JUMPDEST PUSH2 0x5F6 PUSH2 0x966 JUMP JUMPDEST POP POP POP POP JUMP JUMPDEST PUSH1 0x1 PUSH1 0x1 PUSH1 0xA0 SHL SUB DUP2 AND PUSH1 0x0 SWAP1 DUP2 MSTORE PUSH1 0x2 PUSH1 0x20 MSTORE PUSH1 0x40 DUP2 KECCAK256 SLOAD TIMESTAMP SWAP1 PUSH2 0x625 SWAP1 PUSH3 0x28DE80 SWAP1 PUSH2 0xDE0 JUMP JUMPDEST GT SWAP3 SWAP2 POP POP JUMP JUMPDEST PUSH2 0x634 PUSH2 0x8BC JUMP JUMPDEST PUSH32 0x0 PUSH1 0x1 PUSH1 0x1 PUSH1 0xA0 SHL SUB AND PUSH4 0xBB9FE6BF PUSH1 0x40 MLOAD DUP2 PUSH4 0xFFFFFFFF AND PUSH1 0xE0 SHL DUP2 MSTORE PUSH1 0x4 ADD PUSH1 0x0 PUSH1 0x40 MLOAD DUP1 DUP4 SUB DUP2 PUSH1 0x0 DUP8 DUP1 EXTCODESIZE ISZERO DUP1 ISZERO PUSH2 0x68F JUMPI PUSH1 0x0 DUP1 REVERT JUMPDEST POP GAS CALL ISZERO DUP1 ISZERO PUSH2 0x5F6 JUMPI RETURNDATASIZE PUSH1 0x0 DUP1 RETURNDATACOPY RETURNDATASIZE PUSH1 0x0 REVERT JUMPDEST PUSH2 0x6AB PUSH2 0x8BC JUMP JUMPDEST PUSH1 0x40 MLOAD PUSH4 0x611D2E75 PUSH1 0xE1 SHL DUP2 MSTORE PUSH1 0x1 PUSH1 0x1 PUSH1 0xA0 SHL SUB DUP3 DUP2 AND PUSH1 0x4 DUP4 ADD MSTORE PUSH32 0x0 AND SWAP1 PUSH4 0xC23A5CEA SWAP1 PUSH1 0x24 ADD PUSH1 0x0 PUSH1 0x40 MLOAD DUP1 DUP4 SUB DUP2 PUSH1 0x0 DUP8 DUP1 EXTCODESIZE ISZERO DUP1 ISZERO PUSH2 0x70E JUMPI PUSH1 0x0 DUP1 REVERT JUMPDEST POP GAS CALL ISZERO DUP1 ISZERO PUSH2 0x722 JUMPI RETURNDATASIZE PUSH1 0x0 DUP1 RETURNDATACOPY RETURNDATASIZE PUSH1 0x0 REVERT JUMPDEST POP POP POP POP POP JUMP JUMPDEST PUSH1 0x40 MLOAD PUSH4 0x70A08231 PUSH1 0xE0 SHL DUP2 MSTORE ADDRESS PUSH1 0x4 DUP3 ADD MSTORE PUSH1 0x0 SWAP1 PUSH32 0x0 PUSH1 0x1 PUSH1 0x1 PUSH1 0xA0 SHL SUB AND SWAP1 PUSH4 0x70A08231 SWAP1 PUSH1 0x24 ADD PUSH1 0x20 PUSH1 0x40 MLOAD DUP1 DUP4 SUB DUP2 DUP7 GAS STATICCALL ISZERO DUP1 ISZERO PUSH2 0x790 JUMPI RETURNDATASIZE PUSH1 0x0 DUP1 RETURNDATACOPY RETURNDATASIZE PUSH1 0x0 REVERT JUMPDEST POP POP POP POP PUSH1 0x40 MLOAD RETURNDATASIZE PUSH1 0x1F NOT PUSH1 0x1F DUP3 ADD AND DUP3 ADD DUP1 PUSH1 0x40 MSTORE POP DUP2 ADD SWAP1 PUSH2 0x7B4 SWAP2 SWAP1 PUSH2 0xDA5 JUMP JUMPDEST SWAP1 POP SWAP1 JUMP JUMPDEST PUSH1 0x40 MLOAD PUSH4 0xB760FAF9 PUSH1 0xE0 SHL DUP2 MSTORE ADDRESS PUSH1 0x4 DUP3 ADD MSTORE PUSH32 0x0 PUSH1 0x1 PUSH1 0x1 PUSH1 0xA0 SHL SUB AND SWAP1 PUSH4 0xB760FAF9 SWAP1 CALLVALUE SWAP1 PUSH1 0x24 ADD PUSH1 0x0 PUSH1 0x40 MLOAD DUP1 DUP4 SUB DUP2 DUP6 DUP9 DUP1 EXTCODESIZE ISZERO DUP1 ISZERO PUSH2 0x70E JUMPI PUSH1 0x0 DUP1 REVERT JUMPDEST PUSH2 0x823 PUSH2 0x8BC JUMP JUMPDEST PUSH1 0x1 PUSH1 0x1 PUSH1 0xA0 SHL SUB DUP2 AND PUSH2 0x88D JUMPI PUSH1 0x40 MLOAD PUSH3 0x461BCD PUSH1 0xE5 SHL DUP2 MSTORE PUSH1 0x20 PUSH1 0x4 DUP3 ADD MSTORE PUSH1 0x26 PUSH1 0x24 DUP3 ADD MSTORE PUSH32 0x4F776E61626C653A206E6577206F776E657220697320746865207A65726F2061 PUSH1 0x44 DUP3 ADD MSTORE PUSH6 0x646472657373 PUSH1 0xD0 SHL PUSH1 0x64 DUP3 ADD MSTORE PUSH1 0x84 ADD JUMPDEST PUSH1 0x40 MLOAD DUP1 SWAP2 SUB SWAP1 REVERT JUMPDEST PUSH2 0x896 DUP2 PUSH2 0x916 JUMP JUMPDEST POP JUMP JUMPDEST PUSH1 0x60 PUSH1 0x0 PUSH2 0x8A5 PUSH2 0x966 JUMP JUMPDEST PUSH2 0x8B0 DUP6 DUP6 DUP6 PUSH2 0x9D6 JUMP JUMPDEST SWAP2 POP SWAP2 POP SWAP4 POP SWAP4 SWAP2 POP POP JUMP JUMPDEST PUSH1 0x0 SLOAD PUSH1 0x1 PUSH1 0x1 PUSH1 0xA0 SHL SUB AND CALLER EQ PUSH2 0x554 JUMPI PUSH1 0x40 MLOAD PUSH3 0x461BCD PUSH1 0xE5 SHL DUP2 MSTORE PUSH1 0x20 PUSH1 0x4 DUP3 ADD DUP2 SWAP1 MSTORE PUSH1 0x24 DUP3 ADD MSTORE PUSH32 0x4F776E61626C653A2063616C6C6572206973206E6F7420746865206F776E6572 PUSH1 0x44 DUP3 ADD MSTORE PUSH1 0x64 ADD PUSH2 0x884 JUMP JUMPDEST PUSH1 0x0 DUP1 SLOAD PUSH1 0x1 PUSH1 0x1 PUSH1 0xA0 SHL SUB DUP4 DUP2 AND PUSH1 0x1 PUSH1 0x1 PUSH1 0xA0 SHL SUB NOT DUP4 AND DUP2 OR DUP5 SSTORE PUSH1 0x40 MLOAD SWAP2 SWAP1 SWAP3 AND SWAP3 DUP4 SWAP2 PUSH32 0x8BE0079C531659141344CD1FD0A4F28419497F9722A3DAAFE3B4186F6B6457E0 SWAP2 SWAP1 LOG3 POP POP JUMP JUMPDEST CALLER PUSH1 0x1 PUSH1 0x1 PUSH1 0xA0 SHL SUB PUSH32 0x0 AND EQ PUSH2 0x554 JUMPI PUSH1 0x40 MLOAD PUSH3 0x461BCD PUSH1 0xE5 SHL DUP2 MSTORE PUSH1 0x20 PUSH1 0x4 DUP3 ADD MSTORE PUSH1 0x15 PUSH1 0x24 DUP3 ADD MSTORE PUSH21 0x14D95B99195C881B9BDD08115B9D1C9E541BDA5B9D PUSH1 0x5A SHL PUSH1 0x44 DUP3 ADD MSTORE PUSH1 0x64 ADD PUSH2 0x884 JUMP JUMPDEST PUSH1 0x60 PUSH1 0x0 PUSH2 0x88B8 DUP6 PUSH1 0xA0 ADD CALLDATALOAD GT PUSH2 0xA39 JUMPI PUSH1 0x40 MLOAD PUSH3 0x461BCD PUSH1 0xE5 SHL DUP2 MSTORE PUSH1 0x20 PUSH1 0x4 DUP3 ADD MSTORE PUSH1 0x21 PUSH1 0x24 DUP3 ADD MSTORE PUSH32 0x5061796D61737465723A2067617320746F6F206C6F7720666F7220706F73744F PUSH1 0x44 DUP3 ADD MSTORE PUSH1 0x7 PUSH1 0xFC SHL PUSH1 0x64 DUP3 ADD MSTORE PUSH1 0x84 ADD PUSH2 0x884 JUMP JUMPDEST CALLDATASIZE PUSH1 0x0 PUSH2 0xA4A PUSH2 0x120 DUP9 ADD DUP9 PUSH2 0xE01 JUMP JUMPDEST SWAP1 SWAP3 POP SWAP1 POP PUSH1 0x28 DUP2 EQ PUSH2 0xABD JUMPI PUSH1 0x40 MLOAD PUSH3 0x461BCD PUSH1 0xE5 SHL DUP2 MSTORE PUSH1 0x20 PUSH1 0x4 DUP3 ADD MSTORE PUSH1 0x35 PUSH1 0x24 DUP3 ADD MSTORE PUSH32 0x4465706F7369745061796D61737465723A207061796D6173746572416E644461 PUSH1 0x44 DUP3 ADD MSTORE PUSH21 0x3A309036BAB9BA1039B832B1B4B33C903A37B5B2B7 PUSH1 0x59 SHL PUSH1 0x64 DUP3 ADD MSTORE PUSH1 0x84 ADD PUSH2 0x884 JUMP JUMPDEST PUSH1 0x0 PUSH2 0xACC DUP3 PUSH1 0x14 DUP2 DUP7 PUSH2 0xE4F JUMP JUMPDEST PUSH2 0xAD5 SWAP2 PUSH2 0xE79 JUMP JUMPDEST PUSH1 0x60 SHR SWAP1 POP DUP8 CALLDATALOAD PUSH1 0x0 PUSH2 0xAE7 DUP11 PUSH2 0xB99 JUMP JUMPDEST SWAP1 POP PUSH1 0x0 PUSH2 0xAF4 DUP4 PUSH2 0x5FC JUMP JUMPDEST SWAP1 POP DUP1 PUSH2 0xB4F JUMPI PUSH1 0x40 MLOAD PUSH3 0x461BCD PUSH1 0xE5 SHL DUP2 MSTORE PUSH1 0x20 PUSH1 0x4 DUP3 ADD MSTORE PUSH1 0x23 PUSH1 0x24 DUP3 ADD MSTORE PUSH32 0x5061796D61737465723A2043616C6C2066726F6D206E6F6E2D73756273637269 PUSH1 0x44 DUP3 ADD MSTORE PUSH3 0x3132B9 PUSH1 0xE9 SHL PUSH1 0x64 DUP3 ADD MSTORE PUSH1 0x84 ADD PUSH2 0x884 JUMP JUMPDEST POP PUSH1 0x40 DUP1 MLOAD PUSH1 0x1 PUSH1 0x1 PUSH1 0xA0 SHL SUB SWAP4 DUP5 AND PUSH1 0x20 DUP3 ADD MSTORE SWAP4 SWAP1 SWAP3 AND DUP4 DUP4 ADD MSTORE PUSH1 0x60 DUP4 ADD MSTORE PUSH1 0x80 DUP1 DUP4 ADD SWAP8 SWAP1 SWAP8 MSTORE DUP1 MLOAD DUP1 DUP4 SUB SWAP1 SWAP8 ADD DUP8 MSTORE PUSH1 0xA0 SWAP1 SWAP2 ADD SWAP1 MSTORE POP SWAP3 SWAP6 PUSH1 0x0 SWAP6 POP SWAP4 POP POP POP POP JUMP JUMPDEST PUSH1 0x0 PUSH1 0xE0 DUP3 ADD CALLDATALOAD PUSH2 0x100 DUP4 ADD CALLDATALOAD DUP1 DUP3 SUB PUSH2 0xBB4 JUMPI POP SWAP3 SWAP2 POP POP JUMP JUMPDEST PUSH2 0xBC0 DUP3 BASEFEE DUP4 ADD PUSH2 0xBC8 JUMP JUMPDEST SWAP5 SWAP4 POP POP POP POP JUMP JUMPDEST PUSH1 0x0 DUP2 DUP4 LT PUSH2 0xBD7 JUMPI DUP2 PUSH2 0xBD9 JUMP JUMPDEST DUP3 JUMPDEST SWAP1 POP JUMPDEST SWAP3 SWAP2 POP POP JUMP JUMPDEST PUSH1 0x0 PUSH1 0x20 DUP3 DUP5 SUB SLT ISZERO PUSH2 0xBF4 JUMPI PUSH1 0x0 DUP1 REVERT JUMPDEST DUP2 CALLDATALOAD PUSH4 0xFFFFFFFF DUP2 AND DUP2 EQ PUSH2 0xC08 JUMPI PUSH1 0x0 DUP1 REVERT JUMPDEST SWAP4 SWAP3 POP POP POP JUMP JUMPDEST PUSH1 0x1 PUSH1 0x1 PUSH1 0xA0 SHL SUB DUP2 AND DUP2 EQ PUSH2 0x896 JUMPI PUSH1 0x0 DUP1 REVERT JUMPDEST PUSH1 0x0 DUP1 PUSH1 0x40 DUP4 DUP6 SUB SLT ISZERO PUSH2 0xC37 JUMPI PUSH1 0x0 DUP1 REVERT JUMPDEST DUP3 CALLDATALOAD PUSH2 0xC42 DUP2 PUSH2 0xC0F JUMP JUMPDEST SWAP5 PUSH1 0x20 SWAP4 SWAP1 SWAP4 ADD CALLDATALOAD SWAP4 POP POP POP JUMP JUMPDEST PUSH1 0x0 DUP1 PUSH1 0x0 DUP1 PUSH1 0x60 DUP6 DUP8 SUB SLT ISZERO PUSH2 0xC66 JUMPI PUSH1 0x0 DUP1 REVERT JUMPDEST DUP5 CALLDATALOAD PUSH1 0x3 DUP2 LT PUSH2 0xC75 JUMPI PUSH1 0x0 DUP1 REVERT JUMPDEST SWAP4 POP PUSH1 0x20 DUP6 ADD CALLDATALOAD PUSH8 0xFFFFFFFFFFFFFFFF DUP1 DUP3 GT ISZERO PUSH2 0xC92 JUMPI PUSH1 0x0 DUP1 REVERT JUMPDEST DUP2 DUP8 ADD SWAP2 POP DUP8 PUSH1 0x1F DUP4 ADD SLT PUSH2 0xCA6 JUMPI PUSH1 0x0 DUP1 REVERT JUMPDEST DUP2 CALLDATALOAD DUP2 DUP2 GT ISZERO PUSH2 0xCB5 JUMPI PUSH1 0x0 DUP1 REVERT JUMPDEST DUP9 PUSH1 0x20 DUP3 DUP6 ADD ADD GT ISZERO PUSH2 0xCC7 JUMPI PUSH1 0x0 DUP1 REVERT JUMPDEST SWAP6 SWAP9 PUSH1 0x20 SWAP3 SWAP1 SWAP3 ADD SWAP8 POP SWAP5 SWAP6 PUSH1 0x40 ADD CALLDATALOAD SWAP5 POP SWAP3 POP POP POP JUMP JUMPDEST PUSH1 0x0 PUSH1 0x20 DUP3 DUP5 SUB SLT ISZERO PUSH2 0xCF1 JUMPI PUSH1 0x0 DUP1 REVERT JUMPDEST DUP2 CALLDATALOAD PUSH2 0xC08 DUP2 PUSH2 0xC0F JUMP JUMPDEST PUSH1 0x0 DUP1 PUSH1 0x0 PUSH1 0x60 DUP5 DUP7 SUB SLT ISZERO PUSH2 0xD11 JUMPI PUSH1 0x0 DUP1 REVERT JUMPDEST DUP4 CALLDATALOAD PUSH8 0xFFFFFFFFFFFFFFFF DUP2 GT ISZERO PUSH2 0xD28 JUMPI PUSH1 0x0 DUP1 REVERT JUMPDEST DUP5 ADD PUSH2 0x160 DUP2 DUP8 SUB SLT ISZERO PUSH2 0xD3B JUMPI PUSH1 0x0 DUP1 REVERT JUMPDEST SWAP6 PUSH1 0x20 DUP6 ADD CALLDATALOAD SWAP6 POP PUSH1 0x40 SWAP1 SWAP5 ADD CALLDATALOAD SWAP4 SWAP3 POP POP POP JUMP JUMPDEST PUSH1 0x40 DUP2 MSTORE PUSH1 0x0 DUP4 MLOAD DUP1 PUSH1 0x40 DUP5 ADD MSTORE PUSH1 0x0 JUMPDEST DUP2 DUP2 LT ISZERO PUSH2 0xD7E JUMPI PUSH1 0x20 DUP2 DUP8 ADD DUP2 ADD MLOAD PUSH1 0x60 DUP7 DUP5 ADD ADD MSTORE ADD PUSH2 0xD61 JUMP JUMPDEST POP PUSH1 0x0 PUSH1 0x60 DUP3 DUP6 ADD ADD MSTORE PUSH1 0x60 PUSH1 0x1F NOT PUSH1 0x1F DUP4 ADD AND DUP5 ADD ADD SWAP2 POP POP DUP3 PUSH1 0x20 DUP4 ADD MSTORE SWAP4 SWAP3 POP POP POP JUMP JUMPDEST PUSH1 0x0 PUSH1 0x20 DUP3 DUP5 SUB SLT ISZERO PUSH2 0xDB7 JUMPI PUSH1 0x0 DUP1 REVERT JUMPDEST POP MLOAD SWAP2 SWAP1 POP JUMP JUMPDEST PUSH1 0x0 PUSH1 0x20 DUP3 DUP5 SUB SLT ISZERO PUSH2 0xDD0 JUMPI PUSH1 0x0 DUP1 REVERT JUMPDEST DUP2 MLOAD DUP1 ISZERO ISZERO DUP2 EQ PUSH2 0xC08 JUMPI PUSH1 0x0 DUP1 REVERT JUMPDEST DUP1 DUP3 ADD DUP1 DUP3 GT ISZERO PUSH2 0xBDC JUMPI PUSH4 0x4E487B71 PUSH1 0xE0 SHL PUSH1 0x0 MSTORE PUSH1 0x11 PUSH1 0x4 MSTORE PUSH1 0x24 PUSH1 0x0 REVERT JUMPDEST PUSH1 0x0 DUP1 DUP4 CALLDATALOAD PUSH1 0x1E NOT DUP5 CALLDATASIZE SUB ADD DUP2 SLT PUSH2 0xE18 JUMPI PUSH1 0x0 DUP1 REVERT JUMPDEST DUP4 ADD DUP1 CALLDATALOAD SWAP2 POP PUSH8 0xFFFFFFFFFFFFFFFF DUP3 GT ISZERO PUSH2 0xE33 JUMPI PUSH1 0x0 DUP1 REVERT JUMPDEST PUSH1 0x20 ADD SWAP2 POP CALLDATASIZE DUP2 SWAP1 SUB DUP3 SGT ISZERO PUSH2 0xE48 JUMPI PUSH1 0x0 DUP1 REVERT JUMPDEST SWAP3 POP SWAP3 SWAP1 POP JUMP JUMPDEST PUSH1 0x0 DUP1 DUP6 DUP6 GT ISZERO PUSH2 0xE5F JUMPI PUSH1 0x0 DUP1 REVERT JUMPDEST DUP4 DUP7 GT ISZERO PUSH2 0xE6C JUMPI PUSH1 0x0 DUP1 REVERT JUMPDEST POP POP DUP3 ADD SWAP4 SWAP2 SWAP1 SWAP3 SUB SWAP2 POP JUMP JUMPDEST PUSH12 0xFFFFFFFFFFFFFFFFFFFFFFFF NOT DUP2 CALLDATALOAD DUP2 DUP2 AND SWAP2 PUSH1 0x14 DUP6 LT ISZERO PUSH2 0xEA6 JUMPI DUP1 DUP2 DUP7 PUSH1 0x14 SUB PUSH1 0x3 SHL SHL DUP4 AND AND SWAP3 POP JUMPDEST POP POP SWAP3 SWAP2 POP POP JUMP INVALID LOG2 PUSH5 0x6970667358 0x22 SLT KECCAK256 0x2F CALLDATASIZE 0xAC 0xC 0x26 PUSH31 0x7C30D10565158A0FE32701F71B3494AA8007DFA9C5FBF7315C3564736F6C63 NUMBER STOP ADDMOD SLT STOP CALLER "
				},
				"gasEstimates": {
					"creation": {
						"codeDepositCost": "762400",
						"executionCost": "infinite",
						"totalCost": "infinite"
					},
					"external": {
						"COST_OF_POST()": "251",
						"addStake(uint32)": "infinite",
						"deposit()": "infinite",
						"duration()": "252",
						"entryPoint()": "infinite",
						"getDeposit()": "infinite",
						"isSubscribed(address)": "2712",
						"owner()": "2409",
						"postOp(uint8,bytes,uint256)": "infinite",
						"renounceOwnership()": "infinite",
						"subscribe()": "infinite",
						"subscriptionFee()": "230",
						"transferOwnership(address)": "infinite",
						"unlockStake()": "infinite",
						"validatePaymasterUserOp((address,uint256,bytes,bytes,uint256,uint256,uint256,uint256,uint256,bytes,bytes),bytes32,uint256)": "infinite",
						"withdraw()": "infinite",
						"withdrawStake(address)": "infinite",
						"withdrawTo(address,uint256)": "infinite"
					},
					"internal": {
						"_postOp(enum IPaymaster.PostOpMode,bytes calldata,uint256)": "infinite",
						"_validatePaymasterUserOp(struct UserOperation calldata,bytes32,uint256)": "infinite"
					}
				},
				"methodIdentifiers": {
					"COST_OF_POST()": "796d4371",
					"addStake(uint32)": "0396cb60",
					"deposit()": "d0e30db0",
					"duration()": "0fb5a6b4",
					"entryPoint()": "b0d691fe",
					"getDeposit()": "c399ec88",
					"isSubscribed(address)": "b92ae87c",
					"owner()": "8da5cb5b",
					"postOp(uint8,bytes,uint256)": "a9a23409",
					"renounceOwnership()": "715018a6",
					"subscribe()": "8f449a05",
					"subscriptionFee()": "0aa0a175",
					"transferOwnership(address)": "f2fde38b",
					"unlockStake()": "bb9fe6bf",
					"validatePaymasterUserOp((address,uint256,bytes,bytes,uint256,uint256,uint256,uint256,uint256,bytes,bytes),bytes32,uint256)": "f465c77e",
					"withdraw()": "3ccfd60b",
					"withdrawStake(address)": "c23a5cea",
					"withdrawTo(address,uint256)": "205c2878"
				}
			},
			"storageLayout": {
				"storage": [
					{
						"astId": 7,
						"contract": "src/Paymaster.sol:Paymaster",
						"label": "_owner",
						"offset": 0,
						"slot": "0",
						"type": "t_address"
					},
					{
						"astId": 1304,
						"contract": "src/Paymaster.sol:Paymaster",
						"label": "subscriptionToken",
						"offset": 0,
						"slot": "1",
						"type": "t_contract(ERC20)699"
					},
					{
						"astId": 1308,
						"contract": "src/Paymaster.sol:Paymaster",
						"label": "subscribers",
						"offset": 0,
						"slot": "2",
						"type": "t_mapping(t_address,t_uint256)"
					}
				],
				"types": {
					"t_address": {
						"encoding": "inplace",
						"label": "address",
						"numberOfBytes": "20"
					},
					"t_contract(ERC20)699": {
						"encoding": "inplace",
						"label": "contract ERC20",
						"numberOfBytes": "20"
					},
					"t_mapping(t_address,t_uint256)": {
						"encoding": "mapping",
						"key": "t_address",
						"label": "mapping(address => uint256)",
						"numberOfBytes": "32",
						"value": "t_uint256"
					},
					"t_uint256": {
						"encoding": "inplace",
						"label": "uint256",
						"numberOfBytes": "32"
					}
				}
			},
			"userdoc": {
				"kind": "user",
				"methods": {
					"addStake(uint32)": {
						"notice": "add stake for this paymaster. This method can also carry eth value to add to the current stake."
					},
					"deposit()": {
						"notice": "add a deposit for this paymaster, used for paying for transaction fees"
					},
					"getDeposit()": {
						"notice": "return current paymaster's deposit on the entryPoint."
					},
					"postOp(uint8,bytes,uint256)": {
						"notice": "post-operation handler. Must verify sender is the entryPoint"
					},
					"unlockStake()": {
						"notice": "unlock the stake, in order to withdraw it. The paymaster can't serve requests once unlocked, until it calls addStake again"
					},
					"validatePaymasterUserOp((address,uint256,bytes,bytes,uint256,uint256,uint256,uint256,uint256,bytes,bytes),bytes32,uint256)": {
						"notice": "payment validation: check if paymaster agree to pay. Must verify sender is the entryPoint. Revert to reject this request. Note that bundlers will reject this method if it changes the state, unless the paymaster is trusted (whitelisted) The paymaster pre-pays using its deposit, and receive back a refund after the postOp method returns."
					},
					"withdrawStake(address)": {
						"notice": "withdraw the entire paymaster's stake. stake must be unlocked first (and then wait for the unstakeDelay to be over)"
					},
					"withdrawTo(address,uint256)": {
						"notice": "withdraw value from the deposit"
					}
				},
				"version": 1
			}
		}
	}
}