{
	"src/ERC20Initializable.sol": {
		"ERC20Initializable": {
			"abi": [
				{
					"anonymous": false,
					"inputs": [
						{
							"indexed": true,
							"internalType": "address",
							"name": "owner",
							"type": "address"
						},
						{
							"indexed": true,
							"internalType": "address",
							"name": "spender",
							"type": "address"
						},
						{
							"indexed": false,
							"internalType": "uint256",
							"name": "value",
							"type": "uint256"
						}
					],
					"name": "Approval",
					"type": "event"
				},
				{
					"anonymous": false,
					"inputs": [
						{
							"indexed": false,
							"internalType": "uint8",
							"name": "version",
							"type": "uint8"
						}
					],
					"name": "Initialized",
					"type": "event"
				},
				{
					"anonymous": false,
					"inputs": [
						{
							"indexed": true,
							"internalType": "address",
							"name": "from",
							"type": "address"
						},
						{
							"indexed": true,
							"internalType": "address",
							"name": "to",
							"type": "address"
						},
						{
							"indexed": false,
							"internalType": "uint256",
							"name": "value",
							"type": "uint256"
						}
					],
					"name": "Transfer",
					"type": "event"
				},
				{
					"inputs": [
						{
							"internalType": "address",
							"name": "owner",
							"type": "address"
						},
						{
							"internalType": "address",
							"name": "spender",
							"type": "address"
						}
					],
					"name": "allowance",
					"outputs": [
						{
							"internalType": "uint256",
							"name": "",
							"type": "uint256"
						}
					],
					"stateMutability": "view",
					"type": "function"
				},
				{
					"inputs": [
						{
							"internalType": "address",
							"name": "spender",
							"type": "address"
						},
						{
							"internalType": "uint256",
							"name": "amount",
							"type": "uint256"
						}
					],
					"name": "approve",
					"outputs": [
						{
							"internalType": "bool",
							"name": "",
							"type": "bool"
						}
					],
					"stateMutability": "nonpayable",
					"type": "function"
				},
				{
					"inputs": [
						{
							"internalType": "address",
							"name": "account",
							"type": "address"
						}
					],
					"name": "balanceOf",
					"outputs": [
						{
							"internalType": "uint256",
							"name": "",
							"type": "uint256"
						}
					],
					"stateMutability": "view",
					"type": "function"
				},
				{
					"inputs": [],
					"name": "decimals",
					"outputs": [
						{
							"internalType": "uint8",
							"name": "",
							"type": "uint8"
						}
					],
					"stateMutability": "view",
					"type": "function"
				},
				{
					"inputs": [
						{
							"internalType": "address",
							"name": "spender",
							"type": "address"
						},
						{
							"internalType": "uint256",
							"name": "subtractedValue",
							"type": "uint256"
						}
					],
					"name": "decreaseAllowance",
					"outputs": [
						{
							"internalType": "bool",
							"name": "",
							"type": "bool"
						}
					],
					"stateMutability": "nonpayable",
					"type": "function"
				},
				{
					"inputs": [
						{
							"internalType": "address",
							"name": "spender",
							"type": "address"
						},
						{
							"internalType": "uint256",
							"name": "addedValue",
							"type": "uint256"
						}
					],
					"name": "increaseAllowance",
					"outputs": [
						{
							"internalType": "bool",
							"name": "",
							"type": "bool"
						}
					],
					"stateMutability": "nonpayable",
					"type": "function"
				},
				{
					"inputs": [
						{
							"internalType": "address",
							"name": "creator",
							"type": "address"
						},
						{
							"internalType": "string",
							"name": "name_",
							"type": "string"
						},
						{
							"internalType": "string",
							"name": "symbol_",
							"type": "string"
						}
					],
					"name": "initialize",
					"outputs": [],
					"stateMutability": "nonpayable",
					"type": "function"
				},
				{
					"inputs": [],
					"name": "name",
					"outputs": [
						{
							"internalType": "string",
							"name": "",
							"type": "string"
						}
					],
					"stateMutability": "view",
					"type": "function"
				},
				{
					"inputs": [],
					"name": "symbol",
					"outputs": [
						{
							"internalType": "string",
							"name": "",
							"type": "string"
						}
					],
					"stateMutability": "view",
					"type": "function"
				},
				{
					"inputs": [],
					"name": "totalSupply",
					"outputs": [
						{
							"internalType": "uint256",
							"name": "",
							"type": "uint256"
						}
					],
					"stateMutability": "view",
					"type": "function"
				},
				{
					"inputs": [
						{
							"internalType": "address",
							"name": "to",
							"type": "address"
						},
						{
							"internalType": "uint256",
							"name": "amount",
							"type": "uint256"
						}
					],
					"name": "transfer",
					"outputs": [
						{
							"internalType": "bool",
							"name": "",
							"type": "bool"
						}
					],
					"stateMutability": "nonpayable",
					"type": "function"
				},
				{
					"inputs": [
						{
							"internalType": "address",
							"name": "from",
							"type": "address"
						},
						{
							"internalType": "address",
							"name": "to",
							"type": "address"
						},
						{
							"internalType": "uint256",
							"name": "amount",
							"type": "uint256"
						}
					],
					"name": "transferFrom",
					"outputs": [
						{
							"internalType": "bool",
							"name": "",
							"type": "bool"
						}
					],
					"stateMutability": "nonpayable",
					"type": "function"
				}
			],
			"devdoc": {
				"details": "Implementation of the {IERC20} interface. This implementation is agnostic to the way tokens are created. This means that a supply mechanism has to be added in a derived contract using {_mint}. TIP: For a detailed writeup see our guide https://forum.openzeppelin.com/t/how-to-implement-erc20-supply-mechanisms/226[How to implement supply mechanisms]. The default value of {decimals} is 18. To change this, you should override this function so it returns a different value. We have followed general OpenZeppelin Contracts guidelines: functions revert instead returning `false` on failure. This behavior is nonetheless conventional and does not conflict with the expectations of ERC20 applications. Additionally, an {Approval} event is emitted on calls to {transferFrom}. This allows applications to reconstruct the allowance for all accounts just by listening to said events. Other implementations of the EIP may not emit these events, as it isn't required by the specification. Finally, the non-standard {decreaseAllowance} and {increaseAllowance} functions have been added to mitigate the well-known issues around setting allowances. See {IERC20-approve}.",
				"events": {
					"Approval(address,address,uint256)": {
						"details": "Emitted when the allowance of a `spender` for an `owner` is set by a call to {approve}. `value` is the new allowance."
					},
					"Initialized(uint8)": {
						"details": "Triggered when the contract has been initialized or reinitialized."
					},
					"Transfer(address,address,uint256)": {
						"details": "Emitted when `value` tokens are moved from one account (`from`) to another (`to`). Note that `value` may be zero."
					}
				},
				"kind": "dev",
				"methods": {
					"allowance(address,address)": {
						"details": "See {IERC20-allowance}."
					},
					"approve(address,uint256)": {
						"details": "See {IERC20-approve}. NOTE: If `amount` is the maximum `uint256`, the allowance is not updated on `transferFrom`. This is semantically equivalent to an infinite approval. Requirements: - `spender` cannot be the zero address."
					},
					"balanceOf(address)": {
						"details": "See {IERC20-balanceOf}."
					},
					"decimals()": {
						"details": "Returns the number of decimals used to get its user representation. For example, if `decimals` equals `2`, a balance of `505` tokens should be displayed to a user as `5.05` (`505 / 10 ** 2`). Tokens usually opt for a value of 18, imitating the relationship between Ether and Wei. This is the default value returned by this function, unless it's overridden. NOTE: This information is only used for _display_ purposes: it in no way affects any of the arithmetic of the contract, including {IERC20-balanceOf} and {IERC20-transfer}."
					},
					"decreaseAllowance(address,uint256)": {
						"details": "Atomically decreases the allowance granted to `spender` by the caller. This is an alternative to {approve} that can be used as a mitigation for problems described in {IERC20-approve}. Emits an {Approval} event indicating the updated allowance. Requirements: - `spender` cannot be the zero address. - `spender` must have allowance for the caller of at least `subtractedValue`."
					},
					"increaseAllowance(address,uint256)": {
						"details": "Atomically increases the allowance granted to `spender` by the caller. This is an alternative to {approve} that can be used as a mitigation for problems described in {IERC20-approve}. Emits an {Approval} event indicating the updated allowance. Requirements: - `spender` cannot be the zero address."
					},
					"initialize(address,string,string)": {
						"details": "Sets the values for {name} and {symbol}. All two of these values are immutable: they can only be set once during construction."
					},
					"name()": {
						"details": "Returns the name of the token."
					},
					"symbol()": {
						"details": "Returns the symbol of the token, usually a shorter version of the name."
					},
					"totalSupply()": {
						"details": "See {IERC20-totalSupply}."
					},
					"transfer(address,uint256)": {
						"details": "See {IERC20-transfer}. Requirements: - `to` cannot be the zero address. - the caller must have a balance of at least `amount`."
					},
					"transferFrom(address,address,uint256)": {
						"details": "See {IERC20-transferFrom}. Emits an {Approval} event indicating the updated allowance. This is not required by the EIP. See the note at the beginning of {ERC20}. NOTE: Does not update the allowance if the current allowance is the maximum `uint256`. Requirements: - `from` and `to` cannot be the zero address. - `from` must have a balance of at least `amount`. - the caller must have allowance for ``from``'s tokens of at least `amount`."
					}
				},
				"version": 1
			},
			"evm": {
				"assembly": "    /* \"src/ERC20Initializable.sol\":1625:11941  contract ERC20Initializable is Context, IERC20, IERC20Metadata, Initializable {... */\n  mstore(0x40, 0x80)\n  callvalue\n  dup1\n  iszero\n  tag_1\n  jumpi\n  0x00\n  dup1\n  revert\ntag_1:\n  pop\n  dataSize(sub_0)\n  dup1\n  dataOffset(sub_0)\n  0x00\n  codecopy\n  0x00\n  return\nstop\n\nsub_0: assembly {\n        /* \"src/ERC20Initializable.sol\":1625:11941  contract ERC20Initializable is Context, IERC20, IERC20Metadata, Initializable {... */\n      mstore(0x40, 0x80)\n      callvalue\n      dup1\n      iszero\n      tag_1\n      jumpi\n      0x00\n      dup1\n      revert\n    tag_1:\n      pop\n      jumpi(tag_2, lt(calldatasize, 0x04))\n      shr(0xe0, calldataload(0x00))\n      dup1\n      0x70a08231\n      gt\n      tag_15\n      jumpi\n      dup1\n      0x70a08231\n      eq\n      tag_9\n      jumpi\n      dup1\n      0x90657147\n      eq\n      tag_10\n      jumpi\n      dup1\n      0x95d89b41\n      eq\n      tag_11\n      jumpi\n      dup1\n      0xa457c2d7\n      eq\n      tag_12\n      jumpi\n      dup1\n      0xa9059cbb\n      eq\n      tag_13\n      jumpi\n      dup1\n      0xdd62ed3e\n      eq\n      tag_14\n      jumpi\n      0x00\n      dup1\n      revert\n    tag_15:\n      dup1\n      0x06fdde03\n      eq\n      tag_3\n      jumpi\n      dup1\n      0x095ea7b3\n      eq\n      tag_4\n      jumpi\n      dup1\n      0x18160ddd\n      eq\n      tag_5\n      jumpi\n      dup1\n      0x23b872dd\n      eq\n      tag_6\n      jumpi\n      dup1\n      0x313ce567\n      eq\n      tag_7\n      jumpi\n      dup1\n      0x39509351\n      eq\n      tag_8\n      jumpi\n    tag_2:\n      0x00\n      dup1\n      revert\n        /* \"src/ERC20Initializable.sol\":2377:2466  function name() public view virtual returns (string memory) {... */\n    tag_3:\n      tag_16\n      tag_17\n      jump\t// in\n    tag_16:\n      mload(0x40)\n      tag_18\n      swap2\n      swap1\n      tag_19\n      jump\t// in\n    tag_18:\n      mload(0x40)\n      dup1\n      swap2\n      sub\n      swap1\n      return\n        /* \"src/ERC20Initializable.sol\":4664:4880  function approve(address spender, uint256 amount)... */\n    tag_4:\n      tag_20\n      tag_21\n      calldatasize\n      0x04\n      tag_22\n      jump\t// in\n    tag_21:\n      tag_23\n      jump\t// in\n    tag_20:\n      mload(0x40)\n        /* \"#utility.yul\":1169:1183   */\n      swap1\n      iszero\n        /* \"#utility.yul\":1162:1184   */\n      iszero\n        /* \"#utility.yul\":1144:1185   */\n      dup2\n      mstore\n        /* \"#utility.yul\":1132:1134   */\n      0x20\n        /* \"#utility.yul\":1117:1135   */\n      add\n        /* \"src/ERC20Initializable.sol\":4664:4880  function approve(address spender, uint256 amount)... */\n      tag_18\n        /* \"#utility.yul\":1004:1191   */\n      jump\n        /* \"src/ERC20Initializable.sol\":3447:3544  function totalSupply() public view virtual returns (uint256) {... */\n    tag_5:\n        /* \"src/ERC20Initializable.sol\":3525:3537  _totalSupply */\n      sload(0x03)\n        /* \"src/ERC20Initializable.sol\":3447:3544  function totalSupply() public view virtual returns (uint256) {... */\n    tag_26:\n      mload(0x40)\n        /* \"#utility.yul\":1342:1367   */\n      swap1\n      dup2\n      mstore\n        /* \"#utility.yul\":1330:1332   */\n      0x20\n        /* \"#utility.yul\":1315:1333   */\n      add\n        /* \"src/ERC20Initializable.sol\":3447:3544  function totalSupply() public view virtual returns (uint256) {... */\n      tag_18\n        /* \"#utility.yul\":1196:1373   */\n      jump\n        /* \"src/ERC20Initializable.sol\":5442:5719  function transferFrom(... */\n    tag_6:\n      tag_20\n      tag_31\n      calldatasize\n      0x04\n      tag_32\n      jump\t// in\n    tag_31:\n      tag_33\n      jump\t// in\n        /* \"src/ERC20Initializable.sol\":3305:3387  function decimals() public view virtual returns (uint8) {... */\n    tag_7:\n      mload(0x40)\n        /* \"src/ERC20Initializable.sol\":3378:3380  18 */\n      0x12\n        /* \"#utility.yul\":1853:1889   */\n      dup2\n      mstore\n        /* \"#utility.yul\":1841:1843   */\n      0x20\n        /* \"#utility.yul\":1826:1844   */\n      add\n        /* \"src/ERC20Initializable.sol\":3305:3387  function decimals() public view virtual returns (uint8) {... */\n      tag_18\n        /* \"#utility.yul\":1711:1895   */\n      jump\n        /* \"src/ERC20Initializable.sol\":6114:6376  function increaseAllowance(address spender, uint256 addedValue)... */\n    tag_8:\n      tag_20\n      tag_40\n      calldatasize\n      0x04\n      tag_22\n      jump\t// in\n    tag_40:\n      tag_41\n      jump\t// in\n        /* \"src/ERC20Initializable.sol\":3602:3718  function balanceOf(address account) public view virtual returns (uint256) {... */\n    tag_9:\n      tag_26\n      tag_44\n      calldatasize\n      0x04\n      tag_45\n      jump\t// in\n    tag_44:\n      sub(shl(0xa0, 0x01), 0x01)\n        /* \"src/ERC20Initializable.sol\":3693:3711  _balances[account] */\n      and\n        /* \"src/ERC20Initializable.sol\":3667:3674  uint256 */\n      0x00\n        /* \"src/ERC20Initializable.sol\":3693:3711  _balances[account] */\n      swap1\n      dup2\n      mstore\n        /* \"src/ERC20Initializable.sol\":3693:3702  _balances */\n      0x01\n        /* \"src/ERC20Initializable.sol\":3693:3711  _balances[account] */\n      0x20\n      mstore\n      0x40\n      swap1\n      keccak256\n      sload\n      swap1\n        /* \"src/ERC20Initializable.sol\":3602:3718  function balanceOf(address account) public view virtual returns (uint256) {... */\n      jump\n        /* \"src/ERC20Initializable.sol\":2101:2312  function initialize(address creator, string memory name_, string memory symbol_)... */\n    tag_10:\n      tag_48\n      tag_49\n      calldatasize\n      0x04\n      tag_50\n      jump\t// in\n    tag_49:\n      tag_51\n      jump\t// in\n    tag_48:\n      stop\n        /* \"src/ERC20Initializable.sol\":2579:2672  function symbol() public view virtual returns (string memory) {... */\n    tag_11:\n      tag_16\n      tag_53\n      jump\t// in\n        /* \"src/ERC20Initializable.sol\":6863:7352  function decreaseAllowance(address spender, uint256 subtractedValue)... */\n    tag_12:\n      tag_20\n      tag_56\n      calldatasize\n      0x04\n      tag_22\n      jump\t// in\n    tag_56:\n      tag_57\n      jump\t// in\n        /* \"src/ERC20Initializable.sol\":3914:4122  function transfer(address to, uint256 amount)... */\n    tag_13:\n      tag_20\n      tag_60\n      calldatasize\n      0x04\n      tag_22\n      jump\t// in\n    tag_60:\n      tag_61\n      jump\t// in\n        /* \"src/ERC20Initializable.sol\":4180:4356  function allowance(address owner, address spender)... */\n    tag_14:\n      tag_26\n      tag_64\n      calldatasize\n      0x04\n      tag_65\n      jump\t// in\n    tag_64:\n      tag_66\n      jump\t// in\n        /* \"src/ERC20Initializable.sol\":2377:2466  function name() public view virtual returns (string memory) {... */\n    tag_17:\n        /* \"src/ERC20Initializable.sol\":2422:2435  string memory */\n      0x60\n        /* \"src/ERC20Initializable.sol\":2454:2459  _name */\n      0x04\n        /* \"src/ERC20Initializable.sol\":2447:2459  return _name */\n      dup1\n      sload\n      tag_69\n      swap1\n      tag_70\n      jump\t// in\n    tag_69:\n      dup1\n      0x1f\n      add\n      0x20\n      dup1\n      swap2\n      div\n      mul\n      0x20\n      add\n      mload(0x40)\n      swap1\n      dup2\n      add\n      0x40\n      mstore\n      dup1\n      swap3\n      swap2\n      swap1\n      dup2\n      dup2\n      mstore\n      0x20\n      add\n      dup3\n      dup1\n      sload\n      tag_71\n      swap1\n      tag_70\n      jump\t// in\n    tag_71:\n      dup1\n      iszero\n      tag_72\n      jumpi\n      dup1\n      0x1f\n      lt\n      tag_73\n      jumpi\n      0x0100\n      dup1\n      dup4\n      sload\n      div\n      mul\n      dup4\n      mstore\n      swap2\n      0x20\n      add\n      swap2\n      jump(tag_72)\n    tag_73:\n      dup3\n      add\n      swap2\n      swap1\n      0x00\n      mstore\n      keccak256(0x00, 0x20)\n      swap1\n    tag_74:\n      dup2\n      sload\n      dup2\n      mstore\n      swap1\n      0x01\n      add\n      swap1\n      0x20\n      add\n      dup1\n      dup4\n      gt\n      tag_74\n      jumpi\n      dup3\n      swap1\n      sub\n      0x1f\n      and\n      dup3\n      add\n      swap2\n    tag_72:\n      pop\n      pop\n      pop\n      pop\n      pop\n      swap1\n      pop\n        /* \"src/ERC20Initializable.sol\":2377:2466  function name() public view virtual returns (string memory) {... */\n      swap1\n      jump\t// out\n        /* \"src/ERC20Initializable.sol\":4664:4880  function approve(address spender, uint256 amount)... */\n    tag_23:\n        /* \"src/ERC20Initializable.sol\":4762:4766  bool */\n      0x00\n        /* \"@openzeppelin/contracts/utils/Context.sol\":719:729  msg.sender */\n      caller\n        /* \"src/ERC20Initializable.sol\":4820:4852  _approve(owner, spender, amount) */\n      tag_78\n        /* \"@openzeppelin/contracts/utils/Context.sol\":719:729  msg.sender */\n      dup2\n        /* \"src/ERC20Initializable.sol\":4836:4843  spender */\n      dup6\n        /* \"src/ERC20Initializable.sol\":4845:4851  amount */\n      dup6\n        /* \"src/ERC20Initializable.sol\":4820:4828  _approve */\n      tag_79\n        /* \"src/ERC20Initializable.sol\":4820:4852  _approve(owner, spender, amount) */\n      jump\t// in\n    tag_78:\n        /* \"src/ERC20Initializable.sol\":4869:4873  true */\n      0x01\n        /* \"src/ERC20Initializable.sol\":4862:4873  return true */\n      swap2\n      pop\n      pop\n        /* \"src/ERC20Initializable.sol\":4664:4880  function approve(address spender, uint256 amount)... */\n    tag_75:\n      swap3\n      swap2\n      pop\n      pop\n      jump\t// out\n        /* \"src/ERC20Initializable.sol\":5442:5719  function transferFrom(... */\n    tag_33:\n        /* \"src/ERC20Initializable.sol\":5560:5564  bool */\n      0x00\n        /* \"@openzeppelin/contracts/utils/Context.sol\":719:729  msg.sender */\n      caller\n        /* \"src/ERC20Initializable.sol\":5616:5654  _spendAllowance(from, spender, amount) */\n      tag_83\n        /* \"src/ERC20Initializable.sol\":5632:5636  from */\n      dup6\n        /* \"@openzeppelin/contracts/utils/Context.sol\":719:729  msg.sender */\n      dup3\n        /* \"src/ERC20Initializable.sol\":5647:5653  amount */\n      dup6\n        /* \"src/ERC20Initializable.sol\":5616:5631  _spendAllowance */\n      tag_84\n        /* \"src/ERC20Initializable.sol\":5616:5654  _spendAllowance(from, spender, amount) */\n      jump\t// in\n    tag_83:\n        /* \"src/ERC20Initializable.sol\":5664:5691  _transfer(from, to, amount) */\n      tag_85\n        /* \"src/ERC20Initializable.sol\":5674:5678  from */\n      dup6\n        /* \"src/ERC20Initializable.sol\":5680:5682  to */\n      dup6\n        /* \"src/ERC20Initializable.sol\":5684:5690  amount */\n      dup6\n        /* \"src/ERC20Initializable.sol\":5664:5673  _transfer */\n      tag_86\n        /* \"src/ERC20Initializable.sol\":5664:5691  _transfer(from, to, amount) */\n      jump\t// in\n    tag_85:\n      pop\n        /* \"src/ERC20Initializable.sol\":5708:5712  true */\n      0x01\n      swap5\n        /* \"src/ERC20Initializable.sol\":5442:5719  function transferFrom(... */\n      swap4\n      pop\n      pop\n      pop\n      pop\n      jump\t// out\n        /* \"src/ERC20Initializable.sol\":6114:6376  function increaseAllowance(address spender, uint256 addedValue)... */\n    tag_41:\n        /* \"src/ERC20Initializable.sol\":6226:6230  bool */\n      0x00\n        /* \"@openzeppelin/contracts/utils/Context.sol\":719:729  msg.sender */\n      caller\n        /* \"src/ERC20Initializable.sol\":6284:6348  _approve(owner, spender, allowance(owner, spender) + addedValue) */\n      tag_78\n        /* \"@openzeppelin/contracts/utils/Context.sol\":719:729  msg.sender */\n      dup2\n        /* \"src/ERC20Initializable.sol\":6300:6307  spender */\n      dup6\n        /* \"src/ERC20Initializable.sol\":6337:6347  addedValue */\n      dup6\n        /* \"src/ERC20Initializable.sol\":6309:6334  allowance(owner, spender) */\n      tag_91\n        /* \"@openzeppelin/contracts/utils/Context.sol\":719:729  msg.sender */\n      dup4\n        /* \"src/ERC20Initializable.sol\":6300:6307  spender */\n      dup4\n        /* \"src/ERC20Initializable.sol\":6309:6318  allowance */\n      tag_66\n        /* \"src/ERC20Initializable.sol\":6309:6334  allowance(owner, spender) */\n      jump\t// in\n    tag_91:\n        /* \"src/ERC20Initializable.sol\":6309:6347  allowance(owner, spender) + addedValue */\n      tag_92\n      swap2\n      swap1\n      tag_93\n      jump\t// in\n    tag_92:\n        /* \"src/ERC20Initializable.sol\":6284:6292  _approve */\n      tag_79\n        /* \"src/ERC20Initializable.sol\":6284:6348  _approve(owner, spender, allowance(owner, spender) + addedValue) */\n      jump\t// in\n        /* \"src/ERC20Initializable.sol\":2101:2312  function initialize(address creator, string memory name_, string memory symbol_)... */\n    tag_51:\n        /* \"@openzeppelin/contracts/proxy/utils/Initializable.sol\":3268:3287  bool isTopLevelCall */\n      0x00\n        /* \"@openzeppelin/contracts/proxy/utils/Initializable.sol\":3291:3304  _initializing */\n      sload\n      0x0100\n      swap1\n      div\n      0xff\n      and\n        /* \"@openzeppelin/contracts/proxy/utils/Initializable.sol\":3290:3304  !_initializing */\n      iszero\n      dup1\n        /* \"@openzeppelin/contracts/proxy/utils/Initializable.sol\":3336:3370  isTopLevelCall && _initialized < 1 */\n      dup1\n      iszero\n      tag_96\n      jumpi\n      pop\n        /* \"@openzeppelin/contracts/proxy/utils/Initializable.sol\":3354:3366  _initialized */\n      sload(0x00)\n        /* \"@openzeppelin/contracts/proxy/utils/Initializable.sol\":3369:3370  1 */\n      0x01\n        /* \"@openzeppelin/contracts/proxy/utils/Initializable.sol\":3354:3366  _initialized */\n      0xff\n      swap1\n      swap2\n      and\n        /* \"@openzeppelin/contracts/proxy/utils/Initializable.sol\":3354:3370  _initialized < 1 */\n      lt\n        /* \"@openzeppelin/contracts/proxy/utils/Initializable.sol\":3336:3370  isTopLevelCall && _initialized < 1 */\n    tag_96:\n        /* \"@openzeppelin/contracts/proxy/utils/Initializable.sol\":3335:3432  (isTopLevelCall && _initialized < 1) || (!Address.isContract(address(this)) && _initialized == 1) */\n      dup1\n      tag_100\n      jumpi\n      pop\n        /* \"@openzeppelin/contracts/proxy/utils/Initializable.sol\":3404:3408  this */\n      address\n        /* \"@openzeppelin/contracts/utils/Address.sol\":1702:1721  account.code.length */\n      extcodesize\n        /* \"@openzeppelin/contracts/utils/Address.sol\":1702:1725  account.code.length > 0 */\n      iszero\n      dup1\n      iszero\n        /* \"@openzeppelin/contracts/proxy/utils/Initializable.sol\":3376:3431  !Address.isContract(address(this)) && _initialized == 1 */\n      tag_100\n      jumpi\n      pop\n        /* \"@openzeppelin/contracts/proxy/utils/Initializable.sol\":3414:3426  _initialized */\n      and(0xff, sload(0x00))\n      0x01\n        /* \"@openzeppelin/contracts/proxy/utils/Initializable.sol\":3414:3431  _initialized == 1 */\n      eq\n        /* \"@openzeppelin/contracts/proxy/utils/Initializable.sol\":3376:3431  !Address.isContract(address(this)) && _initialized == 1 */\n    tag_100:\n        /* \"@openzeppelin/contracts/proxy/utils/Initializable.sol\":3314:3504  require(... */\n      tag_101\n      jumpi\n      mload(0x40)\n      shl(0xe5, 0x461bcd)\n      dup2\n      mstore\n        /* \"#utility.yul\":4648:4650   */\n      0x20\n        /* \"@openzeppelin/contracts/proxy/utils/Initializable.sol\":3314:3504  require(... */\n      0x04\n      dup3\n      add\n        /* \"#utility.yul\":4630:4651   */\n      mstore\n        /* \"#utility.yul\":4687:4689   */\n      0x2e\n        /* \"#utility.yul\":4667:4685   */\n      0x24\n      dup3\n      add\n        /* \"#utility.yul\":4660:4690   */\n      mstore\n        /* \"#utility.yul\":4726:4760   */\n      0x496e697469616c697a61626c653a20636f6e747261637420697320616c726561\n        /* \"#utility.yul\":4706:4724   */\n      0x44\n      dup3\n      add\n        /* \"#utility.yul\":4699:4761   */\n      mstore\n      shl(0x92, 0x191e481a5b9a5d1a585b1a5e9959)\n        /* \"#utility.yul\":4777:4795   */\n      0x64\n      dup3\n      add\n        /* \"#utility.yul\":4770:4814   */\n      mstore\n        /* \"#utility.yul\":4831:4850   */\n      0x84\n      add\n        /* \"@openzeppelin/contracts/proxy/utils/Initializable.sol\":3314:3504  require(... */\n    tag_102:\n      mload(0x40)\n      dup1\n      swap2\n      sub\n      swap1\n      revert\n    tag_101:\n        /* \"@openzeppelin/contracts/proxy/utils/Initializable.sol\":3514:3526  _initialized */\n      0x00\n        /* \"@openzeppelin/contracts/proxy/utils/Initializable.sol\":3514:3530  _initialized = 1 */\n      dup1\n      sload\n      not(0xff)\n      and\n        /* \"@openzeppelin/contracts/proxy/utils/Initializable.sol\":3529:3530  1 */\n      0x01\n        /* \"@openzeppelin/contracts/proxy/utils/Initializable.sol\":3514:3530  _initialized = 1 */\n      or\n      swap1\n      sstore\n        /* \"@openzeppelin/contracts/proxy/utils/Initializable.sol\":3540:3605  if (isTopLevelCall) {... */\n      dup1\n      iszero\n      tag_104\n      jumpi\n        /* \"@openzeppelin/contracts/proxy/utils/Initializable.sol\":3574:3587  _initializing */\n      0x00\n        /* \"@openzeppelin/contracts/proxy/utils/Initializable.sol\":3574:3594  _initializing = true */\n      dup1\n      sload\n      not(0xff00)\n      and\n      0x0100\n      or\n      swap1\n      sstore\n        /* \"@openzeppelin/contracts/proxy/utils/Initializable.sol\":3540:3605  if (isTopLevelCall) {... */\n    tag_104:\n        /* \"src/ERC20Initializable.sol\":2233:2255  _mint(creator, 10**27) */\n      tag_106\n        /* \"src/ERC20Initializable.sol\":2239:2246  creator */\n      dup5\n        /* \"src/ERC20Initializable.sol\":2248:2254  10**27 */\n      0x033b2e3c9fd0803ce8000000\n        /* \"src/ERC20Initializable.sol\":2233:2238  _mint */\n      tag_107\n        /* \"src/ERC20Initializable.sol\":2233:2255  _mint(creator, 10**27) */\n      jump\t// in\n    tag_106:\n        /* \"src/ERC20Initializable.sol\":2265:2270  _name */\n      0x04\n        /* \"src/ERC20Initializable.sol\":2265:2278  _name = name_ */\n      tag_108\n        /* \"src/ERC20Initializable.sol\":2273:2278  name_ */\n      dup5\n        /* \"src/ERC20Initializable.sol\":2265:2270  _name */\n      dup3\n        /* \"src/ERC20Initializable.sol\":2265:2278  _name = name_ */\n      tag_109\n      jump\t// in\n    tag_108:\n      pop\n        /* \"src/ERC20Initializable.sol\":2288:2295  _symbol */\n      0x05\n        /* \"src/ERC20Initializable.sol\":2288:2305  _symbol = symbol_ */\n      tag_110\n        /* \"src/ERC20Initializable.sol\":2298:2305  symbol_ */\n      dup4\n        /* \"src/ERC20Initializable.sol\":2288:2295  _symbol */\n      dup3\n        /* \"src/ERC20Initializable.sol\":2288:2305  _symbol = symbol_ */\n      tag_109\n      jump\t// in\n    tag_110:\n      pop\n        /* \"@openzeppelin/contracts/proxy/utils/Initializable.sol\":3629:3643  isTopLevelCall */\n      dup1\n        /* \"@openzeppelin/contracts/proxy/utils/Initializable.sol\":3625:3724  if (isTopLevelCall) {... */\n      iszero\n      tag_111\n      jumpi\n        /* \"@openzeppelin/contracts/proxy/utils/Initializable.sol\":3675:3680  false */\n      0x00\n        /* \"@openzeppelin/contracts/proxy/utils/Initializable.sol\":3659:3680  _initializing = false */\n      dup1\n      sload\n      not(0xff00)\n      and\n      swap1\n      sstore\n        /* \"@openzeppelin/contracts/proxy/utils/Initializable.sol\":3699:3713  Initialized(1) */\n      mload(0x40)\n      0x01\n        /* \"#utility.yul\":1853:1889   */\n      dup2\n      mstore\n        /* \"@openzeppelin/contracts/proxy/utils/Initializable.sol\":3699:3713  Initialized(1) */\n      0x7f26b83ff96e1f2b6a682f133852f6798a09c465da95921460cefb3847402498\n      swap1\n        /* \"#utility.yul\":1841:1843   */\n      0x20\n        /* \"#utility.yul\":1826:1844   */\n      add\n        /* \"@openzeppelin/contracts/proxy/utils/Initializable.sol\":3699:3713  Initialized(1) */\n      mload(0x40)\n      dup1\n      swap2\n      sub\n      swap1\n      log1\n        /* \"@openzeppelin/contracts/proxy/utils/Initializable.sol\":3625:3724  if (isTopLevelCall) {... */\n    tag_111:\n        /* \"@openzeppelin/contracts/proxy/utils/Initializable.sol\":3258:3730  {... */\n      pop\n        /* \"src/ERC20Initializable.sol\":2101:2312  function initialize(address creator, string memory name_, string memory symbol_)... */\n      pop\n      pop\n      pop\n      jump\t// out\n        /* \"src/ERC20Initializable.sol\":2579:2672  function symbol() public view virtual returns (string memory) {... */\n    tag_53:\n        /* \"src/ERC20Initializable.sol\":2626:2639  string memory */\n      0x60\n        /* \"src/ERC20Initializable.sol\":2658:2665  _symbol */\n      0x05\n        /* \"src/ERC20Initializable.sol\":2651:2665  return _symbol */\n      dup1\n      sload\n      tag_69\n      swap1\n      tag_70\n      jump\t// in\n        /* \"src/ERC20Initializable.sol\":6863:7352  function decreaseAllowance(address spender, uint256 subtractedValue)... */\n    tag_57:\n        /* \"src/ERC20Initializable.sol\":6980:6984  bool */\n      0x00\n        /* \"@openzeppelin/contracts/utils/Context.sol\":719:729  msg.sender */\n      caller\n        /* \"src/ERC20Initializable.sol\":6980:6984  bool */\n      dup2\n        /* \"src/ERC20Initializable.sol\":7065:7090  allowance(owner, spender) */\n      tag_122\n        /* \"@openzeppelin/contracts/utils/Context.sol\":719:729  msg.sender */\n      dup3\n        /* \"src/ERC20Initializable.sol\":7082:7089  spender */\n      dup7\n        /* \"src/ERC20Initializable.sol\":7065:7074  allowance */\n      tag_66\n        /* \"src/ERC20Initializable.sol\":7065:7090  allowance(owner, spender) */\n      jump\t// in\n    tag_122:\n        /* \"src/ERC20Initializable.sol\":7038:7090  uint256 currentAllowance = allowance(owner, spender) */\n      swap1\n      pop\n        /* \"src/ERC20Initializable.sol\":7141:7156  subtractedValue */\n      dup4\n        /* \"src/ERC20Initializable.sol\":7121:7137  currentAllowance */\n      dup2\n        /* \"src/ERC20Initializable.sol\":7121:7156  currentAllowance >= subtractedValue */\n      lt\n      iszero\n        /* \"src/ERC20Initializable.sol\":7100:7219  require(... */\n      tag_123\n      jumpi\n      mload(0x40)\n      shl(0xe5, 0x461bcd)\n      dup2\n      mstore\n        /* \"#utility.yul\":7466:7468   */\n      0x20\n        /* \"src/ERC20Initializable.sol\":7100:7219  require(... */\n      0x04\n      dup3\n      add\n        /* \"#utility.yul\":7448:7469   */\n      mstore\n        /* \"#utility.yul\":7505:7507   */\n      0x25\n        /* \"#utility.yul\":7485:7503   */\n      0x24\n      dup3\n      add\n        /* \"#utility.yul\":7478:7508   */\n      mstore\n        /* \"#utility.yul\":7544:7578   */\n      0x45524332303a2064656372656173656420616c6c6f77616e63652062656c6f77\n        /* \"#utility.yul\":7524:7542   */\n      0x44\n      dup3\n      add\n        /* \"#utility.yul\":7517:7579   */\n      mstore\n      shl(0xd8, 0x207a65726f)\n        /* \"#utility.yul\":7595:7613   */\n      0x64\n      dup3\n      add\n        /* \"#utility.yul\":7588:7623   */\n      mstore\n        /* \"#utility.yul\":7640:7659   */\n      0x84\n      add\n        /* \"src/ERC20Initializable.sol\":7100:7219  require(... */\n      tag_102\n        /* \"#utility.yul\":7264:7665   */\n      jump\n        /* \"src/ERC20Initializable.sol\":7100:7219  require(... */\n    tag_123:\n        /* \"src/ERC20Initializable.sol\":7253:7313  _approve(owner, spender, currentAllowance - subtractedValue) */\n      tag_85\n        /* \"src/ERC20Initializable.sol\":7262:7267  owner */\n      dup3\n        /* \"src/ERC20Initializable.sol\":7269:7276  spender */\n      dup7\n        /* \"src/ERC20Initializable.sol\":7297:7312  subtractedValue */\n      dup7\n        /* \"src/ERC20Initializable.sol\":7278:7294  currentAllowance */\n      dup5\n        /* \"src/ERC20Initializable.sol\":7278:7312  currentAllowance - subtractedValue */\n      sub\n        /* \"src/ERC20Initializable.sol\":7253:7261  _approve */\n      tag_79\n        /* \"src/ERC20Initializable.sol\":7253:7313  _approve(owner, spender, currentAllowance - subtractedValue) */\n      jump\t// in\n        /* \"src/ERC20Initializable.sol\":3914:4122  function transfer(address to, uint256 amount)... */\n    tag_61:\n        /* \"src/ERC20Initializable.sol\":4008:4012  bool */\n      0x00\n        /* \"@openzeppelin/contracts/utils/Context.sol\":719:729  msg.sender */\n      caller\n        /* \"src/ERC20Initializable.sol\":4066:4094  _transfer(owner, to, amount) */\n      tag_78\n        /* \"@openzeppelin/contracts/utils/Context.sol\":719:729  msg.sender */\n      dup2\n        /* \"src/ERC20Initializable.sol\":4083:4085  to */\n      dup6\n        /* \"src/ERC20Initializable.sol\":4087:4093  amount */\n      dup6\n        /* \"src/ERC20Initializable.sol\":4066:4075  _transfer */\n      tag_86\n        /* \"src/ERC20Initializable.sol\":4066:4094  _transfer(owner, to, amount) */\n      jump\t// in\n        /* \"src/ERC20Initializable.sol\":4180:4356  function allowance(address owner, address spender)... */\n    tag_66:\n      sub(shl(0xa0, 0x01), 0x01)\n        /* \"src/ERC20Initializable.sol\":4322:4340  _allowances[owner] */\n      swap2\n      dup3\n      and\n        /* \"src/ERC20Initializable.sol\":4292:4299  uint256 */\n      0x00\n        /* \"src/ERC20Initializable.sol\":4322:4340  _allowances[owner] */\n      swap1\n      dup2\n      mstore\n        /* \"src/ERC20Initializable.sol\":4322:4333  _allowances */\n      0x02\n        /* \"src/ERC20Initializable.sol\":4322:4340  _allowances[owner] */\n      0x20\n      swap1\n      dup2\n      mstore\n      0x40\n      dup1\n      dup4\n      keccak256\n        /* \"src/ERC20Initializable.sol\":4322:4349  _allowances[owner][spender] */\n      swap4\n      swap1\n      swap5\n      and\n      dup3\n      mstore\n      swap2\n      swap1\n      swap2\n      mstore\n      keccak256\n      sload\n      swap1\n        /* \"src/ERC20Initializable.sol\":4180:4356  function allowance(address owner, address spender)... */\n      jump\t// out\n        /* \"src/ERC20Initializable.sol\":10801:11171  function _approve(... */\n    tag_79:\n      sub(shl(0xa0, 0x01), 0x01)\n        /* \"src/ERC20Initializable.sol\":10932:10951  owner != address(0) */\n      dup4\n      and\n        /* \"src/ERC20Initializable.sol\":10924:10992  require(owner != address(0), \"ERC20: approve from the zero address\") */\n      tag_133\n      jumpi\n      mload(0x40)\n      shl(0xe5, 0x461bcd)\n      dup2\n      mstore\n        /* \"#utility.yul\":7872:7874   */\n      0x20\n        /* \"src/ERC20Initializable.sol\":10924:10992  require(owner != address(0), \"ERC20: approve from the zero address\") */\n      0x04\n      dup3\n      add\n        /* \"#utility.yul\":7854:7875   */\n      mstore\n        /* \"#utility.yul\":7911:7913   */\n      0x24\n        /* \"#utility.yul\":7891:7909   */\n      dup1\n      dup3\n      add\n        /* \"#utility.yul\":7884:7914   */\n      mstore\n        /* \"#utility.yul\":7950:7984   */\n      0x45524332303a20617070726f76652066726f6d20746865207a65726f20616464\n        /* \"#utility.yul\":7930:7948   */\n      0x44\n      dup3\n      add\n        /* \"#utility.yul\":7923:7985   */\n      mstore\n      shl(0xe0, 0x72657373)\n        /* \"#utility.yul\":8001:8019   */\n      0x64\n      dup3\n      add\n        /* \"#utility.yul\":7994:8028   */\n      mstore\n        /* \"#utility.yul\":8045:8064   */\n      0x84\n      add\n        /* \"src/ERC20Initializable.sol\":10924:10992  require(owner != address(0), \"ERC20: approve from the zero address\") */\n      tag_102\n        /* \"#utility.yul\":7670:8070   */\n      jump\n        /* \"src/ERC20Initializable.sol\":10924:10992  require(owner != address(0), \"ERC20: approve from the zero address\") */\n    tag_133:\n      sub(shl(0xa0, 0x01), 0x01)\n        /* \"src/ERC20Initializable.sol\":11010:11031  spender != address(0) */\n      dup3\n      and\n        /* \"src/ERC20Initializable.sol\":11002:11070  require(spender != address(0), \"ERC20: approve to the zero address\") */\n      tag_136\n      jumpi\n      mload(0x40)\n      shl(0xe5, 0x461bcd)\n      dup2\n      mstore\n        /* \"#utility.yul\":8277:8279   */\n      0x20\n        /* \"src/ERC20Initializable.sol\":11002:11070  require(spender != address(0), \"ERC20: approve to the zero address\") */\n      0x04\n      dup3\n      add\n        /* \"#utility.yul\":8259:8280   */\n      mstore\n        /* \"#utility.yul\":8316:8318   */\n      0x22\n        /* \"#utility.yul\":8296:8314   */\n      0x24\n      dup3\n      add\n        /* \"#utility.yul\":8289:8319   */\n      mstore\n        /* \"#utility.yul\":8355:8389   */\n      0x45524332303a20617070726f766520746f20746865207a65726f206164647265\n        /* \"#utility.yul\":8335:8353   */\n      0x44\n      dup3\n      add\n        /* \"#utility.yul\":8328:8390   */\n      mstore\n      shl(0xf0, 0x7373)\n        /* \"#utility.yul\":8406:8424   */\n      0x64\n      dup3\n      add\n        /* \"#utility.yul\":8399:8431   */\n      mstore\n        /* \"#utility.yul\":8448:8467   */\n      0x84\n      add\n        /* \"src/ERC20Initializable.sol\":11002:11070  require(spender != address(0), \"ERC20: approve to the zero address\") */\n      tag_102\n        /* \"#utility.yul\":8075:8473   */\n      jump\n        /* \"src/ERC20Initializable.sol\":11002:11070  require(spender != address(0), \"ERC20: approve to the zero address\") */\n    tag_136:\n      sub(shl(0xa0, 0x01), 0x01)\n        /* \"src/ERC20Initializable.sol\":11081:11099  _allowances[owner] */\n      dup4\n      dup2\n      and\n      0x00\n      dup2\n      dup2\n      mstore\n        /* \"src/ERC20Initializable.sol\":11081:11092  _allowances */\n      0x02\n        /* \"src/ERC20Initializable.sol\":11081:11099  _allowances[owner] */\n      0x20\n      swap1\n      dup2\n      mstore\n      0x40\n      dup1\n      dup4\n      keccak256\n        /* \"src/ERC20Initializable.sol\":11081:11108  _allowances[owner][spender] */\n      swap5\n      dup8\n      and\n      dup1\n      dup5\n      mstore\n      swap5\n      dup3\n      mstore\n      swap2\n      dup3\n      swap1\n      keccak256\n        /* \"src/ERC20Initializable.sol\":11081:11117  _allowances[owner][spender] = amount */\n      dup6\n      swap1\n      sstore\n        /* \"src/ERC20Initializable.sol\":11132:11164  Approval(owner, spender, amount) */\n      swap1\n      mload\n        /* \"#utility.yul\":1342:1367   */\n      dup5\n      dup2\n      mstore\n        /* \"src/ERC20Initializable.sol\":11132:11164  Approval(owner, spender, amount) */\n      0x8c5be1e5ebec7d5bd14f71427d1e84f3dd0314c0f7b2291e5b200ac8c7c3b925\n      swap2\n        /* \"#utility.yul\":1315:1333   */\n      add\n        /* \"src/ERC20Initializable.sol\":11132:11164  Approval(owner, spender, amount) */\n    tag_139:\n      mload(0x40)\n      dup1\n      swap2\n      sub\n      swap1\n      log3\n        /* \"src/ERC20Initializable.sol\":10801:11171  function _approve(... */\n      pop\n      pop\n      pop\n      jump\t// out\n        /* \"src/ERC20Initializable.sol\":11452:11939  function _spendAllowance(... */\n    tag_84:\n        /* \"src/ERC20Initializable.sol\":11582:11606  uint256 currentAllowance */\n      0x00\n        /* \"src/ERC20Initializable.sol\":11609:11634  allowance(owner, spender) */\n      tag_141\n        /* \"src/ERC20Initializable.sol\":11619:11624  owner */\n      dup5\n        /* \"src/ERC20Initializable.sol\":11626:11633  spender */\n      dup5\n        /* \"src/ERC20Initializable.sol\":11609:11618  allowance */\n      tag_66\n        /* \"src/ERC20Initializable.sol\":11609:11634  allowance(owner, spender) */\n      jump\t// in\n    tag_141:\n        /* \"src/ERC20Initializable.sol\":11582:11634  uint256 currentAllowance = allowance(owner, spender) */\n      swap1\n      pop\n      not(0x00)\n        /* \"src/ERC20Initializable.sol\":11648:11664  currentAllowance */\n      dup2\n        /* \"src/ERC20Initializable.sol\":11648:11685  currentAllowance != type(uint256).max */\n      eq\n        /* \"src/ERC20Initializable.sol\":11644:11933  if (currentAllowance != type(uint256).max) {... */\n      tag_111\n      jumpi\n        /* \"src/ERC20Initializable.sol\":11746:11752  amount */\n      dup2\n        /* \"src/ERC20Initializable.sol\":11726:11742  currentAllowance */\n      dup2\n        /* \"src/ERC20Initializable.sol\":11726:11752  currentAllowance >= amount */\n      lt\n      iszero\n        /* \"src/ERC20Initializable.sol\":11701:11815  require(... */\n      tag_143\n      jumpi\n      mload(0x40)\n      shl(0xe5, 0x461bcd)\n      dup2\n      mstore\n        /* \"#utility.yul\":8680:8682   */\n      0x20\n        /* \"src/ERC20Initializable.sol\":11701:11815  require(... */\n      0x04\n      dup3\n      add\n        /* \"#utility.yul\":8662:8683   */\n      mstore\n        /* \"#utility.yul\":8719:8721   */\n      0x1d\n        /* \"#utility.yul\":8699:8717   */\n      0x24\n      dup3\n      add\n        /* \"#utility.yul\":8692:8722   */\n      mstore\n        /* \"#utility.yul\":8758:8789   */\n      0x45524332303a20696e73756666696369656e7420616c6c6f77616e6365000000\n        /* \"#utility.yul\":8738:8756   */\n      0x44\n      dup3\n      add\n        /* \"#utility.yul\":8731:8790   */\n      mstore\n        /* \"#utility.yul\":8807:8825   */\n      0x64\n      add\n        /* \"src/ERC20Initializable.sol\":11701:11815  require(... */\n      tag_102\n        /* \"#utility.yul\":8478:8831   */\n      jump\n        /* \"src/ERC20Initializable.sol\":11701:11815  require(... */\n    tag_143:\n        /* \"src/ERC20Initializable.sol\":11857:11908  _approve(owner, spender, currentAllowance - amount) */\n      tag_111\n        /* \"src/ERC20Initializable.sol\":11866:11871  owner */\n      dup5\n        /* \"src/ERC20Initializable.sol\":11873:11880  spender */\n      dup5\n        /* \"src/ERC20Initializable.sol\":11901:11907  amount */\n      dup5\n        /* \"src/ERC20Initializable.sol\":11882:11898  currentAllowance */\n      dup5\n        /* \"src/ERC20Initializable.sol\":11882:11907  currentAllowance - amount */\n      sub\n        /* \"src/ERC20Initializable.sol\":11857:11865  _approve */\n      tag_79\n        /* \"src/ERC20Initializable.sol\":11857:11908  _approve(owner, spender, currentAllowance - amount) */\n      jump\t// in\n        /* \"src/ERC20Initializable.sol\":7717:8011  function _transfer(... */\n    tag_86:\n      sub(shl(0xa0, 0x01), 0x01)\n        /* \"src/ERC20Initializable.sol\":7835:7853  from != address(0) */\n      dup4\n      and\n        /* \"src/ERC20Initializable.sol\":7827:7895  require(from != address(0), \"ERC20: transfer from the zero address\") */\n      tag_148\n      jumpi\n      mload(0x40)\n      shl(0xe5, 0x461bcd)\n      dup2\n      mstore\n        /* \"#utility.yul\":9038:9040   */\n      0x20\n        /* \"src/ERC20Initializable.sol\":7827:7895  require(from != address(0), \"ERC20: transfer from the zero address\") */\n      0x04\n      dup3\n      add\n        /* \"#utility.yul\":9020:9041   */\n      mstore\n        /* \"#utility.yul\":9077:9079   */\n      0x25\n        /* \"#utility.yul\":9057:9075   */\n      0x24\n      dup3\n      add\n        /* \"#utility.yul\":9050:9080   */\n      mstore\n        /* \"#utility.yul\":9116:9150   */\n      0x45524332303a207472616e736665722066726f6d20746865207a65726f206164\n        /* \"#utility.yul\":9096:9114   */\n      0x44\n      dup3\n      add\n        /* \"#utility.yul\":9089:9151   */\n      mstore\n      shl(0xd8, 0x6472657373)\n        /* \"#utility.yul\":9167:9185   */\n      0x64\n      dup3\n      add\n        /* \"#utility.yul\":9160:9195   */\n      mstore\n        /* \"#utility.yul\":9212:9231   */\n      0x84\n      add\n        /* \"src/ERC20Initializable.sol\":7827:7895  require(from != address(0), \"ERC20: transfer from the zero address\") */\n      tag_102\n        /* \"#utility.yul\":8836:9237   */\n      jump\n        /* \"src/ERC20Initializable.sol\":7827:7895  require(from != address(0), \"ERC20: transfer from the zero address\") */\n    tag_148:\n      sub(shl(0xa0, 0x01), 0x01)\n        /* \"src/ERC20Initializable.sol\":7913:7929  to != address(0) */\n      dup3\n      and\n        /* \"src/ERC20Initializable.sol\":7905:7969  require(to != address(0), \"ERC20: transfer to the zero address\") */\n      tag_151\n      jumpi\n      mload(0x40)\n      shl(0xe5, 0x461bcd)\n      dup2\n      mstore\n        /* \"#utility.yul\":9444:9446   */\n      0x20\n        /* \"src/ERC20Initializable.sol\":7905:7969  require(to != address(0), \"ERC20: transfer to the zero address\") */\n      0x04\n      dup3\n      add\n        /* \"#utility.yul\":9426:9447   */\n      mstore\n        /* \"#utility.yul\":9483:9485   */\n      0x23\n        /* \"#utility.yul\":9463:9481   */\n      0x24\n      dup3\n      add\n        /* \"#utility.yul\":9456:9486   */\n      mstore\n        /* \"#utility.yul\":9522:9556   */\n      0x45524332303a207472616e7366657220746f20746865207a65726f2061646472\n        /* \"#utility.yul\":9502:9520   */\n      0x44\n      dup3\n      add\n        /* \"#utility.yul\":9495:9557   */\n      mstore\n      shl(0xe8, 0x657373)\n        /* \"#utility.yul\":9573:9591   */\n      0x64\n      dup3\n      add\n        /* \"#utility.yul\":9566:9599   */\n      mstore\n        /* \"#utility.yul\":9616:9635   */\n      0x84\n      add\n        /* \"src/ERC20Initializable.sol\":7905:7969  require(to != address(0), \"ERC20: transfer to the zero address\") */\n      tag_102\n        /* \"#utility.yul\":9242:9641   */\n      jump\n        /* \"src/ERC20Initializable.sol\":7905:7969  require(to != address(0), \"ERC20: transfer to the zero address\") */\n    tag_151:\n        /* \"src/ERC20Initializable.sol\":7979:8004  _update(from, to, amount) */\n      tag_154\n        /* \"src/ERC20Initializable.sol\":7987:7991  from */\n      dup4\n        /* \"src/ERC20Initializable.sol\":7993:7995  to */\n      dup4\n        /* \"src/ERC20Initializable.sol\":7997:8003  amount */\n      dup4\n        /* \"src/ERC20Initializable.sol\":7979:7986  _update */\n      tag_155\n        /* \"src/ERC20Initializable.sol\":7979:8004  _update(from, to, amount) */\n      jump\t// in\n    tag_154:\n        /* \"src/ERC20Initializable.sol\":7717:8011  function _transfer(... */\n      pop\n      pop\n      pop\n      jump\t// out\n        /* \"src/ERC20Initializable.sol\":9692:9877  function _mint(address account, uint256 amount) internal {... */\n    tag_107:\n      sub(shl(0xa0, 0x01), 0x01)\n        /* \"src/ERC20Initializable.sol\":9767:9788  account != address(0) */\n      dup3\n      and\n        /* \"src/ERC20Initializable.sol\":9759:9824  require(account != address(0), \"ERC20: mint to the zero address\") */\n      tag_158\n      jumpi\n      mload(0x40)\n      shl(0xe5, 0x461bcd)\n      dup2\n      mstore\n        /* \"#utility.yul\":9848:9850   */\n      0x20\n        /* \"src/ERC20Initializable.sol\":9759:9824  require(account != address(0), \"ERC20: mint to the zero address\") */\n      0x04\n      dup3\n      add\n        /* \"#utility.yul\":9830:9851   */\n      mstore\n        /* \"#utility.yul\":9887:9889   */\n      0x1f\n        /* \"#utility.yul\":9867:9885   */\n      0x24\n      dup3\n      add\n        /* \"#utility.yul\":9860:9890   */\n      mstore\n        /* \"#utility.yul\":9926:9959   */\n      0x45524332303a206d696e7420746f20746865207a65726f206164647265737300\n        /* \"#utility.yul\":9906:9924   */\n      0x44\n      dup3\n      add\n        /* \"#utility.yul\":9899:9960   */\n      mstore\n        /* \"#utility.yul\":9977:9995   */\n      0x64\n      add\n        /* \"src/ERC20Initializable.sol\":9759:9824  require(account != address(0), \"ERC20: mint to the zero address\") */\n      tag_102\n        /* \"#utility.yul\":9646:10001   */\n      jump\n        /* \"src/ERC20Initializable.sol\":9759:9824  require(account != address(0), \"ERC20: mint to the zero address\") */\n    tag_158:\n        /* \"src/ERC20Initializable.sol\":9834:9870  _update(address(0), account, amount) */\n      tag_161\n        /* \"src/ERC20Initializable.sol\":9850:9851  0 */\n      0x00\n        /* \"src/ERC20Initializable.sol\":9854:9861  account */\n      dup4\n        /* \"src/ERC20Initializable.sol\":9863:9869  amount */\n      dup4\n        /* \"src/ERC20Initializable.sol\":9834:9841  _update */\n      tag_155\n        /* \"src/ERC20Initializable.sol\":9834:9870  _update(address(0), account, amount) */\n      jump\t// in\n    tag_161:\n        /* \"src/ERC20Initializable.sol\":9692:9877  function _mint(address account, uint256 amount) internal {... */\n      pop\n      pop\n      jump\t// out\n        /* \"src/ERC20Initializable.sol\":8311:9360  function _update(... */\n    tag_155:\n      sub(shl(0xa0, 0x01), 0x01)\n        /* \"src/ERC20Initializable.sol\":8431:8449  from == address(0) */\n      dup4\n      and\n        /* \"src/ERC20Initializable.sol\":8427:8872  if (from == address(0)) {... */\n      tag_163\n      jumpi\n        /* \"src/ERC20Initializable.sol\":8481:8487  amount */\n      dup1\n        /* \"src/ERC20Initializable.sol\":8465:8477  _totalSupply */\n      0x03\n      0x00\n        /* \"src/ERC20Initializable.sol\":8465:8487  _totalSupply += amount */\n      dup3\n      dup3\n      sload\n      tag_164\n      swap2\n      swap1\n      tag_93\n      jump\t// in\n    tag_164:\n      swap1\n      swap2\n      sstore\n      pop\n        /* \"src/ERC20Initializable.sol\":8427:8872  if (from == address(0)) {... */\n      tag_165\n      swap1\n      pop\n      jump\n    tag_163:\n      sub(shl(0xa0, 0x01), 0x01)\n        /* \"src/ERC20Initializable.sol\":8540:8555  _balances[from] */\n      dup4\n      and\n        /* \"src/ERC20Initializable.sol\":8518:8537  uint256 fromBalance */\n      0x00\n        /* \"src/ERC20Initializable.sol\":8540:8555  _balances[from] */\n      swap1\n      dup2\n      mstore\n        /* \"src/ERC20Initializable.sol\":8540:8549  _balances */\n      0x01\n        /* \"src/ERC20Initializable.sol\":8540:8555  _balances[from] */\n      0x20\n      mstore\n      0x40\n      swap1\n      keccak256\n      sload\n        /* \"src/ERC20Initializable.sol\":8594:8615  fromBalance >= amount */\n      dup2\n      dup2\n      lt\n      iszero\n        /* \"src/ERC20Initializable.sol\":8569:8687  require(... */\n      tag_166\n      jumpi\n      mload(0x40)\n      shl(0xe5, 0x461bcd)\n      dup2\n      mstore\n        /* \"#utility.yul\":10208:10210   */\n      0x20\n        /* \"src/ERC20Initializable.sol\":8569:8687  require(... */\n      0x04\n      dup3\n      add\n        /* \"#utility.yul\":10190:10211   */\n      mstore\n        /* \"#utility.yul\":10247:10249   */\n      0x26\n        /* \"#utility.yul\":10227:10245   */\n      0x24\n      dup3\n      add\n        /* \"#utility.yul\":10220:10250   */\n      mstore\n        /* \"#utility.yul\":10286:10320   */\n      0x45524332303a207472616e7366657220616d6f756e7420657863656564732062\n        /* \"#utility.yul\":10266:10284   */\n      0x44\n      dup3\n      add\n        /* \"#utility.yul\":10259:10321   */\n      mstore\n      shl(0xd0, 0x616c616e6365)\n        /* \"#utility.yul\":10337:10355   */\n      0x64\n      dup3\n      add\n        /* \"#utility.yul\":10330:10366   */\n      mstore\n        /* \"#utility.yul\":10383:10402   */\n      0x84\n      add\n        /* \"src/ERC20Initializable.sol\":8569:8687  require(... */\n      tag_102\n        /* \"#utility.yul\":10006:10408   */\n      jump\n        /* \"src/ERC20Initializable.sol\":8569:8687  require(... */\n    tag_166:\n      sub(shl(0xa0, 0x01), 0x01)\n        /* \"src/ERC20Initializable.sol\":8809:8824  _balances[from] */\n      dup5\n      and\n      0x00\n      swap1\n      dup2\n      mstore\n        /* \"src/ERC20Initializable.sol\":8809:8818  _balances */\n      0x01\n        /* \"src/ERC20Initializable.sol\":8809:8824  _balances[from] */\n      0x20\n      mstore\n      0x40\n      swap1\n      keccak256\n        /* \"src/ERC20Initializable.sol\":8827:8847  fromBalance - amount */\n      swap1\n      dup3\n      swap1\n      sub\n        /* \"src/ERC20Initializable.sol\":8809:8847  _balances[from] = fromBalance - amount */\n      swap1\n      sstore\n        /* \"src/ERC20Initializable.sol\":8427:8872  if (from == address(0)) {... */\n    tag_165:\n      sub(shl(0xa0, 0x01), 0x01)\n        /* \"src/ERC20Initializable.sol\":8886:8902  to == address(0) */\n      dup3\n      and\n        /* \"src/ERC20Initializable.sol\":8882:9312  if (to == address(0)) {... */\n      tag_169\n      jumpi\n        /* \"src/ERC20Initializable.sol\":9051:9063  _totalSupply */\n      0x03\n        /* \"src/ERC20Initializable.sol\":9051:9073  _totalSupply -= amount */\n      dup1\n      sload\n      dup3\n      swap1\n      sub\n      swap1\n      sstore\n        /* \"src/ERC20Initializable.sol\":8882:9312  if (to == address(0)) {... */\n      jump(tag_170)\n    tag_169:\n      sub(shl(0xa0, 0x01), 0x01)\n        /* \"src/ERC20Initializable.sol\":9264:9277  _balances[to] */\n      dup3\n      and\n      0x00\n      swap1\n      dup2\n      mstore\n        /* \"src/ERC20Initializable.sol\":9264:9273  _balances */\n      0x01\n        /* \"src/ERC20Initializable.sol\":9264:9277  _balances[to] */\n      0x20\n      mstore\n      0x40\n      swap1\n      keccak256\n        /* \"src/ERC20Initializable.sol\":9264:9287  _balances[to] += amount */\n      dup1\n      sload\n      dup3\n      add\n      swap1\n      sstore\n        /* \"src/ERC20Initializable.sol\":8882:9312  if (to == address(0)) {... */\n    tag_170:\n        /* \"src/ERC20Initializable.sol\":9342:9344  to */\n      dup2\n      sub(shl(0xa0, 0x01), 0x01)\n        /* \"src/ERC20Initializable.sol\":9327:9353  Transfer(from, to, amount) */\n      and\n        /* \"src/ERC20Initializable.sol\":9336:9340  from */\n      dup4\n      sub(shl(0xa0, 0x01), 0x01)\n        /* \"src/ERC20Initializable.sol\":9327:9353  Transfer(from, to, amount) */\n      and\n      0xddf252ad1be2c89b69c2b068fc378daa952ba7f163c4a11628f55a4df523b3ef\n        /* \"src/ERC20Initializable.sol\":9346:9352  amount */\n      dup4\n        /* \"src/ERC20Initializable.sol\":9327:9353  Transfer(from, to, amount) */\n      mload(0x40)\n      tag_139\n      swap2\n        /* \"#utility.yul\":1342:1367   */\n      dup2\n      mstore\n        /* \"#utility.yul\":1330:1332   */\n      0x20\n        /* \"#utility.yul\":1315:1333   */\n      add\n      swap1\n        /* \"#utility.yul\":1196:1373   */\n      jump\n        /* \"#utility.yul\":14:562   */\n    tag_19:\n        /* \"#utility.yul\":126:130   */\n      0x00\n        /* \"#utility.yul\":155:157   */\n      0x20\n        /* \"#utility.yul\":184:186   */\n      dup1\n        /* \"#utility.yul\":173:182   */\n      dup4\n        /* \"#utility.yul\":166:187   */\n      mstore\n        /* \"#utility.yul\":216:222   */\n      dup4\n        /* \"#utility.yul\":210:223   */\n      mload\n        /* \"#utility.yul\":259:265   */\n      dup1\n        /* \"#utility.yul\":254:256   */\n      dup3\n        /* \"#utility.yul\":243:252   */\n      dup6\n        /* \"#utility.yul\":239:257   */\n      add\n        /* \"#utility.yul\":232:266   */\n      mstore\n        /* \"#utility.yul\":284:285   */\n      0x00\n        /* \"#utility.yul\":294:434   */\n    tag_180:\n        /* \"#utility.yul\":308:314   */\n      dup2\n        /* \"#utility.yul\":305:306   */\n      dup2\n        /* \"#utility.yul\":302:315   */\n      lt\n        /* \"#utility.yul\":294:434   */\n      iszero\n      tag_182\n      jumpi\n        /* \"#utility.yul\":403:417   */\n      dup6\n      dup2\n      add\n        /* \"#utility.yul\":399:422   */\n      dup4\n      add\n        /* \"#utility.yul\":393:423   */\n      mload\n        /* \"#utility.yul\":369:386   */\n      dup6\n      dup3\n      add\n        /* \"#utility.yul\":388:390   */\n      0x40\n        /* \"#utility.yul\":365:391   */\n      add\n        /* \"#utility.yul\":358:424   */\n      mstore\n        /* \"#utility.yul\":323:333   */\n      dup3\n      add\n        /* \"#utility.yul\":294:434   */\n      jump(tag_180)\n    tag_182:\n        /* \"#utility.yul\":298:301   */\n      pop\n        /* \"#utility.yul\":483:484   */\n      0x00\n        /* \"#utility.yul\":478:480   */\n      0x40\n        /* \"#utility.yul\":469:475   */\n      dup3\n        /* \"#utility.yul\":458:467   */\n      dup7\n        /* \"#utility.yul\":454:476   */\n      add\n        /* \"#utility.yul\":450:481   */\n      add\n        /* \"#utility.yul\":443:485   */\n      mstore\n        /* \"#utility.yul\":553:555   */\n      0x40\n        /* \"#utility.yul\":546:548   */\n      0x1f\n        /* \"#utility.yul\":542:549   */\n      not\n        /* \"#utility.yul\":537:539   */\n      0x1f\n        /* \"#utility.yul\":529:535   */\n      dup4\n        /* \"#utility.yul\":525:540   */\n      add\n        /* \"#utility.yul\":521:550   */\n      and\n        /* \"#utility.yul\":510:519   */\n      dup6\n        /* \"#utility.yul\":506:551   */\n      add\n        /* \"#utility.yul\":502:556   */\n      add\n        /* \"#utility.yul\":494:556   */\n      swap3\n      pop\n      pop\n      pop\n        /* \"#utility.yul\":14:562   */\n      swap3\n      swap2\n      pop\n      pop\n      jump\t// out\n        /* \"#utility.yul\":567:740   */\n    tag_172:\n        /* \"#utility.yul\":635:655   */\n      dup1\n      calldataload\n      sub(shl(0xa0, 0x01), 0x01)\n        /* \"#utility.yul\":684:715   */\n      dup2\n      and\n        /* \"#utility.yul\":674:716   */\n      dup2\n      eq\n        /* \"#utility.yul\":664:734   */\n      tag_184\n      jumpi\n        /* \"#utility.yul\":730:731   */\n      0x00\n        /* \"#utility.yul\":727:728   */\n      dup1\n        /* \"#utility.yul\":720:732   */\n      revert\n        /* \"#utility.yul\":664:734   */\n    tag_184:\n        /* \"#utility.yul\":567:740   */\n      swap2\n      swap1\n      pop\n      jump\t// out\n        /* \"#utility.yul\":745:999   */\n    tag_22:\n        /* \"#utility.yul\":813:819   */\n      0x00\n        /* \"#utility.yul\":821:827   */\n      dup1\n        /* \"#utility.yul\":874:876   */\n      0x40\n        /* \"#utility.yul\":862:871   */\n      dup4\n        /* \"#utility.yul\":853:860   */\n      dup6\n        /* \"#utility.yul\":849:872   */\n      sub\n        /* \"#utility.yul\":845:877   */\n      slt\n        /* \"#utility.yul\":842:894   */\n      iszero\n      tag_186\n      jumpi\n        /* \"#utility.yul\":890:891   */\n      0x00\n        /* \"#utility.yul\":887:888   */\n      dup1\n        /* \"#utility.yul\":880:892   */\n      revert\n        /* \"#utility.yul\":842:894   */\n    tag_186:\n        /* \"#utility.yul\":913:942   */\n      tag_187\n        /* \"#utility.yul\":932:941   */\n      dup4\n        /* \"#utility.yul\":913:942   */\n      tag_172\n      jump\t// in\n    tag_187:\n        /* \"#utility.yul\":903:942   */\n      swap5\n        /* \"#utility.yul\":989:991   */\n      0x20\n        /* \"#utility.yul\":974:992   */\n      swap4\n      swap1\n      swap4\n      add\n        /* \"#utility.yul\":961:993   */\n      calldataload\n      swap4\n      pop\n      pop\n      pop\n        /* \"#utility.yul\":745:999   */\n      jump\t// out\n        /* \"#utility.yul\":1378:1706   */\n    tag_32:\n        /* \"#utility.yul\":1455:1461   */\n      0x00\n        /* \"#utility.yul\":1463:1469   */\n      dup1\n        /* \"#utility.yul\":1471:1477   */\n      0x00\n        /* \"#utility.yul\":1524:1526   */\n      0x60\n        /* \"#utility.yul\":1512:1521   */\n      dup5\n        /* \"#utility.yul\":1503:1510   */\n      dup7\n        /* \"#utility.yul\":1499:1522   */\n      sub\n        /* \"#utility.yul\":1495:1527   */\n      slt\n        /* \"#utility.yul\":1492:1544   */\n      iszero\n      tag_191\n      jumpi\n        /* \"#utility.yul\":1540:1541   */\n      0x00\n        /* \"#utility.yul\":1537:1538   */\n      dup1\n        /* \"#utility.yul\":1530:1542   */\n      revert\n        /* \"#utility.yul\":1492:1544   */\n    tag_191:\n        /* \"#utility.yul\":1563:1592   */\n      tag_192\n        /* \"#utility.yul\":1582:1591   */\n      dup5\n        /* \"#utility.yul\":1563:1592   */\n      tag_172\n      jump\t// in\n    tag_192:\n        /* \"#utility.yul\":1553:1592   */\n      swap3\n      pop\n        /* \"#utility.yul\":1611:1649   */\n      tag_193\n        /* \"#utility.yul\":1645:1647   */\n      0x20\n        /* \"#utility.yul\":1634:1643   */\n      dup6\n        /* \"#utility.yul\":1630:1648   */\n      add\n        /* \"#utility.yul\":1611:1649   */\n      tag_172\n      jump\t// in\n    tag_193:\n        /* \"#utility.yul\":1601:1649   */\n      swap2\n      pop\n        /* \"#utility.yul\":1696:1698   */\n      0x40\n        /* \"#utility.yul\":1685:1694   */\n      dup5\n        /* \"#utility.yul\":1681:1699   */\n      add\n        /* \"#utility.yul\":1668:1700   */\n      calldataload\n        /* \"#utility.yul\":1658:1700   */\n      swap1\n      pop\n        /* \"#utility.yul\":1378:1706   */\n      swap3\n      pop\n      swap3\n      pop\n      swap3\n      jump\t// out\n        /* \"#utility.yul\":1900:2086   */\n    tag_45:\n        /* \"#utility.yul\":1959:1965   */\n      0x00\n        /* \"#utility.yul\":2012:2014   */\n      0x20\n        /* \"#utility.yul\":2000:2009   */\n      dup3\n        /* \"#utility.yul\":1991:1998   */\n      dup5\n        /* \"#utility.yul\":1987:2010   */\n      sub\n        /* \"#utility.yul\":1983:2015   */\n      slt\n        /* \"#utility.yul\":1980:2032   */\n      iszero\n      tag_196\n      jumpi\n        /* \"#utility.yul\":2028:2029   */\n      0x00\n        /* \"#utility.yul\":2025:2026   */\n      dup1\n        /* \"#utility.yul\":2018:2030   */\n      revert\n        /* \"#utility.yul\":1980:2032   */\n    tag_196:\n        /* \"#utility.yul\":2051:2080   */\n      tag_197\n        /* \"#utility.yul\":2070:2079   */\n      dup3\n        /* \"#utility.yul\":2051:2080   */\n      tag_172\n      jump\t// in\n    tag_197:\n        /* \"#utility.yul\":2041:2080   */\n      swap4\n        /* \"#utility.yul\":1900:2086   */\n      swap3\n      pop\n      pop\n      pop\n      jump\t// out\n        /* \"#utility.yul\":2091:2218   */\n    tag_173:\n        /* \"#utility.yul\":2152:2162   */\n      0x4e487b71\n        /* \"#utility.yul\":2147:2150   */\n      0xe0\n        /* \"#utility.yul\":2143:2163   */\n      shl\n        /* \"#utility.yul\":2140:2141   */\n      0x00\n        /* \"#utility.yul\":2133:2164   */\n      mstore\n        /* \"#utility.yul\":2183:2187   */\n      0x41\n        /* \"#utility.yul\":2180:2181   */\n      0x04\n        /* \"#utility.yul\":2173:2188   */\n      mstore\n        /* \"#utility.yul\":2207:2211   */\n      0x24\n        /* \"#utility.yul\":2204:2205   */\n      0x00\n        /* \"#utility.yul\":2197:2212   */\n      revert\n        /* \"#utility.yul\":2223:2942   */\n    tag_174:\n        /* \"#utility.yul\":2266:2271   */\n      0x00\n        /* \"#utility.yul\":2319:2322   */\n      dup3\n        /* \"#utility.yul\":2312:2316   */\n      0x1f\n        /* \"#utility.yul\":2304:2310   */\n      dup4\n        /* \"#utility.yul\":2300:2317   */\n      add\n        /* \"#utility.yul\":2296:2323   */\n      slt\n        /* \"#utility.yul\":2286:2341   */\n      tag_200\n      jumpi\n        /* \"#utility.yul\":2337:2338   */\n      0x00\n        /* \"#utility.yul\":2334:2335   */\n      dup1\n        /* \"#utility.yul\":2327:2339   */\n      revert\n        /* \"#utility.yul\":2286:2341   */\n    tag_200:\n        /* \"#utility.yul\":2373:2379   */\n      dup2\n        /* \"#utility.yul\":2360:2380   */\n      calldataload\n        /* \"#utility.yul\":2399:2417   */\n      0xffffffffffffffff\n        /* \"#utility.yul\":2436:2438   */\n      dup1\n        /* \"#utility.yul\":2432:2434   */\n      dup3\n        /* \"#utility.yul\":2429:2439   */\n      gt\n        /* \"#utility.yul\":2426:2462   */\n      iszero\n      tag_202\n      jumpi\n        /* \"#utility.yul\":2442:2460   */\n      tag_202\n      tag_173\n      jump\t// in\n    tag_202:\n        /* \"#utility.yul\":2517:2519   */\n      0x40\n        /* \"#utility.yul\":2511:2520   */\n      mload\n        /* \"#utility.yul\":2485:2487   */\n      0x1f\n        /* \"#utility.yul\":2571:2584   */\n      dup4\n      add\n      not(0x1f)\n        /* \"#utility.yul\":2567:2589   */\n      swap1\n      dup2\n      and\n        /* \"#utility.yul\":2591:2593   */\n      0x3f\n        /* \"#utility.yul\":2563:2594   */\n      add\n        /* \"#utility.yul\":2559:2599   */\n      and\n        /* \"#utility.yul\":2547:2600   */\n      dup2\n      add\n      swap1\n        /* \"#utility.yul\":2615:2633   */\n      dup3\n      dup3\n      gt\n        /* \"#utility.yul\":2635:2657   */\n      dup2\n      dup4\n      lt\n        /* \"#utility.yul\":2612:2658   */\n      or\n        /* \"#utility.yul\":2609:2681   */\n      iszero\n      tag_204\n      jumpi\n        /* \"#utility.yul\":2661:2679   */\n      tag_204\n      tag_173\n      jump\t// in\n    tag_204:\n        /* \"#utility.yul\":2701:2711   */\n      dup2\n        /* \"#utility.yul\":2697:2699   */\n      0x40\n        /* \"#utility.yul\":2690:2712   */\n      mstore\n        /* \"#utility.yul\":2736:2738   */\n      dup4\n        /* \"#utility.yul\":2728:2734   */\n      dup2\n        /* \"#utility.yul\":2721:2739   */\n      mstore\n        /* \"#utility.yul\":2782:2785   */\n      dup7\n        /* \"#utility.yul\":2775:2779   */\n      0x20\n        /* \"#utility.yul\":2770:2772   */\n      dup6\n        /* \"#utility.yul\":2762:2768   */\n      dup9\n        /* \"#utility.yul\":2758:2773   */\n      add\n        /* \"#utility.yul\":2754:2780   */\n      add\n        /* \"#utility.yul\":2751:2786   */\n      gt\n        /* \"#utility.yul\":2748:2803   */\n      iszero\n      tag_205\n      jumpi\n        /* \"#utility.yul\":2799:2800   */\n      0x00\n        /* \"#utility.yul\":2796:2797   */\n      dup1\n        /* \"#utility.yul\":2789:2801   */\n      revert\n        /* \"#utility.yul\":2748:2803   */\n    tag_205:\n        /* \"#utility.yul\":2863:2865   */\n      dup4\n        /* \"#utility.yul\":2856:2860   */\n      0x20\n        /* \"#utility.yul\":2848:2854   */\n      dup8\n        /* \"#utility.yul\":2844:2861   */\n      add\n        /* \"#utility.yul\":2837:2841   */\n      0x20\n        /* \"#utility.yul\":2829:2835   */\n      dup4\n        /* \"#utility.yul\":2825:2842   */\n      add\n        /* \"#utility.yul\":2812:2866   */\n      calldatacopy\n        /* \"#utility.yul\":2910:2911   */\n      0x00\n        /* \"#utility.yul\":2903:2907   */\n      0x20\n        /* \"#utility.yul\":2898:2900   */\n      dup6\n        /* \"#utility.yul\":2890:2896   */\n      dup4\n        /* \"#utility.yul\":2886:2901   */\n      add\n        /* \"#utility.yul\":2882:2908   */\n      add\n        /* \"#utility.yul\":2875:2912   */\n      mstore\n        /* \"#utility.yul\":2930:2936   */\n      dup1\n        /* \"#utility.yul\":2921:2936   */\n      swap5\n      pop\n      pop\n      pop\n      pop\n      pop\n        /* \"#utility.yul\":2223:2942   */\n      swap3\n      swap2\n      pop\n      pop\n      jump\t// out\n        /* \"#utility.yul\":2947:3564   */\n    tag_50:\n        /* \"#utility.yul\":3044:3050   */\n      0x00\n        /* \"#utility.yul\":3052:3058   */\n      dup1\n        /* \"#utility.yul\":3060:3066   */\n      0x00\n        /* \"#utility.yul\":3113:3115   */\n      0x60\n        /* \"#utility.yul\":3101:3110   */\n      dup5\n        /* \"#utility.yul\":3092:3099   */\n      dup7\n        /* \"#utility.yul\":3088:3111   */\n      sub\n        /* \"#utility.yul\":3084:3116   */\n      slt\n        /* \"#utility.yul\":3081:3133   */\n      iszero\n      tag_207\n      jumpi\n        /* \"#utility.yul\":3129:3130   */\n      0x00\n        /* \"#utility.yul\":3126:3127   */\n      dup1\n        /* \"#utility.yul\":3119:3131   */\n      revert\n        /* \"#utility.yul\":3081:3133   */\n    tag_207:\n        /* \"#utility.yul\":3152:3181   */\n      tag_208\n        /* \"#utility.yul\":3171:3180   */\n      dup5\n        /* \"#utility.yul\":3152:3181   */\n      tag_172\n      jump\t// in\n    tag_208:\n        /* \"#utility.yul\":3142:3181   */\n      swap3\n      pop\n        /* \"#utility.yul\":3232:3234   */\n      0x20\n        /* \"#utility.yul\":3221:3230   */\n      dup5\n        /* \"#utility.yul\":3217:3235   */\n      add\n        /* \"#utility.yul\":3204:3236   */\n      calldataload\n        /* \"#utility.yul\":3255:3273   */\n      0xffffffffffffffff\n        /* \"#utility.yul\":3296:3298   */\n      dup1\n        /* \"#utility.yul\":3288:3294   */\n      dup3\n        /* \"#utility.yul\":3285:3299   */\n      gt\n        /* \"#utility.yul\":3282:3316   */\n      iszero\n      tag_209\n      jumpi\n        /* \"#utility.yul\":3312:3313   */\n      0x00\n        /* \"#utility.yul\":3309:3310   */\n      dup1\n        /* \"#utility.yul\":3302:3314   */\n      revert\n        /* \"#utility.yul\":3282:3316   */\n    tag_209:\n        /* \"#utility.yul\":3335:3385   */\n      tag_210\n        /* \"#utility.yul\":3377:3384   */\n      dup8\n        /* \"#utility.yul\":3368:3374   */\n      dup4\n        /* \"#utility.yul\":3357:3366   */\n      dup9\n        /* \"#utility.yul\":3353:3375   */\n      add\n        /* \"#utility.yul\":3335:3385   */\n      tag_174\n      jump\t// in\n    tag_210:\n        /* \"#utility.yul\":3325:3385   */\n      swap4\n      pop\n        /* \"#utility.yul\":3438:3440   */\n      0x40\n        /* \"#utility.yul\":3427:3436   */\n      dup7\n        /* \"#utility.yul\":3423:3441   */\n      add\n        /* \"#utility.yul\":3410:3442   */\n      calldataload\n        /* \"#utility.yul\":3394:3442   */\n      swap2\n      pop\n        /* \"#utility.yul\":3467:3469   */\n      dup1\n        /* \"#utility.yul\":3457:3465   */\n      dup3\n        /* \"#utility.yul\":3454:3470   */\n      gt\n        /* \"#utility.yul\":3451:3487   */\n      iszero\n      tag_211\n      jumpi\n        /* \"#utility.yul\":3483:3484   */\n      0x00\n        /* \"#utility.yul\":3480:3481   */\n      dup1\n        /* \"#utility.yul\":3473:3485   */\n      revert\n        /* \"#utility.yul\":3451:3487   */\n    tag_211:\n      pop\n        /* \"#utility.yul\":3506:3558   */\n      tag_212\n        /* \"#utility.yul\":3550:3557   */\n      dup7\n        /* \"#utility.yul\":3539:3547   */\n      dup3\n        /* \"#utility.yul\":3528:3537   */\n      dup8\n        /* \"#utility.yul\":3524:3548   */\n      add\n        /* \"#utility.yul\":3506:3558   */\n      tag_174\n      jump\t// in\n    tag_212:\n        /* \"#utility.yul\":3496:3558   */\n      swap2\n      pop\n      pop\n        /* \"#utility.yul\":2947:3564   */\n      swap3\n      pop\n      swap3\n      pop\n      swap3\n      jump\t// out\n        /* \"#utility.yul\":3569:3829   */\n    tag_65:\n        /* \"#utility.yul\":3637:3643   */\n      0x00\n        /* \"#utility.yul\":3645:3651   */\n      dup1\n        /* \"#utility.yul\":3698:3700   */\n      0x40\n        /* \"#utility.yul\":3686:3695   */\n      dup4\n        /* \"#utility.yul\":3677:3684   */\n      dup6\n        /* \"#utility.yul\":3673:3696   */\n      sub\n        /* \"#utility.yul\":3669:3701   */\n      slt\n        /* \"#utility.yul\":3666:3718   */\n      iszero\n      tag_214\n      jumpi\n        /* \"#utility.yul\":3714:3715   */\n      0x00\n        /* \"#utility.yul\":3711:3712   */\n      dup1\n        /* \"#utility.yul\":3704:3716   */\n      revert\n        /* \"#utility.yul\":3666:3718   */\n    tag_214:\n        /* \"#utility.yul\":3737:3766   */\n      tag_215\n        /* \"#utility.yul\":3756:3765   */\n      dup4\n        /* \"#utility.yul\":3737:3766   */\n      tag_172\n      jump\t// in\n    tag_215:\n        /* \"#utility.yul\":3727:3766   */\n      swap2\n      pop\n        /* \"#utility.yul\":3785:3823   */\n      tag_216\n        /* \"#utility.yul\":3819:3821   */\n      0x20\n        /* \"#utility.yul\":3808:3817   */\n      dup5\n        /* \"#utility.yul\":3804:3822   */\n      add\n        /* \"#utility.yul\":3785:3823   */\n      tag_172\n      jump\t// in\n    tag_216:\n        /* \"#utility.yul\":3775:3823   */\n      swap1\n      pop\n        /* \"#utility.yul\":3569:3829   */\n      swap3\n      pop\n      swap3\n      swap1\n      pop\n      jump\t// out\n        /* \"#utility.yul\":3834:4214   */\n    tag_70:\n        /* \"#utility.yul\":3913:3914   */\n      0x01\n        /* \"#utility.yul\":3909:3921   */\n      dup2\n      dup2\n      shr\n      swap1\n        /* \"#utility.yul\":3956:3968   */\n      dup3\n      and\n      dup1\n        /* \"#utility.yul\":3977:4038   */\n      tag_218\n      jumpi\n        /* \"#utility.yul\":4031:4035   */\n      0x7f\n        /* \"#utility.yul\":4023:4029   */\n      dup3\n        /* \"#utility.yul\":4019:4036   */\n      and\n        /* \"#utility.yul\":4009:4036   */\n      swap2\n      pop\n        /* \"#utility.yul\":3977:4038   */\n    tag_218:\n        /* \"#utility.yul\":4084:4086   */\n      0x20\n        /* \"#utility.yul\":4076:4082   */\n      dup3\n        /* \"#utility.yul\":4073:4087   */\n      lt\n        /* \"#utility.yul\":4053:4071   */\n      dup2\n        /* \"#utility.yul\":4050:4088   */\n      sub\n        /* \"#utility.yul\":4047:4208   */\n      tag_219\n      jumpi\n        /* \"#utility.yul\":4130:4140   */\n      0x4e487b71\n        /* \"#utility.yul\":4125:4128   */\n      0xe0\n        /* \"#utility.yul\":4121:4141   */\n      shl\n        /* \"#utility.yul\":4118:4119   */\n      0x00\n        /* \"#utility.yul\":4111:4142   */\n      mstore\n        /* \"#utility.yul\":4165:4169   */\n      0x22\n        /* \"#utility.yul\":4162:4163   */\n      0x04\n        /* \"#utility.yul\":4155:4170   */\n      mstore\n        /* \"#utility.yul\":4193:4197   */\n      0x24\n        /* \"#utility.yul\":4190:4191   */\n      0x00\n        /* \"#utility.yul\":4183:4198   */\n      revert\n        /* \"#utility.yul\":4047:4208   */\n    tag_219:\n      pop\n        /* \"#utility.yul\":3834:4214   */\n      swap2\n      swap1\n      pop\n      jump\t// out\n        /* \"#utility.yul\":4219:4441   */\n    tag_93:\n        /* \"#utility.yul\":4284:4293   */\n      dup1\n      dup3\n      add\n        /* \"#utility.yul\":4305:4315   */\n      dup1\n      dup3\n      gt\n        /* \"#utility.yul\":4302:4435   */\n      iszero\n      tag_75\n      jumpi\n        /* \"#utility.yul\":4357:4367   */\n      0x4e487b71\n        /* \"#utility.yul\":4352:4355   */\n      0xe0\n        /* \"#utility.yul\":4348:4368   */\n      shl\n        /* \"#utility.yul\":4345:4346   */\n      0x00\n        /* \"#utility.yul\":4338:4369   */\n      mstore\n        /* \"#utility.yul\":4392:4396   */\n      0x11\n        /* \"#utility.yul\":4389:4390   */\n      0x04\n        /* \"#utility.yul\":4382:4397   */\n      mstore\n        /* \"#utility.yul\":4420:4424   */\n      0x24\n        /* \"#utility.yul\":4417:4418   */\n      0x00\n        /* \"#utility.yul\":4410:4425   */\n      revert\n        /* \"#utility.yul\":4987:5532   */\n    tag_176:\n        /* \"#utility.yul\":5089:5091   */\n      0x1f\n        /* \"#utility.yul\":5084:5087   */\n      dup3\n        /* \"#utility.yul\":5081:5092   */\n      gt\n        /* \"#utility.yul\":5078:5526   */\n      iszero\n      tag_154\n      jumpi\n        /* \"#utility.yul\":5125:5126   */\n      0x00\n        /* \"#utility.yul\":5150:5155   */\n      dup2\n        /* \"#utility.yul\":5146:5148   */\n      dup2\n        /* \"#utility.yul\":5139:5156   */\n      mstore\n        /* \"#utility.yul\":5195:5199   */\n      0x20\n        /* \"#utility.yul\":5191:5193   */\n      dup2\n        /* \"#utility.yul\":5181:5200   */\n      keccak256\n        /* \"#utility.yul\":5265:5267   */\n      0x1f\n        /* \"#utility.yul\":5253:5263   */\n      dup6\n        /* \"#utility.yul\":5249:5268   */\n      add\n        /* \"#utility.yul\":5246:5247   */\n      0x05\n        /* \"#utility.yul\":5242:5269   */\n      shr\n        /* \"#utility.yul\":5236:5240   */\n      dup2\n        /* \"#utility.yul\":5232:5270   */\n      add\n        /* \"#utility.yul\":5301:5305   */\n      0x20\n        /* \"#utility.yul\":5289:5299   */\n      dup7\n        /* \"#utility.yul\":5286:5306   */\n      lt\n        /* \"#utility.yul\":5283:5330   */\n      iszero\n      tag_226\n      jumpi\n      pop\n        /* \"#utility.yul\":5324:5328   */\n      dup1\n        /* \"#utility.yul\":5283:5330   */\n    tag_226:\n        /* \"#utility.yul\":5379:5381   */\n      0x1f\n        /* \"#utility.yul\":5374:5377   */\n      dup6\n        /* \"#utility.yul\":5370:5382   */\n      add\n        /* \"#utility.yul\":5367:5368   */\n      0x05\n        /* \"#utility.yul\":5363:5383   */\n      shr\n        /* \"#utility.yul\":5357:5361   */\n      dup3\n        /* \"#utility.yul\":5353:5384   */\n      add\n        /* \"#utility.yul\":5343:5384   */\n      swap2\n      pop\n        /* \"#utility.yul\":5434:5516   */\n    tag_227:\n        /* \"#utility.yul\":5452:5454   */\n      dup2\n        /* \"#utility.yul\":5445:5450   */\n      dup2\n        /* \"#utility.yul\":5442:5455   */\n      lt\n        /* \"#utility.yul\":5434:5516   */\n      iszero\n      tag_229\n      jumpi\n        /* \"#utility.yul\":5497:5514   */\n      dup3\n      dup2\n      sstore\n        /* \"#utility.yul\":5478:5479   */\n      0x01\n        /* \"#utility.yul\":5467:5480   */\n      add\n        /* \"#utility.yul\":5434:5516   */\n      jump(tag_227)\n    tag_229:\n        /* \"#utility.yul\":5438:5441   */\n      pop\n      pop\n      pop\n        /* \"#utility.yul\":4987:5532   */\n      pop\n      pop\n      pop\n      jump\t// out\n        /* \"#utility.yul\":5708:7060   */\n    tag_109:\n        /* \"#utility.yul\":5834:5837   */\n      dup2\n        /* \"#utility.yul\":5828:5838   */\n      mload\n        /* \"#utility.yul\":5861:5879   */\n      0xffffffffffffffff\n        /* \"#utility.yul\":5853:5859   */\n      dup2\n        /* \"#utility.yul\":5850:5880   */\n      gt\n        /* \"#utility.yul\":5847:5903   */\n      iszero\n      tag_233\n      jumpi\n        /* \"#utility.yul\":5883:5901   */\n      tag_233\n      tag_173\n      jump\t// in\n    tag_233:\n        /* \"#utility.yul\":5912:6009   */\n      tag_234\n        /* \"#utility.yul\":6002:6008   */\n      dup2\n        /* \"#utility.yul\":5962:6000   */\n      tag_235\n        /* \"#utility.yul\":5994:5998   */\n      dup5\n        /* \"#utility.yul\":5988:5999   */\n      sload\n        /* \"#utility.yul\":5962:6000   */\n      tag_70\n      jump\t// in\n    tag_235:\n        /* \"#utility.yul\":5956:5960   */\n      dup5\n        /* \"#utility.yul\":5912:6009   */\n      tag_176\n      jump\t// in\n    tag_234:\n        /* \"#utility.yul\":6064:6068   */\n      0x20\n      dup1\n        /* \"#utility.yul\":6128:6130   */\n      0x1f\n        /* \"#utility.yul\":6117:6131   */\n      dup4\n      gt\n        /* \"#utility.yul\":6145:6146   */\n      0x01\n        /* \"#utility.yul\":6140:6803   */\n      dup2\n      eq\n      tag_237\n      jumpi\n        /* \"#utility.yul\":6847:6848   */\n      0x00\n        /* \"#utility.yul\":6864:6870   */\n      dup5\n        /* \"#utility.yul\":6861:6950   */\n      iszero\n      tag_238\n      jumpi\n      pop\n        /* \"#utility.yul\":6916:6935   */\n      dup6\n      dup4\n      add\n        /* \"#utility.yul\":6910:6936   */\n      mload\n        /* \"#utility.yul\":6861:6950   */\n    tag_238:\n      not(0x00)\n        /* \"#utility.yul\":5665:5666   */\n      0x03\n        /* \"#utility.yul\":5661:5672   */\n      dup7\n      swap1\n      shl\n        /* \"#utility.yul\":5657:5681   */\n      shr\n        /* \"#utility.yul\":5653:5682   */\n      not\n        /* \"#utility.yul\":5643:5683   */\n      and\n        /* \"#utility.yul\":5689:5690   */\n      0x01\n        /* \"#utility.yul\":5685:5696   */\n      dup6\n      swap1\n      shl\n        /* \"#utility.yul\":5640:5697   */\n      or\n        /* \"#utility.yul\":6963:7044   */\n      dup6\n      sstore\n        /* \"#utility.yul\":6110:7054   */\n      jump(tag_229)\n        /* \"#utility.yul\":6140:6803   */\n    tag_237:\n        /* \"#utility.yul\":4934:4935   */\n      0x00\n        /* \"#utility.yul\":4927:4941   */\n      dup6\n      dup2\n      mstore\n        /* \"#utility.yul\":4971:4975   */\n      0x20\n        /* \"#utility.yul\":4958:4976   */\n      dup2\n      keccak256\n      not(0x1f)\n        /* \"#utility.yul\":6176:6196   */\n      dup7\n      and\n      swap2\n        /* \"#utility.yul\":6294:6530   */\n    tag_241:\n        /* \"#utility.yul\":6308:6315   */\n      dup3\n        /* \"#utility.yul\":6305:6306   */\n      dup2\n        /* \"#utility.yul\":6302:6316   */\n      lt\n        /* \"#utility.yul\":6294:6530   */\n      iszero\n      tag_243\n      jumpi\n        /* \"#utility.yul\":6397:6416   */\n      dup9\n      dup7\n      add\n        /* \"#utility.yul\":6391:6417   */\n      mload\n        /* \"#utility.yul\":6376:6418   */\n      dup3\n      sstore\n        /* \"#utility.yul\":6489:6516   */\n      swap5\n      dup5\n      add\n      swap5\n        /* \"#utility.yul\":6457:6458   */\n      0x01\n        /* \"#utility.yul\":6445:6459   */\n      swap1\n      swap2\n      add\n      swap1\n        /* \"#utility.yul\":6324:6343   */\n      dup5\n      add\n        /* \"#utility.yul\":6294:6530   */\n      jump(tag_241)\n    tag_243:\n        /* \"#utility.yul\":6298:6301   */\n      pop\n        /* \"#utility.yul\":6558:6564   */\n      dup6\n        /* \"#utility.yul\":6549:6556   */\n      dup3\n        /* \"#utility.yul\":6546:6565   */\n      lt\n        /* \"#utility.yul\":6543:6744   */\n      iszero\n      tag_244\n      jumpi\n        /* \"#utility.yul\":6619:6638   */\n      dup8\n      dup6\n      add\n        /* \"#utility.yul\":6613:6639   */\n      mload\n      not(0x00)\n        /* \"#utility.yul\":6702:6703   */\n      0x03\n        /* \"#utility.yul\":6698:6712   */\n      dup9\n      swap1\n      shl\n        /* \"#utility.yul\":6714:6717   */\n      0xf8\n        /* \"#utility.yul\":6694:6718   */\n      and\n        /* \"#utility.yul\":6690:6727   */\n      shr\n        /* \"#utility.yul\":6686:6728   */\n      not\n        /* \"#utility.yul\":6671:6729   */\n      and\n        /* \"#utility.yul\":6656:6730   */\n      dup2\n      sstore\n        /* \"#utility.yul\":6543:6744   */\n    tag_244:\n      pop\n      pop\n      pop\n      pop\n      pop\n        /* \"#utility.yul\":6790:6791   */\n      0x01\n        /* \"#utility.yul\":6774:6788   */\n      swap1\n      dup2\n      shl\n        /* \"#utility.yul\":6770:6792   */\n      add\n        /* \"#utility.yul\":6757:6793   */\n      swap1\n      sstore\n      pop\n        /* \"#utility.yul\":5708:7060   */\n      jump\t// out\n\n    auxdata: 0xa2646970667358221220f660a98cd36cfa4af05644371c14c1ad2f80c39acd6c84c3d58f53fc6a4675ab64736f6c63430008120033\n}\n",
				"bytecode": {
					"linkReferences": {},
					"object": "608060405234801561001057600080fd5b50610ca8806100206000396000f3fe608060405234801561001057600080fd5b50600436106100b45760003560e01c806370a082311161007157806370a0823114610141578063906571471461016a57806395d89b411461017f578063a457c2d714610187578063a9059cbb1461019a578063dd62ed3e146101ad57600080fd5b806306fdde03146100b9578063095ea7b3146100d757806318160ddd146100fa57806323b872dd1461010c578063313ce5671461011f578063395093511461012e575b600080fd5b6100c16101c0565b6040516100ce91906108cd565b60405180910390f35b6100ea6100e5366004610937565b610252565b60405190151581526020016100ce565b6003545b6040519081526020016100ce565b6100ea61011a366004610961565b61026c565b604051601281526020016100ce565b6100ea61013c366004610937565b610290565b6100fe61014f36600461099d565b6001600160a01b031660009081526001602052604090205490565b61017d610178366004610a62565b6102b2565b005b6100c16103f3565b6100ea610195366004610937565b610402565b6100ea6101a8366004610937565b61047d565b6100fe6101bb366004610ad6565b61048b565b6060600480546101cf90610b09565b80601f01602080910402602001604051908101604052809291908181526020018280546101fb90610b09565b80156102485780601f1061021d57610100808354040283529160200191610248565b820191906000526020600020905b81548152906001019060200180831161022b57829003601f168201915b5050505050905090565b6000336102608185856104b6565b60019150505b92915050565b60003361027a8582856105db565b61028585858561064f565b506001949350505050565b6000336102608185856102a3838361048b565b6102ad9190610b43565b6104b6565b600054610100900460ff16158080156102d25750600054600160ff909116105b806102ec5750303b1580156102ec575060005460ff166001145b6103545760405162461bcd60e51b815260206004820152602e60248201527f496e697469616c697a61626c653a20636f6e747261637420697320616c72656160448201526d191e481a5b9a5d1a585b1a5e995960921b60648201526084015b60405180910390fd5b6000805460ff191660011790558015610377576000805461ff0019166101001790555b61038d846b033b2e3c9fd0803ce8000000610725565b60046103998482610bb2565b5060056103a68382610bb2565b5080156103ed576000805461ff0019169055604051600181527f7f26b83ff96e1f2b6a682f133852f6798a09c465da95921460cefb38474024989060200160405180910390a15b50505050565b6060600580546101cf90610b09565b60003381610410828661048b565b9050838110156104705760405162461bcd60e51b815260206004820152602560248201527f45524332303a2064656372656173656420616c6c6f77616e63652062656c6f77604482015264207a65726f60d81b606482015260840161034b565b61028582868684036104b6565b60003361026081858561064f565b6001600160a01b03918216600090815260026020908152604080832093909416825291909152205490565b6001600160a01b0383166105185760405162461bcd60e51b8152602060048201526024808201527f45524332303a20617070726f76652066726f6d20746865207a65726f206164646044820152637265737360e01b606482015260840161034b565b6001600160a01b0382166105795760405162461bcd60e51b815260206004820152602260248201527f45524332303a20617070726f766520746f20746865207a65726f206164647265604482015261737360f01b606482015260840161034b565b6001600160a01b0383811660008181526002602090815260408083209487168084529482529182902085905590518481527f8c5be1e5ebec7d5bd14f71427d1e84f3dd0314c0f7b2291e5b200ac8c7c3b92591015b60405180910390a3505050565b60006105e7848461048b565b905060001981146103ed57818110156106425760405162461bcd60e51b815260206004820152601d60248201527f45524332303a20696e73756666696369656e7420616c6c6f77616e6365000000604482015260640161034b565b6103ed84848484036104b6565b6001600160a01b0383166106b35760405162461bcd60e51b815260206004820152602560248201527f45524332303a207472616e736665722066726f6d20746865207a65726f206164604482015264647265737360d81b606482015260840161034b565b6001600160a01b0382166107155760405162461bcd60e51b815260206004820152602360248201527f45524332303a207472616e7366657220746f20746865207a65726f206164647260448201526265737360e81b606482015260840161034b565b61072083838361078b565b505050565b6001600160a01b03821661077b5760405162461bcd60e51b815260206004820152601f60248201527f45524332303a206d696e7420746f20746865207a65726f206164647265737300604482015260640161034b565b6107876000838361078b565b5050565b6001600160a01b0383166107b65780600360008282546107ab9190610b43565b9091555061084d9050565b6001600160a01b0383166000908152600160205260409020548181101561082e5760405162461bcd60e51b815260206004820152602660248201527f45524332303a207472616e7366657220616d6f756e7420657863656564732062604482015265616c616e636560d01b606482015260840161034b565b6001600160a01b03841660009081526001602052604090209082900390555b6001600160a01b03821661086957600380548290039055610888565b6001600160a01b03821660009081526001602052604090208054820190555b816001600160a01b0316836001600160a01b03167fddf252ad1be2c89b69c2b068fc378daa952ba7f163c4a11628f55a4df523b3ef836040516105ce91815260200190565b600060208083528351808285015260005b818110156108fa578581018301518582016040015282016108de565b506000604082860101526040601f19601f8301168501019250505092915050565b80356001600160a01b038116811461093257600080fd5b919050565b6000806040838503121561094a57600080fd5b6109538361091b565b946020939093013593505050565b60008060006060848603121561097657600080fd5b61097f8461091b565b925061098d6020850161091b565b9150604084013590509250925092565b6000602082840312156109af57600080fd5b6109b88261091b565b9392505050565b634e487b7160e01b600052604160045260246000fd5b600082601f8301126109e657600080fd5b813567ffffffffffffffff80821115610a0157610a016109bf565b604051601f8301601f19908116603f01168101908282118183101715610a2957610a296109bf565b81604052838152866020858801011115610a4257600080fd5b836020870160208301376000602085830101528094505050505092915050565b600080600060608486031215610a7757600080fd5b610a808461091b565b9250602084013567ffffffffffffffff80821115610a9d57600080fd5b610aa9878388016109d5565b93506040860135915080821115610abf57600080fd5b50610acc868287016109d5565b9150509250925092565b60008060408385031215610ae957600080fd5b610af28361091b565b9150610b006020840161091b565b90509250929050565b600181811c90821680610b1d57607f821691505b602082108103610b3d57634e487b7160e01b600052602260045260246000fd5b50919050565b8082018082111561026657634e487b7160e01b600052601160045260246000fd5b601f82111561072057600081815260208120601f850160051c81016020861015610b8b5750805b601f850160051c820191505b81811015610baa57828155600101610b97565b505050505050565b815167ffffffffffffffff811115610bcc57610bcc6109bf565b610be081610bda8454610b09565b84610b64565b602080601f831160018114610c155760008415610bfd5750858301515b600019600386901b1c1916600185901b178555610baa565b600085815260208120601f198616915b82811015610c4457888601518255948401946001909101908401610c25565b5085821015610c625787850151600019600388901b60f8161c191681555b5050505050600190811b0190555056fea2646970667358221220f660a98cd36cfa4af05644371c14c1ad2f80c39acd6c84c3d58f53fc6a4675ab64736f6c63430008120033",
					"opcodes": "PUSH1 0x80 PUSH1 0x40 MSTORE CALLVALUE DUP1 ISZERO PUSH2 0x10 JUMPI PUSH1 0x0 DUP1 REVERT JUMPDEST POP PUSH2 0xCA8 DUP1 PUSH2 0x20 PUSH1 0x0 CODECOPY PUSH1 0x0 RETURN INVALID PUSH1 0x80 PUSH1 0x40 MSTORE CALLVALUE DUP1 ISZERO PUSH2 0x10 JUMPI PUSH1 0x0 DUP1 REVERT JUMPDEST POP PUSH1 0x4 CALLDATASIZE LT PUSH2 0xB4 JUMPI PUSH1 0x0 CALLDATALOAD PUSH1 0xE0 SHR DUP1 PUSH4 0x70A08231 GT PUSH2 0x71 JUMPI DUP1 PUSH4 0x70A08231 EQ PUSH2 0x141 JUMPI DUP1 PUSH4 0x90657147 EQ PUSH2 0x16A JUMPI DUP1 PUSH4 0x95D89B41 EQ PUSH2 0x17F JUMPI DUP1 PUSH4 0xA457C2D7 EQ PUSH2 0x187 JUMPI DUP1 PUSH4 0xA9059CBB EQ PUSH2 0x19A JUMPI DUP1 PUSH4 0xDD62ED3E EQ PUSH2 0x1AD JUMPI PUSH1 0x0 DUP1 REVERT JUMPDEST DUP1 PUSH4 0x6FDDE03 EQ PUSH2 0xB9 JUMPI DUP1 PUSH4 0x95EA7B3 EQ PUSH2 0xD7 JUMPI DUP1 PUSH4 0x18160DDD EQ PUSH2 0xFA JUMPI DUP1 PUSH4 0x23B872DD EQ PUSH2 0x10C JUMPI DUP1 PUSH4 0x313CE567 EQ PUSH2 0x11F JUMPI DUP1 PUSH4 0x39509351 EQ PUSH2 0x12E JUMPI JUMPDEST PUSH1 0x0 DUP1 REVERT JUMPDEST PUSH2 0xC1 PUSH2 0x1C0 JUMP JUMPDEST PUSH1 0x40 MLOAD PUSH2 0xCE SWAP2 SWAP1 PUSH2 0x8CD JUMP JUMPDEST PUSH1 0x40 MLOAD DUP1 SWAP2 SUB SWAP1 RETURN JUMPDEST PUSH2 0xEA PUSH2 0xE5 CALLDATASIZE PUSH1 0x4 PUSH2 0x937 JUMP JUMPDEST PUSH2 0x252 JUMP JUMPDEST PUSH1 0x40 MLOAD SWAP1 ISZERO ISZERO DUP2 MSTORE PUSH1 0x20 ADD PUSH2 0xCE JUMP JUMPDEST PUSH1 0x3 SLOAD JUMPDEST PUSH1 0x40 MLOAD SWAP1 DUP2 MSTORE PUSH1 0x20 ADD PUSH2 0xCE JUMP JUMPDEST PUSH2 0xEA PUSH2 0x11A CALLDATASIZE PUSH1 0x4 PUSH2 0x961 JUMP JUMPDEST PUSH2 0x26C JUMP JUMPDEST PUSH1 0x40 MLOAD PUSH1 0x12 DUP2 MSTORE PUSH1 0x20 ADD PUSH2 0xCE JUMP JUMPDEST PUSH2 0xEA PUSH2 0x13C CALLDATASIZE PUSH1 0x4 PUSH2 0x937 JUMP JUMPDEST PUSH2 0x290 JUMP JUMPDEST PUSH2 0xFE PUSH2 0x14F CALLDATASIZE PUSH1 0x4 PUSH2 0x99D JUMP JUMPDEST PUSH1 0x1 PUSH1 0x1 PUSH1 0xA0 SHL SUB AND PUSH1 0x0 SWAP1 DUP2 MSTORE PUSH1 0x1 PUSH1 0x20 MSTORE PUSH1 0x40 SWAP1 KECCAK256 SLOAD SWAP1 JUMP JUMPDEST PUSH2 0x17D PUSH2 0x178 CALLDATASIZE PUSH1 0x4 PUSH2 0xA62 JUMP JUMPDEST PUSH2 0x2B2 JUMP JUMPDEST STOP JUMPDEST PUSH2 0xC1 PUSH2 0x3F3 JUMP JUMPDEST PUSH2 0xEA PUSH2 0x195 CALLDATASIZE PUSH1 0x4 PUSH2 0x937 JUMP JUMPDEST PUSH2 0x402 JUMP JUMPDEST PUSH2 0xEA PUSH2 0x1A8 CALLDATASIZE PUSH1 0x4 PUSH2 0x937 JUMP JUMPDEST PUSH2 0x47D JUMP JUMPDEST PUSH2 0xFE PUSH2 0x1BB CALLDATASIZE PUSH1 0x4 PUSH2 0xAD6 JUMP JUMPDEST PUSH2 0x48B JUMP JUMPDEST PUSH1 0x60 PUSH1 0x4 DUP1 SLOAD PUSH2 0x1CF SWAP1 PUSH2 0xB09 JUMP JUMPDEST DUP1 PUSH1 0x1F ADD PUSH1 0x20 DUP1 SWAP2 DIV MUL PUSH1 0x20 ADD PUSH1 0x40 MLOAD SWAP1 DUP2 ADD PUSH1 0x40 MSTORE DUP1 SWAP3 SWAP2 SWAP1 DUP2 DUP2 MSTORE PUSH1 0x20 ADD DUP3 DUP1 SLOAD PUSH2 0x1FB SWAP1 PUSH2 0xB09 JUMP JUMPDEST DUP1 ISZERO PUSH2 0x248 JUMPI DUP1 PUSH1 0x1F LT PUSH2 0x21D JUMPI PUSH2 0x100 DUP1 DUP4 SLOAD DIV MUL DUP4 MSTORE SWAP2 PUSH1 0x20 ADD SWAP2 PUSH2 0x248 JUMP JUMPDEST DUP3 ADD SWAP2 SWAP1 PUSH1 0x0 MSTORE PUSH1 0x20 PUSH1 0x0 KECCAK256 SWAP1 JUMPDEST DUP2 SLOAD DUP2 MSTORE SWAP1 PUSH1 0x1 ADD SWAP1 PUSH1 0x20 ADD DUP1 DUP4 GT PUSH2 0x22B JUMPI DUP3 SWAP1 SUB PUSH1 0x1F AND DUP3 ADD SWAP2 JUMPDEST POP POP POP POP POP SWAP1 POP SWAP1 JUMP JUMPDEST PUSH1 0x0 CALLER PUSH2 0x260 DUP2 DUP6 DUP6 PUSH2 0x4B6 JUMP JUMPDEST PUSH1 0x1 SWAP2 POP POP JUMPDEST SWAP3 SWAP2 POP POP JUMP JUMPDEST PUSH1 0x0 CALLER PUSH2 0x27A DUP6 DUP3 DUP6 PUSH2 0x5DB JUMP JUMPDEST PUSH2 0x285 DUP6 DUP6 DUP6 PUSH2 0x64F JUMP JUMPDEST POP PUSH1 0x1 SWAP5 SWAP4 POP POP POP POP JUMP JUMPDEST PUSH1 0x0 CALLER PUSH2 0x260 DUP2 DUP6 DUP6 PUSH2 0x2A3 DUP4 DUP4 PUSH2 0x48B JUMP JUMPDEST PUSH2 0x2AD SWAP2 SWAP1 PUSH2 0xB43 JUMP JUMPDEST PUSH2 0x4B6 JUMP JUMPDEST PUSH1 0x0 SLOAD PUSH2 0x100 SWAP1 DIV PUSH1 0xFF AND ISZERO DUP1 DUP1 ISZERO PUSH2 0x2D2 JUMPI POP PUSH1 0x0 SLOAD PUSH1 0x1 PUSH1 0xFF SWAP1 SWAP2 AND LT JUMPDEST DUP1 PUSH2 0x2EC JUMPI POP ADDRESS EXTCODESIZE ISZERO DUP1 ISZERO PUSH2 0x2EC JUMPI POP PUSH1 0x0 SLOAD PUSH1 0xFF AND PUSH1 0x1 EQ JUMPDEST PUSH2 0x354 JUMPI PUSH1 0x40 MLOAD PUSH3 0x461BCD PUSH1 0xE5 SHL DUP2 MSTORE PUSH1 0x20 PUSH1 0x4 DUP3 ADD MSTORE PUSH1 0x2E PUSH1 0x24 DUP3 ADD MSTORE PUSH32 0x496E697469616C697A61626C653A20636F6E747261637420697320616C726561 PUSH1 0x44 DUP3 ADD MSTORE PUSH14 0x191E481A5B9A5D1A585B1A5E9959 PUSH1 0x92 SHL PUSH1 0x64 DUP3 ADD MSTORE PUSH1 0x84 ADD JUMPDEST PUSH1 0x40 MLOAD DUP1 SWAP2 SUB SWAP1 REVERT JUMPDEST PUSH1 0x0 DUP1 SLOAD PUSH1 0xFF NOT AND PUSH1 0x1 OR SWAP1 SSTORE DUP1 ISZERO PUSH2 0x377 JUMPI PUSH1 0x0 DUP1 SLOAD PUSH2 0xFF00 NOT AND PUSH2 0x100 OR SWAP1 SSTORE JUMPDEST PUSH2 0x38D DUP5 PUSH12 0x33B2E3C9FD0803CE8000000 PUSH2 0x725 JUMP JUMPDEST PUSH1 0x4 PUSH2 0x399 DUP5 DUP3 PUSH2 0xBB2 JUMP JUMPDEST POP PUSH1 0x5 PUSH2 0x3A6 DUP4 DUP3 PUSH2 0xBB2 JUMP JUMPDEST POP DUP1 ISZERO PUSH2 0x3ED JUMPI PUSH1 0x0 DUP1 SLOAD PUSH2 0xFF00 NOT AND SWAP1 SSTORE PUSH1 0x40 MLOAD PUSH1 0x1 DUP2 MSTORE PUSH32 0x7F26B83FF96E1F2B6A682F133852F6798A09C465DA95921460CEFB3847402498 SWAP1 PUSH1 0x20 ADD PUSH1 0x40 MLOAD DUP1 SWAP2 SUB SWAP1 LOG1 JUMPDEST POP POP POP POP JUMP JUMPDEST PUSH1 0x60 PUSH1 0x5 DUP1 SLOAD PUSH2 0x1CF SWAP1 PUSH2 0xB09 JUMP JUMPDEST PUSH1 0x0 CALLER DUP2 PUSH2 0x410 DUP3 DUP7 PUSH2 0x48B JUMP JUMPDEST SWAP1 POP DUP4 DUP2 LT ISZERO PUSH2 0x470 JUMPI PUSH1 0x40 MLOAD PUSH3 0x461BCD PUSH1 0xE5 SHL DUP2 MSTORE PUSH1 0x20 PUSH1 0x4 DUP3 ADD MSTORE PUSH1 0x25 PUSH1 0x24 DUP3 ADD MSTORE PUSH32 0x45524332303A2064656372656173656420616C6C6F77616E63652062656C6F77 PUSH1 0x44 DUP3 ADD MSTORE PUSH5 0x207A65726F PUSH1 0xD8 SHL PUSH1 0x64 DUP3 ADD MSTORE PUSH1 0x84 ADD PUSH2 0x34B JUMP JUMPDEST PUSH2 0x285 DUP3 DUP7 DUP7 DUP5 SUB PUSH2 0x4B6 JUMP JUMPDEST PUSH1 0x0 CALLER PUSH2 0x260 DUP2 DUP6 DUP6 PUSH2 0x64F JUMP JUMPDEST PUSH1 0x1 PUSH1 0x1 PUSH1 0xA0 SHL SUB SWAP2 DUP3 AND PUSH1 0x0 SWAP1 DUP2 MSTORE PUSH1 0x2 PUSH1 0x20 SWAP1 DUP2 MSTORE PUSH1 0x40 DUP1 DUP4 KECCAK256 SWAP4 SWAP1 SWAP5 AND DUP3 MSTORE SWAP2 SWAP1 SWAP2 MSTORE KECCAK256 SLOAD SWAP1 JUMP JUMPDEST PUSH1 0x1 PUSH1 0x1 PUSH1 0xA0 SHL SUB DUP4 AND PUSH2 0x518 JUMPI PUSH1 0x40 MLOAD PUSH3 0x461BCD PUSH1 0xE5 SHL DUP2 MSTORE PUSH1 0x20 PUSH1 0x4 DUP3 ADD MSTORE PUSH1 0x24 DUP1 DUP3 ADD MSTORE PUSH32 0x45524332303A20617070726F76652066726F6D20746865207A65726F20616464 PUSH1 0x44 DUP3 ADD MSTORE PUSH4 0x72657373 PUSH1 0xE0 SHL PUSH1 0x64 DUP3 ADD MSTORE PUSH1 0x84 ADD PUSH2 0x34B JUMP JUMPDEST PUSH1 0x1 PUSH1 0x1 PUSH1 0xA0 SHL SUB DUP3 AND PUSH2 0x579 JUMPI PUSH1 0x40 MLOAD PUSH3 0x461BCD PUSH1 0xE5 SHL DUP2 MSTORE PUSH1 0x20 PUSH1 0x4 DUP3 ADD MSTORE PUSH1 0x22 PUSH1 0x24 DUP3 ADD MSTORE PUSH32 0x45524332303A20617070726F766520746F20746865207A65726F206164647265 PUSH1 0x44 DUP3 ADD MSTORE PUSH2 0x7373 PUSH1 0xF0 SHL PUSH1 0x64 DUP3 ADD MSTORE PUSH1 0x84 ADD PUSH2 0x34B JUMP JUMPDEST PUSH1 0x1 PUSH1 0x1 PUSH1 0xA0 SHL SUB DUP4 DUP2 AND PUSH1 0x0 DUP2 DUP2 MSTORE PUSH1 0x2 PUSH1 0x20 SWAP1 DUP2 MSTORE PUSH1 0x40 DUP1 DUP4 KECCAK256 SWAP5 DUP8 AND DUP1 DUP5 MSTORE SWAP5 DUP3 MSTORE SWAP2 DUP3 SWAP1 KECCAK256 DUP6 SWAP1 SSTORE SWAP1 MLOAD DUP5 DUP2 MSTORE PUSH32 0x8C5BE1E5EBEC7D5BD14F71427D1E84F3DD0314C0F7B2291E5B200AC8C7C3B925 SWAP2 ADD JUMPDEST PUSH1 0x40 MLOAD DUP1 SWAP2 SUB SWAP1 LOG3 POP POP POP JUMP JUMPDEST PUSH1 0x0 PUSH2 0x5E7 DUP5 DUP5 PUSH2 0x48B JUMP JUMPDEST SWAP1 POP PUSH1 0x0 NOT DUP2 EQ PUSH2 0x3ED JUMPI DUP2 DUP2 LT ISZERO PUSH2 0x642 JUMPI PUSH1 0x40 MLOAD PUSH3 0x461BCD PUSH1 0xE5 SHL DUP2 MSTORE PUSH1 0x20 PUSH1 0x4 DUP3 ADD MSTORE PUSH1 0x1D PUSH1 0x24 DUP3 ADD MSTORE PUSH32 0x45524332303A20696E73756666696369656E7420616C6C6F77616E6365000000 PUSH1 0x44 DUP3 ADD MSTORE PUSH1 0x64 ADD PUSH2 0x34B JUMP JUMPDEST PUSH2 0x3ED DUP5 DUP5 DUP5 DUP5 SUB PUSH2 0x4B6 JUMP JUMPDEST PUSH1 0x1 PUSH1 0x1 PUSH1 0xA0 SHL SUB DUP4 AND PUSH2 0x6B3 JUMPI PUSH1 0x40 MLOAD PUSH3 0x461BCD PUSH1 0xE5 SHL DUP2 MSTORE PUSH1 0x20 PUSH1 0x4 DUP3 ADD MSTORE PUSH1 0x25 PUSH1 0x24 DUP3 ADD MSTORE PUSH32 0x45524332303A207472616E736665722066726F6D20746865207A65726F206164 PUSH1 0x44 DUP3 ADD MSTORE PUSH5 0x6472657373 PUSH1 0xD8 SHL PUSH1 0x64 DUP3 ADD MSTORE PUSH1 0x84 ADD PUSH2 0x34B JUMP JUMPDEST PUSH1 0x1 PUSH1 0x1 PUSH1 0xA0 SHL SUB DUP3 AND PUSH2 0x715 JUMPI PUSH1 0x40 MLOAD PUSH3 0x461BCD PUSH1 0xE5 SHL DUP2 MSTORE PUSH1 0x20 PUSH1 0x4 DUP3 ADD MSTORE PUSH1 0x23 PUSH1 0x24 DUP3 ADD MSTORE PUSH32 0x45524332303A207472616E7366657220746F20746865207A65726F2061646472 PUSH1 0x44 DUP3 ADD MSTORE PUSH3 0x657373 PUSH1 0xE8 SHL PUSH1 0x64 DUP3 ADD MSTORE PUSH1 0x84 ADD PUSH2 0x34B JUMP JUMPDEST PUSH2 0x720 DUP4 DUP4 DUP4 PUSH2 0x78B JUMP JUMPDEST POP POP POP JUMP JUMPDEST PUSH1 0x1 PUSH1 0x1 PUSH1 0xA0 SHL SUB DUP3 AND PUSH2 0x77B JUMPI PUSH1 0x40 MLOAD PUSH3 0x461BCD PUSH1 0xE5 SHL DUP2 MSTORE PUSH1 0x20 PUSH1 0x4 DUP3 ADD MSTORE PUSH1 0x1F PUSH1 0x24 DUP3 ADD MSTORE PUSH32 0x45524332303A206D696E7420746F20746865207A65726F206164647265737300 PUSH1 0x44 DUP3 ADD MSTORE PUSH1 0x64 ADD PUSH2 0x34B JUMP JUMPDEST PUSH2 0x787 PUSH1 0x0 DUP4 DUP4 PUSH2 0x78B JUMP JUMPDEST POP POP JUMP JUMPDEST PUSH1 0x1 PUSH1 0x1 PUSH1 0xA0 SHL SUB DUP4 AND PUSH2 0x7B6 JUMPI DUP1 PUSH1 0x3 PUSH1 0x0 DUP3 DUP3 SLOAD PUSH2 0x7AB SWAP2 SWAP1 PUSH2 0xB43 JUMP JUMPDEST SWAP1 SWAP2 SSTORE POP PUSH2 0x84D SWAP1 POP JUMP JUMPDEST PUSH1 0x1 PUSH1 0x1 PUSH1 0xA0 SHL SUB DUP4 AND PUSH1 0x0 SWAP1 DUP2 MSTORE PUSH1 0x1 PUSH1 0x20 MSTORE PUSH1 0x40 SWAP1 KECCAK256 SLOAD DUP2 DUP2 LT ISZERO PUSH2 0x82E JUMPI PUSH1 0x40 MLOAD PUSH3 0x461BCD PUSH1 0xE5 SHL DUP2 MSTORE PUSH1 0x20 PUSH1 0x4 DUP3 ADD MSTORE PUSH1 0x26 PUSH1 0x24 DUP3 ADD MSTORE PUSH32 0x45524332303A207472616E7366657220616D6F756E7420657863656564732062 PUSH1 0x44 DUP3 ADD MSTORE PUSH6 0x616C616E6365 PUSH1 0xD0 SHL PUSH1 0x64 DUP3 ADD MSTORE PUSH1 0x84 ADD PUSH2 0x34B JUMP JUMPDEST PUSH1 0x1 PUSH1 0x1 PUSH1 0xA0 SHL SUB DUP5 AND PUSH1 0x0 SWAP1 DUP2 MSTORE PUSH1 0x1 PUSH1 0x20 MSTORE PUSH1 0x40 SWAP1 KECCAK256 SWAP1 DUP3 SWAP1 SUB SWAP1 SSTORE JUMPDEST PUSH1 0x1 PUSH1 0x1 PUSH1 0xA0 SHL SUB DUP3 AND PUSH2 0x869 JUMPI PUSH1 0x3 DUP1 SLOAD DUP3 SWAP1 SUB SWAP1 SSTORE PUSH2 0x888 JUMP JUMPDEST PUSH1 0x1 PUSH1 0x1 PUSH1 0xA0 SHL SUB DUP3 AND PUSH1 0x0 SWAP1 DUP2 MSTORE PUSH1 0x1 PUSH1 0x20 MSTORE PUSH1 0x40 SWAP1 KECCAK256 DUP1 SLOAD DUP3 ADD SWAP1 SSTORE JUMPDEST DUP2 PUSH1 0x1 PUSH1 0x1 PUSH1 0xA0 SHL SUB AND DUP4 PUSH1 0x1 PUSH1 0x1 PUSH1 0xA0 SHL SUB AND PUSH32 0xDDF252AD1BE2C89B69C2B068FC378DAA952BA7F163C4A11628F55A4DF523B3EF DUP4 PUSH1 0x40 MLOAD PUSH2 0x5CE SWAP2 DUP2 MSTORE PUSH1 0x20 ADD SWAP1 JUMP JUMPDEST PUSH1 0x0 PUSH1 0x20 DUP1 DUP4 MSTORE DUP4 MLOAD DUP1 DUP3 DUP6 ADD MSTORE PUSH1 0x0 JUMPDEST DUP2 DUP2 LT ISZERO PUSH2 0x8FA JUMPI DUP6 DUP2 ADD DUP4 ADD MLOAD DUP6 DUP3 ADD PUSH1 0x40 ADD MSTORE DUP3 ADD PUSH2 0x8DE JUMP JUMPDEST POP PUSH1 0x0 PUSH1 0x40 DUP3 DUP7 ADD ADD MSTORE PUSH1 0x40 PUSH1 0x1F NOT PUSH1 0x1F DUP4 ADD AND DUP6 ADD ADD SWAP3 POP POP POP SWAP3 SWAP2 POP POP JUMP JUMPDEST DUP1 CALLDATALOAD PUSH1 0x1 PUSH1 0x1 PUSH1 0xA0 SHL SUB DUP2 AND DUP2 EQ PUSH2 0x932 JUMPI PUSH1 0x0 DUP1 REVERT JUMPDEST SWAP2 SWAP1 POP JUMP JUMPDEST PUSH1 0x0 DUP1 PUSH1 0x40 DUP4 DUP6 SUB SLT ISZERO PUSH2 0x94A JUMPI PUSH1 0x0 DUP1 REVERT JUMPDEST PUSH2 0x953 DUP4 PUSH2 0x91B JUMP JUMPDEST SWAP5 PUSH1 0x20 SWAP4 SWAP1 SWAP4 ADD CALLDATALOAD SWAP4 POP POP POP JUMP JUMPDEST PUSH1 0x0 DUP1 PUSH1 0x0 PUSH1 0x60 DUP5 DUP7 SUB SLT ISZERO PUSH2 0x976 JUMPI PUSH1 0x0 DUP1 REVERT JUMPDEST PUSH2 0x97F DUP5 PUSH2 0x91B JUMP JUMPDEST SWAP3 POP PUSH2 0x98D PUSH1 0x20 DUP6 ADD PUSH2 0x91B JUMP JUMPDEST SWAP2 POP PUSH1 0x40 DUP5 ADD CALLDATALOAD SWAP1 POP SWAP3 POP SWAP3 POP SWAP3 JUMP JUMPDEST PUSH1 0x0 PUSH1 0x20 DUP3 DUP5 SUB SLT ISZERO PUSH2 0x9AF JUMPI PUSH1 0x0 DUP1 REVERT JUMPDEST PUSH2 0x9B8 DUP3 PUSH2 0x91B JUMP JUMPDEST SWAP4 SWAP3 POP POP POP JUMP JUMPDEST PUSH4 0x4E487B71 PUSH1 0xE0 SHL PUSH1 0x0 MSTORE PUSH1 0x41 PUSH1 0x4 MSTORE PUSH1 0x24 PUSH1 0x0 REVERT JUMPDEST PUSH1 0x0 DUP3 PUSH1 0x1F DUP4 ADD SLT PUSH2 0x9E6 JUMPI PUSH1 0x0 DUP1 REVERT JUMPDEST DUP2 CALLDATALOAD PUSH8 0xFFFFFFFFFFFFFFFF DUP1 DUP3 GT ISZERO PUSH2 0xA01 JUMPI PUSH2 0xA01 PUSH2 0x9BF JUMP JUMPDEST PUSH1 0x40 MLOAD PUSH1 0x1F DUP4 ADD PUSH1 0x1F NOT SWAP1 DUP2 AND PUSH1 0x3F ADD AND DUP2 ADD SWAP1 DUP3 DUP3 GT DUP2 DUP4 LT OR ISZERO PUSH2 0xA29 JUMPI PUSH2 0xA29 PUSH2 0x9BF JUMP JUMPDEST DUP2 PUSH1 0x40 MSTORE DUP4 DUP2 MSTORE DUP7 PUSH1 0x20 DUP6 DUP9 ADD ADD GT ISZERO PUSH2 0xA42 JUMPI PUSH1 0x0 DUP1 REVERT JUMPDEST DUP4 PUSH1 0x20 DUP8 ADD PUSH1 0x20 DUP4 ADD CALLDATACOPY PUSH1 0x0 PUSH1 0x20 DUP6 DUP4 ADD ADD MSTORE DUP1 SWAP5 POP POP POP POP POP SWAP3 SWAP2 POP POP JUMP JUMPDEST PUSH1 0x0 DUP1 PUSH1 0x0 PUSH1 0x60 DUP5 DUP7 SUB SLT ISZERO PUSH2 0xA77 JUMPI PUSH1 0x0 DUP1 REVERT JUMPDEST PUSH2 0xA80 DUP5 PUSH2 0x91B JUMP JUMPDEST SWAP3 POP PUSH1 0x20 DUP5 ADD CALLDATALOAD PUSH8 0xFFFFFFFFFFFFFFFF DUP1 DUP3 GT ISZERO PUSH2 0xA9D JUMPI PUSH1 0x0 DUP1 REVERT JUMPDEST PUSH2 0xAA9 DUP8 DUP4 DUP9 ADD PUSH2 0x9D5 JUMP JUMPDEST SWAP4 POP PUSH1 0x40 DUP7 ADD CALLDATALOAD SWAP2 POP DUP1 DUP3 GT ISZERO PUSH2 0xABF JUMPI PUSH1 0x0 DUP1 REVERT JUMPDEST POP PUSH2 0xACC DUP7 DUP3 DUP8 ADD PUSH2 0x9D5 JUMP JUMPDEST SWAP2 POP POP SWAP3 POP SWAP3 POP SWAP3 JUMP JUMPDEST PUSH1 0x0 DUP1 PUSH1 0x40 DUP4 DUP6 SUB SLT ISZERO PUSH2 0xAE9 JUMPI PUSH1 0x0 DUP1 REVERT JUMPDEST PUSH2 0xAF2 DUP4 PUSH2 0x91B JUMP JUMPDEST SWAP2 POP PUSH2 0xB00 PUSH1 0x20 DUP5 ADD PUSH2 0x91B JUMP JUMPDEST SWAP1 POP SWAP3 POP SWAP3 SWAP1 POP JUMP JUMPDEST PUSH1 0x1 DUP2 DUP2 SHR SWAP1 DUP3 AND DUP1 PUSH2 0xB1D JUMPI PUSH1 0x7F DUP3 AND SWAP2 POP JUMPDEST PUSH1 0x20 DUP3 LT DUP2 SUB PUSH2 0xB3D JUMPI PUSH4 0x4E487B71 PUSH1 0xE0 SHL PUSH1 0x0 MSTORE PUSH1 0x22 PUSH1 0x4 MSTORE PUSH1 0x24 PUSH1 0x0 REVERT JUMPDEST POP SWAP2 SWAP1 POP JUMP JUMPDEST DUP1 DUP3 ADD DUP1 DUP3 GT ISZERO PUSH2 0x266 JUMPI PUSH4 0x4E487B71 PUSH1 0xE0 SHL PUSH1 0x0 MSTORE PUSH1 0x11 PUSH1 0x4 MSTORE PUSH1 0x24 PUSH1 0x0 REVERT JUMPDEST PUSH1 0x1F DUP3 GT ISZERO PUSH2 0x720 JUMPI PUSH1 0x0 DUP2 DUP2 MSTORE PUSH1 0x20 DUP2 KECCAK256 PUSH1 0x1F DUP6 ADD PUSH1 0x5 SHR DUP2 ADD PUSH1 0x20 DUP7 LT ISZERO PUSH2 0xB8B JUMPI POP DUP1 JUMPDEST PUSH1 0x1F DUP6 ADD PUSH1 0x5 SHR DUP3 ADD SWAP2 POP JUMPDEST DUP2 DUP2 LT ISZERO PUSH2 0xBAA JUMPI DUP3 DUP2 SSTORE PUSH1 0x1 ADD PUSH2 0xB97 JUMP JUMPDEST POP POP POP POP POP POP JUMP JUMPDEST DUP2 MLOAD PUSH8 0xFFFFFFFFFFFFFFFF DUP2 GT ISZERO PUSH2 0xBCC JUMPI PUSH2 0xBCC PUSH2 0x9BF JUMP JUMPDEST PUSH2 0xBE0 DUP2 PUSH2 0xBDA DUP5 SLOAD PUSH2 0xB09 JUMP JUMPDEST DUP5 PUSH2 0xB64 JUMP JUMPDEST PUSH1 0x20 DUP1 PUSH1 0x1F DUP4 GT PUSH1 0x1 DUP2 EQ PUSH2 0xC15 JUMPI PUSH1 0x0 DUP5 ISZERO PUSH2 0xBFD JUMPI POP DUP6 DUP4 ADD MLOAD JUMPDEST PUSH1 0x0 NOT PUSH1 0x3 DUP7 SWAP1 SHL SHR NOT AND PUSH1 0x1 DUP6 SWAP1 SHL OR DUP6 SSTORE PUSH2 0xBAA JUMP JUMPDEST PUSH1 0x0 DUP6 DUP2 MSTORE PUSH1 0x20 DUP2 KECCAK256 PUSH1 0x1F NOT DUP7 AND SWAP2 JUMPDEST DUP3 DUP2 LT ISZERO PUSH2 0xC44 JUMPI DUP9 DUP7 ADD MLOAD DUP3 SSTORE SWAP5 DUP5 ADD SWAP5 PUSH1 0x1 SWAP1 SWAP2 ADD SWAP1 DUP5 ADD PUSH2 0xC25 JUMP JUMPDEST POP DUP6 DUP3 LT ISZERO PUSH2 0xC62 JUMPI DUP8 DUP6 ADD MLOAD PUSH1 0x0 NOT PUSH1 0x3 DUP9 SWAP1 SHL PUSH1 0xF8 AND SHR NOT AND DUP2 SSTORE JUMPDEST POP POP POP POP POP PUSH1 0x1 SWAP1 DUP2 SHL ADD SWAP1 SSTORE POP JUMP INVALID LOG2 PUSH5 0x6970667358 0x22 SLT KECCAK256 0xF6 PUSH1 0xA9 DUP13 0xD3 PUSH13 0xFA4AF05644371C14C1AD2F80C3 SWAP11 0xCD PUSH13 0x84C3D58F53FC6A4675AB64736F PUSH13 0x63430008120033000000000000 "
				},
				"gasEstimates": {
					"creation": {
						"codeDepositCost": "648000",
						"executionCost": "683",
						"totalCost": "648683"
					},
					"external": {
						"allowance(address,address)": "infinite",
						"approve(address,uint256)": "24629",
						"balanceOf(address)": "2537",
						"decimals()": "266",
						"decreaseAllowance(address,uint256)": "27017",
						"increaseAllowance(address,uint256)": "infinite",
						"initialize(address,string,string)": "infinite",
						"name()": "infinite",
						"symbol()": "infinite",
						"totalSupply()": "2326",
						"transfer(address,uint256)": "51301",
						"transferFrom(address,address,uint256)": "infinite"
					},
					"internal": {
						"_approve(address,address,uint256)": "infinite",
						"_burn(address,uint256)": "infinite",
						"_mint(address,uint256)": "infinite",
						"_spendAllowance(address,address,uint256)": "infinite",
						"_transfer(address,address,uint256)": "infinite",
						"_update(address,address,uint256)": "infinite"
					}
				},
				"methodIdentifiers": {
					"allowance(address,address)": "dd62ed3e",
					"approve(address,uint256)": "095ea7b3",
					"balanceOf(address)": "70a08231",
					"decimals()": "313ce567",
					"decreaseAllowance(address,uint256)": "a457c2d7",
					"increaseAllowance(address,uint256)": "39509351",
					"initialize(address,string,string)": "90657147",
					"name()": "06fdde03",
					"symbol()": "95d89b41",
					"totalSupply()": "18160ddd",
					"transfer(address,uint256)": "a9059cbb",
					"transferFrom(address,address,uint256)": "23b872dd"
				}
			},
			"storageLayout": {
				"storage": [
					{
						"astId": 6,
						"contract": "src/ERC20Initializable.sol:ERC20Initializable",
						"label": "_initialized",
						"offset": 0,
						"slot": "0",
						"type": "t_uint8"
					},
					{
						"astId": 9,
						"contract": "src/ERC20Initializable.sol:ERC20Initializable",
						"label": "_initializing",
						"offset": 1,
						"slot": "0",
						"type": "t_bool"
					},
					{
						"astId": 642,
						"contract": "src/ERC20Initializable.sol:ERC20Initializable",
						"label": "_balances",
						"offset": 0,
						"slot": "1",
						"type": "t_mapping(t_address,t_uint256)"
					},
					{
						"astId": 648,
						"contract": "src/ERC20Initializable.sol:ERC20Initializable",
						"label": "_allowances",
						"offset": 0,
						"slot": "2",
						"type": "t_mapping(t_address,t_mapping(t_address,t_uint256))"
					},
					{
						"astId": 650,
						"contract": "src/ERC20Initializable.sol:ERC20Initializable",
						"label": "_totalSupply",
						"offset": 0,
						"slot": "3",
						"type": "t_uint256"
					},
					{
						"astId": 652,
						"contract": "src/ERC20Initializable.sol:ERC20Initializable",
						"label": "_name",
						"offset": 0,
						"slot": "4",
						"type": "t_string_storage"
					},
					{
						"astId": 654,
						"contract": "src/ERC20Initializable.sol:ERC20Initializable",
						"label": "_symbol",
						"offset": 0,
						"slot": "5",
						"type": "t_string_storage"
					}
				],
				"types": {
					"t_address": {
						"encoding": "inplace",
						"label": "address",
						"numberOfBytes": "20"
					},
					"t_bool": {
						"encoding": "inplace",
						"label": "bool",
						"numberOfBytes": "1"
					},
					"t_mapping(t_address,t_mapping(t_address,t_uint256))": {
						"encoding": "mapping",
						"key": "t_address",
						"label": "mapping(address => mapping(address => uint256))",
						"numberOfBytes": "32",
						"value": "t_mapping(t_address,t_uint256)"
					},
					"t_mapping(t_address,t_uint256)": {
						"encoding": "mapping",
						"key": "t_address",
						"label": "mapping(address => uint256)",
						"numberOfBytes": "32",
						"value": "t_uint256"
					},
					"t_string_storage": {
						"encoding": "bytes",
						"label": "string",
						"numberOfBytes": "32"
					},
					"t_uint256": {
						"encoding": "inplace",
						"label": "uint256",
						"numberOfBytes": "32"
					},
					"t_uint8": {
						"encoding": "inplace",
						"label": "uint8",
						"numberOfBytes": "1"
					}
				}
			},
			"userdoc": {
				"kind": "user",
				"methods": {},
				"version": 1
			}
		}
	}
}