{
	"src/ERC20Factory.sol": {
		"ERC20Factory": {
			"abi": [
				{
					"inputs": [
						{
							"internalType": "address",
							"name": "_masterToken",
							"type": "address"
						}
					],
					"stateMutability": "nonpayable",
					"type": "constructor"
				},
				{
					"anonymous": false,
					"inputs": [
						{
							"indexed": true,
							"internalType": "address",
							"name": "creator",
							"type": "address"
						},
						{
							"indexed": true,
							"internalType": "address",
							"name": "token",
							"type": "address"
						}
					],
					"name": "TokenDeployed",
					"type": "event"
				},
				{
					"inputs": [
						{
							"internalType": "string",
							"name": "name",
							"type": "string"
						},
						{
							"internalType": "string",
							"name": "symbol",
							"type": "string"
						}
					],
					"name": "deployToken",
					"outputs": [
						{
							"internalType": "address",
							"name": "",
							"type": "address"
						}
					],
					"stateMutability": "nonpayable",
					"type": "function"
				},
				{
					"inputs": [],
					"name": "masterToken",
					"outputs": [
						{
							"internalType": "address",
							"name": "",
							"type": "address"
						}
					],
					"stateMutability": "view",
					"type": "function"
				}
			],
			"devdoc": {
				"kind": "dev",
				"methods": {},
				"version": 1
			},
			"evm": {
				"assembly": "    /* \"src/ERC20Factory.sol\":202:750  contract ERC20Factory {... */\n  mstore(0x40, 0x80)\n    /* \"src/ERC20Factory.sol\":338:415  constructor(address _masterToken) {... */\n  callvalue\n  dup1\n  iszero\n  tag_1\n  jumpi\n  0x00\n  dup1\n  revert\ntag_1:\n  pop\n  mload(0x40)\n  sub(codesize, bytecodeSize)\n  dup1\n  bytecodeSize\n  dup4\n  codecopy\n  dup2\n  add\n  0x40\n  dup2\n  swap1\n  mstore\n  tag_2\n  swap2\n  tag_3\n  jump\t// in\ntag_2:\n    /* \"src/ERC20Factory.sol\":382:393  masterToken */\n  0x00\n    /* \"src/ERC20Factory.sol\":382:408  masterToken = _masterToken */\n  dup1\n  sload\n  not(sub(shl(0xa0, 0x01), 0x01))\n  and\n  sub(shl(0xa0, 0x01), 0x01)\n  swap3\n  swap1\n  swap3\n  and\n  swap2\n  swap1\n  swap2\n  or\n  swap1\n  sstore\n    /* \"src/ERC20Factory.sol\":202:750  contract ERC20Factory {... */\n  jump(tag_7)\n    /* \"#utility.yul\":14:304   */\ntag_3:\n    /* \"#utility.yul\":84:90   */\n  0x00\n    /* \"#utility.yul\":137:139   */\n  0x20\n    /* \"#utility.yul\":125:134   */\n  dup3\n    /* \"#utility.yul\":116:123   */\n  dup5\n    /* \"#utility.yul\":112:135   */\n  sub\n    /* \"#utility.yul\":108:140   */\n  slt\n    /* \"#utility.yul\":105:157   */\n  iszero\n  tag_9\n  jumpi\n    /* \"#utility.yul\":153:154   */\n  0x00\n    /* \"#utility.yul\":150:151   */\n  dup1\n    /* \"#utility.yul\":143:155   */\n  revert\n    /* \"#utility.yul\":105:157   */\ntag_9:\n    /* \"#utility.yul\":179:195   */\n  dup2\n  mload\n  sub(shl(0xa0, 0x01), 0x01)\n    /* \"#utility.yul\":224:255   */\n  dup2\n  and\n    /* \"#utility.yul\":214:256   */\n  dup2\n  eq\n    /* \"#utility.yul\":204:274   */\n  tag_10\n  jumpi\n    /* \"#utility.yul\":270:271   */\n  0x00\n    /* \"#utility.yul\":267:268   */\n  dup1\n    /* \"#utility.yul\":260:272   */\n  revert\n    /* \"#utility.yul\":204:274   */\ntag_10:\n    /* \"#utility.yul\":293:298   */\n  swap4\n    /* \"#utility.yul\":14:304   */\n  swap3\n  pop\n  pop\n  pop\n  jump\t// out\ntag_7:\n    /* \"src/ERC20Factory.sol\":202:750  contract ERC20Factory {... */\n  dataSize(sub_0)\n  dup1\n  dataOffset(sub_0)\n  0x00\n  codecopy\n  0x00\n  return\nstop\n\nsub_0: assembly {\n        /* \"src/ERC20Factory.sol\":202:750  contract ERC20Factory {... */\n      mstore(0x40, 0x80)\n      callvalue\n      dup1\n      iszero\n      tag_1\n      jumpi\n      0x00\n      dup1\n      revert\n    tag_1:\n      pop\n      jumpi(tag_2, lt(calldatasize, 0x04))\n      shr(0xe0, calldataload(0x00))\n      dup1\n      0x1d12b938\n      eq\n      tag_3\n      jumpi\n      dup1\n      0x2bb5e31e\n      eq\n      tag_4\n      jumpi\n    tag_2:\n      0x00\n      dup1\n      revert\n        /* \"src/ERC20Factory.sol\":421:748  function deployToken(string calldata name, string calldata symbol) external returns (address) {... */\n    tag_3:\n      tag_5\n      tag_6\n      calldatasize\n      0x04\n      tag_7\n      jump\t// in\n    tag_6:\n      tag_8\n      jump\t// in\n    tag_5:\n      mload(0x40)\n      sub(shl(0xa0, 0x01), 0x01)\n        /* \"#utility.yul\":1257:1289   */\n      swap1\n      swap2\n      and\n        /* \"#utility.yul\":1239:1290   */\n      dup2\n      mstore\n        /* \"#utility.yul\":1227:1229   */\n      0x20\n        /* \"#utility.yul\":1212:1230   */\n      add\n        /* \"src/ERC20Factory.sol\":421:748  function deployToken(string calldata name, string calldata symbol) external returns (address) {... */\n      mload(0x40)\n      dup1\n      swap2\n      sub\n      swap1\n      return\n        /* \"src/ERC20Factory.sol\":231:257  address public masterToken */\n    tag_4:\n      sload(0x00)\n      tag_5\n      swap1\n      sub(shl(0xa0, 0x01), 0x01)\n      and\n      dup2\n      jump\n        /* \"src/ERC20Factory.sol\":421:748  function deployToken(string calldata name, string calldata symbol) external returns (address) {... */\n    tag_8:\n        /* \"src/ERC20Factory.sol\":506:513  address */\n      0x00\n        /* \"src/ERC20Factory.sol\":585:596  masterToken */\n      dup1\n      sload\n        /* \"src/ERC20Factory.sol\":506:513  address */\n      dup2\n      swap1\n        /* \"src/ERC20Factory.sol\":572:597  Clones.clone(masterToken) */\n      tag_15\n      swap1\n      sub(shl(0xa0, 0x01), 0x01)\n        /* \"src/ERC20Factory.sol\":585:596  masterToken */\n      and\n        /* \"src/ERC20Factory.sol\":572:584  Clones.clone */\n      tag_16\n        /* \"src/ERC20Factory.sol\":572:597  Clones.clone(masterToken) */\n      jump\t// in\n    tag_15:\n        /* \"src/ERC20Factory.sol\":608:651  _token.initialize(msg.sender, name, symbol) */\n      mload(0x40)\n      shl(0xe0, 0x90657147)\n      dup2\n      mstore\n        /* \"src/ERC20Factory.sol\":525:598  ERC20Initializable _token = ERC20Initializable(Clones.clone(masterToken)) */\n      swap1\n      swap2\n      pop\n      sub(shl(0xa0, 0x01), 0x01)\n        /* \"src/ERC20Factory.sol\":608:625  _token.initialize */\n      dup3\n      and\n      swap1\n      0x90657147\n      swap1\n        /* \"src/ERC20Factory.sol\":608:651  _token.initialize(msg.sender, name, symbol) */\n      tag_17\n      swap1\n        /* \"src/ERC20Factory.sol\":626:636  msg.sender */\n      caller\n      swap1\n        /* \"src/ERC20Factory.sol\":638:642  name */\n      dup11\n      swap1\n      dup11\n      swap1\n        /* \"src/ERC20Factory.sol\":644:650  symbol */\n      dup11\n      swap1\n      dup11\n      swap1\n        /* \"src/ERC20Factory.sol\":608:651  _token.initialize(msg.sender, name, symbol) */\n      0x04\n      add\n      tag_18\n      jump\t// in\n    tag_17:\n      0x00\n      mload(0x40)\n      dup1\n      dup4\n      sub\n      dup2\n      0x00\n      dup8\n      dup1\n      extcodesize\n      iszero\n      dup1\n      iszero\n      tag_19\n      jumpi\n      0x00\n      dup1\n      revert\n    tag_19:\n      pop\n      gas\n      call\n      iszero\n      dup1\n      iszero\n      tag_21\n      jumpi\n      returndatasize\n      0x00\n      dup1\n      returndatacopy\n      revert(0x00, returndatasize)\n    tag_21:\n      pop\n      pop\n        /* \"src/ERC20Factory.sol\":666:708  TokenDeployed(msg.sender, address(_token)) */\n      mload(0x40)\n      sub(shl(0xa0, 0x01), 0x01)\n      dup5\n      and\n      swap3\n      pop\n        /* \"src/ERC20Factory.sol\":680:690  msg.sender */\n      caller\n      swap2\n      pop\n        /* \"src/ERC20Factory.sol\":666:708  TokenDeployed(msg.sender, address(_token)) */\n      0xf9a44e6db3fb6e0eb31c4013bda8c662fecef1768dd2412270cc8f8821cbccf3\n      swap1\n      0x00\n      swap1\n      log3\n        /* \"src/ERC20Factory.sol\":734:740  _token */\n      swap6\n        /* \"src/ERC20Factory.sol\":421:748  function deployToken(string calldata name, string calldata symbol) external returns (address) {... */\n      swap5\n      pop\n      pop\n      pop\n      pop\n      pop\n      jump\t// out\n        /* \"@openzeppelin/contracts/proxy/Clones.sol\":973:1732  function clone(address implementation) internal returns (address instance) {... */\n    tag_16:\n        /* \"@openzeppelin/contracts/proxy/Clones.sol\":1030:1046  address instance */\n      0x00\n        /* \"@openzeppelin/contracts/proxy/Clones.sol\":1362:1410  0x3d602d80600a3d3981f3363d3d373d3d3d363d73000000 */\n      0x3d602d80600a3d3981f3363d3d373d3d3d363d73000000\n        /* \"@openzeppelin/contracts/proxy/Clones.sol\":1344:1358  implementation */\n      dup3\n        /* \"@openzeppelin/contracts/proxy/Clones.sol\":1338:1342  0x60 */\n      0x60\n        /* \"@openzeppelin/contracts/proxy/Clones.sol\":1334:1359  shl(0x60, implementation) */\n      shl\n        /* \"@openzeppelin/contracts/proxy/Clones.sol\":1328:1332  0xe8 */\n      0xe8\n        /* \"@openzeppelin/contracts/proxy/Clones.sol\":1324:1360  shr(0xe8, shl(0x60, implementation)) */\n      shr\n        /* \"@openzeppelin/contracts/proxy/Clones.sol\":1321:1411  or(shr(0xe8, shl(0x60, implementation)), 0x3d602d80600a3d3981f3363d3d373d3d3d363d73000000) */\n      or\n        /* \"@openzeppelin/contracts/proxy/Clones.sol\":1315:1319  0x00 */\n      0x00\n        /* \"@openzeppelin/contracts/proxy/Clones.sol\":1308:1412  mstore(0x00, or(shr(0xe8, shl(0x60, implementation)), 0x3d602d80600a3d3981f3363d3d373d3d3d363d73000000)) */\n      mstore\n        /* \"@openzeppelin/contracts/proxy/Clones.sol\":1569:1601  0x5af43d82803e903d91602b57fd5bf3 */\n      0x5af43d82803e903d91602b57fd5bf3\n        /* \"@openzeppelin/contracts/proxy/Clones.sol\":1552:1566  implementation */\n      dup3\n        /* \"@openzeppelin/contracts/proxy/Clones.sol\":1546:1550  0x78 */\n      0x78\n        /* \"@openzeppelin/contracts/proxy/Clones.sol\":1542:1567  shl(0x78, implementation) */\n      shl\n        /* \"@openzeppelin/contracts/proxy/Clones.sol\":1539:1602  or(shl(0x78, implementation), 0x5af43d82803e903d91602b57fd5bf3) */\n      or\n        /* \"@openzeppelin/contracts/proxy/Clones.sol\":1533:1537  0x20 */\n      0x20\n        /* \"@openzeppelin/contracts/proxy/Clones.sol\":1526:1603  mstore(0x20, or(shl(0x78, implementation), 0x5af43d82803e903d91602b57fd5bf3)) */\n      mstore\n        /* \"@openzeppelin/contracts/proxy/Clones.sol\":1644:1648  0x37 */\n      0x37\n        /* \"@openzeppelin/contracts/proxy/Clones.sol\":1638:1642  0x09 */\n      0x09\n        /* \"@openzeppelin/contracts/proxy/Clones.sol\":1635:1636  0 */\n      0x00\n        /* \"@openzeppelin/contracts/proxy/Clones.sol\":1628:1649  create(0, 0x09, 0x37) */\n      create\n        /* \"@openzeppelin/contracts/proxy/Clones.sol\":1616:1649  instance := create(0, 0x09, 0x37) */\n      swap1\n      pop\n      sub(shl(0xa0, 0x01), 0x01)\n        /* \"@openzeppelin/contracts/proxy/Clones.sol\":1676:1698  instance != address(0) */\n      dup2\n      and\n        /* \"@openzeppelin/contracts/proxy/Clones.sol\":1668:1725  require(instance != address(0), \"ERC1167: create failed\") */\n      tag_23\n      jumpi\n      mload(0x40)\n      shl(0xe5, 0x461bcd)\n      dup2\n      mstore\n        /* \"#utility.yul\":2314:2316   */\n      0x20\n        /* \"@openzeppelin/contracts/proxy/Clones.sol\":1668:1725  require(instance != address(0), \"ERC1167: create failed\") */\n      0x04\n      dup3\n      add\n        /* \"#utility.yul\":2296:2317   */\n      mstore\n        /* \"#utility.yul\":2353:2355   */\n      0x16\n        /* \"#utility.yul\":2333:2351   */\n      0x24\n      dup3\n      add\n        /* \"#utility.yul\":2326:2356   */\n      mstore\n      shl(0x52, 0x115490cc4c4d8dce8818dc99585d194819985a5b1959)\n        /* \"#utility.yul\":2372:2390   */\n      0x44\n      dup3\n      add\n        /* \"#utility.yul\":2365:2417   */\n      mstore\n        /* \"#utility.yul\":2434:2452   */\n      0x64\n      add\n        /* \"@openzeppelin/contracts/proxy/Clones.sol\":1668:1725  require(instance != address(0), \"ERC1167: create failed\") */\n      mload(0x40)\n      dup1\n      swap2\n      sub\n      swap1\n      revert\n    tag_23:\n        /* \"@openzeppelin/contracts/proxy/Clones.sol\":973:1732  function clone(address implementation) internal returns (address instance) {... */\n      swap2\n      swap1\n      pop\n      jump\t// out\n        /* \"#utility.yul\":14:362   */\n    tag_26:\n        /* \"#utility.yul\":66:74   */\n      0x00\n        /* \"#utility.yul\":76:82   */\n      dup1\n        /* \"#utility.yul\":130:133   */\n      dup4\n        /* \"#utility.yul\":123:127   */\n      0x1f\n        /* \"#utility.yul\":115:121   */\n      dup5\n        /* \"#utility.yul\":111:128   */\n      add\n        /* \"#utility.yul\":107:134   */\n      slt\n        /* \"#utility.yul\":97:152   */\n      tag_30\n      jumpi\n        /* \"#utility.yul\":148:149   */\n      0x00\n        /* \"#utility.yul\":145:146   */\n      dup1\n        /* \"#utility.yul\":138:150   */\n      revert\n        /* \"#utility.yul\":97:152   */\n    tag_30:\n      pop\n        /* \"#utility.yul\":171:191   */\n      dup2\n      calldataload\n        /* \"#utility.yul\":214:232   */\n      0xffffffffffffffff\n        /* \"#utility.yul\":203:233   */\n      dup2\n      gt\n        /* \"#utility.yul\":200:250   */\n      iszero\n      tag_31\n      jumpi\n        /* \"#utility.yul\":246:247   */\n      0x00\n        /* \"#utility.yul\":243:244   */\n      dup1\n        /* \"#utility.yul\":236:248   */\n      revert\n        /* \"#utility.yul\":200:250   */\n    tag_31:\n        /* \"#utility.yul\":283:287   */\n      0x20\n        /* \"#utility.yul\":275:281   */\n      dup4\n        /* \"#utility.yul\":271:288   */\n      add\n        /* \"#utility.yul\":259:288   */\n      swap2\n      pop\n        /* \"#utility.yul\":335:338   */\n      dup4\n        /* \"#utility.yul\":328:332   */\n      0x20\n        /* \"#utility.yul\":319:325   */\n      dup3\n        /* \"#utility.yul\":311:317   */\n      dup6\n        /* \"#utility.yul\":307:326   */\n      add\n        /* \"#utility.yul\":303:333   */\n      add\n        /* \"#utility.yul\":300:339   */\n      gt\n        /* \"#utility.yul\":297:356   */\n      iszero\n      tag_32\n      jumpi\n        /* \"#utility.yul\":352:353   */\n      0x00\n        /* \"#utility.yul\":349:350   */\n      dup1\n        /* \"#utility.yul\":342:354   */\n      revert\n        /* \"#utility.yul\":297:356   */\n    tag_32:\n        /* \"#utility.yul\":14:362   */\n      swap3\n      pop\n      swap3\n      swap1\n      pop\n      jump\t// out\n        /* \"#utility.yul\":367:1088   */\n    tag_7:\n        /* \"#utility.yul\":459:465   */\n      0x00\n        /* \"#utility.yul\":467:473   */\n      dup1\n        /* \"#utility.yul\":475:481   */\n      0x00\n        /* \"#utility.yul\":483:489   */\n      dup1\n        /* \"#utility.yul\":536:538   */\n      0x40\n        /* \"#utility.yul\":524:533   */\n      dup6\n        /* \"#utility.yul\":515:522   */\n      dup8\n        /* \"#utility.yul\":511:534   */\n      sub\n        /* \"#utility.yul\":507:539   */\n      slt\n        /* \"#utility.yul\":504:556   */\n      iszero\n      tag_34\n      jumpi\n        /* \"#utility.yul\":552:553   */\n      0x00\n        /* \"#utility.yul\":549:550   */\n      dup1\n        /* \"#utility.yul\":542:554   */\n      revert\n        /* \"#utility.yul\":504:556   */\n    tag_34:\n        /* \"#utility.yul\":592:601   */\n      dup5\n        /* \"#utility.yul\":579:602   */\n      calldataload\n        /* \"#utility.yul\":621:639   */\n      0xffffffffffffffff\n        /* \"#utility.yul\":662:664   */\n      dup1\n        /* \"#utility.yul\":654:660   */\n      dup3\n        /* \"#utility.yul\":651:665   */\n      gt\n        /* \"#utility.yul\":648:682   */\n      iszero\n      tag_35\n      jumpi\n        /* \"#utility.yul\":678:679   */\n      0x00\n        /* \"#utility.yul\":675:676   */\n      dup1\n        /* \"#utility.yul\":668:680   */\n      revert\n        /* \"#utility.yul\":648:682   */\n    tag_35:\n        /* \"#utility.yul\":717:776   */\n      tag_36\n        /* \"#utility.yul\":768:775   */\n      dup9\n        /* \"#utility.yul\":759:765   */\n      dup4\n        /* \"#utility.yul\":748:757   */\n      dup10\n        /* \"#utility.yul\":744:766   */\n      add\n        /* \"#utility.yul\":717:776   */\n      tag_26\n      jump\t// in\n    tag_36:\n        /* \"#utility.yul\":795:803   */\n      swap1\n      swap7\n      pop\n        /* \"#utility.yul\":691:776   */\n      swap5\n      pop\n        /* \"#utility.yul\":883:885   */\n      0x20\n        /* \"#utility.yul\":868:886   */\n      dup8\n      add\n        /* \"#utility.yul\":855:887   */\n      calldataload\n      swap2\n      pop\n        /* \"#utility.yul\":899:915   */\n      dup1\n      dup3\n      gt\n        /* \"#utility.yul\":896:932   */\n      iszero\n      tag_37\n      jumpi\n        /* \"#utility.yul\":928:929   */\n      0x00\n        /* \"#utility.yul\":925:926   */\n      dup1\n        /* \"#utility.yul\":918:930   */\n      revert\n        /* \"#utility.yul\":896:932   */\n    tag_37:\n      pop\n        /* \"#utility.yul\":967:1028   */\n      tag_38\n        /* \"#utility.yul\":1020:1027   */\n      dup8\n        /* \"#utility.yul\":1009:1017   */\n      dup3\n        /* \"#utility.yul\":998:1007   */\n      dup9\n        /* \"#utility.yul\":994:1018   */\n      add\n        /* \"#utility.yul\":967:1028   */\n      tag_26\n      jump\t// in\n    tag_38:\n        /* \"#utility.yul\":367:1088   */\n      swap6\n      swap9\n      swap5\n      swap8\n      pop\n        /* \"#utility.yul\":1047:1055   */\n      swap6\n      pop\n      pop\n      pop\n      pop\n        /* \"#utility.yul\":367:1088   */\n      jump\t// out\n        /* \"#utility.yul\":1301:1568   */\n    tag_27:\n        /* \"#utility.yul\":1390:1396   */\n      dup2\n        /* \"#utility.yul\":1385:1388   */\n      dup4\n        /* \"#utility.yul\":1378:1397   */\n      mstore\n        /* \"#utility.yul\":1442:1448   */\n      dup2\n        /* \"#utility.yul\":1435:1440   */\n      dup2\n        /* \"#utility.yul\":1428:1432   */\n      0x20\n        /* \"#utility.yul\":1423:1426   */\n      dup6\n        /* \"#utility.yul\":1419:1433   */\n      add\n        /* \"#utility.yul\":1406:1449   */\n      calldatacopy\n      pop\n        /* \"#utility.yul\":1494:1495   */\n      0x00\n        /* \"#utility.yul\":1469:1485   */\n      dup3\n      dup3\n      add\n        /* \"#utility.yul\":1487:1491   */\n      0x20\n        /* \"#utility.yul\":1465:1492   */\n      swap1\n      dup2\n      add\n        /* \"#utility.yul\":1458:1496   */\n      swap2\n      swap1\n      swap2\n      mstore\n        /* \"#utility.yul\":1550:1552   */\n      0x1f\n        /* \"#utility.yul\":1529:1544   */\n      swap1\n      swap2\n      add\n      not(0x1f)\n        /* \"#utility.yul\":1525:1554   */\n      and\n        /* \"#utility.yul\":1516:1555   */\n      swap1\n      swap2\n      add\n        /* \"#utility.yul\":1512:1562   */\n      add\n      swap1\n        /* \"#utility.yul\":1301:1568   */\n      jump\t// out\n        /* \"#utility.yul\":1573:2107   */\n    tag_18:\n      sub(shl(0xa0, 0x01), 0x01)\n        /* \"#utility.yul\":1818:1850   */\n      dup7\n      and\n        /* \"#utility.yul\":1800:1851   */\n      dup2\n      mstore\n        /* \"#utility.yul\":1887:1889   */\n      0x60\n        /* \"#utility.yul\":1882:1884   */\n      0x20\n        /* \"#utility.yul\":1867:1885   */\n      dup3\n      add\n        /* \"#utility.yul\":1860:1890   */\n      dup2\n      swap1\n      mstore\n      0x00\n      swap1\n        /* \"#utility.yul\":1913:1975   */\n      tag_42\n      swap1\n        /* \"#utility.yul\":1956:1974   */\n      dup4\n      add\n        /* \"#utility.yul\":1948:1954   */\n      dup7\n        /* \"#utility.yul\":1940:1946   */\n      dup9\n        /* \"#utility.yul\":1913:1975   */\n      tag_27\n      jump\t// in\n    tag_42:\n        /* \"#utility.yul\":2023:2032   */\n      dup3\n        /* \"#utility.yul\":2015:2021   */\n      dup2\n        /* \"#utility.yul\":2011:2033   */\n      sub\n        /* \"#utility.yul\":2006:2008   */\n      0x40\n        /* \"#utility.yul\":1995:2004   */\n      dup5\n        /* \"#utility.yul\":1991:2009   */\n      add\n        /* \"#utility.yul\":1984:2034   */\n      mstore\n        /* \"#utility.yul\":2051:2101   */\n      tag_43\n        /* \"#utility.yul\":2094:2100   */\n      dup2\n        /* \"#utility.yul\":2086:2092   */\n      dup6\n        /* \"#utility.yul\":2078:2084   */\n      dup8\n        /* \"#utility.yul\":2051:2101   */\n      tag_27\n      jump\t// in\n    tag_43:\n        /* \"#utility.yul\":2043:2101   */\n      swap9\n        /* \"#utility.yul\":1573:2107   */\n      swap8\n      pop\n      pop\n      pop\n      pop\n      pop\n      pop\n      pop\n      pop\n      jump\t// out\n\n    auxdata: 0xa26469706673582212209f9bb96afdce73e15cf61076f088fda12a788e510f8c614e3ef1e4abedb9102a64736f6c63430008120033\n}\n",
				"bytecode": {
					"linkReferences": {},
					"object": "608060405234801561001057600080fd5b506040516103c63803806103c683398101604081905261002f91610054565b600080546001600160a01b0319166001600160a01b0392909216919091179055610084565b60006020828403121561006657600080fd5b81516001600160a01b038116811461007d57600080fd5b9392505050565b610333806100936000396000f3fe608060405234801561001057600080fd5b50600436106100365760003560e01c80631d12b9381461003b5780632bb5e31e1461006a575b600080fd5b61004e610049366004610224565b61007d565b6040516001600160a01b03909116815260200160405180910390f35b60005461004e906001600160a01b031681565b600080548190610095906001600160a01b031661013d565b604051639065714760e01b81529091506001600160a01b038216906390657147906100cc9033908a908a908a908a906004016102b9565b600060405180830381600087803b1580156100e657600080fd5b505af11580156100fa573d6000803e3d6000fd5b50506040516001600160a01b03841692503391507ff9a44e6db3fb6e0eb31c4013bda8c662fecef1768dd2412270cc8f8821cbccf390600090a395945050505050565b6000763d602d80600a3d3981f3363d3d373d3d3d363d730000008260601b60e81c176000526e5af43d82803e903d91602b57fd5bf38260781b17602052603760096000f090506001600160a01b0381166101d65760405162461bcd60e51b8152602060048201526016602482015275115490cc4c4d8dce8818dc99585d194819985a5b195960521b604482015260640160405180910390fd5b919050565b60008083601f8401126101ed57600080fd5b50813567ffffffffffffffff81111561020557600080fd5b60208301915083602082850101111561021d57600080fd5b9250929050565b6000806000806040858703121561023a57600080fd5b843567ffffffffffffffff8082111561025257600080fd5b61025e888389016101db565b9096509450602087013591508082111561027757600080fd5b50610284878288016101db565b95989497509550505050565b81835281816020850137506000828201602090810191909152601f909101601f19169091010190565b6001600160a01b03861681526060602082018190526000906102de9083018688610290565b82810360408401526102f1818587610290565b9897505050505050505056fea26469706673582212209f9bb96afdce73e15cf61076f088fda12a788e510f8c614e3ef1e4abedb9102a64736f6c63430008120033",
					"opcodes": "PUSH1 0x80 PUSH1 0x40 MSTORE CALLVALUE DUP1 ISZERO PUSH2 0x10 JUMPI PUSH1 0x0 DUP1 REVERT JUMPDEST POP PUSH1 0x40 MLOAD PUSH2 0x3C6 CODESIZE SUB DUP1 PUSH2 0x3C6 DUP4 CODECOPY DUP2 ADD PUSH1 0x40 DUP2 SWAP1 MSTORE PUSH2 0x2F SWAP2 PUSH2 0x54 JUMP JUMPDEST PUSH1 0x0 DUP1 SLOAD PUSH1 0x1 PUSH1 0x1 PUSH1 0xA0 SHL SUB NOT AND PUSH1 0x1 PUSH1 0x1 PUSH1 0xA0 SHL SUB SWAP3 SWAP1 SWAP3 AND SWAP2 SWAP1 SWAP2 OR SWAP1 SSTORE PUSH2 0x84 JUMP JUMPDEST PUSH1 0x0 PUSH1 0x20 DUP3 DUP5 SUB SLT ISZERO PUSH2 0x66 JUMPI PUSH1 0x0 DUP1 REVERT JUMPDEST DUP2 MLOAD PUSH1 0x1 PUSH1 0x1 PUSH1 0xA0 SHL SUB DUP2 AND DUP2 EQ PUSH2 0x7D JUMPI PUSH1 0x0 DUP1 REVERT JUMPDEST SWAP4 SWAP3 POP POP POP JUMP JUMPDEST PUSH2 0x333 DUP1 PUSH2 0x93 PUSH1 0x0 CODECOPY PUSH1 0x0 RETURN INVALID PUSH1 0x80 PUSH1 0x40 MSTORE CALLVALUE DUP1 ISZERO PUSH2 0x10 JUMPI PUSH1 0x0 DUP1 REVERT JUMPDEST POP PUSH1 0x4 CALLDATASIZE LT PUSH2 0x36 JUMPI PUSH1 0x0 CALLDATALOAD PUSH1 0xE0 SHR DUP1 PUSH4 0x1D12B938 EQ PUSH2 0x3B JUMPI DUP1 PUSH4 0x2BB5E31E EQ PUSH2 0x6A JUMPI JUMPDEST PUSH1 0x0 DUP1 REVERT JUMPDEST PUSH2 0x4E PUSH2 0x49 CALLDATASIZE PUSH1 0x4 PUSH2 0x224 JUMP JUMPDEST PUSH2 0x7D JUMP JUMPDEST PUSH1 0x40 MLOAD PUSH1 0x1 PUSH1 0x1 PUSH1 0xA0 SHL SUB SWAP1 SWAP2 AND DUP2 MSTORE PUSH1 0x20 ADD PUSH1 0x40 MLOAD DUP1 SWAP2 SUB SWAP1 RETURN JUMPDEST PUSH1 0x0 SLOAD PUSH2 0x4E SWAP1 PUSH1 0x1 PUSH1 0x1 PUSH1 0xA0 SHL SUB AND DUP2 JUMP JUMPDEST PUSH1 0x0 DUP1 SLOAD DUP2 SWAP1 PUSH2 0x95 SWAP1 PUSH1 0x1 PUSH1 0x1 PUSH1 0xA0 SHL SUB AND PUSH2 0x13D JUMP JUMPDEST PUSH1 0x40 MLOAD PUSH4 0x90657147 PUSH1 0xE0 SHL DUP2 MSTORE SWAP1 SWAP2 POP PUSH1 0x1 PUSH1 0x1 PUSH1 0xA0 SHL SUB DUP3 AND SWAP1 PUSH4 0x90657147 SWAP1 PUSH2 0xCC SWAP1 CALLER SWAP1 DUP11 SWAP1 DUP11 SWAP1 DUP11 SWAP1 DUP11 SWAP1 PUSH1 0x4 ADD PUSH2 0x2B9 JUMP JUMPDEST PUSH1 0x0 PUSH1 0x40 MLOAD DUP1 DUP4 SUB DUP2 PUSH1 0x0 DUP8 DUP1 EXTCODESIZE ISZERO DUP1 ISZERO PUSH2 0xE6 JUMPI PUSH1 0x0 DUP1 REVERT JUMPDEST POP GAS CALL ISZERO DUP1 ISZERO PUSH2 0xFA JUMPI RETURNDATASIZE PUSH1 0x0 DUP1 RETURNDATACOPY RETURNDATASIZE PUSH1 0x0 REVERT JUMPDEST POP POP PUSH1 0x40 MLOAD PUSH1 0x1 PUSH1 0x1 PUSH1 0xA0 SHL SUB DUP5 AND SWAP3 POP CALLER SWAP2 POP PUSH32 0xF9A44E6DB3FB6E0EB31C4013BDA8C662FECEF1768DD2412270CC8F8821CBCCF3 SWAP1 PUSH1 0x0 SWAP1 LOG3 SWAP6 SWAP5 POP POP POP POP POP JUMP JUMPDEST PUSH1 0x0 PUSH23 0x3D602D80600A3D3981F3363D3D373D3D3D363D73000000 DUP3 PUSH1 0x60 SHL PUSH1 0xE8 SHR OR PUSH1 0x0 MSTORE PUSH15 0x5AF43D82803E903D91602B57FD5BF3 DUP3 PUSH1 0x78 SHL OR PUSH1 0x20 MSTORE PUSH1 0x37 PUSH1 0x9 PUSH1 0x0 CREATE SWAP1 POP PUSH1 0x1 PUSH1 0x1 PUSH1 0xA0 SHL SUB DUP2 AND PUSH2 0x1D6 JUMPI PUSH1 0x40 MLOAD PUSH3 0x461BCD PUSH1 0xE5 SHL DUP2 MSTORE PUSH1 0x20 PUSH1 0x4 DUP3 ADD MSTORE PUSH1 0x16 PUSH1 0x24 DUP3 ADD MSTORE PUSH22 0x115490CC4C4D8DCE8818DC99585D194819985A5B1959 PUSH1 0x52 SHL PUSH1 0x44 DUP3 ADD MSTORE PUSH1 0x64 ADD PUSH1 0x40 MLOAD DUP1 SWAP2 SUB SWAP1 REVERT JUMPDEST SWAP2 SWAP1 POP JUMP JUMPDEST PUSH1 0x0 DUP1 DUP4 PUSH1 0x1F DUP5 ADD SLT PUSH2 0x1ED JUMPI PUSH1 0x0 DUP1 REVERT JUMPDEST POP DUP2 CALLDATALOAD PUSH8 0xFFFFFFFFFFFFFFFF DUP2 GT ISZERO PUSH2 0x205 JUMPI PUSH1 0x0 DUP1 REVERT JUMPDEST PUSH1 0x20 DUP4 ADD SWAP2 POP DUP4 PUSH1 0x20 DUP3 DUP6 ADD ADD GT ISZERO PUSH2 0x21D JUMPI PUSH1 0x0 DUP1 REVERT JUMPDEST SWAP3 POP SWAP3 SWAP1 POP JUMP JUMPDEST PUSH1 0x0 DUP1 PUSH1 0x0 DUP1 PUSH1 0x40 DUP6 DUP8 SUB SLT ISZERO PUSH2 0x23A JUMPI PUSH1 0x0 DUP1 REVERT JUMPDEST DUP5 CALLDATALOAD PUSH8 0xFFFFFFFFFFFFFFFF DUP1 DUP3 GT ISZERO PUSH2 0x252 JUMPI PUSH1 0x0 DUP1 REVERT JUMPDEST PUSH2 0x25E DUP9 DUP4 DUP10 ADD PUSH2 0x1DB JUMP JUMPDEST SWAP1 SWAP7 POP SWAP5 POP PUSH1 0x20 DUP8 ADD CALLDATALOAD SWAP2 POP DUP1 DUP3 GT ISZERO PUSH2 0x277 JUMPI PUSH1 0x0 DUP1 REVERT JUMPDEST POP PUSH2 0x284 DUP8 DUP3 DUP9 ADD PUSH2 0x1DB JUMP JUMPDEST SWAP6 SWAP9 SWAP5 SWAP8 POP SWAP6 POP POP POP POP JUMP JUMPDEST DUP2 DUP4 MSTORE DUP2 DUP2 PUSH1 0x20 DUP6 ADD CALLDATACOPY POP PUSH1 0x0 DUP3 DUP3 ADD PUSH1 0x20 SWAP1 DUP2 ADD SWAP2 SWAP1 SWAP2 MSTORE PUSH1 0x1F SWAP1 SWAP2 ADD PUSH1 0x1F NOT AND SWAP1 SWAP2 ADD ADD SWAP1 JUMP JUMPDEST PUSH1 0x1 PUSH1 0x1 PUSH1 0xA0 SHL SUB DUP7 AND DUP2 MSTORE PUSH1 0x60 PUSH1 0x20 DUP3 ADD DUP2 SWAP1 MSTORE PUSH1 0x0 SWAP1 PUSH2 0x2DE SWAP1 DUP4 ADD DUP7 DUP9 PUSH2 0x290 JUMP JUMPDEST DUP3 DUP2 SUB PUSH1 0x40 DUP5 ADD MSTORE PUSH2 0x2F1 DUP2 DUP6 DUP8 PUSH2 0x290 JUMP JUMPDEST SWAP9 SWAP8 POP POP POP POP POP POP POP POP JUMP INVALID LOG2 PUSH5 0x6970667358 0x22 SLT KECCAK256 SWAP16 SWAP12 0xB9 PUSH11 0xFDCE73E15CF61076F088FD LOG1 0x2A PUSH25 0x8E510F8C614E3EF1E4ABEDB9102A64736F6C63430008120033 "
				},
				"gasEstimates": {
					"creation": {
						"codeDepositCost": "163800",
						"executionCost": "infinite",
						"totalCost": "infinite"
					},
					"external": {
						"deployToken(string,string)": "infinite",
						"masterToken()": "2325"
					}
				},
				"methodIdentifiers": {
					"deployToken(string,string)": "1d12b938",
					"masterToken()": "2bb5e31e"
				}
			},
			"storageLayout": {
				"storage": [
					{
						"astId": 823,
						"contract": "src/ERC20Factory.sol:ERC20Factory",
						"label": "masterToken",
						"offset": 0,
						"slot": "0",
						"type": "t_address"
					}
				],
				"types": {
					"t_address": {
						"encoding": "inplace",
						"label": "address",
						"numberOfBytes": "20"
					}
				}
			},
			"userdoc": {
				"kind": "user",
				"methods": {},
				"version": 1
			}
		}
	}
}