{
	"src/SimpleAccount.sol": {
		"SimpleAccount": {
			"abi": [
				{
					"inputs": [
						{
							"internalType": "contract IEntryPoint",
							"name": "anEntryPoint",
							"type": "address"
						}
					],
					"stateMutability": "nonpayable",
					"type": "constructor"
				},
				{
					"anonymous": false,
					"inputs": [
						{
							"indexed": false,
							"internalType": "address",
							"name": "previousAdmin",
							"type": "address"
						},
						{
							"indexed": false,
							"internalType": "address",
							"name": "newAdmin",
							"type": "address"
						}
					],
					"name": "AdminChanged",
					"type": "event"
				},
				{
					"anonymous": false,
					"inputs": [
						{
							"indexed": true,
							"internalType": "address",
							"name": "beacon",
							"type": "address"
						}
					],
					"name": "BeaconUpgraded",
					"type": "event"
				},
				{
					"anonymous": false,
					"inputs": [
						{
							"indexed": false,
							"internalType": "uint8",
							"name": "version",
							"type": "uint8"
						}
					],
					"name": "Initialized",
					"type": "event"
				},
				{
					"anonymous": false,
					"inputs": [
						{
							"indexed": true,
							"internalType": "contract IEntryPoint",
							"name": "entryPoint",
							"type": "address"
						},
						{
							"indexed": true,
							"internalType": "address",
							"name": "owner",
							"type": "address"
						}
					],
					"name": "SimpleAccountInitialized",
					"type": "event"
				},
				{
					"anonymous": false,
					"inputs": [
						{
							"indexed": true,
							"internalType": "address",
							"name": "implementation",
							"type": "address"
						}
					],
					"name": "Upgraded",
					"type": "event"
				},
				{
					"inputs": [],
					"name": "addDeposit",
					"outputs": [],
					"stateMutability": "payable",
					"type": "function"
				},
				{
					"inputs": [],
					"name": "entryPoint",
					"outputs": [
						{
							"internalType": "contract IEntryPoint",
							"name": "",
							"type": "address"
						}
					],
					"stateMutability": "view",
					"type": "function"
				},
				{
					"inputs": [
						{
							"internalType": "address",
							"name": "dest",
							"type": "address"
						},
						{
							"internalType": "uint256",
							"name": "value",
							"type": "uint256"
						},
						{
							"internalType": "bytes",
							"name": "func",
							"type": "bytes"
						}
					],
					"name": "execute",
					"outputs": [],
					"stateMutability": "nonpayable",
					"type": "function"
				},
				{
					"inputs": [
						{
							"internalType": "address[]",
							"name": "dest",
							"type": "address[]"
						},
						{
							"internalType": "bytes[]",
							"name": "func",
							"type": "bytes[]"
						}
					],
					"name": "executeBatch",
					"outputs": [],
					"stateMutability": "nonpayable",
					"type": "function"
				},
				{
					"inputs": [],
					"name": "getDeposit",
					"outputs": [
						{
							"internalType": "uint256",
							"name": "",
							"type": "uint256"
						}
					],
					"stateMutability": "view",
					"type": "function"
				},
				{
					"inputs": [
						{
							"internalType": "address",
							"name": "anOwner",
							"type": "address"
						}
					],
					"name": "initialize",
					"outputs": [],
					"stateMutability": "nonpayable",
					"type": "function"
				},
				{
					"inputs": [],
					"name": "nonce",
					"outputs": [
						{
							"internalType": "uint256",
							"name": "",
							"type": "uint256"
						}
					],
					"stateMutability": "view",
					"type": "function"
				},
				{
					"inputs": [],
					"name": "owner",
					"outputs": [
						{
							"internalType": "address",
							"name": "",
							"type": "address"
						}
					],
					"stateMutability": "view",
					"type": "function"
				},
				{
					"inputs": [],
					"name": "proxiableUUID",
					"outputs": [
						{
							"internalType": "bytes32",
							"name": "",
							"type": "bytes32"
						}
					],
					"stateMutability": "view",
					"type": "function"
				},
				{
					"inputs": [
						{
							"internalType": "address",
							"name": "newImplementation",
							"type": "address"
						}
					],
					"name": "upgradeTo",
					"outputs": [],
					"stateMutability": "nonpayable",
					"type": "function"
				},
				{
					"inputs": [
						{
							"internalType": "address",
							"name": "newImplementation",
							"type": "address"
						},
						{
							"internalType": "bytes",
							"name": "data",
							"type": "bytes"
						}
					],
					"name": "upgradeToAndCall",
					"outputs": [],
					"stateMutability": "payable",
					"type": "function"
				},
				{
					"inputs": [
						{
							"components": [
								{
									"internalType": "address",
									"name": "sender",
									"type": "address"
								},
								{
									"internalType": "uint256",
									"name": "nonce",
									"type": "uint256"
								},
								{
									"internalType": "bytes",
									"name": "initCode",
									"type": "bytes"
								},
								{
									"internalType": "bytes",
									"name": "callData",
									"type": "bytes"
								},
								{
									"internalType": "uint256",
									"name": "callGasLimit",
									"type": "uint256"
								},
								{
									"internalType": "uint256",
									"name": "verificationGasLimit",
									"type": "uint256"
								},
								{
									"internalType": "uint256",
									"name": "preVerificationGas",
									"type": "uint256"
								},
								{
									"internalType": "uint256",
									"name": "maxFeePerGas",
									"type": "uint256"
								},
								{
									"internalType": "uint256",
									"name": "maxPriorityFeePerGas",
									"type": "uint256"
								},
								{
									"internalType": "bytes",
									"name": "paymasterAndData",
									"type": "bytes"
								},
								{
									"internalType": "bytes",
									"name": "signature",
									"type": "bytes"
								}
							],
							"internalType": "struct UserOperation",
							"name": "userOp",
							"type": "tuple"
						},
						{
							"internalType": "bytes32",
							"name": "userOpHash",
							"type": "bytes32"
						},
						{
							"internalType": "address",
							"name": "aggregator",
							"type": "address"
						},
						{
							"internalType": "uint256",
							"name": "missingAccountFunds",
							"type": "uint256"
						}
					],
					"name": "validateUserOp",
					"outputs": [
						{
							"internalType": "uint256",
							"name": "sigTimeRange",
							"type": "uint256"
						}
					],
					"stateMutability": "nonpayable",
					"type": "function"
				},
				{
					"inputs": [
						{
							"internalType": "address payable",
							"name": "withdrawAddress",
							"type": "address"
						},
						{
							"internalType": "uint256",
							"name": "amount",
							"type": "uint256"
						}
					],
					"name": "withdrawDepositTo",
					"outputs": [],
					"stateMutability": "nonpayable",
					"type": "function"
				},
				{
					"stateMutability": "payable",
					"type": "receive"
				}
			],
			"devdoc": {
				"events": {
					"AdminChanged(address,address)": {
						"details": "Emitted when the admin account has changed."
					},
					"BeaconUpgraded(address)": {
						"details": "Emitted when the beacon is changed."
					},
					"Initialized(uint8)": {
						"details": "Triggered when the contract has been initialized or reinitialized."
					},
					"Upgraded(address)": {
						"details": "Emitted when the implementation is upgraded."
					}
				},
				"kind": "dev",
				"methods": {
					"proxiableUUID()": {
						"details": "Implementation of the ERC1822 {proxiableUUID} function. This returns the storage slot used by the implementation. It is used to validate the implementation's compatibility when performing an upgrade. IMPORTANT: A proxy pointing at a proxiable contract should not be considered proxiable itself, because this risks bricking a proxy that upgrades to it, by delegating to itself until out of gas. Thus it is critical that this function revert if invoked through a proxy. This is guaranteed by the `notDelegated` modifier."
					},
					"upgradeTo(address)": {
						"custom:oz-upgrades-unsafe-allow-reachable": "delegatecall",
						"details": "Upgrade the implementation of the proxy to `newImplementation`. Calls {_authorizeUpgrade}. Emits an {Upgraded} event."
					},
					"upgradeToAndCall(address,bytes)": {
						"custom:oz-upgrades-unsafe-allow-reachable": "delegatecall",
						"details": "Upgrade the implementation of the proxy to `newImplementation`, and subsequently execute the function call encoded in `data`. Calls {_authorizeUpgrade}. Emits an {Upgraded} event."
					},
					"withdrawDepositTo(address,uint256)": {
						"params": {
							"amount": "to withdraw",
							"withdrawAddress": "target to send to"
						}
					}
				},
				"version": 1
			},
			"evm": {
				"assembly": "    /* \"src/SimpleAccount.sol\":585:4965  contract SimpleAccount is BaseAccount, UUPSUpgradeable, Initializable {... */\n  mstore(0x40, 0xc0)\n    /* \"@openzeppelin/contracts/proxy/utils/UUPSUpgradeable.sol\":1088:1092  this */\n  address\n    /* \"@openzeppelin/contracts/proxy/utils/UUPSUpgradeable.sol\":1045:1093  address private immutable __self = address(this) */\n  0x80\n  mstore\n    /* \"src/SimpleAccount.sol\":1256:1337  constructor(IEntryPoint anEntryPoint) {... */\n  callvalue\n  dup1\n  iszero\n  tag_1\n  jumpi\n  0x00\n  dup1\n  revert\ntag_1:\n  pop\n  mload(0x40)\n  sub(codesize, bytecodeSize)\n  dup1\n  bytecodeSize\n  dup4\n  codecopy\n  dup2\n  add\n  0x40\n  dup2\n  swap1\n  mstore\n  tag_2\n  swap2\n  tag_3\n  jump\t// in\ntag_2:\n  sub(shl(0xa0, 0x01), 0x01)\n    /* \"src/SimpleAccount.sol\":1304:1330  _entryPoint = anEntryPoint */\n  and\n  0xa0\n  mstore\n    /* \"src/SimpleAccount.sol\":585:4965  contract SimpleAccount is BaseAccount, UUPSUpgradeable, Initializable {... */\n  jump(tag_7)\n    /* \"#utility.yul\":14:324   */\ntag_3:\n    /* \"#utility.yul\":104:110   */\n  0x00\n    /* \"#utility.yul\":157:159   */\n  0x20\n    /* \"#utility.yul\":145:154   */\n  dup3\n    /* \"#utility.yul\":136:143   */\n  dup5\n    /* \"#utility.yul\":132:155   */\n  sub\n    /* \"#utility.yul\":128:160   */\n  slt\n    /* \"#utility.yul\":125:177   */\n  iszero\n  tag_9\n  jumpi\n    /* \"#utility.yul\":173:174   */\n  0x00\n    /* \"#utility.yul\":170:171   */\n  dup1\n    /* \"#utility.yul\":163:175   */\n  revert\n    /* \"#utility.yul\":125:177   */\ntag_9:\n    /* \"#utility.yul\":199:215   */\n  dup2\n  mload\n  sub(shl(0xa0, 0x01), 0x01)\n    /* \"#utility.yul\":244:275   */\n  dup2\n  and\n    /* \"#utility.yul\":234:276   */\n  dup2\n  eq\n    /* \"#utility.yul\":224:294   */\n  tag_10\n  jumpi\n    /* \"#utility.yul\":290:291   */\n  0x00\n    /* \"#utility.yul\":287:288   */\n  dup1\n    /* \"#utility.yul\":280:292   */\n  revert\n    /* \"#utility.yul\":224:294   */\ntag_10:\n    /* \"#utility.yul\":313:318   */\n  swap4\n    /* \"#utility.yul\":14:324   */\n  swap3\n  pop\n  pop\n  pop\n  jump\t// out\ntag_7:\n    /* \"src/SimpleAccount.sol\":585:4965  contract SimpleAccount is BaseAccount, UUPSUpgradeable, Initializable {... */\n  mload(0x80)\n  mload(0xa0)\n  codecopy(0x00, dataOffset(sub_0), dataSize(sub_0))\n  0x00\n  assignImmutable(\"0xcdcea30472068896a5994382ef03f2c5ab03d323cf6a4a03acba97931ef833c9\")\n  0x00\n  assignImmutable(\"0x26253e4b9754d7b70fa53c504adf7cef3bf444a45077af864d39a1233fe15035\")\n  return(0x00, dataSize(sub_0))\nstop\n\nsub_0: assembly {\n        /* \"src/SimpleAccount.sol\":585:4965  contract SimpleAccount is BaseAccount, UUPSUpgradeable, Initializable {... */\n      mstore(0x40, 0x80)\n      jumpi(tag_1, lt(calldatasize, 0x04))\n      shr(0xe0, calldataload(0x00))\n      dup1\n      0x52d1902d\n      gt\n      tag_16\n      jumpi\n      dup1\n      0xb0d691fe\n      gt\n      tag_17\n      jumpi\n      dup1\n      0xb0d691fe\n      eq\n      tag_12\n      jumpi\n      dup1\n      0xb61d27f6\n      eq\n      tag_13\n      jumpi\n      dup1\n      0xc399ec88\n      eq\n      tag_14\n      jumpi\n      dup1\n      0xc4d66de8\n      eq\n      tag_15\n      jumpi\n      0x00\n      dup1\n      revert\n    tag_17:\n      dup1\n      0x52d1902d\n      eq\n      tag_9\n      jumpi\n      dup1\n      0x8da5cb5b\n      eq\n      tag_10\n      jumpi\n      dup1\n      0xaffed0e0\n      eq\n      tag_11\n      jumpi\n      0x00\n      dup1\n      revert\n    tag_16:\n      dup1\n      0x0825d1fc\n      eq\n      tag_3\n      jumpi\n      dup1\n      0x18dfb3c7\n      eq\n      tag_4\n      jumpi\n      dup1\n      0x3659cfe6\n      eq\n      tag_5\n      jumpi\n      dup1\n      0x4a58db19\n      eq\n      tag_6\n      jumpi\n      dup1\n      0x4d44560d\n      eq\n      tag_7\n      jumpi\n      dup1\n      0x4f1ef286\n      eq\n      tag_8\n      jumpi\n      0x00\n      dup1\n      revert\n    tag_1:\n      jumpi(tag_2, calldatasize)\n      stop\n    tag_2:\n      0x00\n      dup1\n      revert\n        /* \"src/BaseAccount.sol\":1964:2405  function validateUserOp(UserOperation calldata userOp, bytes32 userOpHash, address aggregator, uint256 missingAccountFunds)... */\n    tag_3:\n      callvalue\n      dup1\n      iszero\n      tag_20\n      jumpi\n      0x00\n      dup1\n      revert\n    tag_20:\n      pop\n      tag_21\n      tag_22\n      calldatasize\n      0x04\n      tag_23\n      jump\t// in\n    tag_22:\n      tag_24\n      jump\t// in\n    tag_21:\n      mload(0x40)\n        /* \"#utility.yul\":966:991   */\n      swap1\n      dup2\n      mstore\n        /* \"#utility.yul\":954:956   */\n      0x20\n        /* \"#utility.yul\":939:957   */\n      add\n        /* \"src/BaseAccount.sol\":1964:2405  function validateUserOp(UserOperation calldata userOp, bytes32 userOpHash, address aggregator, uint256 missingAccountFunds)... */\n    tag_25:\n      mload(0x40)\n      dup1\n      swap2\n      sub\n      swap1\n      return\n        /* \"src/SimpleAccount.sol\":1968:2265  function executeBatch(address[] calldata dest, bytes[] calldata func) external {... */\n    tag_4:\n      callvalue\n      dup1\n      iszero\n      tag_27\n      jumpi\n      0x00\n      dup1\n      revert\n    tag_27:\n      pop\n      tag_28\n      tag_29\n      calldatasize\n      0x04\n      tag_30\n      jump\t// in\n    tag_29:\n      tag_31\n      jump\t// in\n    tag_28:\n      stop\n        /* \"@openzeppelin/contracts/proxy/utils/UUPSUpgradeable.sol\":3143:3338  function upgradeTo(address newImplementation) public virtual onlyProxy {... */\n    tag_5:\n      callvalue\n      dup1\n      iszero\n      tag_32\n      jumpi\n      0x00\n      dup1\n      revert\n    tag_32:\n      pop\n      tag_28\n      tag_34\n      calldatasize\n      0x04\n      tag_35\n      jump\t// in\n    tag_34:\n      tag_36\n      jump\t// in\n        /* \"src/SimpleAccount.sol\":4372:4512  function addDeposit() public payable {... */\n    tag_6:\n      tag_28\n      tag_38\n      jump\t// in\n        /* \"src/SimpleAccount.sol\":4664:4822  function withdrawDepositTo(address payable withdrawAddress, uint256 amount) public onlyOwner {... */\n    tag_7:\n      callvalue\n      dup1\n      iszero\n      tag_39\n      jumpi\n      0x00\n      dup1\n      revert\n    tag_39:\n      pop\n      tag_28\n      tag_41\n      calldatasize\n      0x04\n      tag_42\n      jump\t// in\n    tag_41:\n      tag_43\n      jump\t// in\n        /* \"@openzeppelin/contracts/proxy/utils/UUPSUpgradeable.sol\":3657:3877  function upgradeToAndCall(address newImplementation, bytes memory data) public payable virtual onlyProxy {... */\n    tag_8:\n      tag_28\n      tag_45\n      calldatasize\n      0x04\n      tag_46\n      jump\t// in\n    tag_45:\n      tag_47\n      jump\t// in\n        /* \"@openzeppelin/contracts/proxy/utils/UUPSUpgradeable.sol\":2762:2893  function proxiableUUID() external view virtual override notDelegated returns (bytes32) {... */\n    tag_9:\n      callvalue\n      dup1\n      iszero\n      tag_48\n      jumpi\n      0x00\n      dup1\n      revert\n    tag_48:\n      pop\n      tag_21\n      tag_50\n      jump\t// in\n        /* \"src/SimpleAccount.sol\":791:811  address public owner */\n    tag_10:\n      callvalue\n      dup1\n      iszero\n      tag_53\n      jumpi\n      0x00\n      dup1\n      revert\n    tag_53:\n      pop\n      sload(0x01)\n      tag_54\n      swap1\n      sub(shl(0xa0, 0x01), 0x01)\n      and\n      dup2\n      jump\n    tag_54:\n      mload(0x40)\n      sub(shl(0xa0, 0x01), 0x01)\n        /* \"#utility.yul\":4282:4314   */\n      swap1\n      swap2\n      and\n        /* \"#utility.yul\":4264:4315   */\n      dup2\n      mstore\n        /* \"#utility.yul\":4252:4254   */\n      0x20\n        /* \"#utility.yul\":4237:4255   */\n      add\n        /* \"src/SimpleAccount.sol\":791:811  address public owner */\n      tag_25\n        /* \"#utility.yul\":4118:4321   */\n      jump\n        /* \"src/SimpleAccount.sol\":818:912  function nonce() public view virtual override returns (uint256) {... */\n    tag_11:\n      callvalue\n      dup1\n      iszero\n      tag_58\n      jumpi\n      0x00\n      dup1\n      revert\n    tag_58:\n      pop\n        /* \"src/SimpleAccount.sol\":873:880  uint256 */\n      0x00\n        /* \"src/SimpleAccount.sol\":899:905  _nonce */\n      sload\n      0x010000\n      swap1\n      div\n      sub(shl(0x60, 0x01), 0x01)\n      and\n        /* \"src/SimpleAccount.sol\":818:912  function nonce() public view virtual override returns (uint256) {... */\n      jump(tag_21)\n        /* \"src/SimpleAccount.sol\":918:1026  function entryPoint() public view virtual override returns (IEntryPoint) {... */\n    tag_12:\n      callvalue\n      dup1\n      iszero\n      tag_62\n      jumpi\n      0x00\n      dup1\n      revert\n    tag_62:\n      pop\n        /* \"src/SimpleAccount.sol\":1008:1019  _entryPoint */\n      immutable(\"0xcdcea30472068896a5994382ef03f2c5ab03d323cf6a4a03acba97931ef833c9\")\n        /* \"src/SimpleAccount.sol\":918:1026  function entryPoint() public view virtual override returns (IEntryPoint) {... */\n      jump(tag_54)\n        /* \"src/SimpleAccount.sol\":1747:1905  function execute(address dest, uint256 value, bytes calldata func) external {... */\n    tag_13:\n      callvalue\n      dup1\n      iszero\n      tag_67\n      jumpi\n      0x00\n      dup1\n      revert\n    tag_67:\n      pop\n      tag_28\n      tag_69\n      calldatasize\n      0x04\n      tag_70\n      jump\t// in\n    tag_69:\n      tag_71\n      jump\t// in\n        /* \"src/SimpleAccount.sol\":4176:4289  function getDeposit() public view returns (uint256) {... */\n    tag_14:\n      callvalue\n      dup1\n      iszero\n      tag_72\n      jumpi\n      0x00\n      dup1\n      revert\n    tag_72:\n      pop\n      tag_21\n      tag_74\n      jump\t// in\n        /* \"src/SimpleAccount.sol\":2447:2548  function initialize(address anOwner) public virtual initializer {... */\n    tag_15:\n      callvalue\n      dup1\n      iszero\n      tag_76\n      jumpi\n      0x00\n      dup1\n      revert\n    tag_76:\n      pop\n      tag_28\n      tag_78\n      calldatasize\n      0x04\n      tag_35\n      jump\t// in\n    tag_78:\n      tag_79\n      jump\t// in\n        /* \"src/BaseAccount.sol\":1964:2405  function validateUserOp(UserOperation calldata userOp, bytes32 userOpHash, address aggregator, uint256 missingAccountFunds)... */\n    tag_24:\n        /* \"src/BaseAccount.sol\":2127:2147  uint256 sigTimeRange */\n      0x00\n        /* \"src/BaseAccount.sol\":2159:2183  _requireFromEntryPoint() */\n      tag_81\n        /* \"src/BaseAccount.sol\":2159:2181  _requireFromEntryPoint */\n      tag_82\n        /* \"src/BaseAccount.sol\":2159:2183  _requireFromEntryPoint() */\n      jump\t// in\n    tag_81:\n        /* \"src/BaseAccount.sol\":2208:2258  _validateSignature(userOp, userOpHash, aggregator) */\n      tag_83\n        /* \"src/BaseAccount.sol\":2227:2233  userOp */\n      dup6\n        /* \"src/BaseAccount.sol\":2235:2245  userOpHash */\n      dup6\n        /* \"src/BaseAccount.sol\":2247:2257  aggregator */\n      dup6\n        /* \"src/BaseAccount.sol\":2208:2226  _validateSignature */\n      tag_84\n        /* \"src/BaseAccount.sol\":2208:2258  _validateSignature(userOp, userOpHash, aggregator) */\n      jump\t// in\n    tag_83:\n        /* \"src/BaseAccount.sol\":2193:2258  sigTimeRange = _validateSignature(userOp, userOpHash, aggregator) */\n      swap1\n      pop\n        /* \"src/BaseAccount.sol\":2272:2287  userOp.initCode */\n      tag_85\n      0x40\n      dup7\n      add\n        /* \"src/BaseAccount.sol\":2272:2278  userOp */\n      dup7\n        /* \"src/BaseAccount.sol\":2272:2287  userOp.initCode */\n      tag_86\n      jump\t// in\n    tag_85:\n        /* \"src/BaseAccount.sol\":2272:2294  userOp.initCode.length */\n      swap1\n      pop\n        /* \"src/BaseAccount.sol\":2298:2299  0 */\n      0x00\n        /* \"src/BaseAccount.sol\":2272:2299  userOp.initCode.length == 0 */\n      sub\n        /* \"src/BaseAccount.sol\":2268:2357  if (userOp.initCode.length == 0) {... */\n      tag_88\n      jumpi\n        /* \"src/BaseAccount.sol\":2315:2346  _validateAndUpdateNonce(userOp) */\n      tag_88\n        /* \"src/BaseAccount.sol\":2339:2345  userOp */\n      dup6\n        /* \"src/BaseAccount.sol\":2315:2338  _validateAndUpdateNonce */\n      tag_89\n        /* \"src/BaseAccount.sol\":2315:2346  _validateAndUpdateNonce(userOp) */\n      jump\t// in\n    tag_88:\n        /* \"src/BaseAccount.sol\":2366:2398  _payPrefund(missingAccountFunds) */\n      tag_90\n        /* \"src/BaseAccount.sol\":2378:2397  missingAccountFunds */\n      dup3\n        /* \"src/BaseAccount.sol\":2366:2377  _payPrefund */\n      tag_91\n        /* \"src/BaseAccount.sol\":2366:2398  _payPrefund(missingAccountFunds) */\n      jump\t// in\n    tag_90:\n        /* \"src/BaseAccount.sol\":1964:2405  function validateUserOp(UserOperation calldata userOp, bytes32 userOpHash, address aggregator, uint256 missingAccountFunds)... */\n      swap5\n      swap4\n      pop\n      pop\n      pop\n      pop\n      jump\t// out\n        /* \"src/SimpleAccount.sol\":1968:2265  function executeBatch(address[] calldata dest, bytes[] calldata func) external {... */\n    tag_31:\n        /* \"src/SimpleAccount.sol\":2057:2088  _requireFromEntryPointOrOwner() */\n      tag_93\n        /* \"src/SimpleAccount.sol\":2057:2086  _requireFromEntryPointOrOwner */\n      tag_94\n        /* \"src/SimpleAccount.sol\":2057:2088  _requireFromEntryPointOrOwner() */\n      jump\t// in\n    tag_93:\n        /* \"src/SimpleAccount.sol\":2106:2132  dest.length == func.length */\n      dup3\n      dup2\n      eq\n        /* \"src/SimpleAccount.sol\":2098:2156  require(dest.length == func.length, \"wrong array lengths\") */\n      tag_95\n      jumpi\n      mload(0x40)\n      shl(0xe5, 0x461bcd)\n      dup2\n      mstore\n        /* \"#utility.yul\":6081:6083   */\n      0x20\n        /* \"src/SimpleAccount.sol\":2098:2156  require(dest.length == func.length, \"wrong array lengths\") */\n      0x04\n      dup3\n      add\n        /* \"#utility.yul\":6063:6084   */\n      mstore\n        /* \"#utility.yul\":6120:6122   */\n      0x13\n        /* \"#utility.yul\":6100:6118   */\n      0x24\n      dup3\n      add\n        /* \"#utility.yul\":6093:6123   */\n      mstore\n      shl(0x68, 0x77726f6e67206172726179206c656e67746873)\n        /* \"#utility.yul\":6139:6157   */\n      0x44\n      dup3\n      add\n        /* \"#utility.yul\":6132:6181   */\n      mstore\n        /* \"#utility.yul\":6198:6216   */\n      0x64\n      add\n        /* \"src/SimpleAccount.sol\":2098:2156  require(dest.length == func.length, \"wrong array lengths\") */\n    tag_96:\n      mload(0x40)\n      dup1\n      swap2\n      sub\n      swap1\n      revert\n    tag_95:\n        /* \"src/SimpleAccount.sol\":2171:2180  uint256 i */\n      0x00\n        /* \"src/SimpleAccount.sol\":2166:2259  for (uint256 i = 0; i < dest.length; i++) {... */\n    tag_98:\n        /* \"src/SimpleAccount.sol\":2186:2201  i < dest.length */\n      dup4\n      dup2\n      lt\n        /* \"src/SimpleAccount.sol\":2166:2259  for (uint256 i = 0; i < dest.length; i++) {... */\n      iszero\n      tag_99\n      jumpi\n        /* \"src/SimpleAccount.sol\":2222:2248  _call(dest[i], 0, func[i]) */\n      tag_101\n        /* \"src/SimpleAccount.sol\":2228:2232  dest */\n      dup6\n      dup6\n        /* \"src/SimpleAccount.sol\":2233:2234  i */\n      dup4\n        /* \"src/SimpleAccount.sol\":2228:2235  dest[i] */\n      dup2\n      dup2\n      lt\n      tag_103\n      jumpi\n      tag_103\n      tag_104\n      jump\t// in\n    tag_103:\n      swap1\n      pop\n      0x20\n      mul\n      add\n      0x20\n      dup2\n      add\n      swap1\n      tag_105\n      swap2\n      swap1\n      tag_35\n      jump\t// in\n    tag_105:\n        /* \"src/SimpleAccount.sol\":2237:2238  0 */\n      0x00\n        /* \"src/SimpleAccount.sol\":2240:2244  func */\n      dup6\n      dup6\n        /* \"src/SimpleAccount.sol\":2245:2246  i */\n      dup6\n        /* \"src/SimpleAccount.sol\":2240:2247  func[i] */\n      dup2\n      dup2\n      lt\n      tag_107\n      jumpi\n      tag_107\n      tag_104\n      jump\t// in\n    tag_107:\n      swap1\n      pop\n      0x20\n      mul\n      dup2\n      add\n      swap1\n      tag_108\n      swap2\n      swap1\n      tag_86\n      jump\t// in\n    tag_108:\n        /* \"src/SimpleAccount.sol\":2222:2248  _call(dest[i], 0, func[i]) */\n      dup1\n      dup1\n      0x1f\n      add\n      0x20\n      dup1\n      swap2\n      div\n      mul\n      0x20\n      add\n      mload(0x40)\n      swap1\n      dup2\n      add\n      0x40\n      mstore\n      dup1\n      swap4\n      swap3\n      swap2\n      swap1\n      dup2\n      dup2\n      mstore\n      0x20\n      add\n      dup4\n      dup4\n      dup1\n      dup3\n      dup5\n      calldatacopy\n      0x00\n      swap3\n      add\n      swap2\n      swap1\n      swap2\n      mstore\n      pop\n        /* \"src/SimpleAccount.sol\":2222:2227  _call */\n      tag_109\n      swap3\n      pop\n      pop\n      pop\n        /* \"src/SimpleAccount.sol\":2222:2248  _call(dest[i], 0, func[i]) */\n      jump\t// in\n    tag_101:\n        /* \"src/SimpleAccount.sol\":2203:2206  i++ */\n      dup1\n      tag_110\n      dup2\n      tag_111\n      jump\t// in\n    tag_110:\n      swap2\n      pop\n      pop\n        /* \"src/SimpleAccount.sol\":2166:2259  for (uint256 i = 0; i < dest.length; i++) {... */\n      jump(tag_98)\n    tag_99:\n      pop\n        /* \"src/SimpleAccount.sol\":1968:2265  function executeBatch(address[] calldata dest, bytes[] calldata func) external {... */\n      pop\n      pop\n      pop\n      pop\n      jump\t// out\n        /* \"@openzeppelin/contracts/proxy/utils/UUPSUpgradeable.sol\":3143:3338  function upgradeTo(address newImplementation) public virtual onlyProxy {... */\n    tag_36:\n      sub(shl(0xa0, 0x01), 0x01)\n        /* \"@openzeppelin/contracts/proxy/utils/UUPSUpgradeable.sol\":1654:1660  __self */\n      immutable(\"0x26253e4b9754d7b70fa53c504adf7cef3bf444a45077af864d39a1233fe15035\")\n        /* \"@openzeppelin/contracts/proxy/utils/UUPSUpgradeable.sol\":1637:1660  address(this) != __self */\n      and\n        /* \"@openzeppelin/contracts/proxy/utils/UUPSUpgradeable.sol\":1645:1649  this */\n      address\n        /* \"@openzeppelin/contracts/proxy/utils/UUPSUpgradeable.sol\":1637:1660  address(this) != __self */\n      sub\n        /* \"@openzeppelin/contracts/proxy/utils/UUPSUpgradeable.sol\":1629:1709  require(address(this) != __self, \"Function must be called through delegatecall\") */\n      tag_113\n      jumpi\n      mload(0x40)\n      shl(0xe5, 0x461bcd)\n      dup2\n      mstore\n      0x04\n      add\n      tag_96\n      swap1\n      tag_115\n      jump\t// in\n    tag_113:\n        /* \"@openzeppelin/contracts/proxy/utils/UUPSUpgradeable.sol\":1751:1757  __self */\n      immutable(\"0x26253e4b9754d7b70fa53c504adf7cef3bf444a45077af864d39a1233fe15035\")\n      sub(shl(0xa0, 0x01), 0x01)\n        /* \"@openzeppelin/contracts/proxy/utils/UUPSUpgradeable.sol\":1727:1757  _getImplementation() == __self */\n      and\n        /* \"@openzeppelin/contracts/proxy/utils/UUPSUpgradeable.sol\":1727:1747  _getImplementation() */\n      tag_116\n      0x00\n      dup1\n      mload\n      0x20\n      data_75b20eef8615de99c108b05f0dbda081c91897128caa336d75dffb97c4132b4d\n      dup4\n      codecopy\n      dup2\n      mload\n      swap2\n      mstore\n        /* \"@openzeppelin/contracts/proxy/ERC1967/ERC1967Upgrade.sol\":1254:1308  StorageSlot.getAddressSlot(_IMPLEMENTATION_SLOT).value */\n      sload\n      sub(shl(0xa0, 0x01), 0x01)\n      and\n      swap1\n        /* \"@openzeppelin/contracts/proxy/ERC1967/ERC1967Upgrade.sol\":1175:1315  function _getImplementation() internal view returns (address) {... */\n      jump\n        /* \"@openzeppelin/contracts/proxy/utils/UUPSUpgradeable.sol\":1727:1747  _getImplementation() */\n    tag_116:\n      sub(shl(0xa0, 0x01), 0x01)\n        /* \"@openzeppelin/contracts/proxy/utils/UUPSUpgradeable.sol\":1727:1757  _getImplementation() == __self */\n      and\n      eq\n        /* \"@openzeppelin/contracts/proxy/utils/UUPSUpgradeable.sol\":1719:1806  require(_getImplementation() == __self, \"Function must be called through active proxy\") */\n      tag_118\n      jumpi\n      mload(0x40)\n      shl(0xe5, 0x461bcd)\n      dup2\n      mstore\n      0x04\n      add\n      tag_96\n      swap1\n      tag_120\n      jump\t// in\n    tag_118:\n        /* \"@openzeppelin/contracts/proxy/utils/UUPSUpgradeable.sol\":3224:3260  _authorizeUpgrade(newImplementation) */\n      tag_122\n        /* \"@openzeppelin/contracts/proxy/utils/UUPSUpgradeable.sol\":3242:3259  newImplementation */\n      dup2\n        /* \"@openzeppelin/contracts/proxy/utils/UUPSUpgradeable.sol\":3224:3241  _authorizeUpgrade */\n      tag_123\n        /* \"@openzeppelin/contracts/proxy/utils/UUPSUpgradeable.sol\":3224:3260  _authorizeUpgrade(newImplementation) */\n      jump\t// in\n    tag_122:\n        /* \"@openzeppelin/contracts/proxy/utils/UUPSUpgradeable.sol\":3311:3323  new bytes(0) */\n      0x40\n      dup1\n      mload\n        /* \"@openzeppelin/contracts/proxy/utils/UUPSUpgradeable.sol\":3321:3322  0 */\n      0x00\n        /* \"@openzeppelin/contracts/proxy/utils/UUPSUpgradeable.sol\":3311:3323  new bytes(0) */\n      dup1\n      dup3\n      mstore\n      0x20\n      dup3\n      add\n      swap1\n      swap3\n      mstore\n        /* \"@openzeppelin/contracts/proxy/utils/UUPSUpgradeable.sol\":3270:3331  _upgradeToAndCallUUPS(newImplementation, new bytes(0), false) */\n      tag_124\n      swap2\n        /* \"@openzeppelin/contracts/proxy/utils/UUPSUpgradeable.sol\":3292:3309  newImplementation */\n      dup4\n      swap2\n        /* \"@openzeppelin/contracts/proxy/utils/UUPSUpgradeable.sol\":3311:3323  new bytes(0) */\n      swap1\n        /* \"@openzeppelin/contracts/proxy/utils/UUPSUpgradeable.sol\":3270:3291  _upgradeToAndCallUUPS */\n      tag_129\n        /* \"@openzeppelin/contracts/proxy/utils/UUPSUpgradeable.sol\":3270:3331  _upgradeToAndCallUUPS(newImplementation, new bytes(0), false) */\n      jump\t// in\n    tag_124:\n        /* \"@openzeppelin/contracts/proxy/utils/UUPSUpgradeable.sol\":3143:3338  function upgradeTo(address newImplementation) public virtual onlyProxy {... */\n      pop\n      jump\t// out\n        /* \"src/SimpleAccount.sol\":4372:4512  function addDeposit() public payable {... */\n    tag_38:\n        /* \"src/SimpleAccount.sol\":4421:4429  bool req */\n      0x00\n        /* \"src/SimpleAccount.sol\":1008:1019  _entryPoint */\n      immutable(\"0xcdcea30472068896a5994382ef03f2c5ab03d323cf6a4a03acba97931ef833c9\")\n      sub(shl(0xa0, 0x01), 0x01)\n        /* \"src/SimpleAccount.sol\":4434:4460  address(entryPoint()).call */\n      and\n        /* \"src/SimpleAccount.sol\":4469:4478  msg.value */\n      callvalue\n        /* \"src/SimpleAccount.sol\":4434:4483  address(entryPoint()).call{value : msg.value}(\"\") */\n      mload(0x40)\n      0x00\n      mload(0x40)\n      dup1\n      dup4\n      sub\n      dup2\n      dup6\n      dup8\n      gas\n      call\n      swap3\n      pop\n      pop\n      pop\n      returndatasize\n      dup1\n      0x00\n      dup2\n      eq\n      tag_136\n      jumpi\n      mload(0x40)\n      swap2\n      pop\n      and(add(returndatasize, 0x3f), not(0x1f))\n      dup3\n      add\n      0x40\n      mstore\n      returndatasize\n      dup3\n      mstore\n      returndatasize\n      0x00\n      0x20\n      dup5\n      add\n      returndatacopy\n      jump(tag_135)\n    tag_136:\n      0x60\n      swap2\n      pop\n    tag_135:\n      pop\n        /* \"src/SimpleAccount.sol\":4420:4483  (bool req,) = address(entryPoint()).call{value : msg.value}(\"\") */\n      pop\n      swap1\n      pop\n        /* \"src/SimpleAccount.sol\":4501:4504  req */\n      dup1\n        /* \"src/SimpleAccount.sol\":4493:4505  require(req) */\n      tag_124\n      jumpi\n      0x00\n      dup1\n      revert\n        /* \"src/SimpleAccount.sol\":4664:4822  function withdrawDepositTo(address payable withdrawAddress, uint256 amount) public onlyOwner {... */\n    tag_43:\n        /* \"src/SimpleAccount.sol\":1374:1386  _onlyOwner() */\n      tag_139\n        /* \"src/SimpleAccount.sol\":1374:1384  _onlyOwner */\n      tag_140\n        /* \"src/SimpleAccount.sol\":1374:1386  _onlyOwner() */\n      jump\t// in\n    tag_139:\n        /* \"src/SimpleAccount.sol\":1008:1019  _entryPoint */\n      immutable(\"0xcdcea30472068896a5994382ef03f2c5ab03d323cf6a4a03acba97931ef833c9\")\n        /* \"src/SimpleAccount.sol\":4767:4815  entryPoint().withdrawTo(withdrawAddress, amount) */\n      mload(0x40)\n      shl(0xe3, 0x040b850f)\n      dup2\n      mstore\n      sub(shl(0xa0, 0x01), 0x01)\n        /* \"#utility.yul\":7875:7907   */\n      dup5\n      dup2\n      and\n        /* \"src/SimpleAccount.sol\":4767:4815  entryPoint().withdrawTo(withdrawAddress, amount) */\n      0x04\n      dup4\n      add\n        /* \"#utility.yul\":7857:7908   */\n      mstore\n        /* \"#utility.yul\":7924:7942   */\n      0x24\n      dup3\n      add\n        /* \"#utility.yul\":7917:7951   */\n      dup5\n      swap1\n      mstore\n        /* \"src/SimpleAccount.sol\":4767:4790  entryPoint().withdrawTo */\n      swap2\n      swap1\n      swap2\n      and\n      swap1\n      0x205c2878\n      swap1\n        /* \"#utility.yul\":7830:7848   */\n      0x44\n      add\n        /* \"src/SimpleAccount.sol\":4767:4815  entryPoint().withdrawTo(withdrawAddress, amount) */\n      0x00\n      mload(0x40)\n      dup1\n      dup4\n      sub\n      dup2\n      0x00\n      dup8\n      dup1\n      extcodesize\n      iszero\n      dup1\n      iszero\n      tag_145\n      jumpi\n      0x00\n      dup1\n      revert\n    tag_145:\n      pop\n      gas\n      call\n      iszero\n      dup1\n      iszero\n      tag_147\n      jumpi\n      returndatasize\n      0x00\n      dup1\n      returndatacopy\n      revert(0x00, returndatasize)\n    tag_147:\n      pop\n      pop\n      pop\n      pop\n        /* \"src/SimpleAccount.sol\":4664:4822  function withdrawDepositTo(address payable withdrawAddress, uint256 amount) public onlyOwner {... */\n      pop\n      pop\n      jump\t// out\n        /* \"@openzeppelin/contracts/proxy/utils/UUPSUpgradeable.sol\":3657:3877  function upgradeToAndCall(address newImplementation, bytes memory data) public payable virtual onlyProxy {... */\n    tag_47:\n      sub(shl(0xa0, 0x01), 0x01)\n        /* \"@openzeppelin/contracts/proxy/utils/UUPSUpgradeable.sol\":1654:1660  __self */\n      immutable(\"0x26253e4b9754d7b70fa53c504adf7cef3bf444a45077af864d39a1233fe15035\")\n        /* \"@openzeppelin/contracts/proxy/utils/UUPSUpgradeable.sol\":1637:1660  address(this) != __self */\n      and\n        /* \"@openzeppelin/contracts/proxy/utils/UUPSUpgradeable.sol\":1645:1649  this */\n      address\n        /* \"@openzeppelin/contracts/proxy/utils/UUPSUpgradeable.sol\":1637:1660  address(this) != __self */\n      sub\n        /* \"@openzeppelin/contracts/proxy/utils/UUPSUpgradeable.sol\":1629:1709  require(address(this) != __self, \"Function must be called through delegatecall\") */\n      tag_149\n      jumpi\n      mload(0x40)\n      shl(0xe5, 0x461bcd)\n      dup2\n      mstore\n      0x04\n      add\n      tag_96\n      swap1\n      tag_115\n      jump\t// in\n    tag_149:\n        /* \"@openzeppelin/contracts/proxy/utils/UUPSUpgradeable.sol\":1751:1757  __self */\n      immutable(\"0x26253e4b9754d7b70fa53c504adf7cef3bf444a45077af864d39a1233fe15035\")\n      sub(shl(0xa0, 0x01), 0x01)\n        /* \"@openzeppelin/contracts/proxy/utils/UUPSUpgradeable.sol\":1727:1757  _getImplementation() == __self */\n      and\n        /* \"@openzeppelin/contracts/proxy/utils/UUPSUpgradeable.sol\":1727:1747  _getImplementation() */\n      tag_151\n      0x00\n      dup1\n      mload\n      0x20\n      data_75b20eef8615de99c108b05f0dbda081c91897128caa336d75dffb97c4132b4d\n      dup4\n      codecopy\n      dup2\n      mload\n      swap2\n      mstore\n        /* \"@openzeppelin/contracts/proxy/ERC1967/ERC1967Upgrade.sol\":1254:1308  StorageSlot.getAddressSlot(_IMPLEMENTATION_SLOT).value */\n      sload\n      sub(shl(0xa0, 0x01), 0x01)\n      and\n      swap1\n        /* \"@openzeppelin/contracts/proxy/ERC1967/ERC1967Upgrade.sol\":1175:1315  function _getImplementation() internal view returns (address) {... */\n      jump\n        /* \"@openzeppelin/contracts/proxy/utils/UUPSUpgradeable.sol\":1727:1747  _getImplementation() */\n    tag_151:\n      sub(shl(0xa0, 0x01), 0x01)\n        /* \"@openzeppelin/contracts/proxy/utils/UUPSUpgradeable.sol\":1727:1757  _getImplementation() == __self */\n      and\n      eq\n        /* \"@openzeppelin/contracts/proxy/utils/UUPSUpgradeable.sol\":1719:1806  require(_getImplementation() == __self, \"Function must be called through active proxy\") */\n      tag_152\n      jumpi\n      mload(0x40)\n      shl(0xe5, 0x461bcd)\n      dup2\n      mstore\n      0x04\n      add\n      tag_96\n      swap1\n      tag_120\n      jump\t// in\n    tag_152:\n        /* \"@openzeppelin/contracts/proxy/utils/UUPSUpgradeable.sol\":3772:3808  _authorizeUpgrade(newImplementation) */\n      tag_155\n        /* \"@openzeppelin/contracts/proxy/utils/UUPSUpgradeable.sol\":3790:3807  newImplementation */\n      dup3\n        /* \"@openzeppelin/contracts/proxy/utils/UUPSUpgradeable.sol\":3772:3789  _authorizeUpgrade */\n      tag_123\n        /* \"@openzeppelin/contracts/proxy/utils/UUPSUpgradeable.sol\":3772:3808  _authorizeUpgrade(newImplementation) */\n      jump\t// in\n    tag_155:\n        /* \"@openzeppelin/contracts/proxy/utils/UUPSUpgradeable.sol\":3818:3870  _upgradeToAndCallUUPS(newImplementation, data, true) */\n      tag_156\n        /* \"@openzeppelin/contracts/proxy/utils/UUPSUpgradeable.sol\":3840:3857  newImplementation */\n      dup3\n        /* \"@openzeppelin/contracts/proxy/utils/UUPSUpgradeable.sol\":3859:3863  data */\n      dup3\n        /* \"@openzeppelin/contracts/proxy/utils/UUPSUpgradeable.sol\":3865:3869  true */\n      0x01\n        /* \"@openzeppelin/contracts/proxy/utils/UUPSUpgradeable.sol\":3818:3839  _upgradeToAndCallUUPS */\n      tag_129\n        /* \"@openzeppelin/contracts/proxy/utils/UUPSUpgradeable.sol\":3818:3870  _upgradeToAndCallUUPS(newImplementation, data, true) */\n      jump\t// in\n    tag_156:\n        /* \"@openzeppelin/contracts/proxy/utils/UUPSUpgradeable.sol\":3657:3877  function upgradeToAndCall(address newImplementation, bytes memory data) public payable virtual onlyProxy {... */\n      pop\n      pop\n      jump\t// out\n        /* \"@openzeppelin/contracts/proxy/utils/UUPSUpgradeable.sol\":2762:2893  function proxiableUUID() external view virtual override notDelegated returns (bytes32) {... */\n    tag_50:\n        /* \"@openzeppelin/contracts/proxy/utils/UUPSUpgradeable.sol\":2840:2847  bytes32 */\n      0x00\n        /* \"@openzeppelin/contracts/proxy/utils/UUPSUpgradeable.sol\":2080:2084  this */\n      address\n      sub(shl(0xa0, 0x01), 0x01)\n        /* \"@openzeppelin/contracts/proxy/utils/UUPSUpgradeable.sol\":2089:2095  __self */\n      immutable(\"0x26253e4b9754d7b70fa53c504adf7cef3bf444a45077af864d39a1233fe15035\")\n        /* \"@openzeppelin/contracts/proxy/utils/UUPSUpgradeable.sol\":2072:2095  address(this) == __self */\n      and\n      eq\n        /* \"@openzeppelin/contracts/proxy/utils/UUPSUpgradeable.sol\":2064:2156  require(address(this) == __self, \"UUPSUpgradeable: must not be called through delegatecall\") */\n      tag_158\n      jumpi\n      mload(0x40)\n      shl(0xe5, 0x461bcd)\n      dup2\n      mstore\n        /* \"#utility.yul\":8164:8166   */\n      0x20\n        /* \"@openzeppelin/contracts/proxy/utils/UUPSUpgradeable.sol\":2064:2156  require(address(this) == __self, \"UUPSUpgradeable: must not be called through delegatecall\") */\n      0x04\n      dup3\n      add\n        /* \"#utility.yul\":8146:8167   */\n      mstore\n        /* \"#utility.yul\":8203:8205   */\n      0x38\n        /* \"#utility.yul\":8183:8201   */\n      0x24\n      dup3\n      add\n        /* \"#utility.yul\":8176:8206   */\n      mstore\n        /* \"#utility.yul\":8242:8276   */\n      0x555550535570677261646561626c653a206d757374206e6f742062652063616c\n        /* \"#utility.yul\":8222:8240   */\n      0x44\n      dup3\n      add\n        /* \"#utility.yul\":8215:8277   */\n      mstore\n        /* \"#utility.yul\":8313:8339   */\n      0x6c6564207468726f7567682064656c656761746563616c6c0000000000000000\n        /* \"#utility.yul\":8293:8311   */\n      0x64\n      dup3\n      add\n        /* \"#utility.yul\":8286:8340   */\n      mstore\n        /* \"#utility.yul\":8357:8376   */\n      0x84\n      add\n        /* \"@openzeppelin/contracts/proxy/utils/UUPSUpgradeable.sol\":2064:2156  require(address(this) == __self, \"UUPSUpgradeable: must not be called through delegatecall\") */\n      tag_96\n        /* \"#utility.yul\":7962:8382   */\n      jump\n        /* \"@openzeppelin/contracts/proxy/utils/UUPSUpgradeable.sol\":2064:2156  require(address(this) == __self, \"UUPSUpgradeable: must not be called through delegatecall\") */\n    tag_158:\n      pop\n      0x00\n      dup1\n      mload\n      0x20\n      data_75b20eef8615de99c108b05f0dbda081c91897128caa336d75dffb97c4132b4d\n      dup4\n      codecopy\n      dup2\n      mload\n      swap2\n      mstore\n        /* \"@openzeppelin/contracts/proxy/utils/UUPSUpgradeable.sol\":2762:2893  function proxiableUUID() external view virtual override notDelegated returns (bytes32) {... */\n      swap1\n      jump\t// out\n        /* \"src/SimpleAccount.sol\":1747:1905  function execute(address dest, uint256 value, bytes calldata func) external {... */\n    tag_71:\n        /* \"src/SimpleAccount.sol\":1833:1864  _requireFromEntryPointOrOwner() */\n      tag_165\n        /* \"src/SimpleAccount.sol\":1833:1862  _requireFromEntryPointOrOwner */\n      tag_94\n        /* \"src/SimpleAccount.sol\":1833:1864  _requireFromEntryPointOrOwner() */\n      jump\t// in\n    tag_165:\n        /* \"src/SimpleAccount.sol\":1874:1898  _call(dest, value, func) */\n      tag_166\n        /* \"src/SimpleAccount.sol\":1880:1884  dest */\n      dup5\n        /* \"src/SimpleAccount.sol\":1886:1891  value */\n      dup5\n        /* \"src/SimpleAccount.sol\":1893:1897  func */\n      dup5\n      dup5\n        /* \"src/SimpleAccount.sol\":1874:1898  _call(dest, value, func) */\n      dup1\n      dup1\n      0x1f\n      add\n      0x20\n      dup1\n      swap2\n      div\n      mul\n      0x20\n      add\n      mload(0x40)\n      swap1\n      dup2\n      add\n      0x40\n      mstore\n      dup1\n      swap4\n      swap3\n      swap2\n      swap1\n      dup2\n      dup2\n      mstore\n      0x20\n      add\n      dup4\n      dup4\n      dup1\n      dup3\n      dup5\n      calldatacopy\n      0x00\n      swap3\n      add\n      swap2\n      swap1\n      swap2\n      mstore\n      pop\n        /* \"src/SimpleAccount.sol\":1874:1879  _call */\n      tag_109\n      swap3\n      pop\n      pop\n      pop\n        /* \"src/SimpleAccount.sol\":1874:1898  _call(dest, value, func) */\n      jump\t// in\n    tag_166:\n        /* \"src/SimpleAccount.sol\":1747:1905  function execute(address dest, uint256 value, bytes calldata func) external {... */\n      pop\n      pop\n      pop\n      pop\n      jump\t// out\n        /* \"src/SimpleAccount.sol\":4176:4289  function getDeposit() public view returns (uint256) {... */\n    tag_74:\n        /* \"src/SimpleAccount.sol\":4219:4226  uint256 */\n      0x00\n        /* \"src/SimpleAccount.sol\":1008:1019  _entryPoint */\n      immutable(\"0xcdcea30472068896a5994382ef03f2c5ab03d323cf6a4a03acba97931ef833c9\")\n        /* \"src/SimpleAccount.sol\":4245:4282  entryPoint().balanceOf(address(this)) */\n      mload(0x40)\n      shl(0xe0, 0x70a08231)\n      dup2\n      mstore\n        /* \"src/SimpleAccount.sol\":4276:4280  this */\n      address\n        /* \"src/SimpleAccount.sol\":4245:4282  entryPoint().balanceOf(address(this)) */\n      0x04\n      dup3\n      add\n        /* \"#utility.yul\":4264:4315   */\n      mstore\n      sub(shl(0xa0, 0x01), 0x01)\n        /* \"src/SimpleAccount.sol\":4245:4267  entryPoint().balanceOf */\n      swap2\n      swap1\n      swap2\n      and\n      swap1\n      0x70a08231\n      swap1\n        /* \"#utility.yul\":4237:4255   */\n      0x24\n      add\n        /* \"src/SimpleAccount.sol\":4245:4282  entryPoint().balanceOf(address(this)) */\n      0x20\n      mload(0x40)\n      dup1\n      dup4\n      sub\n      dup2\n      dup7\n      gas\n      staticcall\n      iszero\n      dup1\n      iszero\n      tag_171\n      jumpi\n      returndatasize\n      0x00\n      dup1\n      returndatacopy\n      revert(0x00, returndatasize)\n    tag_171:\n      pop\n      pop\n      pop\n      pop\n      mload(0x40)\n      returndatasize\n      not(0x1f)\n      0x1f\n      dup3\n      add\n      and\n      dup3\n      add\n      dup1\n      0x40\n      mstore\n      pop\n      dup2\n      add\n      swap1\n      tag_172\n      swap2\n      swap1\n      tag_173\n      jump\t// in\n    tag_172:\n        /* \"src/SimpleAccount.sol\":4238:4282  return entryPoint().balanceOf(address(this)) */\n      swap1\n      pop\n        /* \"src/SimpleAccount.sol\":4176:4289  function getDeposit() public view returns (uint256) {... */\n      swap1\n      jump\t// out\n        /* \"src/SimpleAccount.sol\":2447:2548  function initialize(address anOwner) public virtual initializer {... */\n    tag_79:\n        /* \"@openzeppelin/contracts/proxy/utils/Initializable.sol\":3268:3287  bool isTopLevelCall */\n      0x00\n        /* \"@openzeppelin/contracts/proxy/utils/Initializable.sol\":3291:3304  _initializing */\n      sload\n      0x0100\n      swap1\n      div\n      0xff\n      and\n        /* \"@openzeppelin/contracts/proxy/utils/Initializable.sol\":3290:3304  !_initializing */\n      iszero\n      dup1\n        /* \"@openzeppelin/contracts/proxy/utils/Initializable.sol\":3336:3370  isTopLevelCall && _initialized < 1 */\n      dup1\n      iszero\n      tag_175\n      jumpi\n      pop\n        /* \"@openzeppelin/contracts/proxy/utils/Initializable.sol\":3354:3366  _initialized */\n      sload(0x00)\n        /* \"@openzeppelin/contracts/proxy/utils/Initializable.sol\":3369:3370  1 */\n      0x01\n        /* \"@openzeppelin/contracts/proxy/utils/Initializable.sol\":3354:3366  _initialized */\n      0xff\n      swap1\n      swap2\n      and\n        /* \"@openzeppelin/contracts/proxy/utils/Initializable.sol\":3354:3370  _initialized < 1 */\n      lt\n        /* \"@openzeppelin/contracts/proxy/utils/Initializable.sol\":3336:3370  isTopLevelCall && _initialized < 1 */\n    tag_175:\n        /* \"@openzeppelin/contracts/proxy/utils/Initializable.sol\":3335:3432  (isTopLevelCall && _initialized < 1) || (!Address.isContract(address(this)) && _initialized == 1) */\n      dup1\n      tag_179\n      jumpi\n      pop\n        /* \"@openzeppelin/contracts/proxy/utils/Initializable.sol\":3404:3408  this */\n      address\n        /* \"@openzeppelin/contracts/utils/Address.sol\":1702:1721  account.code.length */\n      extcodesize\n        /* \"@openzeppelin/contracts/utils/Address.sol\":1702:1725  account.code.length > 0 */\n      iszero\n      dup1\n      iszero\n        /* \"@openzeppelin/contracts/proxy/utils/Initializable.sol\":3376:3431  !Address.isContract(address(this)) && _initialized == 1 */\n      tag_179\n      jumpi\n      pop\n        /* \"@openzeppelin/contracts/proxy/utils/Initializable.sol\":3414:3426  _initialized */\n      and(0xff, sload(0x00))\n      0x01\n        /* \"@openzeppelin/contracts/proxy/utils/Initializable.sol\":3414:3431  _initialized == 1 */\n      eq\n        /* \"@openzeppelin/contracts/proxy/utils/Initializable.sol\":3376:3431  !Address.isContract(address(this)) && _initialized == 1 */\n    tag_179:\n        /* \"@openzeppelin/contracts/proxy/utils/Initializable.sol\":3314:3504  require(... */\n      tag_180\n      jumpi\n      mload(0x40)\n      shl(0xe5, 0x461bcd)\n      dup2\n      mstore\n        /* \"#utility.yul\":8778:8780   */\n      0x20\n        /* \"@openzeppelin/contracts/proxy/utils/Initializable.sol\":3314:3504  require(... */\n      0x04\n      dup3\n      add\n        /* \"#utility.yul\":8760:8781   */\n      mstore\n        /* \"#utility.yul\":8817:8819   */\n      0x2e\n        /* \"#utility.yul\":8797:8815   */\n      0x24\n      dup3\n      add\n        /* \"#utility.yul\":8790:8820   */\n      mstore\n        /* \"#utility.yul\":8856:8890   */\n      0x496e697469616c697a61626c653a20636f6e747261637420697320616c726561\n        /* \"#utility.yul\":8836:8854   */\n      0x44\n      dup3\n      add\n        /* \"#utility.yul\":8829:8891   */\n      mstore\n      shl(0x92, 0x191e481a5b9a5d1a585b1a5e9959)\n        /* \"#utility.yul\":8907:8925   */\n      0x64\n      dup3\n      add\n        /* \"#utility.yul\":8900:8944   */\n      mstore\n        /* \"#utility.yul\":8961:8980   */\n      0x84\n      add\n        /* \"@openzeppelin/contracts/proxy/utils/Initializable.sol\":3314:3504  require(... */\n      tag_96\n        /* \"#utility.yul\":8576:8986   */\n      jump\n        /* \"@openzeppelin/contracts/proxy/utils/Initializable.sol\":3314:3504  require(... */\n    tag_180:\n        /* \"@openzeppelin/contracts/proxy/utils/Initializable.sol\":3514:3526  _initialized */\n      0x00\n        /* \"@openzeppelin/contracts/proxy/utils/Initializable.sol\":3514:3530  _initialized = 1 */\n      dup1\n      sload\n      not(0xff)\n      and\n        /* \"@openzeppelin/contracts/proxy/utils/Initializable.sol\":3529:3530  1 */\n      0x01\n        /* \"@openzeppelin/contracts/proxy/utils/Initializable.sol\":3514:3530  _initialized = 1 */\n      or\n      swap1\n      sstore\n        /* \"@openzeppelin/contracts/proxy/utils/Initializable.sol\":3540:3605  if (isTopLevelCall) {... */\n      dup1\n      iszero\n      tag_183\n      jumpi\n        /* \"@openzeppelin/contracts/proxy/utils/Initializable.sol\":3574:3587  _initializing */\n      0x00\n        /* \"@openzeppelin/contracts/proxy/utils/Initializable.sol\":3574:3594  _initializing = true */\n      dup1\n      sload\n      not(0xff00)\n      and\n      0x0100\n      or\n      swap1\n      sstore\n        /* \"@openzeppelin/contracts/proxy/utils/Initializable.sol\":3540:3605  if (isTopLevelCall) {... */\n    tag_183:\n        /* \"src/SimpleAccount.sol\":2521:2541  _initialize(anOwner) */\n      tag_185\n        /* \"src/SimpleAccount.sol\":2533:2540  anOwner */\n      dup3\n        /* \"src/SimpleAccount.sol\":2521:2532  _initialize */\n      tag_186\n        /* \"src/SimpleAccount.sol\":2521:2541  _initialize(anOwner) */\n      jump\t// in\n    tag_185:\n        /* \"@openzeppelin/contracts/proxy/utils/Initializable.sol\":3629:3643  isTopLevelCall */\n      dup1\n        /* \"@openzeppelin/contracts/proxy/utils/Initializable.sol\":3625:3724  if (isTopLevelCall) {... */\n      iszero\n      tag_156\n      jumpi\n        /* \"@openzeppelin/contracts/proxy/utils/Initializable.sol\":3675:3680  false */\n      0x00\n        /* \"@openzeppelin/contracts/proxy/utils/Initializable.sol\":3659:3680  _initializing = false */\n      dup1\n      sload\n      not(0xff00)\n      and\n      swap1\n      sstore\n        /* \"@openzeppelin/contracts/proxy/utils/Initializable.sol\":3699:3713  Initialized(1) */\n      mload(0x40)\n      0x01\n        /* \"#utility.yul\":9143:9179   */\n      dup2\n      mstore\n        /* \"@openzeppelin/contracts/proxy/utils/Initializable.sol\":3699:3713  Initialized(1) */\n      0x7f26b83ff96e1f2b6a682f133852f6798a09c465da95921460cefb3847402498\n      swap1\n        /* \"#utility.yul\":9131:9133   */\n      0x20\n        /* \"#utility.yul\":9116:9134   */\n      add\n        /* \"@openzeppelin/contracts/proxy/utils/Initializable.sol\":3699:3713  Initialized(1) */\n      mload(0x40)\n      dup1\n      swap2\n      sub\n      swap1\n      log1\n        /* \"@openzeppelin/contracts/proxy/utils/Initializable.sol\":3258:3730  {... */\n      pop\n        /* \"src/SimpleAccount.sol\":2447:2548  function initialize(address anOwner) public virtual initializer {... */\n      pop\n      jump\t// out\n        /* \"src/BaseAccount.sol\":2486:2635  function _requireFromEntryPoint() internal virtual view {... */\n    tag_82:\n        /* \"src/BaseAccount.sol\":2560:2570  msg.sender */\n      caller\n      sub(shl(0xa0, 0x01), 0x01)\n        /* \"src/SimpleAccount.sol\":1008:1019  _entryPoint */\n      immutable(\"0xcdcea30472068896a5994382ef03f2c5ab03d323cf6a4a03acba97931ef833c9\")\n        /* \"src/BaseAccount.sol\":2560:2595  msg.sender == address(entryPoint()) */\n      and\n      eq\n        /* \"src/BaseAccount.sol\":2552:2628  require(msg.sender == address(entryPoint()), \"account: not from EntryPoint\") */\n      tag_192\n      jumpi\n      mload(0x40)\n      shl(0xe5, 0x461bcd)\n      dup2\n      mstore\n        /* \"#utility.yul\":9392:9394   */\n      0x20\n        /* \"src/BaseAccount.sol\":2552:2628  require(msg.sender == address(entryPoint()), \"account: not from EntryPoint\") */\n      0x04\n      dup3\n      add\n        /* \"#utility.yul\":9374:9395   */\n      mstore\n        /* \"#utility.yul\":9431:9433   */\n      0x1c\n        /* \"#utility.yul\":9411:9429   */\n      0x24\n      dup3\n      add\n        /* \"#utility.yul\":9404:9434   */\n      mstore\n        /* \"#utility.yul\":9470:9500   */\n      0x6163636f756e743a206e6f742066726f6d20456e747279506f696e7400000000\n        /* \"#utility.yul\":9450:9468   */\n      0x44\n      dup3\n      add\n        /* \"#utility.yul\":9443:9501   */\n      mstore\n        /* \"#utility.yul\":9518:9536   */\n      0x64\n      add\n        /* \"src/BaseAccount.sol\":2552:2628  require(msg.sender == address(entryPoint()), \"account: not from EntryPoint\") */\n      tag_96\n        /* \"#utility.yul\":9190:9542   */\n      jump\n        /* \"src/BaseAccount.sol\":2552:2628  require(msg.sender == address(entryPoint()), \"account: not from EntryPoint\") */\n    tag_192:\n        /* \"src/BaseAccount.sol\":2486:2635  function _requireFromEntryPoint() internal virtual view {... */\n      jump\t// out\n        /* \"src/SimpleAccount.sol\":3477:3806  function _validateSignature(UserOperation calldata userOp, bytes32 userOpHash, address)... */\n    tag_84:\n        /* \"@openzeppelin/contracts/utils/cryptography/ECDSA.sol\":7389:7423  \"\\x19Ethereum Signed Message:\\n32\" */\n      0x19457468657265756d205369676e6564204d6573736167653a0a333200000000\n        /* \"src/SimpleAccount.sol\":3604:3624  uint256 sigTimeRange */\n      0x00\n        /* \"@openzeppelin/contracts/utils/cryptography/ECDSA.sol\":7376:7424  mstore(0x00, \"\\x19Ethereum Signed Message:\\n32\") */\n      swap1\n      dup2\n      mstore\n        /* \"@openzeppelin/contracts/utils/cryptography/ECDSA.sol\":7444:7448  0x1c */\n      0x1c\n        /* \"@openzeppelin/contracts/utils/cryptography/ECDSA.sol\":7437:7455  mstore(0x1c, hash) */\n      dup4\n      swap1\n      mstore\n        /* \"@openzeppelin/contracts/utils/cryptography/ECDSA.sol\":7495:7499  0x3c */\n      0x3c\n        /* \"@openzeppelin/contracts/utils/cryptography/ECDSA.sol\":7479:7500  keccak256(0x00, 0x3c) */\n      dup2\n      keccak256\n        /* \"src/SimpleAccount.sol\":3709:3739  hash.recover(userOp.signature) */\n      tag_198\n        /* \"src/SimpleAccount.sol\":3722:3738  userOp.signature */\n      tag_199\n      0x0140\n      dup8\n      add\n        /* \"src/SimpleAccount.sol\":3722:3728  userOp */\n      dup8\n        /* \"src/SimpleAccount.sol\":3722:3738  userOp.signature */\n      tag_86\n      jump\t// in\n    tag_199:\n        /* \"src/SimpleAccount.sol\":3709:3739  hash.recover(userOp.signature) */\n      dup1\n      dup1\n      0x1f\n      add\n      0x20\n      dup1\n      swap2\n      div\n      mul\n      0x20\n      add\n      mload(0x40)\n      swap1\n      dup2\n      add\n      0x40\n      mstore\n      dup1\n      swap4\n      swap3\n      swap2\n      swap1\n      dup2\n      dup2\n      mstore\n      0x20\n      add\n      dup4\n      dup4\n      dup1\n      dup3\n      dup5\n      calldatacopy\n      0x00\n      swap3\n      add\n      swap2\n      swap1\n      swap2\n      mstore\n      pop\n        /* \"src/SimpleAccount.sol\":3709:3713  hash */\n      dup6\n      swap4\n        /* \"src/SimpleAccount.sol\":3709:3739  hash.recover(userOp.signature) */\n      swap3\n      pop\n      pop\n        /* \"src/SimpleAccount.sol\":3709:3721  hash.recover */\n      tag_200\n        /* \"src/SimpleAccount.sol\":3709:3739  hash.recover(userOp.signature) */\n      swap1\n      pop\n      jump\t// in\n    tag_198:\n        /* \"src/SimpleAccount.sol\":3700:3705  owner */\n      sload(0x01)\n      sub(shl(0xa0, 0x01), 0x01)\n      swap1\n      dup2\n      and\n        /* \"src/SimpleAccount.sol\":3700:3739  owner != hash.recover(userOp.signature) */\n      swap2\n      and\n      eq\n        /* \"src/SimpleAccount.sol\":3696:3781  if (owner != hash.recover(userOp.signature))... */\n      tag_201\n      jumpi\n        /* \"src/BaseAccount.sol\":756:757  1 */\n      0x01\n        /* \"src/SimpleAccount.sol\":3753:3781  return SIG_VALIDATION_FAILED */\n      swap2\n      pop\n      pop\n      jump(tag_195)\n        /* \"src/SimpleAccount.sol\":3696:3781  if (owner != hash.recover(userOp.signature))... */\n    tag_201:\n        /* \"src/SimpleAccount.sol\":3798:3799  0 */\n      0x00\n        /* \"src/SimpleAccount.sol\":3791:3799  return 0 */\n      swap2\n      pop\n      pop\n        /* \"src/SimpleAccount.sol\":3477:3806  function _validateSignature(UserOperation calldata userOp, bytes32 userOpHash, address)... */\n    tag_195:\n      swap4\n      swap3\n      pop\n      pop\n      pop\n      jump\t// out\n        /* \"src/SimpleAccount.sol\":3264:3422  function _validateAndUpdateNonce(UserOperation calldata userOp) internal override {... */\n    tag_89:\n        /* \"src/SimpleAccount.sol\":3364:3370  _nonce */\n      0x00\n        /* \"src/SimpleAccount.sol\":3364:3372  _nonce++ */\n      dup1\n      sload\n        /* \"src/SimpleAccount.sol\":3376:3388  userOp.nonce */\n      0x20\n      dup4\n      add\n      calldataload\n      swap2\n        /* \"src/SimpleAccount.sol\":3364:3372  _nonce++ */\n      0x010000\n      swap1\n      swap2\n      div\n      sub(shl(0x60, 0x01), 0x01)\n      and\n      swap1\n        /* \"src/SimpleAccount.sol\":3364:3370  _nonce */\n      0x02\n        /* \"src/SimpleAccount.sol\":3364:3372  _nonce++ */\n      tag_203\n      dup4\n      tag_204\n      jump\t// in\n    tag_203:\n      swap2\n      swap1\n      0x0100\n      exp\n      dup2\n      sload\n      dup2\n      sub(shl(0x60, 0x01), 0x01)\n      mul\n      not\n      and\n      swap1\n      dup4\n      sub(shl(0x60, 0x01), 0x01)\n      and\n      mul\n      or\n      swap1\n      sstore\n      pop\n      sub(shl(0x60, 0x01), 0x01)\n        /* \"src/SimpleAccount.sol\":3364:3388  _nonce++ == userOp.nonce */\n      and\n      eq\n        /* \"src/SimpleAccount.sol\":3356:3415  require(_nonce++ == userOp.nonce, \"account: invalid nonce\") */\n      tag_124\n      jumpi\n      mload(0x40)\n      shl(0xe5, 0x461bcd)\n      dup2\n      mstore\n        /* \"#utility.yul\":9971:9973   */\n      0x20\n        /* \"src/SimpleAccount.sol\":3356:3415  require(_nonce++ == userOp.nonce, \"account: invalid nonce\") */\n      0x04\n      dup3\n      add\n        /* \"#utility.yul\":9953:9974   */\n      mstore\n        /* \"#utility.yul\":10010:10012   */\n      0x16\n        /* \"#utility.yul\":9990:10008   */\n      0x24\n      dup3\n      add\n        /* \"#utility.yul\":9983:10013   */\n      mstore\n      shl(0x50, 0x6163636f756e743a20696e76616c6964206e6f6e6365)\n        /* \"#utility.yul\":10029:10047   */\n      0x44\n      dup3\n      add\n        /* \"#utility.yul\":10022:10074   */\n      mstore\n        /* \"#utility.yul\":10091:10109   */\n      0x64\n      add\n        /* \"src/SimpleAccount.sol\":3356:3415  require(_nonce++ == userOp.nonce, \"account: invalid nonce\") */\n      tag_96\n        /* \"#utility.yul\":9769:10115   */\n      jump\n        /* \"src/BaseAccount.sol\":4641:4978  function _payPrefund(uint256 missingAccountFunds) internal virtual {... */\n    tag_91:\n        /* \"src/BaseAccount.sol\":4722:4746  missingAccountFunds != 0 */\n      dup1\n      iszero\n        /* \"src/BaseAccount.sol\":4718:4972  if (missingAccountFunds != 0) {... */\n      tag_124\n      jumpi\n        /* \"src/BaseAccount.sol\":4780:4862  payable(msg.sender).call{value : missingAccountFunds, gas : type(uint256).max}(\"\") */\n      mload(0x40)\n        /* \"src/BaseAccount.sol\":4763:4775  bool success */\n      0x00\n      swap1\n        /* \"src/BaseAccount.sol\":4788:4798  msg.sender */\n      caller\n      swap1\n      not(0x00)\n        /* \"src/BaseAccount.sol\":4840:4857  type(uint256).max */\n      swap1\n        /* \"src/BaseAccount.sol\":4813:4832  missingAccountFunds */\n      dup5\n      swap1\n        /* \"src/BaseAccount.sol\":4763:4775  bool success */\n      dup5\n        /* \"src/BaseAccount.sol\":4780:4862  payable(msg.sender).call{value : missingAccountFunds, gas : type(uint256).max}(\"\") */\n      dup2\n        /* \"src/BaseAccount.sol\":4763:4775  bool success */\n      dup2\n        /* \"src/BaseAccount.sol\":4780:4862  payable(msg.sender).call{value : missingAccountFunds, gas : type(uint256).max}(\"\") */\n      dup2\n        /* \"src/BaseAccount.sol\":4813:4832  missingAccountFunds */\n      dup6\n        /* \"src/BaseAccount.sol\":4788:4798  msg.sender */\n      dup9\n        /* \"src/BaseAccount.sol\":4840:4857  type(uint256).max */\n      dup9\n        /* \"src/BaseAccount.sol\":4780:4862  payable(msg.sender).call{value : missingAccountFunds, gas : type(uint256).max}(\"\") */\n      call\n      swap4\n      pop\n      pop\n      pop\n      pop\n      returndatasize\n      dup1\n      0x00\n      dup2\n      eq\n      tag_99\n      jumpi\n      mload(0x40)\n      swap2\n      pop\n      and(add(returndatasize, 0x3f), not(0x1f))\n      dup3\n      add\n      0x40\n      mstore\n      returndatasize\n      dup3\n      mstore\n      returndatasize\n      0x00\n      0x20\n      dup5\n      add\n      returndatacopy\n      jump(tag_99)\n        /* \"src/SimpleAccount.sol\":3034:3209  function _requireFromEntryPointOrOwner() internal view {... */\n    tag_94:\n        /* \"src/SimpleAccount.sol\":3107:3117  msg.sender */\n      caller\n      sub(shl(0xa0, 0x01), 0x01)\n        /* \"src/SimpleAccount.sol\":1008:1019  _entryPoint */\n      immutable(\"0xcdcea30472068896a5994382ef03f2c5ab03d323cf6a4a03acba97931ef833c9\")\n        /* \"src/SimpleAccount.sol\":3107:3142  msg.sender == address(entryPoint()) */\n      and\n      eq\n      dup1\n        /* \"src/SimpleAccount.sol\":3107:3165  msg.sender == address(entryPoint()) || msg.sender == owner */\n      tag_216\n      jumpi\n      pop\n        /* \"src/SimpleAccount.sol\":3160:3165  owner */\n      and(sub(shl(0xa0, 0x01), 0x01), sload(0x01))\n        /* \"src/SimpleAccount.sol\":3146:3156  msg.sender */\n      caller\n        /* \"src/SimpleAccount.sol\":3146:3165  msg.sender == owner */\n      eq\n        /* \"src/SimpleAccount.sol\":3107:3165  msg.sender == address(entryPoint()) || msg.sender == owner */\n    tag_216:\n        /* \"src/SimpleAccount.sol\":3099:3202  require(msg.sender == address(entryPoint()) || msg.sender == owner, \"account: not Owner or EntryPoint\") */\n      tag_192\n      jumpi\n      mload(0x40)\n      shl(0xe5, 0x461bcd)\n      dup2\n      mstore\n        /* \"#utility.yul\":10322:10324   */\n      0x20\n        /* \"src/SimpleAccount.sol\":3099:3202  require(msg.sender == address(entryPoint()) || msg.sender == owner, \"account: not Owner or EntryPoint\") */\n      0x04\n      dup3\n      add\n        /* \"#utility.yul\":10304:10325   */\n      dup2\n      swap1\n      mstore\n        /* \"#utility.yul\":10341:10359   */\n      0x24\n      dup3\n      add\n        /* \"#utility.yul\":10334:10364   */\n      mstore\n        /* \"#utility.yul\":10400:10434   */\n      0x6163636f756e743a206e6f74204f776e6572206f7220456e747279506f696e74\n        /* \"#utility.yul\":10380:10398   */\n      0x44\n      dup3\n      add\n        /* \"#utility.yul\":10373:10435   */\n      mstore\n        /* \"#utility.yul\":10452:10470   */\n      0x64\n      add\n        /* \"src/SimpleAccount.sol\":3099:3202  require(msg.sender == address(entryPoint()) || msg.sender == owner, \"account: not Owner or EntryPoint\") */\n      tag_96\n        /* \"#utility.yul\":10120:10476   */\n      jump\n        /* \"src/SimpleAccount.sol\":3812:4099  function _call(address target, uint256 value, bytes memory data) internal {... */\n    tag_109:\n        /* \"src/SimpleAccount.sol\":3897:3909  bool success */\n      0x00\n        /* \"src/SimpleAccount.sol\":3911:3930  bytes memory result */\n      dup1\n        /* \"src/SimpleAccount.sol\":3934:3940  target */\n      dup5\n      sub(shl(0xa0, 0x01), 0x01)\n        /* \"src/SimpleAccount.sol\":3934:3945  target.call */\n      and\n        /* \"src/SimpleAccount.sol\":3954:3959  value */\n      dup5\n        /* \"src/SimpleAccount.sol\":3961:3965  data */\n      dup5\n        /* \"src/SimpleAccount.sol\":3934:3966  target.call{value : value}(data) */\n      mload(0x40)\n      tag_221\n      swap2\n      swap1\n      tag_222\n      jump\t// in\n    tag_221:\n      0x00\n      mload(0x40)\n      dup1\n      dup4\n      sub\n      dup2\n      dup6\n      dup8\n      gas\n      call\n      swap3\n      pop\n      pop\n      pop\n      returndatasize\n      dup1\n      0x00\n      dup2\n      eq\n      tag_225\n      jumpi\n      mload(0x40)\n      swap2\n      pop\n      and(add(returndatasize, 0x3f), not(0x1f))\n      dup3\n      add\n      0x40\n      mstore\n      returndatasize\n      dup3\n      mstore\n      returndatasize\n      0x00\n      0x20\n      dup5\n      add\n      returndatacopy\n      jump(tag_224)\n    tag_225:\n      0x60\n      swap2\n      pop\n    tag_224:\n      pop\n        /* \"src/SimpleAccount.sol\":3896:3966  (bool success, bytes memory result) = target.call{value : value}(data) */\n      swap2\n      pop\n      swap2\n      pop\n        /* \"src/SimpleAccount.sol\":3981:3988  success */\n      dup2\n        /* \"src/SimpleAccount.sol\":3976:4093  if (!success) {... */\n      tag_99\n      jumpi\n        /* \"src/SimpleAccount.sol\":4061:4067  result */\n      dup1\n        /* \"src/SimpleAccount.sol\":4055:4068  mload(result) */\n      mload\n        /* \"src/SimpleAccount.sol\":4050:4052  32 */\n      0x20\n        /* \"src/SimpleAccount.sol\":4042:4048  result */\n      dup3\n        /* \"src/SimpleAccount.sol\":4038:4053  add(result, 32) */\n      add\n        /* \"src/SimpleAccount.sol\":4031:4069  revert(add(result, 32), mload(result)) */\n      revert\n        /* \"src/SimpleAccount.sol\":4828:4963  function _authorizeUpgrade(address newImplementation) internal view override {... */\n    tag_123:\n        /* \"src/SimpleAccount.sol\":4944:4956  _onlyOwner() */\n      tag_124\n        /* \"src/SimpleAccount.sol\":4944:4954  _onlyOwner */\n      tag_140\n        /* \"src/SimpleAccount.sol\":4944:4956  _onlyOwner() */\n      jump\t// in\n        /* \"@openzeppelin/contracts/proxy/ERC1967/ERC1967Upgrade.sol\":2494:3416  function _upgradeToAndCallUUPS(address newImplementation, bytes memory data, bool forceCall) internal {... */\n    tag_129:\n        /* \"@openzeppelin/contracts/proxy/ERC1967/ERC1967Upgrade.sol\":689:755  0x4910fdfa16fed3260ed0e7147f7cc6da11a60208b5b9406d12a635614ffd9143 */\n      0x4910fdfa16fed3260ed0e7147f7cc6da11a60208b5b9406d12a635614ffd9143\n        /* \"@openzeppelin/contracts/proxy/ERC1967/ERC1967Upgrade.sol\":2910:2958  StorageSlot.getBooleanSlot(_ROLLBACK_SLOT).value */\n      sload\n      0xff\n      and\n        /* \"@openzeppelin/contracts/proxy/ERC1967/ERC1967Upgrade.sol\":2906:3410  if (StorageSlot.getBooleanSlot(_ROLLBACK_SLOT).value) {... */\n      iszero\n      tag_235\n      jumpi\n        /* \"@openzeppelin/contracts/proxy/ERC1967/ERC1967Upgrade.sol\":2974:3011  _setImplementation(newImplementation) */\n      tag_236\n        /* \"@openzeppelin/contracts/proxy/ERC1967/ERC1967Upgrade.sol\":2993:3010  newImplementation */\n      dup4\n        /* \"@openzeppelin/contracts/proxy/ERC1967/ERC1967Upgrade.sol\":2974:2992  _setImplementation */\n      tag_237\n        /* \"@openzeppelin/contracts/proxy/ERC1967/ERC1967Upgrade.sol\":2974:3011  _setImplementation(newImplementation) */\n      jump\t// in\n    tag_236:\n        /* \"@openzeppelin/contracts/proxy/ERC1967/ERC1967Upgrade.sol\":2494:3416  function _upgradeToAndCallUUPS(address newImplementation, bytes memory data, bool forceCall) internal {... */\n      pop\n      pop\n      pop\n      jump\t// out\n        /* \"@openzeppelin/contracts/proxy/ERC1967/ERC1967Upgrade.sol\":2906:3410  if (StorageSlot.getBooleanSlot(_ROLLBACK_SLOT).value) {... */\n    tag_235:\n        /* \"@openzeppelin/contracts/proxy/ERC1967/ERC1967Upgrade.sol\":3064:3081  newImplementation */\n      dup3\n      sub(shl(0xa0, 0x01), 0x01)\n        /* \"@openzeppelin/contracts/proxy/ERC1967/ERC1967Upgrade.sol\":3046:3096  IERC1822Proxiable(newImplementation).proxiableUUID */\n      and\n      0x52d1902d\n        /* \"@openzeppelin/contracts/proxy/ERC1967/ERC1967Upgrade.sol\":3046:3098  IERC1822Proxiable(newImplementation).proxiableUUID() */\n      mload(0x40)\n      dup2\n      0xffffffff\n      and\n      0xe0\n      shl\n      dup2\n      mstore\n      0x04\n      add\n      0x20\n      mload(0x40)\n      dup1\n      dup4\n      sub\n      dup2\n      dup7\n      gas\n      staticcall\n      swap3\n      pop\n      pop\n      pop\n      dup1\n      iszero\n      tag_239\n      jumpi\n      pop\n      0x40\n      dup1\n      mload\n      0x1f\n      returndatasize\n      swap1\n      dup2\n      add\n      not(0x1f)\n      and\n      dup3\n      add\n      swap1\n      swap3\n      mstore\n      tag_240\n      swap2\n      dup2\n      add\n      swap1\n      tag_173\n      jump\t// in\n    tag_240:\n      0x01\n    tag_239:\n        /* \"@openzeppelin/contracts/proxy/ERC1967/ERC1967Upgrade.sol\":3042:3333  try IERC1822Proxiable(newImplementation).proxiableUUID() returns (bytes32 slot) {... */\n      tag_242\n      jumpi\n        /* \"@openzeppelin/contracts/proxy/ERC1967/ERC1967Upgrade.sol\":3262:3318  revert(\"ERC1967Upgrade: new implementation is not UUPS\") */\n      mload(0x40)\n      shl(0xe5, 0x461bcd)\n      dup2\n      mstore\n        /* \"#utility.yul\":11419:11421   */\n      0x20\n        /* \"@openzeppelin/contracts/proxy/ERC1967/ERC1967Upgrade.sol\":3262:3318  revert(\"ERC1967Upgrade: new implementation is not UUPS\") */\n      0x04\n      dup3\n      add\n        /* \"#utility.yul\":11401:11422   */\n      mstore\n        /* \"#utility.yul\":11458:11460   */\n      0x2e\n        /* \"#utility.yul\":11438:11456   */\n      0x24\n      dup3\n      add\n        /* \"#utility.yul\":11431:11461   */\n      mstore\n        /* \"#utility.yul\":11497:11531   */\n      0x45524331393637557067726164653a206e657720696d706c656d656e74617469\n        /* \"#utility.yul\":11477:11495   */\n      0x44\n      dup3\n      add\n        /* \"#utility.yul\":11470:11532   */\n      mstore\n      shl(0x90, 0x6f6e206973206e6f742055555053)\n        /* \"#utility.yul\":11548:11566   */\n      0x64\n      dup3\n      add\n        /* \"#utility.yul\":11541:11585   */\n      mstore\n        /* \"#utility.yul\":11602:11621   */\n      0x84\n      add\n        /* \"@openzeppelin/contracts/proxy/ERC1967/ERC1967Upgrade.sol\":3262:3318  revert(\"ERC1967Upgrade: new implementation is not UUPS\") */\n      tag_96\n        /* \"#utility.yul\":11217:11627   */\n      jump\n        /* \"@openzeppelin/contracts/proxy/ERC1967/ERC1967Upgrade.sol\":3042:3333  try IERC1822Proxiable(newImplementation).proxiableUUID() returns (bytes32 slot) {... */\n    tag_242:\n      0x00\n      dup1\n      mload\n      0x20\n      data_75b20eef8615de99c108b05f0dbda081c91897128caa336d75dffb97c4132b4d\n      dup4\n      codecopy\n      dup2\n      mload\n      swap2\n      mstore\n        /* \"@openzeppelin/contracts/proxy/ERC1967/ERC1967Upgrade.sol\":3148:3176  slot == _IMPLEMENTATION_SLOT */\n      dup2\n      eq\n        /* \"@openzeppelin/contracts/proxy/ERC1967/ERC1967Upgrade.sol\":3140:3222  require(slot == _IMPLEMENTATION_SLOT, \"ERC1967Upgrade: unsupported proxiableUUID\") */\n      tag_249\n      jumpi\n      mload(0x40)\n      shl(0xe5, 0x461bcd)\n      dup2\n      mstore\n        /* \"#utility.yul\":11834:11836   */\n      0x20\n        /* \"@openzeppelin/contracts/proxy/ERC1967/ERC1967Upgrade.sol\":3140:3222  require(slot == _IMPLEMENTATION_SLOT, \"ERC1967Upgrade: unsupported proxiableUUID\") */\n      0x04\n      dup3\n      add\n        /* \"#utility.yul\":11816:11837   */\n      mstore\n        /* \"#utility.yul\":11873:11875   */\n      0x29\n        /* \"#utility.yul\":11853:11871   */\n      0x24\n      dup3\n      add\n        /* \"#utility.yul\":11846:11876   */\n      mstore\n        /* \"#utility.yul\":11912:11946   */\n      0x45524331393637557067726164653a20756e737570706f727465642070726f78\n        /* \"#utility.yul\":11892:11910   */\n      0x44\n      dup3\n      add\n        /* \"#utility.yul\":11885:11947   */\n      mstore\n      shl(0xba, 0x1a58589b1955555251)\n        /* \"#utility.yul\":11963:11981   */\n      0x64\n      dup3\n      add\n        /* \"#utility.yul\":11956:11995   */\n      mstore\n        /* \"#utility.yul\":12012:12031   */\n      0x84\n      add\n        /* \"@openzeppelin/contracts/proxy/ERC1967/ERC1967Upgrade.sol\":3140:3222  require(slot == _IMPLEMENTATION_SLOT, \"ERC1967Upgrade: unsupported proxiableUUID\") */\n      tag_96\n        /* \"#utility.yul\":11632:12037   */\n      jump\n        /* \"@openzeppelin/contracts/proxy/ERC1967/ERC1967Upgrade.sol\":3140:3222  require(slot == _IMPLEMENTATION_SLOT, \"ERC1967Upgrade: unsupported proxiableUUID\") */\n    tag_249:\n        /* \"@openzeppelin/contracts/proxy/ERC1967/ERC1967Upgrade.sol\":3099:3237  returns (bytes32 slot) {... */\n      pop\n        /* \"@openzeppelin/contracts/proxy/ERC1967/ERC1967Upgrade.sol\":3346:3399  _upgradeToAndCall(newImplementation, data, forceCall) */\n      tag_236\n        /* \"@openzeppelin/contracts/proxy/ERC1967/ERC1967Upgrade.sol\":3364:3381  newImplementation */\n      dup4\n        /* \"@openzeppelin/contracts/proxy/ERC1967/ERC1967Upgrade.sol\":3383:3387  data */\n      dup4\n        /* \"@openzeppelin/contracts/proxy/ERC1967/ERC1967Upgrade.sol\":3389:3398  forceCall */\n      dup4\n        /* \"@openzeppelin/contracts/proxy/ERC1967/ERC1967Upgrade.sol\":3346:3363  _upgradeToAndCall */\n      tag_253\n        /* \"@openzeppelin/contracts/proxy/ERC1967/ERC1967Upgrade.sol\":3346:3399  _upgradeToAndCall(newImplementation, data, forceCall) */\n      jump\t// in\n        /* \"src/SimpleAccount.sol\":1410:1648  function _onlyOwner() internal view {... */\n    tag_140:\n        /* \"src/SimpleAccount.sol\":1590:1595  owner */\n      and(sub(shl(0xa0, 0x01), 0x01), sload(0x01))\n        /* \"src/SimpleAccount.sol\":1576:1586  msg.sender */\n      caller\n        /* \"src/SimpleAccount.sol\":1576:1595  msg.sender == owner */\n      eq\n      dup1\n        /* \"src/SimpleAccount.sol\":1576:1626  msg.sender == owner || msg.sender == address(this) */\n      tag_255\n      jumpi\n      pop\n        /* \"src/SimpleAccount.sol\":1599:1609  msg.sender */\n      caller\n        /* \"src/SimpleAccount.sol\":1621:1625  this */\n      address\n        /* \"src/SimpleAccount.sol\":1599:1626  msg.sender == address(this) */\n      eq\n        /* \"src/SimpleAccount.sol\":1576:1626  msg.sender == owner || msg.sender == address(this) */\n    tag_255:\n        /* \"src/SimpleAccount.sol\":1568:1641  require(msg.sender == owner || msg.sender == address(this), \"only owner\") */\n      tag_192\n      jumpi\n      mload(0x40)\n      shl(0xe5, 0x461bcd)\n      dup2\n      mstore\n        /* \"#utility.yul\":12244:12246   */\n      0x20\n        /* \"src/SimpleAccount.sol\":1568:1641  require(msg.sender == owner || msg.sender == address(this), \"only owner\") */\n      0x04\n      dup3\n      add\n        /* \"#utility.yul\":12226:12247   */\n      mstore\n        /* \"#utility.yul\":12283:12285   */\n      0x0a\n        /* \"#utility.yul\":12263:12281   */\n      0x24\n      dup3\n      add\n        /* \"#utility.yul\":12256:12286   */\n      mstore\n      shl(0xb1, 0x37b7363c9037bbb732b9)\n        /* \"#utility.yul\":12302:12320   */\n      0x44\n      dup3\n      add\n        /* \"#utility.yul\":12295:12335   */\n      mstore\n        /* \"#utility.yul\":12352:12370   */\n      0x64\n      add\n        /* \"src/SimpleAccount.sol\":1568:1641  require(msg.sender == owner || msg.sender == address(this), \"only owner\") */\n      tag_96\n        /* \"#utility.yul\":12042:12376   */\n      jump\n        /* \"src/SimpleAccount.sol\":2554:2700  function _initialize(address anOwner) internal virtual {... */\n    tag_186:\n        /* \"src/SimpleAccount.sol\":2619:2624  owner */\n      0x01\n        /* \"src/SimpleAccount.sol\":2619:2634  owner = anOwner */\n      dup1\n      sload\n      not(sub(shl(0xa0, 0x01), 0x01))\n      and\n      sub(shl(0xa0, 0x01), 0x01)\n      dup4\n      dup2\n      and\n      swap2\n      dup3\n      or\n      swap1\n      swap3\n      sstore\n        /* \"src/SimpleAccount.sol\":2649:2693  SimpleAccountInitialized(_entryPoint, owner) */\n      mload(0x40)\n        /* \"src/SimpleAccount.sol\":2619:2634  owner = anOwner */\n      swap1\n      swap2\n        /* \"src/SimpleAccount.sol\":2674:2685  _entryPoint */\n      immutable(\"0xcdcea30472068896a5994382ef03f2c5ab03d323cf6a4a03acba97931ef833c9\")\n        /* \"src/SimpleAccount.sol\":2649:2693  SimpleAccountInitialized(_entryPoint, owner) */\n      and\n      swap1\n      0x47e55c76e7a6f1fd8996a1da8008c1ea29699cca35e7bcd057f2dec313b6e5de\n      swap1\n      0x00\n      swap1\n      log3\n        /* \"src/SimpleAccount.sol\":2554:2700  function _initialize(address anOwner) internal virtual {... */\n      pop\n      jump\t// out\n        /* \"@openzeppelin/contracts/utils/cryptography/ECDSA.sol\":3661:3888  function recover(bytes32 hash, bytes memory signature) internal pure returns (address) {... */\n    tag_200:\n        /* \"@openzeppelin/contracts/utils/cryptography/ECDSA.sol\":3739:3746  address */\n      0x00\n        /* \"@openzeppelin/contracts/utils/cryptography/ECDSA.sol\":3759:3776  address recovered */\n      dup1\n        /* \"@openzeppelin/contracts/utils/cryptography/ECDSA.sol\":3778:3796  RecoverError error */\n      0x00\n        /* \"@openzeppelin/contracts/utils/cryptography/ECDSA.sol\":3800:3827  tryRecover(hash, signature) */\n      tag_263\n        /* \"@openzeppelin/contracts/utils/cryptography/ECDSA.sol\":3811:3815  hash */\n      dup6\n        /* \"@openzeppelin/contracts/utils/cryptography/ECDSA.sol\":3817:3826  signature */\n      dup6\n        /* \"@openzeppelin/contracts/utils/cryptography/ECDSA.sol\":3800:3810  tryRecover */\n      tag_264\n        /* \"@openzeppelin/contracts/utils/cryptography/ECDSA.sol\":3800:3827  tryRecover(hash, signature) */\n      jump\t// in\n    tag_263:\n        /* \"@openzeppelin/contracts/utils/cryptography/ECDSA.sol\":3758:3827  (address recovered, RecoverError error) = tryRecover(hash, signature) */\n      swap2\n      pop\n      swap2\n      pop\n        /* \"@openzeppelin/contracts/utils/cryptography/ECDSA.sol\":3837:3855  _throwError(error) */\n      tag_265\n        /* \"@openzeppelin/contracts/utils/cryptography/ECDSA.sol\":3849:3854  error */\n      dup2\n        /* \"@openzeppelin/contracts/utils/cryptography/ECDSA.sol\":3837:3848  _throwError */\n      tag_266\n        /* \"@openzeppelin/contracts/utils/cryptography/ECDSA.sol\":3837:3855  _throwError(error) */\n      jump\t// in\n    tag_265:\n      pop\n        /* \"@openzeppelin/contracts/utils/cryptography/ECDSA.sol\":3872:3881  recovered */\n      swap4\n        /* \"@openzeppelin/contracts/utils/cryptography/ECDSA.sol\":3661:3888  function recover(bytes32 hash, bytes memory signature) internal pure returns (address) {... */\n      swap3\n      pop\n      pop\n      pop\n      jump\t// out\n        /* \"@openzeppelin/contracts/proxy/ERC1967/ERC1967Upgrade.sol\":1406:1665  function _setImplementation(address newImplementation) private {... */\n    tag_237:\n      sub(shl(0xa0, 0x01), 0x01)\n        /* \"@openzeppelin/contracts/utils/Address.sol\":1702:1721  account.code.length */\n      dup2\n      and\n      extcodesize\n        /* \"@openzeppelin/contracts/proxy/ERC1967/ERC1967Upgrade.sol\":1479:1574  require(Address.isContract(newImplementation), \"ERC1967: new implementation is not a contract\") */\n      tag_271\n      jumpi\n      mload(0x40)\n      shl(0xe5, 0x461bcd)\n      dup2\n      mstore\n        /* \"#utility.yul\":12583:12585   */\n      0x20\n        /* \"@openzeppelin/contracts/proxy/ERC1967/ERC1967Upgrade.sol\":1479:1574  require(Address.isContract(newImplementation), \"ERC1967: new implementation is not a contract\") */\n      0x04\n      dup3\n      add\n        /* \"#utility.yul\":12565:12586   */\n      mstore\n        /* \"#utility.yul\":12622:12624   */\n      0x2d\n        /* \"#utility.yul\":12602:12620   */\n      0x24\n      dup3\n      add\n        /* \"#utility.yul\":12595:12625   */\n      mstore\n        /* \"#utility.yul\":12661:12695   */\n      0x455243313936373a206e657720696d706c656d656e746174696f6e206973206e\n        /* \"#utility.yul\":12641:12659   */\n      0x44\n      dup3\n      add\n        /* \"#utility.yul\":12634:12696   */\n      mstore\n      shl(0x9a, 0x1bdd08184818dbdb9d1c9858dd)\n        /* \"#utility.yul\":12712:12730   */\n      0x64\n      dup3\n      add\n        /* \"#utility.yul\":12705:12748   */\n      mstore\n        /* \"#utility.yul\":12765:12784   */\n      0x84\n      add\n        /* \"@openzeppelin/contracts/proxy/ERC1967/ERC1967Upgrade.sol\":1479:1574  require(Address.isContract(newImplementation), \"ERC1967: new implementation is not a contract\") */\n      tag_96\n        /* \"#utility.yul\":12381:12790   */\n      jump\n        /* \"@openzeppelin/contracts/proxy/ERC1967/ERC1967Upgrade.sol\":1479:1574  require(Address.isContract(newImplementation), \"ERC1967: new implementation is not a contract\") */\n    tag_271:\n      0x00\n      dup1\n      mload\n      0x20\n      data_75b20eef8615de99c108b05f0dbda081c91897128caa336d75dffb97c4132b4d\n      dup4\n      codecopy\n      dup2\n      mload\n      swap2\n      mstore\n        /* \"@openzeppelin/contracts/proxy/ERC1967/ERC1967Upgrade.sol\":1584:1658  StorageSlot.getAddressSlot(_IMPLEMENTATION_SLOT).value = newImplementation */\n      dup1\n      sload\n      not(sub(shl(0xa0, 0x01), 0x01))\n      and\n      sub(shl(0xa0, 0x01), 0x01)\n      swap3\n      swap1\n      swap3\n      and\n      swap2\n      swap1\n      swap2\n      or\n      swap1\n      sstore\n        /* \"@openzeppelin/contracts/proxy/ERC1967/ERC1967Upgrade.sol\":1406:1665  function _setImplementation(address newImplementation) private {... */\n      jump\t// out\n        /* \"@openzeppelin/contracts/proxy/ERC1967/ERC1967Upgrade.sol\":2057:2322  function _upgradeToAndCall(address newImplementation, bytes memory data, bool forceCall) internal {... */\n    tag_253:\n        /* \"@openzeppelin/contracts/proxy/ERC1967/ERC1967Upgrade.sol\":2165:2194  _upgradeTo(newImplementation) */\n      tag_276\n        /* \"@openzeppelin/contracts/proxy/ERC1967/ERC1967Upgrade.sol\":2176:2193  newImplementation */\n      dup4\n        /* \"@openzeppelin/contracts/proxy/ERC1967/ERC1967Upgrade.sol\":2165:2175  _upgradeTo */\n      tag_277\n        /* \"@openzeppelin/contracts/proxy/ERC1967/ERC1967Upgrade.sol\":2165:2194  _upgradeTo(newImplementation) */\n      jump\t// in\n    tag_276:\n        /* \"@openzeppelin/contracts/proxy/ERC1967/ERC1967Upgrade.sol\":2222:2223  0 */\n      0x00\n        /* \"@openzeppelin/contracts/proxy/ERC1967/ERC1967Upgrade.sol\":2208:2212  data */\n      dup3\n        /* \"@openzeppelin/contracts/proxy/ERC1967/ERC1967Upgrade.sol\":2208:2219  data.length */\n      mload\n        /* \"@openzeppelin/contracts/proxy/ERC1967/ERC1967Upgrade.sol\":2208:2223  data.length > 0 */\n      gt\n        /* \"@openzeppelin/contracts/proxy/ERC1967/ERC1967Upgrade.sol\":2208:2236  data.length > 0 || forceCall */\n      dup1\n      tag_278\n      jumpi\n      pop\n        /* \"@openzeppelin/contracts/proxy/ERC1967/ERC1967Upgrade.sol\":2227:2236  forceCall */\n      dup1\n        /* \"@openzeppelin/contracts/proxy/ERC1967/ERC1967Upgrade.sol\":2208:2236  data.length > 0 || forceCall */\n    tag_278:\n        /* \"@openzeppelin/contracts/proxy/ERC1967/ERC1967Upgrade.sol\":2204:2316  if (data.length > 0 || forceCall) {... */\n      iszero\n      tag_236\n      jumpi\n        /* \"@openzeppelin/contracts/proxy/ERC1967/ERC1967Upgrade.sol\":2252:2305  Address.functionDelegateCall(newImplementation, data) */\n      tag_166\n        /* \"@openzeppelin/contracts/proxy/ERC1967/ERC1967Upgrade.sol\":2281:2298  newImplementation */\n      dup4\n        /* \"@openzeppelin/contracts/proxy/ERC1967/ERC1967Upgrade.sol\":2300:2304  data */\n      dup4\n        /* \"@openzeppelin/contracts/proxy/ERC1967/ERC1967Upgrade.sol\":2252:2280  Address.functionDelegateCall */\n      tag_281\n        /* \"@openzeppelin/contracts/proxy/ERC1967/ERC1967Upgrade.sol\":2252:2305  Address.functionDelegateCall(newImplementation, data) */\n      jump\t// in\n        /* \"@openzeppelin/contracts/utils/cryptography/ECDSA.sol\":2145:2875  function tryRecover(bytes32 hash, bytes memory signature) internal pure returns (address, RecoverError) {... */\n    tag_264:\n        /* \"@openzeppelin/contracts/utils/cryptography/ECDSA.sol\":2226:2233  address */\n      0x00\n        /* \"@openzeppelin/contracts/utils/cryptography/ECDSA.sol\":2235:2247  RecoverError */\n      dup1\n        /* \"@openzeppelin/contracts/utils/cryptography/ECDSA.sol\":2263:2272  signature */\n      dup3\n        /* \"@openzeppelin/contracts/utils/cryptography/ECDSA.sol\":2263:2279  signature.length */\n      mload\n        /* \"@openzeppelin/contracts/utils/cryptography/ECDSA.sol\":2283:2285  65 */\n      0x41\n        /* \"@openzeppelin/contracts/utils/cryptography/ECDSA.sol\":2263:2285  signature.length == 65 */\n      sub\n        /* \"@openzeppelin/contracts/utils/cryptography/ECDSA.sol\":2259:2869  if (signature.length == 65) {... */\n      tag_283\n      jumpi\n        /* \"@openzeppelin/contracts/utils/cryptography/ECDSA.sol\":2599:2603  0x20 */\n      0x20\n        /* \"@openzeppelin/contracts/utils/cryptography/ECDSA.sol\":2584:2604  add(signature, 0x20) */\n      dup4\n      add\n        /* \"@openzeppelin/contracts/utils/cryptography/ECDSA.sol\":2578:2605  mload(add(signature, 0x20)) */\n      mload\n        /* \"@openzeppelin/contracts/utils/cryptography/ECDSA.sol\":2648:2652  0x40 */\n      0x40\n        /* \"@openzeppelin/contracts/utils/cryptography/ECDSA.sol\":2633:2653  add(signature, 0x40) */\n      dup5\n      add\n        /* \"@openzeppelin/contracts/utils/cryptography/ECDSA.sol\":2627:2654  mload(add(signature, 0x40)) */\n      mload\n        /* \"@openzeppelin/contracts/utils/cryptography/ECDSA.sol\":2705:2709  0x60 */\n      0x60\n        /* \"@openzeppelin/contracts/utils/cryptography/ECDSA.sol\":2690:2710  add(signature, 0x60) */\n      dup6\n      add\n        /* \"@openzeppelin/contracts/utils/cryptography/ECDSA.sol\":2684:2711  mload(add(signature, 0x60)) */\n      mload\n        /* \"@openzeppelin/contracts/utils/cryptography/ECDSA.sol\":2301:2310  bytes32 r */\n      0x00\n        /* \"@openzeppelin/contracts/utils/cryptography/ECDSA.sol\":2676:2712  byte(0, mload(add(signature, 0x60))) */\n      byte\n        /* \"@openzeppelin/contracts/utils/cryptography/ECDSA.sol\":2746:2771  tryRecover(hash, v, r, s) */\n      tag_284\n        /* \"@openzeppelin/contracts/utils/cryptography/ECDSA.sol\":2757:2761  hash */\n      dup8\n        /* \"@openzeppelin/contracts/utils/cryptography/ECDSA.sol\":2676:2712  byte(0, mload(add(signature, 0x60))) */\n      dup3\n        /* \"@openzeppelin/contracts/utils/cryptography/ECDSA.sol\":2578:2605  mload(add(signature, 0x20)) */\n      dup6\n        /* \"@openzeppelin/contracts/utils/cryptography/ECDSA.sol\":2627:2654  mload(add(signature, 0x40)) */\n      dup6\n        /* \"@openzeppelin/contracts/utils/cryptography/ECDSA.sol\":2746:2756  tryRecover */\n      tag_285\n        /* \"@openzeppelin/contracts/utils/cryptography/ECDSA.sol\":2746:2771  tryRecover(hash, v, r, s) */\n      jump\t// in\n    tag_284:\n        /* \"@openzeppelin/contracts/utils/cryptography/ECDSA.sol\":2739:2771  return tryRecover(hash, v, r, s) */\n      swap5\n      pop\n      swap5\n      pop\n      pop\n      pop\n      pop\n      jump(tag_286)\n        /* \"@openzeppelin/contracts/utils/cryptography/ECDSA.sol\":2259:2869  if (signature.length == 65) {... */\n    tag_283:\n      pop\n        /* \"@openzeppelin/contracts/utils/cryptography/ECDSA.sol\":2818:2819  0 */\n      0x00\n      swap1\n      pop\n        /* \"@openzeppelin/contracts/utils/cryptography/ECDSA.sol\":2822:2857  RecoverError.InvalidSignatureLength */\n      0x02\n        /* \"@openzeppelin/contracts/utils/cryptography/ECDSA.sol\":2259:2869  if (signature.length == 65) {... */\n    tag_286:\n        /* \"@openzeppelin/contracts/utils/cryptography/ECDSA.sol\":2145:2875  function tryRecover(bytes32 hash, bytes memory signature) internal pure returns (address, RecoverError) {... */\n      swap3\n      pop\n      swap3\n      swap1\n      pop\n      jump\t// out\n        /* \"@openzeppelin/contracts/utils/cryptography/ECDSA.sol\":570:1081  function _throwError(RecoverError error) private pure {... */\n    tag_266:\n        /* \"@openzeppelin/contracts/utils/cryptography/ECDSA.sol\":647:667  RecoverError.NoError */\n      0x00\n        /* \"@openzeppelin/contracts/utils/cryptography/ECDSA.sol\":638:643  error */\n      dup2\n        /* \"@openzeppelin/contracts/utils/cryptography/ECDSA.sol\":638:667  error == RecoverError.NoError */\n      0x04\n      dup2\n      gt\n      iszero\n      tag_292\n      jumpi\n      tag_292\n      tag_290\n      jump\t// in\n    tag_292:\n      sub\n        /* \"@openzeppelin/contracts/utils/cryptography/ECDSA.sol\":634:1075  if (error == RecoverError.NoError) {... */\n      tag_293\n      jumpi\n        /* \"@openzeppelin/contracts/utils/cryptography/ECDSA.sol\":570:1081  function _throwError(RecoverError error) private pure {... */\n      pop\n      jump\t// out\n        /* \"@openzeppelin/contracts/utils/cryptography/ECDSA.sol\":634:1075  if (error == RecoverError.NoError) {... */\n    tag_293:\n        /* \"@openzeppelin/contracts/utils/cryptography/ECDSA.sol\":743:772  RecoverError.InvalidSignature */\n      0x01\n        /* \"@openzeppelin/contracts/utils/cryptography/ECDSA.sol\":734:739  error */\n      dup2\n        /* \"@openzeppelin/contracts/utils/cryptography/ECDSA.sol\":734:772  error == RecoverError.InvalidSignature */\n      0x04\n      dup2\n      gt\n      iszero\n      tag_298\n      jumpi\n      tag_298\n      tag_290\n      jump\t// in\n    tag_298:\n      sub\n        /* \"@openzeppelin/contracts/utils/cryptography/ECDSA.sol\":730:1075  if (error == RecoverError.InvalidSignature) {... */\n      tag_299\n      jumpi\n        /* \"@openzeppelin/contracts/utils/cryptography/ECDSA.sol\":788:822  revert(\"ECDSA: invalid signature\") */\n      mload(0x40)\n      shl(0xe5, 0x461bcd)\n      dup2\n      mstore\n        /* \"#utility.yul\":13129:13131   */\n      0x20\n        /* \"@openzeppelin/contracts/utils/cryptography/ECDSA.sol\":788:822  revert(\"ECDSA: invalid signature\") */\n      0x04\n      dup3\n      add\n        /* \"#utility.yul\":13111:13132   */\n      mstore\n        /* \"#utility.yul\":13168:13170   */\n      0x18\n        /* \"#utility.yul\":13148:13166   */\n      0x24\n      dup3\n      add\n        /* \"#utility.yul\":13141:13171   */\n      mstore\n        /* \"#utility.yul\":13207:13233   */\n      0x45434453413a20696e76616c6964207369676e61747572650000000000000000\n        /* \"#utility.yul\":13187:13205   */\n      0x44\n      dup3\n      add\n        /* \"#utility.yul\":13180:13234   */\n      mstore\n        /* \"#utility.yul\":13251:13269   */\n      0x64\n      add\n        /* \"@openzeppelin/contracts/utils/cryptography/ECDSA.sol\":788:822  revert(\"ECDSA: invalid signature\") */\n      tag_96\n        /* \"#utility.yul\":12927:13275   */\n      jump\n        /* \"@openzeppelin/contracts/utils/cryptography/ECDSA.sol\":730:1075  if (error == RecoverError.InvalidSignature) {... */\n    tag_299:\n        /* \"@openzeppelin/contracts/utils/cryptography/ECDSA.sol\":852:887  RecoverError.InvalidSignatureLength */\n      0x02\n        /* \"@openzeppelin/contracts/utils/cryptography/ECDSA.sol\":843:848  error */\n      dup2\n        /* \"@openzeppelin/contracts/utils/cryptography/ECDSA.sol\":843:887  error == RecoverError.InvalidSignatureLength */\n      0x04\n      dup2\n      gt\n      iszero\n      tag_306\n      jumpi\n      tag_306\n      tag_290\n      jump\t// in\n    tag_306:\n      sub\n        /* \"@openzeppelin/contracts/utils/cryptography/ECDSA.sol\":839:1075  if (error == RecoverError.InvalidSignatureLength) {... */\n      tag_307\n      jumpi\n        /* \"@openzeppelin/contracts/utils/cryptography/ECDSA.sol\":903:944  revert(\"ECDSA: invalid signature length\") */\n      mload(0x40)\n      shl(0xe5, 0x461bcd)\n      dup2\n      mstore\n        /* \"#utility.yul\":13482:13484   */\n      0x20\n        /* \"@openzeppelin/contracts/utils/cryptography/ECDSA.sol\":903:944  revert(\"ECDSA: invalid signature length\") */\n      0x04\n      dup3\n      add\n        /* \"#utility.yul\":13464:13485   */\n      mstore\n        /* \"#utility.yul\":13521:13523   */\n      0x1f\n        /* \"#utility.yul\":13501:13519   */\n      0x24\n      dup3\n      add\n        /* \"#utility.yul\":13494:13524   */\n      mstore\n        /* \"#utility.yul\":13560:13593   */\n      0x45434453413a20696e76616c6964207369676e6174757265206c656e67746800\n        /* \"#utility.yul\":13540:13558   */\n      0x44\n      dup3\n      add\n        /* \"#utility.yul\":13533:13594   */\n      mstore\n        /* \"#utility.yul\":13611:13629   */\n      0x64\n      add\n        /* \"@openzeppelin/contracts/utils/cryptography/ECDSA.sol\":903:944  revert(\"ECDSA: invalid signature length\") */\n      tag_96\n        /* \"#utility.yul\":13280:13635   */\n      jump\n        /* \"@openzeppelin/contracts/utils/cryptography/ECDSA.sol\":839:1075  if (error == RecoverError.InvalidSignatureLength) {... */\n    tag_307:\n        /* \"@openzeppelin/contracts/utils/cryptography/ECDSA.sol\":974:1004  RecoverError.InvalidSignatureS */\n      0x03\n        /* \"@openzeppelin/contracts/utils/cryptography/ECDSA.sol\":965:970  error */\n      dup2\n        /* \"@openzeppelin/contracts/utils/cryptography/ECDSA.sol\":965:1004  error == RecoverError.InvalidSignatureS */\n      0x04\n      dup2\n      gt\n      iszero\n      tag_314\n      jumpi\n      tag_314\n      tag_290\n      jump\t// in\n    tag_314:\n      sub\n        /* \"@openzeppelin/contracts/utils/cryptography/ECDSA.sol\":961:1075  if (error == RecoverError.InvalidSignatureS) {... */\n      tag_124\n      jumpi\n        /* \"@openzeppelin/contracts/utils/cryptography/ECDSA.sol\":1020:1064  revert(\"ECDSA: invalid signature 's' value\") */\n      mload(0x40)\n      shl(0xe5, 0x461bcd)\n      dup2\n      mstore\n        /* \"#utility.yul\":13842:13844   */\n      0x20\n        /* \"@openzeppelin/contracts/utils/cryptography/ECDSA.sol\":1020:1064  revert(\"ECDSA: invalid signature 's' value\") */\n      0x04\n      dup3\n      add\n        /* \"#utility.yul\":13824:13845   */\n      mstore\n        /* \"#utility.yul\":13881:13883   */\n      0x22\n        /* \"#utility.yul\":13861:13879   */\n      0x24\n      dup3\n      add\n        /* \"#utility.yul\":13854:13884   */\n      mstore\n        /* \"#utility.yul\":13920:13954   */\n      0x45434453413a20696e76616c6964207369676e6174757265202773272076616c\n        /* \"#utility.yul\":13900:13918   */\n      0x44\n      dup3\n      add\n        /* \"#utility.yul\":13893:13955   */\n      mstore\n      shl(0xf0, 0x7565)\n        /* \"#utility.yul\":13971:13989   */\n      0x64\n      dup3\n      add\n        /* \"#utility.yul\":13964:13996   */\n      mstore\n        /* \"#utility.yul\":14013:14032   */\n      0x84\n      add\n        /* \"@openzeppelin/contracts/utils/cryptography/ECDSA.sol\":1020:1064  revert(\"ECDSA: invalid signature 's' value\") */\n      tag_96\n        /* \"#utility.yul\":13640:14038   */\n      jump\n        /* \"@openzeppelin/contracts/proxy/ERC1967/ERC1967Upgrade.sol\":1771:1923  function _upgradeTo(address newImplementation) internal {... */\n    tag_277:\n        /* \"@openzeppelin/contracts/proxy/ERC1967/ERC1967Upgrade.sol\":1837:1874  _setImplementation(newImplementation) */\n      tag_319\n        /* \"@openzeppelin/contracts/proxy/ERC1967/ERC1967Upgrade.sol\":1856:1873  newImplementation */\n      dup2\n        /* \"@openzeppelin/contracts/proxy/ERC1967/ERC1967Upgrade.sol\":1837:1855  _setImplementation */\n      tag_237\n        /* \"@openzeppelin/contracts/proxy/ERC1967/ERC1967Upgrade.sol\":1837:1874  _setImplementation(newImplementation) */\n      jump\t// in\n    tag_319:\n        /* \"@openzeppelin/contracts/proxy/ERC1967/ERC1967Upgrade.sol\":1889:1916  Upgraded(newImplementation) */\n      mload(0x40)\n      sub(shl(0xa0, 0x01), 0x01)\n      dup3\n      and\n      swap1\n      0xbc7cd75a20ee27fd9adebab32041f755214dbc6bffa90cc0225b39da2e5c2d3b\n      swap1\n      0x00\n      swap1\n      log2\n        /* \"@openzeppelin/contracts/proxy/ERC1967/ERC1967Upgrade.sol\":1771:1923  function _upgradeTo(address newImplementation) internal {... */\n      pop\n      jump\t// out\n        /* \"@openzeppelin/contracts/utils/Address.sol\":6674:6872  function functionDelegateCall(address target, bytes memory data) internal returns (bytes memory) {... */\n    tag_281:\n        /* \"@openzeppelin/contracts/utils/Address.sol\":6757:6769  bytes memory */\n      0x60\n        /* \"@openzeppelin/contracts/utils/Address.sol\":6788:6865  functionDelegateCall(target, data, \"Address: low-level delegate call failed\") */\n      tag_195\n        /* \"@openzeppelin/contracts/utils/Address.sol\":6809:6815  target */\n      dup4\n        /* \"@openzeppelin/contracts/utils/Address.sol\":6817:6821  data */\n      dup4\n        /* \"@openzeppelin/contracts/utils/Address.sol\":6788:6865  functionDelegateCall(target, data, \"Address: low-level delegate call failed\") */\n      mload(0x40)\n      dup1\n      0x60\n      add\n      0x40\n      mstore\n      dup1\n      0x27\n      dup2\n      mstore\n      0x20\n      add\n      data_9fdcd12e4b726339b32a442b0a448365d5d85c96b2d2cff917b4f66c63110398\n      0x27\n      swap2\n      codecopy\n        /* \"@openzeppelin/contracts/utils/Address.sol\":6788:6808  functionDelegateCall */\n      tag_322\n        /* \"@openzeppelin/contracts/utils/Address.sol\":6788:6865  functionDelegateCall(target, data, \"Address: low-level delegate call failed\") */\n      jump\t// in\n        /* \"@openzeppelin/contracts/utils/cryptography/ECDSA.sol\":5009:6465  function tryRecover(bytes32 hash, uint8 v, bytes32 r, bytes32 s) internal pure returns (address, RecoverError) {... */\n    tag_285:\n        /* \"@openzeppelin/contracts/utils/cryptography/ECDSA.sol\":5097:5104  address */\n      0x00\n      dup1\n        /* \"@openzeppelin/contracts/utils/cryptography/ECDSA.sol\":6021:6087  0x7FFFFFFFFFFFFFFFFFFFFFFFFFFFFFFF5D576E7357A4501DDFE92F46681B20A0 */\n      0x7fffffffffffffffffffffffffffffff5d576e7357a4501ddfe92f46681b20a0\n        /* \"@openzeppelin/contracts/utils/cryptography/ECDSA.sol\":6008:6087  uint256(s) > 0x7FFFFFFFFFFFFFFFFFFFFFFFFFFFFFFF5D576E7357A4501DDFE92F46681B20A0 */\n      dup4\n      gt\n        /* \"@openzeppelin/contracts/utils/cryptography/ECDSA.sol\":6004:6165  if (uint256(s) > 0x7FFFFFFFFFFFFFFFFFFFFFFFFFFFFFFF5D576E7357A4501DDFE92F46681B20A0) {... */\n      iszero\n      tag_324\n      jumpi\n      pop\n        /* \"@openzeppelin/contracts/utils/cryptography/ECDSA.sol\":6119:6120  0 */\n      0x00\n      swap1\n      pop\n        /* \"@openzeppelin/contracts/utils/cryptography/ECDSA.sol\":6123:6153  RecoverError.InvalidSignatureS */\n      0x03\n        /* \"@openzeppelin/contracts/utils/cryptography/ECDSA.sol\":6103:6154  return (address(0), RecoverError.InvalidSignatureS) */\n      jump(tag_323)\n        /* \"@openzeppelin/contracts/utils/cryptography/ECDSA.sol\":6004:6165  if (uint256(s) > 0x7FFFFFFFFFFFFFFFFFFFFFFFFFFFFFFF5D576E7357A4501DDFE92F46681B20A0) {... */\n    tag_324:\n        /* \"@openzeppelin/contracts/utils/cryptography/ECDSA.sol\":6276:6300  ecrecover(hash, v, r, s) */\n      0x40\n      dup1\n      mload\n        /* \"@openzeppelin/contracts/utils/cryptography/ECDSA.sol\":6259:6273  address signer */\n      0x00\n        /* \"@openzeppelin/contracts/utils/cryptography/ECDSA.sol\":6276:6300  ecrecover(hash, v, r, s) */\n      dup1\n      dup3\n      mstore\n      0x20\n      dup3\n      add\n      dup1\n      dup5\n      mstore\n        /* \"#utility.yul\":14270:14295   */\n      dup10\n      swap1\n      mstore\n        /* \"#utility.yul\":14343:14347   */\n      0xff\n        /* \"#utility.yul\":14331:14348   */\n      dup9\n      and\n        /* \"#utility.yul\":14311:14329   */\n      swap3\n      dup3\n      add\n        /* \"#utility.yul\":14304:14349   */\n      swap3\n      swap1\n      swap3\n      mstore\n        /* \"#utility.yul\":14365:14383   */\n      0x60\n      dup2\n      add\n        /* \"#utility.yul\":14358:14392   */\n      dup7\n      swap1\n      mstore\n        /* \"#utility.yul\":14408:14426   */\n      0x80\n      dup2\n      add\n        /* \"#utility.yul\":14401:14435   */\n      dup6\n      swap1\n      mstore\n        /* \"@openzeppelin/contracts/utils/cryptography/ECDSA.sol\":6276:6300  ecrecover(hash, v, r, s) */\n      0x01\n      swap1\n        /* \"#utility.yul\":14242:14261   */\n      0xa0\n      add\n        /* \"@openzeppelin/contracts/utils/cryptography/ECDSA.sol\":6276:6300  ecrecover(hash, v, r, s) */\n      0x20\n      mload(0x40)\n      0x20\n      dup2\n      sub\n      swap1\n      dup1\n      dup5\n      sub\n      swap1\n      dup6\n      gas\n      staticcall\n      iszero\n      dup1\n      iszero\n      tag_328\n      jumpi\n      returndatasize\n      0x00\n      dup1\n      returndatacopy\n      revert(0x00, returndatasize)\n    tag_328:\n      pop\n      pop\n      mload(add(not(0x1f), mload(0x40)))\n      swap2\n      pop\n      pop\n      sub(shl(0xa0, 0x01), 0x01)\n        /* \"@openzeppelin/contracts/utils/cryptography/ECDSA.sol\":6314:6334  signer == address(0) */\n      dup2\n      and\n        /* \"@openzeppelin/contracts/utils/cryptography/ECDSA.sol\":6310:6411  if (signer == address(0)) {... */\n      tag_329\n      jumpi\n        /* \"@openzeppelin/contracts/utils/cryptography/ECDSA.sol\":6366:6367  0 */\n      0x00\n        /* \"@openzeppelin/contracts/utils/cryptography/ECDSA.sol\":6370:6399  RecoverError.InvalidSignature */\n      0x01\n        /* \"@openzeppelin/contracts/utils/cryptography/ECDSA.sol\":6350:6400  return (address(0), RecoverError.InvalidSignature) */\n      swap3\n      pop\n      swap3\n      pop\n      pop\n      jump(tag_323)\n        /* \"@openzeppelin/contracts/utils/cryptography/ECDSA.sol\":6310:6411  if (signer == address(0)) {... */\n    tag_329:\n        /* \"@openzeppelin/contracts/utils/cryptography/ECDSA.sol\":6429:6435  signer */\n      swap2\n      pop\n        /* \"@openzeppelin/contracts/utils/cryptography/ECDSA.sol\":6437:6457  RecoverError.NoError */\n      0x00\n      swap1\n      pop\n        /* \"@openzeppelin/contracts/utils/cryptography/ECDSA.sol\":5009:6465  function tryRecover(bytes32 hash, uint8 v, bytes32 r, bytes32 s) internal pure returns (address, RecoverError) {... */\n    tag_323:\n      swap5\n      pop\n      swap5\n      swap3\n      pop\n      pop\n      pop\n      jump\t// out\n        /* \"@openzeppelin/contracts/utils/Address.sol\":7058:7383  function functionDelegateCall(... */\n    tag_322:\n        /* \"@openzeppelin/contracts/utils/Address.sol\":7199:7211  bytes memory */\n      0x60\n        /* \"@openzeppelin/contracts/utils/Address.sol\":7224:7236  bool success */\n      0x00\n        /* \"@openzeppelin/contracts/utils/Address.sol\":7238:7261  bytes memory returndata */\n      dup1\n        /* \"@openzeppelin/contracts/utils/Address.sol\":7265:7271  target */\n      dup6\n      sub(shl(0xa0, 0x01), 0x01)\n        /* \"@openzeppelin/contracts/utils/Address.sol\":7265:7284  target.delegatecall */\n      and\n        /* \"@openzeppelin/contracts/utils/Address.sol\":7285:7289  data */\n      dup6\n        /* \"@openzeppelin/contracts/utils/Address.sol\":7265:7290  target.delegatecall(data) */\n      mload(0x40)\n      tag_331\n      swap2\n      swap1\n      tag_222\n      jump\t// in\n    tag_331:\n      0x00\n      mload(0x40)\n      dup1\n      dup4\n      sub\n      dup2\n      dup6\n      gas\n      delegatecall\n      swap2\n      pop\n      pop\n      returndatasize\n      dup1\n      0x00\n      dup2\n      eq\n      tag_334\n      jumpi\n      mload(0x40)\n      swap2\n      pop\n      and(add(returndatasize, 0x3f), not(0x1f))\n      dup3\n      add\n      0x40\n      mstore\n      returndatasize\n      dup3\n      mstore\n      returndatasize\n      0x00\n      0x20\n      dup5\n      add\n      returndatacopy\n      jump(tag_333)\n    tag_334:\n      0x60\n      swap2\n      pop\n    tag_333:\n      pop\n        /* \"@openzeppelin/contracts/utils/Address.sol\":7223:7290  (bool success, bytes memory returndata) = target.delegatecall(data) */\n      swap2\n      pop\n      swap2\n      pop\n        /* \"@openzeppelin/contracts/utils/Address.sol\":7307:7376  verifyCallResultFromTarget(target, success, returndata, errorMessage) */\n      tag_335\n        /* \"@openzeppelin/contracts/utils/Address.sol\":7334:7340  target */\n      dup7\n        /* \"@openzeppelin/contracts/utils/Address.sol\":7342:7349  success */\n      dup4\n        /* \"@openzeppelin/contracts/utils/Address.sol\":7351:7361  returndata */\n      dup4\n        /* \"@openzeppelin/contracts/utils/Address.sol\":7363:7375  errorMessage */\n      dup8\n        /* \"@openzeppelin/contracts/utils/Address.sol\":7307:7333  verifyCallResultFromTarget */\n      tag_336\n        /* \"@openzeppelin/contracts/utils/Address.sol\":7307:7376  verifyCallResultFromTarget(target, success, returndata, errorMessage) */\n      jump\t// in\n    tag_335:\n        /* \"@openzeppelin/contracts/utils/Address.sol\":7300:7376  return verifyCallResultFromTarget(target, success, returndata, errorMessage) */\n      swap7\n        /* \"@openzeppelin/contracts/utils/Address.sol\":7058:7383  function functionDelegateCall(... */\n      swap6\n      pop\n      pop\n      pop\n      pop\n      pop\n      pop\n      jump\t// out\n        /* \"@openzeppelin/contracts/utils/Address.sol\":7671:8299  function verifyCallResultFromTarget(... */\n    tag_336:\n        /* \"@openzeppelin/contracts/utils/Address.sol\":7851:7863  bytes memory */\n      0x60\n        /* \"@openzeppelin/contracts/utils/Address.sol\":7879:7886  success */\n      dup4\n        /* \"@openzeppelin/contracts/utils/Address.sol\":7875:8293  if (success) {... */\n      iszero\n      tag_338\n      jumpi\n        /* \"@openzeppelin/contracts/utils/Address.sol\":7906:7916  returndata */\n      dup3\n        /* \"@openzeppelin/contracts/utils/Address.sol\":7906:7923  returndata.length */\n      mload\n        /* \"@openzeppelin/contracts/utils/Address.sol\":7927:7928  0 */\n      0x00\n        /* \"@openzeppelin/contracts/utils/Address.sol\":7906:7928  returndata.length == 0 */\n      sub\n        /* \"@openzeppelin/contracts/utils/Address.sol\":7902:8188  if (returndata.length == 0) {... */\n      tag_341\n      jumpi\n      sub(shl(0xa0, 0x01), 0x01)\n        /* \"@openzeppelin/contracts/utils/Address.sol\":1702:1721  account.code.length */\n      dup6\n      and\n      extcodesize\n        /* \"@openzeppelin/contracts/utils/Address.sol\":8113:8173  require(isContract(target), \"Address: call to non-contract\") */\n      tag_341\n      jumpi\n      mload(0x40)\n      shl(0xe5, 0x461bcd)\n      dup2\n      mstore\n        /* \"#utility.yul\":14648:14650   */\n      0x20\n        /* \"@openzeppelin/contracts/utils/Address.sol\":8113:8173  require(isContract(target), \"Address: call to non-contract\") */\n      0x04\n      dup3\n      add\n        /* \"#utility.yul\":14630:14651   */\n      mstore\n        /* \"#utility.yul\":14687:14689   */\n      0x1d\n        /* \"#utility.yul\":14667:14685   */\n      0x24\n      dup3\n      add\n        /* \"#utility.yul\":14660:14690   */\n      mstore\n        /* \"#utility.yul\":14726:14757   */\n      0x416464726573733a2063616c6c20746f206e6f6e2d636f6e7472616374000000\n        /* \"#utility.yul\":14706:14724   */\n      0x44\n      dup3\n      add\n        /* \"#utility.yul\":14699:14758   */\n      mstore\n        /* \"#utility.yul\":14775:14793   */\n      0x64\n      add\n        /* \"@openzeppelin/contracts/utils/Address.sol\":8113:8173  require(isContract(target), \"Address: call to non-contract\") */\n      tag_96\n        /* \"#utility.yul\":14446:14799   */\n      jump\n        /* \"@openzeppelin/contracts/utils/Address.sol\":8113:8173  require(isContract(target), \"Address: call to non-contract\") */\n    tag_341:\n      pop\n        /* \"@openzeppelin/contracts/utils/Address.sol\":8208:8218  returndata */\n      dup2\n        /* \"@openzeppelin/contracts/utils/Address.sol\":8201:8218  return returndata */\n      jump(tag_90)\n        /* \"@openzeppelin/contracts/utils/Address.sol\":7875:8293  if (success) {... */\n    tag_338:\n        /* \"@openzeppelin/contracts/utils/Address.sol\":8249:8282  _revert(returndata, errorMessage) */\n      tag_90\n        /* \"@openzeppelin/contracts/utils/Address.sol\":8257:8267  returndata */\n      dup4\n        /* \"@openzeppelin/contracts/utils/Address.sol\":8269:8281  errorMessage */\n      dup4\n        /* \"@openzeppelin/contracts/utils/Address.sol\":8980:8997  returndata.length */\n      dup2\n      mload\n        /* \"@openzeppelin/contracts/utils/Address.sol\":8980:9001  returndata.length > 0 */\n      iszero\n        /* \"@openzeppelin/contracts/utils/Address.sol\":8976:9355  if (returndata.length > 0) {... */\n      tag_348\n      jumpi\n        /* \"@openzeppelin/contracts/utils/Address.sol\":9208:9218  returndata */\n      dup2\n        /* \"@openzeppelin/contracts/utils/Address.sol\":9202:9219  mload(returndata) */\n      mload\n        /* \"@openzeppelin/contracts/utils/Address.sol\":9264:9279  returndata_size */\n      dup1\n        /* \"@openzeppelin/contracts/utils/Address.sol\":9251:9261  returndata */\n      dup4\n        /* \"@openzeppelin/contracts/utils/Address.sol\":9247:9249  32 */\n      0x20\n        /* \"@openzeppelin/contracts/utils/Address.sol\":9243:9262  add(32, returndata) */\n      add\n        /* \"@openzeppelin/contracts/utils/Address.sol\":9236:9280  revert(add(32, returndata), returndata_size) */\n      revert\n        /* \"@openzeppelin/contracts/utils/Address.sol\":8976:9355  if (returndata.length > 0) {... */\n    tag_348:\n        /* \"@openzeppelin/contracts/utils/Address.sol\":9331:9343  errorMessage */\n      dup1\n        /* \"@openzeppelin/contracts/utils/Address.sol\":9324:9344  revert(errorMessage) */\n      mload(0x40)\n      shl(0xe5, 0x461bcd)\n      dup2\n      mstore\n      0x04\n      add\n      tag_96\n      swap2\n      swap1\n      tag_351\n      jump\t// in\n        /* \"#utility.yul\":14:145   */\n    tag_352:\n      sub(shl(0xa0, 0x01), 0x01)\n        /* \"#utility.yul\":89:120   */\n      dup2\n      and\n        /* \"#utility.yul\":79:121   */\n      dup2\n      eq\n        /* \"#utility.yul\":69:139   */\n      tag_124\n      jumpi\n        /* \"#utility.yul\":135:136   */\n      0x00\n        /* \"#utility.yul\":132:133   */\n      dup1\n        /* \"#utility.yul\":125:137   */\n      revert\n        /* \"#utility.yul\":150:815   */\n    tag_23:\n        /* \"#utility.yul\":269:275   */\n      0x00\n        /* \"#utility.yul\":277:283   */\n      dup1\n        /* \"#utility.yul\":285:291   */\n      0x00\n        /* \"#utility.yul\":293:299   */\n      dup1\n        /* \"#utility.yul\":346:349   */\n      0x80\n        /* \"#utility.yul\":334:343   */\n      dup6\n        /* \"#utility.yul\":325:332   */\n      dup8\n        /* \"#utility.yul\":321:344   */\n      sub\n        /* \"#utility.yul\":317:350   */\n      slt\n        /* \"#utility.yul\":314:367   */\n      iszero\n      tag_360\n      jumpi\n        /* \"#utility.yul\":363:364   */\n      0x00\n        /* \"#utility.yul\":360:361   */\n      dup1\n        /* \"#utility.yul\":353:365   */\n      revert\n        /* \"#utility.yul\":314:367   */\n    tag_360:\n        /* \"#utility.yul\":403:412   */\n      dup5\n        /* \"#utility.yul\":390:413   */\n      calldataload\n        /* \"#utility.yul\":436:454   */\n      0xffffffffffffffff\n        /* \"#utility.yul\":428:434   */\n      dup2\n        /* \"#utility.yul\":425:455   */\n      gt\n        /* \"#utility.yul\":422:472   */\n      iszero\n      tag_361\n      jumpi\n        /* \"#utility.yul\":468:469   */\n      0x00\n        /* \"#utility.yul\":465:466   */\n      dup1\n        /* \"#utility.yul\":458:470   */\n      revert\n        /* \"#utility.yul\":422:472   */\n    tag_361:\n        /* \"#utility.yul\":491:513   */\n      dup6\n      add\n        /* \"#utility.yul\":547:550   */\n      0x0160\n        /* \"#utility.yul\":529:545   */\n      dup2\n      dup9\n      sub\n        /* \"#utility.yul\":525:551   */\n      slt\n        /* \"#utility.yul\":522:568   */\n      iszero\n      tag_362\n      jumpi\n        /* \"#utility.yul\":564:565   */\n      0x00\n        /* \"#utility.yul\":561:562   */\n      dup1\n        /* \"#utility.yul\":554:566   */\n      revert\n        /* \"#utility.yul\":522:568   */\n    tag_362:\n        /* \"#utility.yul\":587:589   */\n      swap4\n      pop\n        /* \"#utility.yul\":636:638   */\n      0x20\n        /* \"#utility.yul\":621:639   */\n      dup6\n      add\n        /* \"#utility.yul\":608:640   */\n      calldataload\n      swap3\n      pop\n        /* \"#utility.yul\":690:692   */\n      0x40\n        /* \"#utility.yul\":675:693   */\n      dup6\n      add\n        /* \"#utility.yul\":662:694   */\n      calldataload\n        /* \"#utility.yul\":703:734   */\n      tag_363\n        /* \"#utility.yul\":662:694   */\n      dup2\n        /* \"#utility.yul\":703:734   */\n      tag_352\n      jump\t// in\n    tag_363:\n        /* \"#utility.yul\":150:815   */\n      swap4\n      swap7\n      swap3\n      swap6\n      pop\n        /* \"#utility.yul\":753:758   */\n      swap3\n      swap4\n        /* \"#utility.yul\":805:807   */\n      0x60\n        /* \"#utility.yul\":790:808   */\n      add\n        /* \"#utility.yul\":777:809   */\n      calldataload\n      swap3\n      pop\n      pop\n        /* \"#utility.yul\":150:815   */\n      jump\t// out\n        /* \"#utility.yul\":1002:1369   */\n    tag_353:\n        /* \"#utility.yul\":1065:1073   */\n      0x00\n        /* \"#utility.yul\":1075:1081   */\n      dup1\n        /* \"#utility.yul\":1129:1132   */\n      dup4\n        /* \"#utility.yul\":1122:1126   */\n      0x1f\n        /* \"#utility.yul\":1114:1120   */\n      dup5\n        /* \"#utility.yul\":1110:1127   */\n      add\n        /* \"#utility.yul\":1106:1133   */\n      slt\n        /* \"#utility.yul\":1096:1151   */\n      tag_366\n      jumpi\n        /* \"#utility.yul\":1147:1148   */\n      0x00\n        /* \"#utility.yul\":1144:1145   */\n      dup1\n        /* \"#utility.yul\":1137:1149   */\n      revert\n        /* \"#utility.yul\":1096:1151   */\n    tag_366:\n      pop\n        /* \"#utility.yul\":1170:1190   */\n      dup2\n      calldataload\n        /* \"#utility.yul\":1213:1231   */\n      0xffffffffffffffff\n        /* \"#utility.yul\":1202:1232   */\n      dup2\n      gt\n        /* \"#utility.yul\":1199:1249   */\n      iszero\n      tag_367\n      jumpi\n        /* \"#utility.yul\":1245:1246   */\n      0x00\n        /* \"#utility.yul\":1242:1243   */\n      dup1\n        /* \"#utility.yul\":1235:1247   */\n      revert\n        /* \"#utility.yul\":1199:1249   */\n    tag_367:\n        /* \"#utility.yul\":1282:1286   */\n      0x20\n        /* \"#utility.yul\":1274:1280   */\n      dup4\n        /* \"#utility.yul\":1270:1287   */\n      add\n        /* \"#utility.yul\":1258:1287   */\n      swap2\n      pop\n        /* \"#utility.yul\":1342:1345   */\n      dup4\n        /* \"#utility.yul\":1335:1339   */\n      0x20\n        /* \"#utility.yul\":1325:1331   */\n      dup3\n        /* \"#utility.yul\":1322:1323   */\n      0x05\n        /* \"#utility.yul\":1318:1332   */\n      shl\n        /* \"#utility.yul\":1310:1316   */\n      dup6\n        /* \"#utility.yul\":1306:1333   */\n      add\n        /* \"#utility.yul\":1302:1340   */\n      add\n        /* \"#utility.yul\":1299:1346   */\n      gt\n        /* \"#utility.yul\":1296:1363   */\n      iszero\n      tag_286\n      jumpi\n        /* \"#utility.yul\":1359:1360   */\n      0x00\n        /* \"#utility.yul\":1356:1357   */\n      dup1\n        /* \"#utility.yul\":1349:1361   */\n      revert\n        /* \"#utility.yul\":1374:2158   */\n    tag_30:\n        /* \"#utility.yul\":1507:1513   */\n      0x00\n        /* \"#utility.yul\":1515:1521   */\n      dup1\n        /* \"#utility.yul\":1523:1529   */\n      0x00\n        /* \"#utility.yul\":1531:1537   */\n      dup1\n        /* \"#utility.yul\":1584:1586   */\n      0x40\n        /* \"#utility.yul\":1572:1581   */\n      dup6\n        /* \"#utility.yul\":1563:1570   */\n      dup8\n        /* \"#utility.yul\":1559:1582   */\n      sub\n        /* \"#utility.yul\":1555:1587   */\n      slt\n        /* \"#utility.yul\":1552:1604   */\n      iszero\n      tag_370\n      jumpi\n        /* \"#utility.yul\":1600:1601   */\n      0x00\n        /* \"#utility.yul\":1597:1598   */\n      dup1\n        /* \"#utility.yul\":1590:1602   */\n      revert\n        /* \"#utility.yul\":1552:1604   */\n    tag_370:\n        /* \"#utility.yul\":1640:1649   */\n      dup5\n        /* \"#utility.yul\":1627:1650   */\n      calldataload\n        /* \"#utility.yul\":1669:1687   */\n      0xffffffffffffffff\n        /* \"#utility.yul\":1710:1712   */\n      dup1\n        /* \"#utility.yul\":1702:1708   */\n      dup3\n        /* \"#utility.yul\":1699:1713   */\n      gt\n        /* \"#utility.yul\":1696:1730   */\n      iszero\n      tag_371\n      jumpi\n        /* \"#utility.yul\":1726:1727   */\n      0x00\n        /* \"#utility.yul\":1723:1724   */\n      dup1\n        /* \"#utility.yul\":1716:1728   */\n      revert\n        /* \"#utility.yul\":1696:1730   */\n    tag_371:\n        /* \"#utility.yul\":1765:1835   */\n      tag_372\n        /* \"#utility.yul\":1827:1834   */\n      dup9\n        /* \"#utility.yul\":1818:1824   */\n      dup4\n        /* \"#utility.yul\":1807:1816   */\n      dup10\n        /* \"#utility.yul\":1803:1825   */\n      add\n        /* \"#utility.yul\":1765:1835   */\n      tag_353\n      jump\t// in\n    tag_372:\n        /* \"#utility.yul\":1854:1862   */\n      swap1\n      swap7\n      pop\n        /* \"#utility.yul\":1739:1835   */\n      swap5\n      pop\n        /* \"#utility.yul\":1942:1944   */\n      0x20\n        /* \"#utility.yul\":1927:1945   */\n      dup8\n      add\n        /* \"#utility.yul\":1914:1946   */\n      calldataload\n      swap2\n      pop\n        /* \"#utility.yul\":1958:1974   */\n      dup1\n      dup3\n      gt\n        /* \"#utility.yul\":1955:1991   */\n      iszero\n      tag_373\n      jumpi\n        /* \"#utility.yul\":1987:1988   */\n      0x00\n        /* \"#utility.yul\":1984:1985   */\n      dup1\n        /* \"#utility.yul\":1977:1989   */\n      revert\n        /* \"#utility.yul\":1955:1991   */\n    tag_373:\n      pop\n        /* \"#utility.yul\":2026:2098   */\n      tag_374\n        /* \"#utility.yul\":2090:2097   */\n      dup8\n        /* \"#utility.yul\":2079:2087   */\n      dup3\n        /* \"#utility.yul\":2068:2077   */\n      dup9\n        /* \"#utility.yul\":2064:2088   */\n      add\n        /* \"#utility.yul\":2026:2098   */\n      tag_353\n      jump\t// in\n    tag_374:\n        /* \"#utility.yul\":1374:2158   */\n      swap6\n      swap9\n      swap5\n      swap8\n      pop\n        /* \"#utility.yul\":2117:2125   */\n      swap6\n      pop\n      pop\n      pop\n      pop\n        /* \"#utility.yul\":1374:2158   */\n      jump\t// out\n        /* \"#utility.yul\":2163:2410   */\n    tag_35:\n        /* \"#utility.yul\":2222:2228   */\n      0x00\n        /* \"#utility.yul\":2275:2277   */\n      0x20\n        /* \"#utility.yul\":2263:2272   */\n      dup3\n        /* \"#utility.yul\":2254:2261   */\n      dup5\n        /* \"#utility.yul\":2250:2273   */\n      sub\n        /* \"#utility.yul\":2246:2278   */\n      slt\n        /* \"#utility.yul\":2243:2295   */\n      iszero\n      tag_376\n      jumpi\n        /* \"#utility.yul\":2291:2292   */\n      0x00\n        /* \"#utility.yul\":2288:2289   */\n      dup1\n        /* \"#utility.yul\":2281:2293   */\n      revert\n        /* \"#utility.yul\":2243:2295   */\n    tag_376:\n        /* \"#utility.yul\":2330:2339   */\n      dup2\n        /* \"#utility.yul\":2317:2340   */\n      calldataload\n        /* \"#utility.yul\":2349:2380   */\n      tag_195\n        /* \"#utility.yul\":2374:2379   */\n      dup2\n        /* \"#utility.yul\":2349:2380   */\n      tag_352\n      jump\t// in\n        /* \"#utility.yul\":2415:2738   */\n    tag_42:\n        /* \"#utility.yul\":2491:2497   */\n      0x00\n        /* \"#utility.yul\":2499:2505   */\n      dup1\n        /* \"#utility.yul\":2552:2554   */\n      0x40\n        /* \"#utility.yul\":2540:2549   */\n      dup4\n        /* \"#utility.yul\":2531:2538   */\n      dup6\n        /* \"#utility.yul\":2527:2550   */\n      sub\n        /* \"#utility.yul\":2523:2555   */\n      slt\n        /* \"#utility.yul\":2520:2572   */\n      iszero\n      tag_379\n      jumpi\n        /* \"#utility.yul\":2568:2569   */\n      0x00\n        /* \"#utility.yul\":2565:2566   */\n      dup1\n        /* \"#utility.yul\":2558:2570   */\n      revert\n        /* \"#utility.yul\":2520:2572   */\n    tag_379:\n        /* \"#utility.yul\":2607:2616   */\n      dup3\n        /* \"#utility.yul\":2594:2617   */\n      calldataload\n        /* \"#utility.yul\":2626:2657   */\n      tag_380\n        /* \"#utility.yul\":2651:2656   */\n      dup2\n        /* \"#utility.yul\":2626:2657   */\n      tag_352\n      jump\t// in\n    tag_380:\n        /* \"#utility.yul\":2676:2681   */\n      swap5\n        /* \"#utility.yul\":2728:2730   */\n      0x20\n        /* \"#utility.yul\":2713:2731   */\n      swap4\n      swap1\n      swap4\n      add\n        /* \"#utility.yul\":2700:2732   */\n      calldataload\n      swap4\n      pop\n      pop\n      pop\n        /* \"#utility.yul\":2415:2738   */\n      jump\t// out\n        /* \"#utility.yul\":2743:2870   */\n    tag_127:\n        /* \"#utility.yul\":2804:2814   */\n      0x4e487b71\n        /* \"#utility.yul\":2799:2802   */\n      0xe0\n        /* \"#utility.yul\":2795:2815   */\n      shl\n        /* \"#utility.yul\":2792:2793   */\n      0x00\n        /* \"#utility.yul\":2785:2816   */\n      mstore\n        /* \"#utility.yul\":2835:2839   */\n      0x41\n        /* \"#utility.yul\":2832:2833   */\n      0x04\n        /* \"#utility.yul\":2825:2840   */\n      mstore\n        /* \"#utility.yul\":2859:2863   */\n      0x24\n        /* \"#utility.yul\":2856:2857   */\n      0x00\n        /* \"#utility.yul\":2849:2864   */\n      revert\n        /* \"#utility.yul\":2875:3931   */\n    tag_46:\n        /* \"#utility.yul\":2952:2958   */\n      0x00\n        /* \"#utility.yul\":2960:2966   */\n      dup1\n        /* \"#utility.yul\":3013:3015   */\n      0x40\n        /* \"#utility.yul\":3001:3010   */\n      dup4\n        /* \"#utility.yul\":2992:2999   */\n      dup6\n        /* \"#utility.yul\":2988:3011   */\n      sub\n        /* \"#utility.yul\":2984:3016   */\n      slt\n        /* \"#utility.yul\":2981:3033   */\n      iszero\n      tag_383\n      jumpi\n        /* \"#utility.yul\":3029:3030   */\n      0x00\n        /* \"#utility.yul\":3026:3027   */\n      dup1\n        /* \"#utility.yul\":3019:3031   */\n      revert\n        /* \"#utility.yul\":2981:3033   */\n    tag_383:\n        /* \"#utility.yul\":3068:3077   */\n      dup3\n        /* \"#utility.yul\":3055:3078   */\n      calldataload\n        /* \"#utility.yul\":3087:3118   */\n      tag_384\n        /* \"#utility.yul\":3112:3117   */\n      dup2\n        /* \"#utility.yul\":3087:3118   */\n      tag_352\n      jump\t// in\n    tag_384:\n        /* \"#utility.yul\":3137:3142   */\n      swap2\n      pop\n        /* \"#utility.yul\":3193:3195   */\n      0x20\n        /* \"#utility.yul\":3178:3196   */\n      dup4\n      add\n        /* \"#utility.yul\":3165:3197   */\n      calldataload\n        /* \"#utility.yul\":3216:3234   */\n      0xffffffffffffffff\n        /* \"#utility.yul\":3246:3260   */\n      dup1\n      dup3\n      gt\n        /* \"#utility.yul\":3243:3277   */\n      iszero\n      tag_385\n      jumpi\n        /* \"#utility.yul\":3273:3274   */\n      0x00\n        /* \"#utility.yul\":3270:3271   */\n      dup1\n        /* \"#utility.yul\":3263:3275   */\n      revert\n        /* \"#utility.yul\":3243:3277   */\n    tag_385:\n        /* \"#utility.yul\":3311:3317   */\n      dup2\n        /* \"#utility.yul\":3300:3309   */\n      dup6\n        /* \"#utility.yul\":3296:3318   */\n      add\n        /* \"#utility.yul\":3286:3318   */\n      swap2\n      pop\n        /* \"#utility.yul\":3356:3363   */\n      dup6\n        /* \"#utility.yul\":3349:3353   */\n      0x1f\n        /* \"#utility.yul\":3345:3347   */\n      dup4\n        /* \"#utility.yul\":3341:3354   */\n      add\n        /* \"#utility.yul\":3337:3364   */\n      slt\n        /* \"#utility.yul\":3327:3382   */\n      tag_386\n      jumpi\n        /* \"#utility.yul\":3378:3379   */\n      0x00\n        /* \"#utility.yul\":3375:3376   */\n      dup1\n        /* \"#utility.yul\":3368:3380   */\n      revert\n        /* \"#utility.yul\":3327:3382   */\n    tag_386:\n        /* \"#utility.yul\":3414:3416   */\n      dup2\n        /* \"#utility.yul\":3401:3417   */\n      calldataload\n        /* \"#utility.yul\":3436:3438   */\n      dup2\n        /* \"#utility.yul\":3432:3434   */\n      dup2\n        /* \"#utility.yul\":3429:3439   */\n      gt\n        /* \"#utility.yul\":3426:3462   */\n      iszero\n      tag_388\n      jumpi\n        /* \"#utility.yul\":3442:3460   */\n      tag_388\n      tag_127\n      jump\t// in\n    tag_388:\n        /* \"#utility.yul\":3517:3519   */\n      0x40\n        /* \"#utility.yul\":3511:3520   */\n      mload\n        /* \"#utility.yul\":3485:3487   */\n      0x1f\n        /* \"#utility.yul\":3571:3584   */\n      dup3\n      add\n      not(0x1f)\n        /* \"#utility.yul\":3567:3589   */\n      swap1\n      dup2\n      and\n        /* \"#utility.yul\":3591:3593   */\n      0x3f\n        /* \"#utility.yul\":3563:3594   */\n      add\n        /* \"#utility.yul\":3559:3599   */\n      and\n        /* \"#utility.yul\":3547:3600   */\n      dup2\n      add\n      swap1\n        /* \"#utility.yul\":3615:3633   */\n      dup4\n      dup3\n      gt\n        /* \"#utility.yul\":3635:3657   */\n      dup2\n      dup4\n      lt\n        /* \"#utility.yul\":3612:3658   */\n      or\n        /* \"#utility.yul\":3609:3681   */\n      iszero\n      tag_390\n      jumpi\n        /* \"#utility.yul\":3661:3679   */\n      tag_390\n      tag_127\n      jump\t// in\n    tag_390:\n        /* \"#utility.yul\":3701:3711   */\n      dup2\n        /* \"#utility.yul\":3697:3699   */\n      0x40\n        /* \"#utility.yul\":3690:3712   */\n      mstore\n        /* \"#utility.yul\":3736:3738   */\n      dup3\n        /* \"#utility.yul\":3728:3734   */\n      dup2\n        /* \"#utility.yul\":3721:3739   */\n      mstore\n        /* \"#utility.yul\":3776:3783   */\n      dup9\n        /* \"#utility.yul\":3771:3773   */\n      0x20\n        /* \"#utility.yul\":3766:3768   */\n      dup5\n        /* \"#utility.yul\":3762:3764   */\n      dup8\n        /* \"#utility.yul\":3758:3769   */\n      add\n        /* \"#utility.yul\":3754:3774   */\n      add\n        /* \"#utility.yul\":3751:3784   */\n      gt\n        /* \"#utility.yul\":3748:3801   */\n      iszero\n      tag_391\n      jumpi\n        /* \"#utility.yul\":3797:3798   */\n      0x00\n        /* \"#utility.yul\":3794:3795   */\n      dup1\n        /* \"#utility.yul\":3787:3799   */\n      revert\n        /* \"#utility.yul\":3748:3801   */\n    tag_391:\n        /* \"#utility.yul\":3853:3855   */\n      dup3\n        /* \"#utility.yul\":3848:3850   */\n      0x20\n        /* \"#utility.yul\":3844:3846   */\n      dup7\n        /* \"#utility.yul\":3840:3851   */\n      add\n        /* \"#utility.yul\":3835:3837   */\n      0x20\n        /* \"#utility.yul\":3827:3833   */\n      dup4\n        /* \"#utility.yul\":3823:3838   */\n      add\n        /* \"#utility.yul\":3810:3856   */\n      calldatacopy\n        /* \"#utility.yul\":3898:3899   */\n      0x00\n        /* \"#utility.yul\":3893:3895   */\n      0x20\n        /* \"#utility.yul\":3888:3890   */\n      dup5\n        /* \"#utility.yul\":3880:3886   */\n      dup4\n        /* \"#utility.yul\":3876:3891   */\n      add\n        /* \"#utility.yul\":3872:3896   */\n      add\n        /* \"#utility.yul\":3865:3900   */\n      mstore\n        /* \"#utility.yul\":3919:3925   */\n      dup1\n        /* \"#utility.yul\":3909:3925   */\n      swap6\n      pop\n      pop\n      pop\n      pop\n      pop\n      pop\n        /* \"#utility.yul\":2875:3931   */\n      swap3\n      pop\n      swap3\n      swap1\n      pop\n      jump\t// out\n        /* \"#utility.yul\":4554:5348   */\n    tag_70:\n        /* \"#utility.yul\":4642:4648   */\n      0x00\n        /* \"#utility.yul\":4650:4656   */\n      dup1\n        /* \"#utility.yul\":4658:4664   */\n      0x00\n        /* \"#utility.yul\":4666:4672   */\n      dup1\n        /* \"#utility.yul\":4719:4721   */\n      0x60\n        /* \"#utility.yul\":4707:4716   */\n      dup6\n        /* \"#utility.yul\":4698:4705   */\n      dup8\n        /* \"#utility.yul\":4694:4717   */\n      sub\n        /* \"#utility.yul\":4690:4722   */\n      slt\n        /* \"#utility.yul\":4687:4739   */\n      iszero\n      tag_396\n      jumpi\n        /* \"#utility.yul\":4735:4736   */\n      0x00\n        /* \"#utility.yul\":4732:4733   */\n      dup1\n        /* \"#utility.yul\":4725:4737   */\n      revert\n        /* \"#utility.yul\":4687:4739   */\n    tag_396:\n        /* \"#utility.yul\":4774:4783   */\n      dup5\n        /* \"#utility.yul\":4761:4784   */\n      calldataload\n        /* \"#utility.yul\":4793:4824   */\n      tag_397\n        /* \"#utility.yul\":4818:4823   */\n      dup2\n        /* \"#utility.yul\":4793:4824   */\n      tag_352\n      jump\t// in\n    tag_397:\n        /* \"#utility.yul\":4843:4848   */\n      swap4\n      pop\n        /* \"#utility.yul\":4895:4897   */\n      0x20\n        /* \"#utility.yul\":4880:4898   */\n      dup6\n      add\n        /* \"#utility.yul\":4867:4899   */\n      calldataload\n      swap3\n      pop\n        /* \"#utility.yul\":4950:4952   */\n      0x40\n        /* \"#utility.yul\":4935:4953   */\n      dup6\n      add\n        /* \"#utility.yul\":4922:4954   */\n      calldataload\n        /* \"#utility.yul\":4973:4991   */\n      0xffffffffffffffff\n        /* \"#utility.yul\":5003:5017   */\n      dup1\n      dup3\n      gt\n        /* \"#utility.yul\":5000:5034   */\n      iszero\n      tag_398\n      jumpi\n        /* \"#utility.yul\":5030:5031   */\n      0x00\n        /* \"#utility.yul\":5027:5028   */\n      dup1\n        /* \"#utility.yul\":5020:5032   */\n      revert\n        /* \"#utility.yul\":5000:5034   */\n    tag_398:\n        /* \"#utility.yul\":5068:5074   */\n      dup2\n        /* \"#utility.yul\":5057:5066   */\n      dup8\n        /* \"#utility.yul\":5053:5075   */\n      add\n        /* \"#utility.yul\":5043:5075   */\n      swap2\n      pop\n        /* \"#utility.yul\":5113:5120   */\n      dup8\n        /* \"#utility.yul\":5106:5110   */\n      0x1f\n        /* \"#utility.yul\":5102:5104   */\n      dup4\n        /* \"#utility.yul\":5098:5111   */\n      add\n        /* \"#utility.yul\":5094:5121   */\n      slt\n        /* \"#utility.yul\":5084:5139   */\n      tag_399\n      jumpi\n        /* \"#utility.yul\":5135:5136   */\n      0x00\n        /* \"#utility.yul\":5132:5133   */\n      dup1\n        /* \"#utility.yul\":5125:5137   */\n      revert\n        /* \"#utility.yul\":5084:5139   */\n    tag_399:\n        /* \"#utility.yul\":5175:5177   */\n      dup2\n        /* \"#utility.yul\":5162:5178   */\n      calldataload\n        /* \"#utility.yul\":5201:5203   */\n      dup2\n        /* \"#utility.yul\":5193:5199   */\n      dup2\n        /* \"#utility.yul\":5190:5204   */\n      gt\n        /* \"#utility.yul\":5187:5221   */\n      iszero\n      tag_400\n      jumpi\n        /* \"#utility.yul\":5217:5218   */\n      0x00\n        /* \"#utility.yul\":5214:5215   */\n      dup1\n        /* \"#utility.yul\":5207:5219   */\n      revert\n        /* \"#utility.yul\":5187:5221   */\n    tag_400:\n        /* \"#utility.yul\":5262:5269   */\n      dup9\n        /* \"#utility.yul\":5257:5259   */\n      0x20\n        /* \"#utility.yul\":5248:5254   */\n      dup3\n        /* \"#utility.yul\":5244:5246   */\n      dup6\n        /* \"#utility.yul\":5240:5255   */\n      add\n        /* \"#utility.yul\":5236:5260   */\n      add\n        /* \"#utility.yul\":5233:5270   */\n      gt\n        /* \"#utility.yul\":5230:5287   */\n      iszero\n      tag_401\n      jumpi\n        /* \"#utility.yul\":5283:5284   */\n      0x00\n        /* \"#utility.yul\":5280:5281   */\n      dup1\n        /* \"#utility.yul\":5273:5285   */\n      revert\n        /* \"#utility.yul\":5230:5287   */\n    tag_401:\n        /* \"#utility.yul\":4554:5348   */\n      swap6\n      swap9\n      swap5\n      swap8\n      pop\n      pop\n        /* \"#utility.yul\":5314:5316   */\n      0x20\n        /* \"#utility.yul\":5306:5317   */\n      add\n      swap5\n      pop\n      pop\n      pop\n        /* \"#utility.yul\":4554:5348   */\n      jump\t// out\n        /* \"#utility.yul\":5353:5874   */\n    tag_86:\n        /* \"#utility.yul\":5430:5434   */\n      0x00\n        /* \"#utility.yul\":5436:5442   */\n      dup1\n        /* \"#utility.yul\":5496:5507   */\n      dup4\n        /* \"#utility.yul\":5483:5508   */\n      calldataload\n        /* \"#utility.yul\":5590:5592   */\n      0x1e\n        /* \"#utility.yul\":5586:5593   */\n      not\n        /* \"#utility.yul\":5575:5583   */\n      dup5\n        /* \"#utility.yul\":5559:5573   */\n      calldatasize\n        /* \"#utility.yul\":5555:5584   */\n      sub\n        /* \"#utility.yul\":5551:5594   */\n      add\n        /* \"#utility.yul\":5531:5549   */\n      dup2\n        /* \"#utility.yul\":5527:5595   */\n      slt\n        /* \"#utility.yul\":5517:5613   */\n      tag_403\n      jumpi\n        /* \"#utility.yul\":5609:5610   */\n      0x00\n        /* \"#utility.yul\":5606:5607   */\n      dup1\n        /* \"#utility.yul\":5599:5611   */\n      revert\n        /* \"#utility.yul\":5517:5613   */\n    tag_403:\n        /* \"#utility.yul\":5636:5669   */\n      dup4\n      add\n        /* \"#utility.yul\":5688:5708   */\n      dup1\n      calldataload\n      swap2\n      pop\n        /* \"#utility.yul\":5731:5749   */\n      0xffffffffffffffff\n        /* \"#utility.yul\":5720:5750   */\n      dup3\n      gt\n        /* \"#utility.yul\":5717:5767   */\n      iszero\n      tag_404\n      jumpi\n        /* \"#utility.yul\":5763:5764   */\n      0x00\n        /* \"#utility.yul\":5760:5761   */\n      dup1\n        /* \"#utility.yul\":5753:5765   */\n      revert\n        /* \"#utility.yul\":5717:5767   */\n    tag_404:\n        /* \"#utility.yul\":5796:5800   */\n      0x20\n        /* \"#utility.yul\":5784:5801   */\n      add\n      swap2\n      pop\n        /* \"#utility.yul\":5827:5841   */\n      calldatasize\n        /* \"#utility.yul\":5823:5850   */\n      dup2\n      swap1\n      sub\n        /* \"#utility.yul\":5813:5851   */\n      dup3\n      sgt\n        /* \"#utility.yul\":5810:5868   */\n      iszero\n      tag_286\n      jumpi\n        /* \"#utility.yul\":5864:5865   */\n      0x00\n        /* \"#utility.yul\":5861:5862   */\n      dup1\n        /* \"#utility.yul\":5854:5866   */\n      revert\n        /* \"#utility.yul\":6227:6354   */\n    tag_104:\n        /* \"#utility.yul\":6288:6298   */\n      0x4e487b71\n        /* \"#utility.yul\":6283:6286   */\n      0xe0\n        /* \"#utility.yul\":6279:6299   */\n      shl\n        /* \"#utility.yul\":6276:6277   */\n      0x00\n        /* \"#utility.yul\":6269:6300   */\n      mstore\n        /* \"#utility.yul\":6319:6323   */\n      0x32\n        /* \"#utility.yul\":6316:6317   */\n      0x04\n        /* \"#utility.yul\":6309:6324   */\n      mstore\n        /* \"#utility.yul\":6343:6347   */\n      0x24\n        /* \"#utility.yul\":6340:6341   */\n      0x00\n        /* \"#utility.yul\":6333:6348   */\n      revert\n        /* \"#utility.yul\":6359:6486   */\n    tag_354:\n        /* \"#utility.yul\":6420:6430   */\n      0x4e487b71\n        /* \"#utility.yul\":6415:6418   */\n      0xe0\n        /* \"#utility.yul\":6411:6431   */\n      shl\n        /* \"#utility.yul\":6408:6409   */\n      0x00\n        /* \"#utility.yul\":6401:6432   */\n      mstore\n        /* \"#utility.yul\":6451:6455   */\n      0x11\n        /* \"#utility.yul\":6448:6449   */\n      0x04\n        /* \"#utility.yul\":6441:6456   */\n      mstore\n        /* \"#utility.yul\":6475:6479   */\n      0x24\n        /* \"#utility.yul\":6472:6473   */\n      0x00\n        /* \"#utility.yul\":6465:6480   */\n      revert\n        /* \"#utility.yul\":6491:6626   */\n    tag_111:\n        /* \"#utility.yul\":6530:6533   */\n      0x00\n        /* \"#utility.yul\":6551:6568   */\n      0x01\n      dup3\n      add\n        /* \"#utility.yul\":6548:6591   */\n      tag_411\n      jumpi\n        /* \"#utility.yul\":6571:6589   */\n      tag_411\n      tag_354\n      jump\t// in\n    tag_411:\n      pop\n        /* \"#utility.yul\":6618:6619   */\n      0x01\n        /* \"#utility.yul\":6607:6620   */\n      add\n      swap1\n        /* \"#utility.yul\":6491:6626   */\n      jump\t// out\n        /* \"#utility.yul\":6631:7039   */\n    tag_115:\n        /* \"#utility.yul\":6833:6835   */\n      0x20\n        /* \"#utility.yul\":6815:6836   */\n      dup1\n      dup3\n      mstore\n        /* \"#utility.yul\":6872:6874   */\n      0x2c\n        /* \"#utility.yul\":6852:6870   */\n      swap1\n      dup3\n      add\n        /* \"#utility.yul\":6845:6875   */\n      mstore\n        /* \"#utility.yul\":6911:6945   */\n      0x46756e6374696f6e206d7573742062652063616c6c6564207468726f75676820\n        /* \"#utility.yul\":6906:6908   */\n      0x40\n        /* \"#utility.yul\":6891:6909   */\n      dup3\n      add\n        /* \"#utility.yul\":6884:6946   */\n      mstore\n      shl(0xa2, 0x19195b1959d85d1958d85b1b)\n        /* \"#utility.yul\":6977:6979   */\n      0x60\n        /* \"#utility.yul\":6962:6980   */\n      dup3\n      add\n        /* \"#utility.yul\":6955:6997   */\n      mstore\n        /* \"#utility.yul\":7029:7032   */\n      0x80\n        /* \"#utility.yul\":7014:7033   */\n      add\n      swap1\n        /* \"#utility.yul\":6631:7039   */\n      jump\t// out\n        /* \"#utility.yul\":7044:7452   */\n    tag_120:\n        /* \"#utility.yul\":7246:7248   */\n      0x20\n        /* \"#utility.yul\":7228:7249   */\n      dup1\n      dup3\n      mstore\n        /* \"#utility.yul\":7285:7287   */\n      0x2c\n        /* \"#utility.yul\":7265:7283   */\n      swap1\n      dup3\n      add\n        /* \"#utility.yul\":7258:7288   */\n      mstore\n        /* \"#utility.yul\":7324:7358   */\n      0x46756e6374696f6e206d7573742062652063616c6c6564207468726f75676820\n        /* \"#utility.yul\":7319:7321   */\n      0x40\n        /* \"#utility.yul\":7304:7322   */\n      dup3\n      add\n        /* \"#utility.yul\":7297:7359   */\n      mstore\n      shl(0xa0, 0x6163746976652070726f7879)\n        /* \"#utility.yul\":7390:7392   */\n      0x60\n        /* \"#utility.yul\":7375:7393   */\n      dup3\n      add\n        /* \"#utility.yul\":7368:7410   */\n      mstore\n        /* \"#utility.yul\":7442:7445   */\n      0x80\n        /* \"#utility.yul\":7427:7446   */\n      add\n      swap1\n        /* \"#utility.yul\":7044:7452   */\n      jump\t// out\n        /* \"#utility.yul\":8387:8571   */\n    tag_173:\n        /* \"#utility.yul\":8457:8463   */\n      0x00\n        /* \"#utility.yul\":8510:8512   */\n      0x20\n        /* \"#utility.yul\":8498:8507   */\n      dup3\n        /* \"#utility.yul\":8489:8496   */\n      dup5\n        /* \"#utility.yul\":8485:8508   */\n      sub\n        /* \"#utility.yul\":8481:8513   */\n      slt\n        /* \"#utility.yul\":8478:8530   */\n      iszero\n      tag_418\n      jumpi\n        /* \"#utility.yul\":8526:8527   */\n      0x00\n        /* \"#utility.yul\":8523:8524   */\n      dup1\n        /* \"#utility.yul\":8516:8528   */\n      revert\n        /* \"#utility.yul\":8478:8530   */\n    tag_418:\n      pop\n        /* \"#utility.yul\":8549:8565   */\n      mload\n      swap2\n        /* \"#utility.yul\":8387:8571   */\n      swap1\n      pop\n      jump\t// out\n        /* \"#utility.yul\":9547:9764   */\n    tag_204:\n        /* \"#utility.yul\":9585:9588   */\n      0x00\n      sub(shl(0x60, 0x01), 0x01)\n        /* \"#utility.yul\":9674:9676   */\n      dup1\n        /* \"#utility.yul\":9667:9672   */\n      dup4\n        /* \"#utility.yul\":9663:9677   */\n      and\n        /* \"#utility.yul\":9701:9703   */\n      dup2\n        /* \"#utility.yul\":9692:9699   */\n      dup2\n        /* \"#utility.yul\":9689:9704   */\n      sub\n        /* \"#utility.yul\":9686:9727   */\n      tag_424\n      jumpi\n        /* \"#utility.yul\":9707:9725   */\n      tag_424\n      tag_354\n      jump\t// in\n    tag_424:\n        /* \"#utility.yul\":9756:9757   */\n      0x01\n        /* \"#utility.yul\":9743:9758   */\n      add\n      swap4\n        /* \"#utility.yul\":9547:9764   */\n      swap3\n      pop\n      pop\n      pop\n      jump\t// out\n        /* \"#utility.yul\":10481:10731   */\n    tag_355:\n        /* \"#utility.yul\":10566:10567   */\n      0x00\n        /* \"#utility.yul\":10576:10689   */\n    tag_428:\n        /* \"#utility.yul\":10590:10596   */\n      dup4\n        /* \"#utility.yul\":10587:10588   */\n      dup2\n        /* \"#utility.yul\":10584:10597   */\n      lt\n        /* \"#utility.yul\":10576:10689   */\n      iszero\n      tag_430\n      jumpi\n        /* \"#utility.yul\":10666:10677   */\n      dup2\n      dup2\n      add\n        /* \"#utility.yul\":10660:10678   */\n      mload\n        /* \"#utility.yul\":10647:10658   */\n      dup4\n      dup3\n      add\n        /* \"#utility.yul\":10640:10679   */\n      mstore\n        /* \"#utility.yul\":10612:10614   */\n      0x20\n        /* \"#utility.yul\":10605:10615   */\n      add\n        /* \"#utility.yul\":10576:10689   */\n      jump(tag_428)\n    tag_430:\n      pop\n      pop\n        /* \"#utility.yul\":10723:10724   */\n      0x00\n        /* \"#utility.yul\":10705:10721   */\n      swap2\n      add\n        /* \"#utility.yul\":10698:10725   */\n      mstore\n        /* \"#utility.yul\":10481:10731   */\n      jump\t// out\n        /* \"#utility.yul\":10736:11023   */\n    tag_222:\n        /* \"#utility.yul\":10865:10868   */\n      0x00\n        /* \"#utility.yul\":10903:10909   */\n      dup3\n        /* \"#utility.yul\":10897:10910   */\n      mload\n        /* \"#utility.yul\":10919:10985   */\n      tag_432\n        /* \"#utility.yul\":10978:10984   */\n      dup2\n        /* \"#utility.yul\":10973:10976   */\n      dup5\n        /* \"#utility.yul\":10966:10970   */\n      0x20\n        /* \"#utility.yul\":10958:10964   */\n      dup8\n        /* \"#utility.yul\":10954:10971   */\n      add\n        /* \"#utility.yul\":10919:10985   */\n      tag_355\n      jump\t// in\n    tag_432:\n        /* \"#utility.yul\":11001:11017   */\n      swap2\n      swap1\n      swap2\n      add\n      swap3\n        /* \"#utility.yul\":10736:11023   */\n      swap2\n      pop\n      pop\n      jump\t// out\n        /* \"#utility.yul\":12795:12922   */\n    tag_290:\n        /* \"#utility.yul\":12856:12866   */\n      0x4e487b71\n        /* \"#utility.yul\":12851:12854   */\n      0xe0\n        /* \"#utility.yul\":12847:12867   */\n      shl\n        /* \"#utility.yul\":12844:12845   */\n      0x00\n        /* \"#utility.yul\":12837:12868   */\n      mstore\n        /* \"#utility.yul\":12887:12891   */\n      0x21\n        /* \"#utility.yul\":12884:12885   */\n      0x04\n        /* \"#utility.yul\":12877:12892   */\n      mstore\n        /* \"#utility.yul\":12911:12915   */\n      0x24\n        /* \"#utility.yul\":12908:12909   */\n      0x00\n        /* \"#utility.yul\":12901:12916   */\n      revert\n        /* \"#utility.yul\":14804:15200   */\n    tag_351:\n        /* \"#utility.yul\":14953:14955   */\n      0x20\n        /* \"#utility.yul\":14942:14951   */\n      dup2\n        /* \"#utility.yul\":14935:14956   */\n      mstore\n        /* \"#utility.yul\":14916:14920   */\n      0x00\n        /* \"#utility.yul\":14985:14991   */\n      dup3\n        /* \"#utility.yul\":14979:14992   */\n      mload\n        /* \"#utility.yul\":15028:15034   */\n      dup1\n        /* \"#utility.yul\":15023:15025   */\n      0x20\n        /* \"#utility.yul\":15012:15021   */\n      dup5\n        /* \"#utility.yul\":15008:15026   */\n      add\n        /* \"#utility.yul\":15001:15035   */\n      mstore\n        /* \"#utility.yul\":15044:15123   */\n      tag_446\n        /* \"#utility.yul\":15116:15122   */\n      dup2\n        /* \"#utility.yul\":15111:15113   */\n      0x40\n        /* \"#utility.yul\":15100:15109   */\n      dup6\n        /* \"#utility.yul\":15096:15114   */\n      add\n        /* \"#utility.yul\":15091:15093   */\n      0x20\n        /* \"#utility.yul\":15083:15089   */\n      dup8\n        /* \"#utility.yul\":15079:15094   */\n      add\n        /* \"#utility.yul\":15044:15123   */\n      tag_355\n      jump\t// in\n    tag_446:\n        /* \"#utility.yul\":15184:15186   */\n      0x1f\n        /* \"#utility.yul\":15163:15178   */\n      add\n      not(0x1f)\n        /* \"#utility.yul\":15159:15188   */\n      and\n        /* \"#utility.yul\":15144:15189   */\n      swap2\n      swap1\n      swap2\n      add\n        /* \"#utility.yul\":15191:15193   */\n      0x40\n        /* \"#utility.yul\":15140:15194   */\n      add\n      swap3\n        /* \"#utility.yul\":14804:15200   */\n      swap2\n      pop\n      pop\n      jump\t// out\n    stop\n    data_75b20eef8615de99c108b05f0dbda081c91897128caa336d75dffb97c4132b4d 360894a13ba1a3210667c828492db98dca3e2076cc3735a920a3ca505d382bbc\n    data_9fdcd12e4b726339b32a442b0a448365d5d85c96b2d2cff917b4f66c63110398 416464726573733a206c6f772d6c6576656c2064656c65676174652063616c6c206661696c6564\n\n    auxdata: 0xa264697066735822122076714fb3ab7f98d887c49544e0fd11001e631f063c29440bfefb809c08b7dafe64736f6c63430008120033\n}\n",
				"bytecode": {
					"linkReferences": {},
					"object": "60c06040523060805234801561001457600080fd5b5060405161193b38038061193b83398101604081905261003391610044565b6001600160a01b031660a052610074565b60006020828403121561005657600080fd5b81516001600160a01b038116811461006d57600080fd5b9392505050565b60805160a05161185c6100df60003960008181610202015281816104a50152818161052b015281816107880152818161093301528181610b3c0152610e1d0152600081816103cc0152818161040c015281816105bc015281816105fc015261068f015261185c6000f3fe6080604052600436106100c65760003560e01c806352d1902d1161007f578063b0d691fe11610059578063b0d691fe146101f3578063b61d27f614610226578063c399ec8814610246578063c4d66de81461025b57600080fd5b806352d1902d146101825780638da5cb5b14610197578063affed0e0146101cf57600080fd5b80630825d1fc146100d257806318dfb3c7146101055780633659cfe6146101275780634a58db19146101475780634d44560d1461014f5780634f1ef2861461016f57600080fd5b366100cd57005b600080fd5b3480156100de57600080fd5b506100f26100ed36600461132f565b61027b565b6040519081526020015b60405180910390f35b34801561011157600080fd5b506101256101203660046113db565b6102c2565b005b34801561013357600080fd5b50610125610142366004611447565b6103c2565b6101256104a1565b34801561015b57600080fd5b5061012561016a366004611464565b610521565b61012561017d3660046114a6565b6105b2565b34801561018e57600080fd5b506100f2610682565b3480156101a357600080fd5b506001546101b7906001600160a01b031681565b6040516001600160a01b0390911681526020016100fc565b3480156101db57600080fd5b506000546201000090046001600160601b03166100f2565b3480156101ff57600080fd5b507f00000000000000000000000000000000000000000000000000000000000000006101b7565b34801561023257600080fd5b5061012561024136600461156a565b610735565b34801561025257600080fd5b506100f2610784565b34801561026757600080fd5b50610125610276366004611447565b610816565b6000610285610928565b6102908585856109a2565b905061029f60408601866115f3565b90506000036102b1576102b185610a4b565b6102ba82610ae4565b949350505050565b6102ca610b31565b8281146103145760405162461bcd60e51b815260206004820152601360248201527277726f6e67206172726179206c656e6774687360681b60448201526064015b60405180910390fd5b60005b838110156103bb576103a98585838181106103345761033461163a565b90506020020160208101906103499190611447565b600085858581811061035d5761035d61163a565b905060200281019061036f91906115f3565b8080601f016020809104026020016040519081016040528093929190818152602001838380828437600092019190915250610bbe92505050565b806103b381611666565b915050610317565b5050505050565b6001600160a01b037f000000000000000000000000000000000000000000000000000000000000000016300361040a5760405162461bcd60e51b815260040161030b9061167f565b7f00000000000000000000000000000000000000000000000000000000000000006001600160a01b03166104536000805160206117e0833981519152546001600160a01b031690565b6001600160a01b0316146104795760405162461bcd60e51b815260040161030b906116cb565b61048281610c2e565b6040805160008082526020820190925261049e91839190610c36565b50565b60007f00000000000000000000000000000000000000000000000000000000000000006001600160a01b03163460405160006040518083038185875af1925050503d806000811461050e576040519150601f19603f3d011682016040523d82523d6000602084013e610513565b606091505b505090508061049e57600080fd5b610529610da6565b7f000000000000000000000000000000000000000000000000000000000000000060405163040b850f60e31b81526001600160a01b03848116600483015260248201849052919091169063205c287890604401600060405180830381600087803b15801561059657600080fd5b505af11580156105aa573d6000803e3d6000fd5b505050505050565b6001600160a01b037f00000000000000000000000000000000000000000000000000000000000000001630036105fa5760405162461bcd60e51b815260040161030b9061167f565b7f00000000000000000000000000000000000000000000000000000000000000006001600160a01b03166106436000805160206117e0833981519152546001600160a01b031690565b6001600160a01b0316146106695760405162461bcd60e51b815260040161030b906116cb565b61067282610c2e565b61067e82826001610c36565b5050565b6000306001600160a01b037f000000000000000000000000000000000000000000000000000000000000000016146107225760405162461bcd60e51b815260206004820152603860248201527f555550535570677261646561626c653a206d757374206e6f742062652063616c60448201527f6c6564207468726f7567682064656c656761746563616c6c0000000000000000606482015260840161030b565b506000805160206117e083398151915290565b61073d610b31565b61077e848484848080601f016020809104026020016040519081016040528093929190818152602001838380828437600092019190915250610bbe92505050565b50505050565b60007f00000000000000000000000000000000000000000000000000000000000000006040516370a0823160e01b81523060048201526001600160a01b0391909116906370a0823190602401602060405180830381865afa1580156107ed573d6000803e3d6000fd5b505050506040513d601f19601f820116820180604052508101906108119190611717565b905090565b600054610100900460ff16158080156108365750600054600160ff909116105b806108505750303b158015610850575060005460ff166001145b6108b35760405162461bcd60e51b815260206004820152602e60248201527f496e697469616c697a61626c653a20636f6e747261637420697320616c72656160448201526d191e481a5b9a5d1a585b1a5e995960921b606482015260840161030b565b6000805460ff1916600117905580156108d6576000805461ff0019166101001790555b6108df82610df7565b801561067e576000805461ff0019169055604051600181527f7f26b83ff96e1f2b6a682f133852f6798a09c465da95921460cefb38474024989060200160405180910390a15050565b336001600160a01b037f000000000000000000000000000000000000000000000000000000000000000016146109a05760405162461bcd60e51b815260206004820152601c60248201527f6163636f756e743a206e6f742066726f6d20456e747279506f696e7400000000604482015260640161030b565b565b7f19457468657265756d205369676e6564204d6573736167653a0a3332000000006000908152601c839052603c8120610a1f6109e26101408701876115f3565b8080601f0160208091040260200160405190810160405280939291908181526020018383808284376000920191909152508593925050610e679050565b6001546001600160a01b03908116911614610a3e576001915050610a44565b60009150505b9392505050565b60008054602083013591620100009091046001600160601b0316906002610a7183611730565b91906101000a8154816001600160601b0302191690836001600160601b031602179055506001600160601b03161461049e5760405162461bcd60e51b81526020600482015260166024820152756163636f756e743a20696e76616c6964206e6f6e636560501b604482015260640161030b565b801561049e57604051600090339060001990849084818181858888f193505050503d80600081146103bb576040519150601f19603f3d011682016040523d82523d6000602084013e6103bb565b336001600160a01b037f0000000000000000000000000000000000000000000000000000000000000000161480610b7257506001546001600160a01b031633145b6109a05760405162461bcd60e51b815260206004820181905260248201527f6163636f756e743a206e6f74204f776e6572206f7220456e747279506f696e74604482015260640161030b565b600080846001600160a01b03168484604051610bda919061177a565b60006040518083038185875af1925050503d8060008114610c17576040519150601f19603f3d011682016040523d82523d6000602084013e610c1c565b606091505b5091509150816103bb57805160208201fd5b61049e610da6565b7f4910fdfa16fed3260ed0e7147f7cc6da11a60208b5b9406d12a635614ffd91435460ff1615610c6e57610c6983610e8b565b505050565b826001600160a01b03166352d1902d6040518163ffffffff1660e01b8152600401602060405180830381865afa925050508015610cc8575060408051601f3d908101601f19168201909252610cc591810190611717565b60015b610d2b5760405162461bcd60e51b815260206004820152602e60248201527f45524331393637557067726164653a206e657720696d706c656d656e7461746960448201526d6f6e206973206e6f74205555505360901b606482015260840161030b565b6000805160206117e08339815191528114610d9a5760405162461bcd60e51b815260206004820152602960248201527f45524331393637557067726164653a20756e737570706f727465642070726f786044820152681a58589b195555525160ba1b606482015260840161030b565b50610c69838383610f27565b6001546001600160a01b0316331480610dbe57503330145b6109a05760405162461bcd60e51b815260206004820152600a60248201526937b7363c9037bbb732b960b11b604482015260640161030b565b600180546001600160a01b0319166001600160a01b0383811691821790925560405190917f000000000000000000000000000000000000000000000000000000000000000016907f47e55c76e7a6f1fd8996a1da8008c1ea29699cca35e7bcd057f2dec313b6e5de90600090a350565b6000806000610e768585610f4c565b91509150610e8381610f91565b509392505050565b6001600160a01b0381163b610ef85760405162461bcd60e51b815260206004820152602d60248201527f455243313936373a206e657720696d706c656d656e746174696f6e206973206e60448201526c1bdd08184818dbdb9d1c9858dd609a1b606482015260840161030b565b6000805160206117e083398151915280546001600160a01b0319166001600160a01b0392909216919091179055565b610f30836110db565b600082511180610f3d5750805b15610c695761077e838361111b565b6000808251604103610f825760208301516040840151606085015160001a610f7687828585611140565b94509450505050610f8a565b506000905060025b9250929050565b6000816004811115610fa557610fa5611796565b03610fad5750565b6001816004811115610fc157610fc1611796565b0361100e5760405162461bcd60e51b815260206004820152601860248201527f45434453413a20696e76616c6964207369676e61747572650000000000000000604482015260640161030b565b600281600481111561102257611022611796565b0361106f5760405162461bcd60e51b815260206004820152601f60248201527f45434453413a20696e76616c6964207369676e6174757265206c656e67746800604482015260640161030b565b600381600481111561108357611083611796565b0361049e5760405162461bcd60e51b815260206004820152602260248201527f45434453413a20696e76616c6964207369676e6174757265202773272076616c604482015261756560f01b606482015260840161030b565b6110e481610e8b565b6040516001600160a01b038216907fbc7cd75a20ee27fd9adebab32041f755214dbc6bffa90cc0225b39da2e5c2d3b90600090a250565b6060610a44838360405180606001604052806027815260200161180060279139611204565b6000807f7fffffffffffffffffffffffffffffff5d576e7357a4501ddfe92f46681b20a083111561117757506000905060036111fb565b6040805160008082526020820180845289905260ff881692820192909252606081018690526080810185905260019060a0016020604051602081039080840390855afa1580156111cb573d6000803e3d6000fd5b5050604051601f1901519150506001600160a01b0381166111f4576000600192509250506111fb565b9150600090505b94509492505050565b6060600080856001600160a01b031685604051611221919061177a565b600060405180830381855af49150503d806000811461125c576040519150601f19603f3d011682016040523d82523d6000602084013e611261565b606091505b50915091506112728683838761127c565b9695505050505050565b606083156112eb5782516000036112e4576001600160a01b0385163b6112e45760405162461bcd60e51b815260206004820152601d60248201527f416464726573733a2063616c6c20746f206e6f6e2d636f6e7472616374000000604482015260640161030b565b50816102ba565b6102ba83838151156113005781518083602001fd5b8060405162461bcd60e51b815260040161030b91906117ac565b6001600160a01b038116811461049e57600080fd5b6000806000806080858703121561134557600080fd5b843567ffffffffffffffff81111561135c57600080fd5b8501610160818803121561136f57600080fd5b93506020850135925060408501356113868161131a565b9396929550929360600135925050565b60008083601f8401126113a857600080fd5b50813567ffffffffffffffff8111156113c057600080fd5b6020830191508360208260051b8501011115610f8a57600080fd5b600080600080604085870312156113f157600080fd5b843567ffffffffffffffff8082111561140957600080fd5b61141588838901611396565b9096509450602087013591508082111561142e57600080fd5b5061143b87828801611396565b95989497509550505050565b60006020828403121561145957600080fd5b8135610a448161131a565b6000806040838503121561147757600080fd5b82356114828161131a565b946020939093013593505050565b634e487b7160e01b600052604160045260246000fd5b600080604083850312156114b957600080fd5b82356114c48161131a565b9150602083013567ffffffffffffffff808211156114e157600080fd5b818501915085601f8301126114f557600080fd5b81358181111561150757611507611490565b604051601f8201601f19908116603f0116810190838211818310171561152f5761152f611490565b8160405282815288602084870101111561154857600080fd5b8260208601602083013760006020848301015280955050505050509250929050565b6000806000806060858703121561158057600080fd5b843561158b8161131a565b935060208501359250604085013567ffffffffffffffff808211156115af57600080fd5b818701915087601f8301126115c357600080fd5b8135818111156115d257600080fd5b8860208285010111156115e457600080fd5b95989497505060200194505050565b6000808335601e1984360301811261160a57600080fd5b83018035915067ffffffffffffffff82111561162557600080fd5b602001915036819003821315610f8a57600080fd5b634e487b7160e01b600052603260045260246000fd5b634e487b7160e01b600052601160045260246000fd5b60006001820161167857611678611650565b5060010190565b6020808252602c908201527f46756e6374696f6e206d7573742062652063616c6c6564207468726f7567682060408201526b19195b1959d85d1958d85b1b60a21b606082015260800190565b6020808252602c908201527f46756e6374696f6e206d7573742062652063616c6c6564207468726f7567682060408201526b6163746976652070726f787960a01b606082015260800190565b60006020828403121561172957600080fd5b5051919050565b60006001600160601b0380831681810361174c5761174c611650565b6001019392505050565b60005b83811015611771578181015183820152602001611759565b50506000910152565b6000825161178c818460208701611756565b9190910192915050565b634e487b7160e01b600052602160045260246000fd5b60208152600082518060208401526117cb816040850160208701611756565b601f01601f1916919091016040019291505056fe360894a13ba1a3210667c828492db98dca3e2076cc3735a920a3ca505d382bbc416464726573733a206c6f772d6c6576656c2064656c65676174652063616c6c206661696c6564a264697066735822122076714fb3ab7f98d887c49544e0fd11001e631f063c29440bfefb809c08b7dafe64736f6c63430008120033",
					"opcodes": "PUSH1 0xC0 PUSH1 0x40 MSTORE ADDRESS PUSH1 0x80 MSTORE CALLVALUE DUP1 ISZERO PUSH2 0x14 JUMPI PUSH1 0x0 DUP1 REVERT JUMPDEST POP PUSH1 0x40 MLOAD PUSH2 0x193B CODESIZE SUB DUP1 PUSH2 0x193B DUP4 CODECOPY DUP2 ADD PUSH1 0x40 DUP2 SWAP1 MSTORE PUSH2 0x33 SWAP2 PUSH2 0x44 JUMP JUMPDEST PUSH1 0x1 PUSH1 0x1 PUSH1 0xA0 SHL SUB AND PUSH1 0xA0 MSTORE PUSH2 0x74 JUMP JUMPDEST PUSH1 0x0 PUSH1 0x20 DUP3 DUP5 SUB SLT ISZERO PUSH2 0x56 JUMPI PUSH1 0x0 DUP1 REVERT JUMPDEST DUP2 MLOAD PUSH1 0x1 PUSH1 0x1 PUSH1 0xA0 SHL SUB DUP2 AND DUP2 EQ PUSH2 0x6D JUMPI PUSH1 0x0 DUP1 REVERT JUMPDEST SWAP4 SWAP3 POP POP POP JUMP JUMPDEST PUSH1 0x80 MLOAD PUSH1 0xA0 MLOAD PUSH2 0x185C PUSH2 0xDF PUSH1 0x0 CODECOPY PUSH1 0x0 DUP2 DUP2 PUSH2 0x202 ADD MSTORE DUP2 DUP2 PUSH2 0x4A5 ADD MSTORE DUP2 DUP2 PUSH2 0x52B ADD MSTORE DUP2 DUP2 PUSH2 0x788 ADD MSTORE DUP2 DUP2 PUSH2 0x933 ADD MSTORE DUP2 DUP2 PUSH2 0xB3C ADD MSTORE PUSH2 0xE1D ADD MSTORE PUSH1 0x0 DUP2 DUP2 PUSH2 0x3CC ADD MSTORE DUP2 DUP2 PUSH2 0x40C ADD MSTORE DUP2 DUP2 PUSH2 0x5BC ADD MSTORE DUP2 DUP2 PUSH2 0x5FC ADD MSTORE PUSH2 0x68F ADD MSTORE PUSH2 0x185C PUSH1 0x0 RETURN INVALID PUSH1 0x80 PUSH1 0x40 MSTORE PUSH1 0x4 CALLDATASIZE LT PUSH2 0xC6 JUMPI PUSH1 0x0 CALLDATALOAD PUSH1 0xE0 SHR DUP1 PUSH4 0x52D1902D GT PUSH2 0x7F JUMPI DUP1 PUSH4 0xB0D691FE GT PUSH2 0x59 JUMPI DUP1 PUSH4 0xB0D691FE EQ PUSH2 0x1F3 JUMPI DUP1 PUSH4 0xB61D27F6 EQ PUSH2 0x226 JUMPI DUP1 PUSH4 0xC399EC88 EQ PUSH2 0x246 JUMPI DUP1 PUSH4 0xC4D66DE8 EQ PUSH2 0x25B JUMPI PUSH1 0x0 DUP1 REVERT JUMPDEST DUP1 PUSH4 0x52D1902D EQ PUSH2 0x182 JUMPI DUP1 PUSH4 0x8DA5CB5B EQ PUSH2 0x197 JUMPI DUP1 PUSH4 0xAFFED0E0 EQ PUSH2 0x1CF JUMPI PUSH1 0x0 DUP1 REVERT JUMPDEST DUP1 PUSH4 0x825D1FC EQ PUSH2 0xD2 JUMPI DUP1 PUSH4 0x18DFB3C7 EQ PUSH2 0x105 JUMPI DUP1 PUSH4 0x3659CFE6 EQ PUSH2 0x127 JUMPI DUP1 PUSH4 0x4A58DB19 EQ PUSH2 0x147 JUMPI DUP1 PUSH4 0x4D44560D EQ PUSH2 0x14F JUMPI DUP1 PUSH4 0x4F1EF286 EQ PUSH2 0x16F JUMPI PUSH1 0x0 DUP1 REVERT JUMPDEST CALLDATASIZE PUSH2 0xCD JUMPI STOP JUMPDEST PUSH1 0x0 DUP1 REVERT JUMPDEST CALLVALUE DUP1 ISZERO PUSH2 0xDE JUMPI PUSH1 0x0 DUP1 REVERT JUMPDEST POP PUSH2 0xF2 PUSH2 0xED CALLDATASIZE PUSH1 0x4 PUSH2 0x132F JUMP JUMPDEST PUSH2 0x27B JUMP JUMPDEST PUSH1 0x40 MLOAD SWAP1 DUP2 MSTORE PUSH1 0x20 ADD JUMPDEST PUSH1 0x40 MLOAD DUP1 SWAP2 SUB SWAP1 RETURN JUMPDEST CALLVALUE DUP1 ISZERO PUSH2 0x111 JUMPI PUSH1 0x0 DUP1 REVERT JUMPDEST POP PUSH2 0x125 PUSH2 0x120 CALLDATASIZE PUSH1 0x4 PUSH2 0x13DB JUMP JUMPDEST PUSH2 0x2C2 JUMP JUMPDEST STOP JUMPDEST CALLVALUE DUP1 ISZERO PUSH2 0x133 JUMPI PUSH1 0x0 DUP1 REVERT JUMPDEST POP PUSH2 0x125 PUSH2 0x142 CALLDATASIZE PUSH1 0x4 PUSH2 0x1447 JUMP JUMPDEST PUSH2 0x3C2 JUMP JUMPDEST PUSH2 0x125 PUSH2 0x4A1 JUMP JUMPDEST CALLVALUE DUP1 ISZERO PUSH2 0x15B JUMPI PUSH1 0x0 DUP1 REVERT JUMPDEST POP PUSH2 0x125 PUSH2 0x16A CALLDATASIZE PUSH1 0x4 PUSH2 0x1464 JUMP JUMPDEST PUSH2 0x521 JUMP JUMPDEST PUSH2 0x125 PUSH2 0x17D CALLDATASIZE PUSH1 0x4 PUSH2 0x14A6 JUMP JUMPDEST PUSH2 0x5B2 JUMP JUMPDEST CALLVALUE DUP1 ISZERO PUSH2 0x18E JUMPI PUSH1 0x0 DUP1 REVERT JUMPDEST POP PUSH2 0xF2 PUSH2 0x682 JUMP JUMPDEST CALLVALUE DUP1 ISZERO PUSH2 0x1A3 JUMPI PUSH1 0x0 DUP1 REVERT JUMPDEST POP PUSH1 0x1 SLOAD PUSH2 0x1B7 SWAP1 PUSH1 0x1 PUSH1 0x1 PUSH1 0xA0 SHL SUB AND DUP2 JUMP JUMPDEST PUSH1 0x40 MLOAD PUSH1 0x1 PUSH1 0x1 PUSH1 0xA0 SHL SUB SWAP1 SWAP2 AND DUP2 MSTORE PUSH1 0x20 ADD PUSH2 0xFC JUMP JUMPDEST CALLVALUE DUP1 ISZERO PUSH2 0x1DB JUMPI PUSH1 0x0 DUP1 REVERT JUMPDEST POP PUSH1 0x0 SLOAD PUSH3 0x10000 SWAP1 DIV PUSH1 0x1 PUSH1 0x1 PUSH1 0x60 SHL SUB AND PUSH2 0xF2 JUMP JUMPDEST CALLVALUE DUP1 ISZERO PUSH2 0x1FF JUMPI PUSH1 0x0 DUP1 REVERT JUMPDEST POP PUSH32 0x0 PUSH2 0x1B7 JUMP JUMPDEST CALLVALUE DUP1 ISZERO PUSH2 0x232 JUMPI PUSH1 0x0 DUP1 REVERT JUMPDEST POP PUSH2 0x125 PUSH2 0x241 CALLDATASIZE PUSH1 0x4 PUSH2 0x156A JUMP JUMPDEST PUSH2 0x735 JUMP JUMPDEST CALLVALUE DUP1 ISZERO PUSH2 0x252 JUMPI PUSH1 0x0 DUP1 REVERT JUMPDEST POP PUSH2 0xF2 PUSH2 0x784 JUMP JUMPDEST CALLVALUE DUP1 ISZERO PUSH2 0x267 JUMPI PUSH1 0x0 DUP1 REVERT JUMPDEST POP PUSH2 0x125 PUSH2 0x276 CALLDATASIZE PUSH1 0x4 PUSH2 0x1447 JUMP JUMPDEST PUSH2 0x816 JUMP JUMPDEST PUSH1 0x0 PUSH2 0x285 PUSH2 0x928 JUMP JUMPDEST PUSH2 0x290 DUP6 DUP6 DUP6 PUSH2 0x9A2 JUMP JUMPDEST SWAP1 POP PUSH2 0x29F PUSH1 0x40 DUP7 ADD DUP7 PUSH2 0x15F3 JUMP JUMPDEST SWAP1 POP PUSH1 0x0 SUB PUSH2 0x2B1 JUMPI PUSH2 0x2B1 DUP6 PUSH2 0xA4B JUMP JUMPDEST PUSH2 0x2BA DUP3 PUSH2 0xAE4 JUMP JUMPDEST SWAP5 SWAP4 POP POP POP POP JUMP JUMPDEST PUSH2 0x2CA PUSH2 0xB31 JUMP JUMPDEST DUP3 DUP2 EQ PUSH2 0x314 JUMPI PUSH1 0x40 MLOAD PUSH3 0x461BCD PUSH1 0xE5 SHL DUP2 MSTORE PUSH1 0x20 PUSH1 0x4 DUP3 ADD MSTORE PUSH1 0x13 PUSH1 0x24 DUP3 ADD MSTORE PUSH19 0x77726F6E67206172726179206C656E67746873 PUSH1 0x68 SHL PUSH1 0x44 DUP3 ADD MSTORE PUSH1 0x64 ADD JUMPDEST PUSH1 0x40 MLOAD DUP1 SWAP2 SUB SWAP1 REVERT JUMPDEST PUSH1 0x0 JUMPDEST DUP4 DUP2 LT ISZERO PUSH2 0x3BB JUMPI PUSH2 0x3A9 DUP6 DUP6 DUP4 DUP2 DUP2 LT PUSH2 0x334 JUMPI PUSH2 0x334 PUSH2 0x163A JUMP JUMPDEST SWAP1 POP PUSH1 0x20 MUL ADD PUSH1 0x20 DUP2 ADD SWAP1 PUSH2 0x349 SWAP2 SWAP1 PUSH2 0x1447 JUMP JUMPDEST PUSH1 0x0 DUP6 DUP6 DUP6 DUP2 DUP2 LT PUSH2 0x35D JUMPI PUSH2 0x35D PUSH2 0x163A JUMP JUMPDEST SWAP1 POP PUSH1 0x20 MUL DUP2 ADD SWAP1 PUSH2 0x36F SWAP2 SWAP1 PUSH2 0x15F3 JUMP JUMPDEST DUP1 DUP1 PUSH1 0x1F ADD PUSH1 0x20 DUP1 SWAP2 DIV MUL PUSH1 0x20 ADD PUSH1 0x40 MLOAD SWAP1 DUP2 ADD PUSH1 0x40 MSTORE DUP1 SWAP4 SWAP3 SWAP2 SWAP1 DUP2 DUP2 MSTORE PUSH1 0x20 ADD DUP4 DUP4 DUP1 DUP3 DUP5 CALLDATACOPY PUSH1 0x0 SWAP3 ADD SWAP2 SWAP1 SWAP2 MSTORE POP PUSH2 0xBBE SWAP3 POP POP POP JUMP JUMPDEST DUP1 PUSH2 0x3B3 DUP2 PUSH2 0x1666 JUMP JUMPDEST SWAP2 POP POP PUSH2 0x317 JUMP JUMPDEST POP POP POP POP POP JUMP JUMPDEST PUSH1 0x1 PUSH1 0x1 PUSH1 0xA0 SHL SUB PUSH32 0x0 AND ADDRESS SUB PUSH2 0x40A JUMPI PUSH1 0x40 MLOAD PUSH3 0x461BCD PUSH1 0xE5 SHL DUP2 MSTORE PUSH1 0x4 ADD PUSH2 0x30B SWAP1 PUSH2 0x167F JUMP JUMPDEST PUSH32 0x0 PUSH1 0x1 PUSH1 0x1 PUSH1 0xA0 SHL SUB AND PUSH2 0x453 PUSH1 0x0 DUP1 MLOAD PUSH1 0x20 PUSH2 0x17E0 DUP4 CODECOPY DUP2 MLOAD SWAP2 MSTORE SLOAD PUSH1 0x1 PUSH1 0x1 PUSH1 0xA0 SHL SUB AND SWAP1 JUMP JUMPDEST PUSH1 0x1 PUSH1 0x1 PUSH1 0xA0 SHL SUB AND EQ PUSH2 0x479 JUMPI PUSH1 0x40 MLOAD PUSH3 0x461BCD PUSH1 0xE5 SHL DUP2 MSTORE PUSH1 0x4 ADD PUSH2 0x30B SWAP1 PUSH2 0x16CB JUMP JUMPDEST PUSH2 0x482 DUP2 PUSH2 0xC2E JUMP JUMPDEST PUSH1 0x40 DUP1 MLOAD PUSH1 0x0 DUP1 DUP3 MSTORE PUSH1 0x20 DUP3 ADD SWAP1 SWAP3 MSTORE PUSH2 0x49E SWAP2 DUP4 SWAP2 SWAP1 PUSH2 0xC36 JUMP JUMPDEST POP JUMP JUMPDEST PUSH1 0x0 PUSH32 0x0 PUSH1 0x1 PUSH1 0x1 PUSH1 0xA0 SHL SUB AND CALLVALUE PUSH1 0x40 MLOAD PUSH1 0x0 PUSH1 0x40 MLOAD DUP1 DUP4 SUB DUP2 DUP6 DUP8 GAS CALL SWAP3 POP POP POP RETURNDATASIZE DUP1 PUSH1 0x0 DUP2 EQ PUSH2 0x50E JUMPI PUSH1 0x40 MLOAD SWAP2 POP PUSH1 0x1F NOT PUSH1 0x3F RETURNDATASIZE ADD AND DUP3 ADD PUSH1 0x40 MSTORE RETURNDATASIZE DUP3 MSTORE RETURNDATASIZE PUSH1 0x0 PUSH1 0x20 DUP5 ADD RETURNDATACOPY PUSH2 0x513 JUMP JUMPDEST PUSH1 0x60 SWAP2 POP JUMPDEST POP POP SWAP1 POP DUP1 PUSH2 0x49E JUMPI PUSH1 0x0 DUP1 REVERT JUMPDEST PUSH2 0x529 PUSH2 0xDA6 JUMP JUMPDEST PUSH32 0x0 PUSH1 0x40 MLOAD PUSH4 0x40B850F PUSH1 0xE3 SHL DUP2 MSTORE PUSH1 0x1 PUSH1 0x1 PUSH1 0xA0 SHL SUB DUP5 DUP2 AND PUSH1 0x4 DUP4 ADD MSTORE PUSH1 0x24 DUP3 ADD DUP5 SWAP1 MSTORE SWAP2 SWAP1 SWAP2 AND SWAP1 PUSH4 0x205C2878 SWAP1 PUSH1 0x44 ADD PUSH1 0x0 PUSH1 0x40 MLOAD DUP1 DUP4 SUB DUP2 PUSH1 0x0 DUP8 DUP1 EXTCODESIZE ISZERO DUP1 ISZERO PUSH2 0x596 JUMPI PUSH1 0x0 DUP1 REVERT JUMPDEST POP GAS CALL ISZERO DUP1 ISZERO PUSH2 0x5AA JUMPI RETURNDATASIZE PUSH1 0x0 DUP1 RETURNDATACOPY RETURNDATASIZE PUSH1 0x0 REVERT JUMPDEST POP POP POP POP POP POP JUMP JUMPDEST PUSH1 0x1 PUSH1 0x1 PUSH1 0xA0 SHL SUB PUSH32 0x0 AND ADDRESS SUB PUSH2 0x5FA JUMPI PUSH1 0x40 MLOAD PUSH3 0x461BCD PUSH1 0xE5 SHL DUP2 MSTORE PUSH1 0x4 ADD PUSH2 0x30B SWAP1 PUSH2 0x167F JUMP JUMPDEST PUSH32 0x0 PUSH1 0x1 PUSH1 0x1 PUSH1 0xA0 SHL SUB AND PUSH2 0x643 PUSH1 0x0 DUP1 MLOAD PUSH1 0x20 PUSH2 0x17E0 DUP4 CODECOPY DUP2 MLOAD SWAP2 MSTORE SLOAD PUSH1 0x1 PUSH1 0x1 PUSH1 0xA0 SHL SUB AND SWAP1 JUMP JUMPDEST PUSH1 0x1 PUSH1 0x1 PUSH1 0xA0 SHL SUB AND EQ PUSH2 0x669 JUMPI PUSH1 0x40 MLOAD PUSH3 0x461BCD PUSH1 0xE5 SHL DUP2 MSTORE PUSH1 0x4 ADD PUSH2 0x30B SWAP1 PUSH2 0x16CB JUMP JUMPDEST PUSH2 0x672 DUP3 PUSH2 0xC2E JUMP JUMPDEST PUSH2 0x67E DUP3 DUP3 PUSH1 0x1 PUSH2 0xC36 JUMP JUMPDEST POP POP JUMP JUMPDEST PUSH1 0x0 ADDRESS PUSH1 0x1 PUSH1 0x1 PUSH1 0xA0 SHL SUB PUSH32 0x0 AND EQ PUSH2 0x722 JUMPI PUSH1 0x40 MLOAD PUSH3 0x461BCD PUSH1 0xE5 SHL DUP2 MSTORE PUSH1 0x20 PUSH1 0x4 DUP3 ADD MSTORE PUSH1 0x38 PUSH1 0x24 DUP3 ADD MSTORE PUSH32 0x555550535570677261646561626C653A206D757374206E6F742062652063616C PUSH1 0x44 DUP3 ADD MSTORE PUSH32 0x6C6564207468726F7567682064656C656761746563616C6C0000000000000000 PUSH1 0x64 DUP3 ADD MSTORE PUSH1 0x84 ADD PUSH2 0x30B JUMP JUMPDEST POP PUSH1 0x0 DUP1 MLOAD PUSH1 0x20 PUSH2 0x17E0 DUP4 CODECOPY DUP2 MLOAD SWAP2 MSTORE SWAP1 JUMP JUMPDEST PUSH2 0x73D PUSH2 0xB31 JUMP JUMPDEST PUSH2 0x77E DUP5 DUP5 DUP5 DUP5 DUP1 DUP1 PUSH1 0x1F ADD PUSH1 0x20 DUP1 SWAP2 DIV MUL PUSH1 0x20 ADD PUSH1 0x40 MLOAD SWAP1 DUP2 ADD PUSH1 0x40 MSTORE DUP1 SWAP4 SWAP3 SWAP2 SWAP1 DUP2 DUP2 MSTORE PUSH1 0x20 ADD DUP4 DUP4 DUP1 DUP3 DUP5 CALLDATACOPY PUSH1 0x0 SWAP3 ADD SWAP2 SWAP1 SWAP2 MSTORE POP PUSH2 0xBBE SWAP3 POP POP POP JUMP JUMPDEST POP POP POP POP JUMP JUMPDEST PUSH1 0x0 PUSH32 0x0 PUSH1 0x40 MLOAD PUSH4 0x70A08231 PUSH1 0xE0 SHL DUP2 MSTORE ADDRESS PUSH1 0x4 DUP3 ADD MSTORE PUSH1 0x1 PUSH1 0x1 PUSH1 0xA0 SHL SUB SWAP2 SWAP1 SWAP2 AND SWAP1 PUSH4 0x70A08231 SWAP1 PUSH1 0x24 ADD PUSH1 0x20 PUSH1 0x40 MLOAD DUP1 DUP4 SUB DUP2 DUP7 GAS STATICCALL ISZERO DUP1 ISZERO PUSH2 0x7ED JUMPI RETURNDATASIZE PUSH1 0x0 DUP1 RETURNDATACOPY RETURNDATASIZE PUSH1 0x0 REVERT JUMPDEST POP POP POP POP PUSH1 0x40 MLOAD RETURNDATASIZE PUSH1 0x1F NOT PUSH1 0x1F DUP3 ADD AND DUP3 ADD DUP1 PUSH1 0x40 MSTORE POP DUP2 ADD SWAP1 PUSH2 0x811 SWAP2 SWAP1 PUSH2 0x1717 JUMP JUMPDEST SWAP1 POP SWAP1 JUMP JUMPDEST PUSH1 0x0 SLOAD PUSH2 0x100 SWAP1 DIV PUSH1 0xFF AND ISZERO DUP1 DUP1 ISZERO PUSH2 0x836 JUMPI POP PUSH1 0x0 SLOAD PUSH1 0x1 PUSH1 0xFF SWAP1 SWAP2 AND LT JUMPDEST DUP1 PUSH2 0x850 JUMPI POP ADDRESS EXTCODESIZE ISZERO DUP1 ISZERO PUSH2 0x850 JUMPI POP PUSH1 0x0 SLOAD PUSH1 0xFF AND PUSH1 0x1 EQ JUMPDEST PUSH2 0x8B3 JUMPI PUSH1 0x40 MLOAD PUSH3 0x461BCD PUSH1 0xE5 SHL DUP2 MSTORE PUSH1 0x20 PUSH1 0x4 DUP3 ADD MSTORE PUSH1 0x2E PUSH1 0x24 DUP3 ADD MSTORE PUSH32 0x496E697469616C697A61626C653A20636F6E747261637420697320616C726561 PUSH1 0x44 DUP3 ADD MSTORE PUSH14 0x191E481A5B9A5D1A585B1A5E9959 PUSH1 0x92 SHL PUSH1 0x64 DUP3 ADD MSTORE PUSH1 0x84 ADD PUSH2 0x30B JUMP JUMPDEST PUSH1 0x0 DUP1 SLOAD PUSH1 0xFF NOT AND PUSH1 0x1 OR SWAP1 SSTORE DUP1 ISZERO PUSH2 0x8D6 JUMPI PUSH1 0x0 DUP1 SLOAD PUSH2 0xFF00 NOT AND PUSH2 0x100 OR SWAP1 SSTORE JUMPDEST PUSH2 0x8DF DUP3 PUSH2 0xDF7 JUMP JUMPDEST DUP1 ISZERO PUSH2 0x67E JUMPI PUSH1 0x0 DUP1 SLOAD PUSH2 0xFF00 NOT AND SWAP1 SSTORE PUSH1 0x40 MLOAD PUSH1 0x1 DUP2 MSTORE PUSH32 0x7F26B83FF96E1F2B6A682F133852F6798A09C465DA95921460CEFB3847402498 SWAP1 PUSH1 0x20 ADD PUSH1 0x40 MLOAD DUP1 SWAP2 SUB SWAP1 LOG1 POP POP JUMP JUMPDEST CALLER PUSH1 0x1 PUSH1 0x1 PUSH1 0xA0 SHL SUB PUSH32 0x0 AND EQ PUSH2 0x9A0 JUMPI PUSH1 0x40 MLOAD PUSH3 0x461BCD PUSH1 0xE5 SHL DUP2 MSTORE PUSH1 0x20 PUSH1 0x4 DUP3 ADD MSTORE PUSH1 0x1C PUSH1 0x24 DUP3 ADD MSTORE PUSH32 0x6163636F756E743A206E6F742066726F6D20456E747279506F696E7400000000 PUSH1 0x44 DUP3 ADD MSTORE PUSH1 0x64 ADD PUSH2 0x30B JUMP JUMPDEST JUMP JUMPDEST PUSH32 0x19457468657265756D205369676E6564204D6573736167653A0A333200000000 PUSH1 0x0 SWAP1 DUP2 MSTORE PUSH1 0x1C DUP4 SWAP1 MSTORE PUSH1 0x3C DUP2 KECCAK256 PUSH2 0xA1F PUSH2 0x9E2 PUSH2 0x140 DUP8 ADD DUP8 PUSH2 0x15F3 JUMP JUMPDEST DUP1 DUP1 PUSH1 0x1F ADD PUSH1 0x20 DUP1 SWAP2 DIV MUL PUSH1 0x20 ADD PUSH1 0x40 MLOAD SWAP1 DUP2 ADD PUSH1 0x40 MSTORE DUP1 SWAP4 SWAP3 SWAP2 SWAP1 DUP2 DUP2 MSTORE PUSH1 0x20 ADD DUP4 DUP4 DUP1 DUP3 DUP5 CALLDATACOPY PUSH1 0x0 SWAP3 ADD SWAP2 SWAP1 SWAP2 MSTORE POP DUP6 SWAP4 SWAP3 POP POP PUSH2 0xE67 SWAP1 POP JUMP JUMPDEST PUSH1 0x1 SLOAD PUSH1 0x1 PUSH1 0x1 PUSH1 0xA0 SHL SUB SWAP1 DUP2 AND SWAP2 AND EQ PUSH2 0xA3E JUMPI PUSH1 0x1 SWAP2 POP POP PUSH2 0xA44 JUMP JUMPDEST PUSH1 0x0 SWAP2 POP POP JUMPDEST SWAP4 SWAP3 POP POP POP JUMP JUMPDEST PUSH1 0x0 DUP1 SLOAD PUSH1 0x20 DUP4 ADD CALLDATALOAD SWAP2 PUSH3 0x10000 SWAP1 SWAP2 DIV PUSH1 0x1 PUSH1 0x1 PUSH1 0x60 SHL SUB AND SWAP1 PUSH1 0x2 PUSH2 0xA71 DUP4 PUSH2 0x1730 JUMP JUMPDEST SWAP2 SWAP1 PUSH2 0x100 EXP DUP2 SLOAD DUP2 PUSH1 0x1 PUSH1 0x1 PUSH1 0x60 SHL SUB MUL NOT AND SWAP1 DUP4 PUSH1 0x1 PUSH1 0x1 PUSH1 0x60 SHL SUB AND MUL OR SWAP1 SSTORE POP PUSH1 0x1 PUSH1 0x1 PUSH1 0x60 SHL SUB AND EQ PUSH2 0x49E JUMPI PUSH1 0x40 MLOAD PUSH3 0x461BCD PUSH1 0xE5 SHL DUP2 MSTORE PUSH1 0x20 PUSH1 0x4 DUP3 ADD MSTORE PUSH1 0x16 PUSH1 0x24 DUP3 ADD MSTORE PUSH22 0x6163636F756E743A20696E76616C6964206E6F6E6365 PUSH1 0x50 SHL PUSH1 0x44 DUP3 ADD MSTORE PUSH1 0x64 ADD PUSH2 0x30B JUMP JUMPDEST DUP1 ISZERO PUSH2 0x49E JUMPI PUSH1 0x40 MLOAD PUSH1 0x0 SWAP1 CALLER SWAP1 PUSH1 0x0 NOT SWAP1 DUP5 SWAP1 DUP5 DUP2 DUP2 DUP2 DUP6 DUP9 DUP9 CALL SWAP4 POP POP POP POP RETURNDATASIZE DUP1 PUSH1 0x0 DUP2 EQ PUSH2 0x3BB JUMPI PUSH1 0x40 MLOAD SWAP2 POP PUSH1 0x1F NOT PUSH1 0x3F RETURNDATASIZE ADD AND DUP3 ADD PUSH1 0x40 MSTORE RETURNDATASIZE DUP3 MSTORE RETURNDATASIZE PUSH1 0x0 PUSH1 0x20 DUP5 ADD RETURNDATACOPY PUSH2 0x3BB JUMP JUMPDEST CALLER PUSH1 0x1 PUSH1 0x1 PUSH1 0xA0 SHL SUB PUSH32 0x0 AND EQ DUP1 PUSH2 0xB72 JUMPI POP PUSH1 0x1 SLOAD PUSH1 0x1 PUSH1 0x1 PUSH1 0xA0 SHL SUB AND CALLER EQ JUMPDEST PUSH2 0x9A0 JUMPI PUSH1 0x40 MLOAD PUSH3 0x461BCD PUSH1 0xE5 SHL DUP2 MSTORE PUSH1 0x20 PUSH1 0x4 DUP3 ADD DUP2 SWAP1 MSTORE PUSH1 0x24 DUP3 ADD MSTORE PUSH32 0x6163636F756E743A206E6F74204F776E6572206F7220456E747279506F696E74 PUSH1 0x44 DUP3 ADD MSTORE PUSH1 0x64 ADD PUSH2 0x30B JUMP JUMPDEST PUSH1 0x0 DUP1 DUP5 PUSH1 0x1 PUSH1 0x1 PUSH1 0xA0 SHL SUB AND DUP5 DUP5 PUSH1 0x40 MLOAD PUSH2 0xBDA SWAP2 SWAP1 PUSH2 0x177A JUMP JUMPDEST PUSH1 0x0 PUSH1 0x40 MLOAD DUP1 DUP4 SUB DUP2 DUP6 DUP8 GAS CALL SWAP3 POP POP POP RETURNDATASIZE DUP1 PUSH1 0x0 DUP2 EQ PUSH2 0xC17 JUMPI PUSH1 0x40 MLOAD SWAP2 POP PUSH1 0x1F NOT PUSH1 0x3F RETURNDATASIZE ADD AND DUP3 ADD PUSH1 0x40 MSTORE RETURNDATASIZE DUP3 MSTORE RETURNDATASIZE PUSH1 0x0 PUSH1 0x20 DUP5 ADD RETURNDATACOPY PUSH2 0xC1C JUMP JUMPDEST PUSH1 0x60 SWAP2 POP JUMPDEST POP SWAP2 POP SWAP2 POP DUP2 PUSH2 0x3BB JUMPI DUP1 MLOAD PUSH1 0x20 DUP3 ADD REVERT JUMPDEST PUSH2 0x49E PUSH2 0xDA6 JUMP JUMPDEST PUSH32 0x4910FDFA16FED3260ED0E7147F7CC6DA11A60208B5B9406D12A635614FFD9143 SLOAD PUSH1 0xFF AND ISZERO PUSH2 0xC6E JUMPI PUSH2 0xC69 DUP4 PUSH2 0xE8B JUMP JUMPDEST POP POP POP JUMP JUMPDEST DUP3 PUSH1 0x1 PUSH1 0x1 PUSH1 0xA0 SHL SUB AND PUSH4 0x52D1902D PUSH1 0x40 MLOAD DUP2 PUSH4 0xFFFFFFFF AND PUSH1 0xE0 SHL DUP2 MSTORE PUSH1 0x4 ADD PUSH1 0x20 PUSH1 0x40 MLOAD DUP1 DUP4 SUB DUP2 DUP7 GAS STATICCALL SWAP3 POP POP POP DUP1 ISZERO PUSH2 0xCC8 JUMPI POP PUSH1 0x40 DUP1 MLOAD PUSH1 0x1F RETURNDATASIZE SWAP1 DUP2 ADD PUSH1 0x1F NOT AND DUP3 ADD SWAP1 SWAP3 MSTORE PUSH2 0xCC5 SWAP2 DUP2 ADD SWAP1 PUSH2 0x1717 JUMP JUMPDEST PUSH1 0x1 JUMPDEST PUSH2 0xD2B JUMPI PUSH1 0x40 MLOAD PUSH3 0x461BCD PUSH1 0xE5 SHL DUP2 MSTORE PUSH1 0x20 PUSH1 0x4 DUP3 ADD MSTORE PUSH1 0x2E PUSH1 0x24 DUP3 ADD MSTORE PUSH32 0x45524331393637557067726164653A206E657720696D706C656D656E74617469 PUSH1 0x44 DUP3 ADD MSTORE PUSH14 0x6F6E206973206E6F742055555053 PUSH1 0x90 SHL PUSH1 0x64 DUP3 ADD MSTORE PUSH1 0x84 ADD PUSH2 0x30B JUMP JUMPDEST PUSH1 0x0 DUP1 MLOAD PUSH1 0x20 PUSH2 0x17E0 DUP4 CODECOPY DUP2 MLOAD SWAP2 MSTORE DUP2 EQ PUSH2 0xD9A JUMPI PUSH1 0x40 MLOAD PUSH3 0x461BCD PUSH1 0xE5 SHL DUP2 MSTORE PUSH1 0x20 PUSH1 0x4 DUP3 ADD MSTORE PUSH1 0x29 PUSH1 0x24 DUP3 ADD MSTORE PUSH32 0x45524331393637557067726164653A20756E737570706F727465642070726F78 PUSH1 0x44 DUP3 ADD MSTORE PUSH9 0x1A58589B1955555251 PUSH1 0xBA SHL PUSH1 0x64 DUP3 ADD MSTORE PUSH1 0x84 ADD PUSH2 0x30B JUMP JUMPDEST POP PUSH2 0xC69 DUP4 DUP4 DUP4 PUSH2 0xF27 JUMP JUMPDEST PUSH1 0x1 SLOAD PUSH1 0x1 PUSH1 0x1 PUSH1 0xA0 SHL SUB AND CALLER EQ DUP1 PUSH2 0xDBE JUMPI POP CALLER ADDRESS EQ JUMPDEST PUSH2 0x9A0 JUMPI PUSH1 0x40 MLOAD PUSH3 0x461BCD PUSH1 0xE5 SHL DUP2 MSTORE PUSH1 0x20 PUSH1 0x4 DUP3 ADD MSTORE PUSH1 0xA PUSH1 0x24 DUP3 ADD MSTORE PUSH10 0x37B7363C9037BBB732B9 PUSH1 0xB1 SHL PUSH1 0x44 DUP3 ADD MSTORE PUSH1 0x64 ADD PUSH2 0x30B JUMP JUMPDEST PUSH1 0x1 DUP1 SLOAD PUSH1 0x1 PUSH1 0x1 PUSH1 0xA0 SHL SUB NOT AND PUSH1 0x1 PUSH1 0x1 PUSH1 0xA0 SHL SUB DUP4 DUP2 AND SWAP2 DUP3 OR SWAP1 SWAP3 SSTORE PUSH1 0x40 MLOAD SWAP1 SWAP2 PUSH32 0x0 AND SWAP1 PUSH32 0x47E55C76E7A6F1FD8996A1DA8008C1EA29699CCA35E7BCD057F2DEC313B6E5DE SWAP1 PUSH1 0x0 SWAP1 LOG3 POP JUMP JUMPDEST PUSH1 0x0 DUP1 PUSH1 0x0 PUSH2 0xE76 DUP6 DUP6 PUSH2 0xF4C JUMP JUMPDEST SWAP2 POP SWAP2 POP PUSH2 0xE83 DUP2 PUSH2 0xF91 JUMP JUMPDEST POP SWAP4 SWAP3 POP POP POP JUMP JUMPDEST PUSH1 0x1 PUSH1 0x1 PUSH1 0xA0 SHL SUB DUP2 AND EXTCODESIZE PUSH2 0xEF8 JUMPI PUSH1 0x40 MLOAD PUSH3 0x461BCD PUSH1 0xE5 SHL DUP2 MSTORE PUSH1 0x20 PUSH1 0x4 DUP3 ADD MSTORE PUSH1 0x2D PUSH1 0x24 DUP3 ADD MSTORE PUSH32 0x455243313936373A206E657720696D706C656D656E746174696F6E206973206E PUSH1 0x44 DUP3 ADD MSTORE PUSH13 0x1BDD08184818DBDB9D1C9858DD PUSH1 0x9A SHL PUSH1 0x64 DUP3 ADD MSTORE PUSH1 0x84 ADD PUSH2 0x30B JUMP JUMPDEST PUSH1 0x0 DUP1 MLOAD PUSH1 0x20 PUSH2 0x17E0 DUP4 CODECOPY DUP2 MLOAD SWAP2 MSTORE DUP1 SLOAD PUSH1 0x1 PUSH1 0x1 PUSH1 0xA0 SHL SUB NOT AND PUSH1 0x1 PUSH1 0x1 PUSH1 0xA0 SHL SUB SWAP3 SWAP1 SWAP3 AND SWAP2 SWAP1 SWAP2 OR SWAP1 SSTORE JUMP JUMPDEST PUSH2 0xF30 DUP4 PUSH2 0x10DB JUMP JUMPDEST PUSH1 0x0 DUP3 MLOAD GT DUP1 PUSH2 0xF3D JUMPI POP DUP1 JUMPDEST ISZERO PUSH2 0xC69 JUMPI PUSH2 0x77E DUP4 DUP4 PUSH2 0x111B JUMP JUMPDEST PUSH1 0x0 DUP1 DUP3 MLOAD PUSH1 0x41 SUB PUSH2 0xF82 JUMPI PUSH1 0x20 DUP4 ADD MLOAD PUSH1 0x40 DUP5 ADD MLOAD PUSH1 0x60 DUP6 ADD MLOAD PUSH1 0x0 BYTE PUSH2 0xF76 DUP8 DUP3 DUP6 DUP6 PUSH2 0x1140 JUMP JUMPDEST SWAP5 POP SWAP5 POP POP POP POP PUSH2 0xF8A JUMP JUMPDEST POP PUSH1 0x0 SWAP1 POP PUSH1 0x2 JUMPDEST SWAP3 POP SWAP3 SWAP1 POP JUMP JUMPDEST PUSH1 0x0 DUP2 PUSH1 0x4 DUP2 GT ISZERO PUSH2 0xFA5 JUMPI PUSH2 0xFA5 PUSH2 0x1796 JUMP JUMPDEST SUB PUSH2 0xFAD JUMPI POP JUMP JUMPDEST PUSH1 0x1 DUP2 PUSH1 0x4 DUP2 GT ISZERO PUSH2 0xFC1 JUMPI PUSH2 0xFC1 PUSH2 0x1796 JUMP JUMPDEST SUB PUSH2 0x100E JUMPI PUSH1 0x40 MLOAD PUSH3 0x461BCD PUSH1 0xE5 SHL DUP2 MSTORE PUSH1 0x20 PUSH1 0x4 DUP3 ADD MSTORE PUSH1 0x18 PUSH1 0x24 DUP3 ADD MSTORE PUSH32 0x45434453413A20696E76616C6964207369676E61747572650000000000000000 PUSH1 0x44 DUP3 ADD MSTORE PUSH1 0x64 ADD PUSH2 0x30B JUMP JUMPDEST PUSH1 0x2 DUP2 PUSH1 0x4 DUP2 GT ISZERO PUSH2 0x1022 JUMPI PUSH2 0x1022 PUSH2 0x1796 JUMP JUMPDEST SUB PUSH2 0x106F JUMPI PUSH1 0x40 MLOAD PUSH3 0x461BCD PUSH1 0xE5 SHL DUP2 MSTORE PUSH1 0x20 PUSH1 0x4 DUP3 ADD MSTORE PUSH1 0x1F PUSH1 0x24 DUP3 ADD MSTORE PUSH32 0x45434453413A20696E76616C6964207369676E6174757265206C656E67746800 PUSH1 0x44 DUP3 ADD MSTORE PUSH1 0x64 ADD PUSH2 0x30B JUMP JUMPDEST PUSH1 0x3 DUP2 PUSH1 0x4 DUP2 GT ISZERO PUSH2 0x1083 JUMPI PUSH2 0x1083 PUSH2 0x1796 JUMP JUMPDEST SUB PUSH2 0x49E JUMPI PUSH1 0x40 MLOAD PUSH3 0x461BCD PUSH1 0xE5 SHL DUP2 MSTORE PUSH1 0x20 PUSH1 0x4 DUP3 ADD MSTORE PUSH1 0x22 PUSH1 0x24 DUP3 ADD MSTORE PUSH32 0x45434453413A20696E76616C6964207369676E6174757265202773272076616C PUSH1 0x44 DUP3 ADD MSTORE PUSH2 0x7565 PUSH1 0xF0 SHL PUSH1 0x64 DUP3 ADD MSTORE PUSH1 0x84 ADD PUSH2 0x30B JUMP JUMPDEST PUSH2 0x10E4 DUP2 PUSH2 0xE8B JUMP JUMPDEST PUSH1 0x40 MLOAD PUSH1 0x1 PUSH1 0x1 PUSH1 0xA0 SHL SUB DUP3 AND SWAP1 PUSH32 0xBC7CD75A20EE27FD9ADEBAB32041F755214DBC6BFFA90CC0225B39DA2E5C2D3B SWAP1 PUSH1 0x0 SWAP1 LOG2 POP JUMP JUMPDEST PUSH1 0x60 PUSH2 0xA44 DUP4 DUP4 PUSH1 0x40 MLOAD DUP1 PUSH1 0x60 ADD PUSH1 0x40 MSTORE DUP1 PUSH1 0x27 DUP2 MSTORE PUSH1 0x20 ADD PUSH2 0x1800 PUSH1 0x27 SWAP2 CODECOPY PUSH2 0x1204 JUMP JUMPDEST PUSH1 0x0 DUP1 PUSH32 0x7FFFFFFFFFFFFFFFFFFFFFFFFFFFFFFF5D576E7357A4501DDFE92F46681B20A0 DUP4 GT ISZERO PUSH2 0x1177 JUMPI POP PUSH1 0x0 SWAP1 POP PUSH1 0x3 PUSH2 0x11FB JUMP JUMPDEST PUSH1 0x40 DUP1 MLOAD PUSH1 0x0 DUP1 DUP3 MSTORE PUSH1 0x20 DUP3 ADD DUP1 DUP5 MSTORE DUP10 SWAP1 MSTORE PUSH1 0xFF DUP9 AND SWAP3 DUP3 ADD SWAP3 SWAP1 SWAP3 MSTORE PUSH1 0x60 DUP2 ADD DUP7 SWAP1 MSTORE PUSH1 0x80 DUP2 ADD DUP6 SWAP1 MSTORE PUSH1 0x1 SWAP1 PUSH1 0xA0 ADD PUSH1 0x20 PUSH1 0x40 MLOAD PUSH1 0x20 DUP2 SUB SWAP1 DUP1 DUP5 SUB SWAP1 DUP6 GAS STATICCALL ISZERO DUP1 ISZERO PUSH2 0x11CB JUMPI RETURNDATASIZE PUSH1 0x0 DUP1 RETURNDATACOPY RETURNDATASIZE PUSH1 0x0 REVERT JUMPDEST POP POP PUSH1 0x40 MLOAD PUSH1 0x1F NOT ADD MLOAD SWAP2 POP POP PUSH1 0x1 PUSH1 0x1 PUSH1 0xA0 SHL SUB DUP2 AND PUSH2 0x11F4 JUMPI PUSH1 0x0 PUSH1 0x1 SWAP3 POP SWAP3 POP POP PUSH2 0x11FB JUMP JUMPDEST SWAP2 POP PUSH1 0x0 SWAP1 POP JUMPDEST SWAP5 POP SWAP5 SWAP3 POP POP POP JUMP JUMPDEST PUSH1 0x60 PUSH1 0x0 DUP1 DUP6 PUSH1 0x1 PUSH1 0x1 PUSH1 0xA0 SHL SUB AND DUP6 PUSH1 0x40 MLOAD PUSH2 0x1221 SWAP2 SWAP1 PUSH2 0x177A JUMP JUMPDEST PUSH1 0x0 PUSH1 0x40 MLOAD DUP1 DUP4 SUB DUP2 DUP6 GAS DELEGATECALL SWAP2 POP POP RETURNDATASIZE DUP1 PUSH1 0x0 DUP2 EQ PUSH2 0x125C JUMPI PUSH1 0x40 MLOAD SWAP2 POP PUSH1 0x1F NOT PUSH1 0x3F RETURNDATASIZE ADD AND DUP3 ADD PUSH1 0x40 MSTORE RETURNDATASIZE DUP3 MSTORE RETURNDATASIZE PUSH1 0x0 PUSH1 0x20 DUP5 ADD RETURNDATACOPY PUSH2 0x1261 JUMP JUMPDEST PUSH1 0x60 SWAP2 POP JUMPDEST POP SWAP2 POP SWAP2 POP PUSH2 0x1272 DUP7 DUP4 DUP4 DUP8 PUSH2 0x127C JUMP JUMPDEST SWAP7 SWAP6 POP POP POP POP POP POP JUMP JUMPDEST PUSH1 0x60 DUP4 ISZERO PUSH2 0x12EB JUMPI DUP3 MLOAD PUSH1 0x0 SUB PUSH2 0x12E4 JUMPI PUSH1 0x1 PUSH1 0x1 PUSH1 0xA0 SHL SUB DUP6 AND EXTCODESIZE PUSH2 0x12E4 JUMPI PUSH1 0x40 MLOAD PUSH3 0x461BCD PUSH1 0xE5 SHL DUP2 MSTORE PUSH1 0x20 PUSH1 0x4 DUP3 ADD MSTORE PUSH1 0x1D PUSH1 0x24 DUP3 ADD MSTORE PUSH32 0x416464726573733A2063616C6C20746F206E6F6E2D636F6E7472616374000000 PUSH1 0x44 DUP3 ADD MSTORE PUSH1 0x64 ADD PUSH2 0x30B JUMP JUMPDEST POP DUP2 PUSH2 0x2BA JUMP JUMPDEST PUSH2 0x2BA DUP4 DUP4 DUP2 MLOAD ISZERO PUSH2 0x1300 JUMPI DUP2 MLOAD DUP1 DUP4 PUSH1 0x20 ADD REVERT JUMPDEST DUP1 PUSH1 0x40 MLOAD PUSH3 0x461BCD PUSH1 0xE5 SHL DUP2 MSTORE PUSH1 0x4 ADD PUSH2 0x30B SWAP2 SWAP1 PUSH2 0x17AC JUMP JUMPDEST PUSH1 0x1 PUSH1 0x1 PUSH1 0xA0 SHL SUB DUP2 AND DUP2 EQ PUSH2 0x49E JUMPI PUSH1 0x0 DUP1 REVERT JUMPDEST PUSH1 0x0 DUP1 PUSH1 0x0 DUP1 PUSH1 0x80 DUP6 DUP8 SUB SLT ISZERO PUSH2 0x1345 JUMPI PUSH1 0x0 DUP1 REVERT JUMPDEST DUP5 CALLDATALOAD PUSH8 0xFFFFFFFFFFFFFFFF DUP2 GT ISZERO PUSH2 0x135C JUMPI PUSH1 0x0 DUP1 REVERT JUMPDEST DUP6 ADD PUSH2 0x160 DUP2 DUP9 SUB SLT ISZERO PUSH2 0x136F JUMPI PUSH1 0x0 DUP1 REVERT JUMPDEST SWAP4 POP PUSH1 0x20 DUP6 ADD CALLDATALOAD SWAP3 POP PUSH1 0x40 DUP6 ADD CALLDATALOAD PUSH2 0x1386 DUP2 PUSH2 0x131A JUMP JUMPDEST SWAP4 SWAP7 SWAP3 SWAP6 POP SWAP3 SWAP4 PUSH1 0x60 ADD CALLDATALOAD SWAP3 POP POP JUMP JUMPDEST PUSH1 0x0 DUP1 DUP4 PUSH1 0x1F DUP5 ADD SLT PUSH2 0x13A8 JUMPI PUSH1 0x0 DUP1 REVERT JUMPDEST POP DUP2 CALLDATALOAD PUSH8 0xFFFFFFFFFFFFFFFF DUP2 GT ISZERO PUSH2 0x13C0 JUMPI PUSH1 0x0 DUP1 REVERT JUMPDEST PUSH1 0x20 DUP4 ADD SWAP2 POP DUP4 PUSH1 0x20 DUP3 PUSH1 0x5 SHL DUP6 ADD ADD GT ISZERO PUSH2 0xF8A JUMPI PUSH1 0x0 DUP1 REVERT JUMPDEST PUSH1 0x0 DUP1 PUSH1 0x0 DUP1 PUSH1 0x40 DUP6 DUP8 SUB SLT ISZERO PUSH2 0x13F1 JUMPI PUSH1 0x0 DUP1 REVERT JUMPDEST DUP5 CALLDATALOAD PUSH8 0xFFFFFFFFFFFFFFFF DUP1 DUP3 GT ISZERO PUSH2 0x1409 JUMPI PUSH1 0x0 DUP1 REVERT JUMPDEST PUSH2 0x1415 DUP9 DUP4 DUP10 ADD PUSH2 0x1396 JUMP JUMPDEST SWAP1 SWAP7 POP SWAP5 POP PUSH1 0x20 DUP8 ADD CALLDATALOAD SWAP2 POP DUP1 DUP3 GT ISZERO PUSH2 0x142E JUMPI PUSH1 0x0 DUP1 REVERT JUMPDEST POP PUSH2 0x143B DUP8 DUP3 DUP9 ADD PUSH2 0x1396 JUMP JUMPDEST SWAP6 SWAP9 SWAP5 SWAP8 POP SWAP6 POP POP POP POP JUMP JUMPDEST PUSH1 0x0 PUSH1 0x20 DUP3 DUP5 SUB SLT ISZERO PUSH2 0x1459 JUMPI PUSH1 0x0 DUP1 REVERT JUMPDEST DUP2 CALLDATALOAD PUSH2 0xA44 DUP2 PUSH2 0x131A JUMP JUMPDEST PUSH1 0x0 DUP1 PUSH1 0x40 DUP4 DUP6 SUB SLT ISZERO PUSH2 0x1477 JUMPI PUSH1 0x0 DUP1 REVERT JUMPDEST DUP3 CALLDATALOAD PUSH2 0x1482 DUP2 PUSH2 0x131A JUMP JUMPDEST SWAP5 PUSH1 0x20 SWAP4 SWAP1 SWAP4 ADD CALLDATALOAD SWAP4 POP POP POP JUMP JUMPDEST PUSH4 0x4E487B71 PUSH1 0xE0 SHL PUSH1 0x0 MSTORE PUSH1 0x41 PUSH1 0x4 MSTORE PUSH1 0x24 PUSH1 0x0 REVERT JUMPDEST PUSH1 0x0 DUP1 PUSH1 0x40 DUP4 DUP6 SUB SLT ISZERO PUSH2 0x14B9 JUMPI PUSH1 0x0 DUP1 REVERT JUMPDEST DUP3 CALLDATALOAD PUSH2 0x14C4 DUP2 PUSH2 0x131A JUMP JUMPDEST SWAP2 POP PUSH1 0x20 DUP4 ADD CALLDATALOAD PUSH8 0xFFFFFFFFFFFFFFFF DUP1 DUP3 GT ISZERO PUSH2 0x14E1 JUMPI PUSH1 0x0 DUP1 REVERT JUMPDEST DUP2 DUP6 ADD SWAP2 POP DUP6 PUSH1 0x1F DUP4 ADD SLT PUSH2 0x14F5 JUMPI PUSH1 0x0 DUP1 REVERT JUMPDEST DUP2 CALLDATALOAD DUP2 DUP2 GT ISZERO PUSH2 0x1507 JUMPI PUSH2 0x1507 PUSH2 0x1490 JUMP JUMPDEST PUSH1 0x40 MLOAD PUSH1 0x1F DUP3 ADD PUSH1 0x1F NOT SWAP1 DUP2 AND PUSH1 0x3F ADD AND DUP2 ADD SWAP1 DUP4 DUP3 GT DUP2 DUP4 LT OR ISZERO PUSH2 0x152F JUMPI PUSH2 0x152F PUSH2 0x1490 JUMP JUMPDEST DUP2 PUSH1 0x40 MSTORE DUP3 DUP2 MSTORE DUP9 PUSH1 0x20 DUP5 DUP8 ADD ADD GT ISZERO PUSH2 0x1548 JUMPI PUSH1 0x0 DUP1 REVERT JUMPDEST DUP3 PUSH1 0x20 DUP7 ADD PUSH1 0x20 DUP4 ADD CALLDATACOPY PUSH1 0x0 PUSH1 0x20 DUP5 DUP4 ADD ADD MSTORE DUP1 SWAP6 POP POP POP POP POP POP SWAP3 POP SWAP3 SWAP1 POP JUMP JUMPDEST PUSH1 0x0 DUP1 PUSH1 0x0 DUP1 PUSH1 0x60 DUP6 DUP8 SUB SLT ISZERO PUSH2 0x1580 JUMPI PUSH1 0x0 DUP1 REVERT JUMPDEST DUP5 CALLDATALOAD PUSH2 0x158B DUP2 PUSH2 0x131A JUMP JUMPDEST SWAP4 POP PUSH1 0x20 DUP6 ADD CALLDATALOAD SWAP3 POP PUSH1 0x40 DUP6 ADD CALLDATALOAD PUSH8 0xFFFFFFFFFFFFFFFF DUP1 DUP3 GT ISZERO PUSH2 0x15AF JUMPI PUSH1 0x0 DUP1 REVERT JUMPDEST DUP2 DUP8 ADD SWAP2 POP DUP8 PUSH1 0x1F DUP4 ADD SLT PUSH2 0x15C3 JUMPI PUSH1 0x0 DUP1 REVERT JUMPDEST DUP2 CALLDATALOAD DUP2 DUP2 GT ISZERO PUSH2 0x15D2 JUMPI PUSH1 0x0 DUP1 REVERT JUMPDEST DUP9 PUSH1 0x20 DUP3 DUP6 ADD ADD GT ISZERO PUSH2 0x15E4 JUMPI PUSH1 0x0 DUP1 REVERT JUMPDEST SWAP6 SWAP9 SWAP5 SWAP8 POP POP PUSH1 0x20 ADD SWAP5 POP POP POP JUMP JUMPDEST PUSH1 0x0 DUP1 DUP4 CALLDATALOAD PUSH1 0x1E NOT DUP5 CALLDATASIZE SUB ADD DUP2 SLT PUSH2 0x160A JUMPI PUSH1 0x0 DUP1 REVERT JUMPDEST DUP4 ADD DUP1 CALLDATALOAD SWAP2 POP PUSH8 0xFFFFFFFFFFFFFFFF DUP3 GT ISZERO PUSH2 0x1625 JUMPI PUSH1 0x0 DUP1 REVERT JUMPDEST PUSH1 0x20 ADD SWAP2 POP CALLDATASIZE DUP2 SWAP1 SUB DUP3 SGT ISZERO PUSH2 0xF8A JUMPI PUSH1 0x0 DUP1 REVERT JUMPDEST PUSH4 0x4E487B71 PUSH1 0xE0 SHL PUSH1 0x0 MSTORE PUSH1 0x32 PUSH1 0x4 MSTORE PUSH1 0x24 PUSH1 0x0 REVERT JUMPDEST PUSH4 0x4E487B71 PUSH1 0xE0 SHL PUSH1 0x0 MSTORE PUSH1 0x11 PUSH1 0x4 MSTORE PUSH1 0x24 PUSH1 0x0 REVERT JUMPDEST PUSH1 0x0 PUSH1 0x1 DUP3 ADD PUSH2 0x1678 JUMPI PUSH2 0x1678 PUSH2 0x1650 JUMP JUMPDEST POP PUSH1 0x1 ADD SWAP1 JUMP JUMPDEST PUSH1 0x20 DUP1 DUP3 MSTORE PUSH1 0x2C SWAP1 DUP3 ADD MSTORE PUSH32 0x46756E6374696F6E206D7573742062652063616C6C6564207468726F75676820 PUSH1 0x40 DUP3 ADD MSTORE PUSH12 0x19195B1959D85D1958D85B1B PUSH1 0xA2 SHL PUSH1 0x60 DUP3 ADD MSTORE PUSH1 0x80 ADD SWAP1 JUMP JUMPDEST PUSH1 0x20 DUP1 DUP3 MSTORE PUSH1 0x2C SWAP1 DUP3 ADD MSTORE PUSH32 0x46756E6374696F6E206D7573742062652063616C6C6564207468726F75676820 PUSH1 0x40 DUP3 ADD MSTORE PUSH12 0x6163746976652070726F7879 PUSH1 0xA0 SHL PUSH1 0x60 DUP3 ADD MSTORE PUSH1 0x80 ADD SWAP1 JUMP JUMPDEST PUSH1 0x0 PUSH1 0x20 DUP3 DUP5 SUB SLT ISZERO PUSH2 0x1729 JUMPI PUSH1 0x0 DUP1 REVERT JUMPDEST POP MLOAD SWAP2 SWAP1 POP JUMP JUMPDEST PUSH1 0x0 PUSH1 0x1 PUSH1 0x1 PUSH1 0x60 SHL SUB DUP1 DUP4 AND DUP2 DUP2 SUB PUSH2 0x174C JUMPI PUSH2 0x174C PUSH2 0x1650 JUMP JUMPDEST PUSH1 0x1 ADD SWAP4 SWAP3 POP POP POP JUMP JUMPDEST PUSH1 0x0 JUMPDEST DUP4 DUP2 LT ISZERO PUSH2 0x1771 JUMPI DUP2 DUP2 ADD MLOAD DUP4 DUP3 ADD MSTORE PUSH1 0x20 ADD PUSH2 0x1759 JUMP JUMPDEST POP POP PUSH1 0x0 SWAP2 ADD MSTORE JUMP JUMPDEST PUSH1 0x0 DUP3 MLOAD PUSH2 0x178C DUP2 DUP5 PUSH1 0x20 DUP8 ADD PUSH2 0x1756 JUMP JUMPDEST SWAP2 SWAP1 SWAP2 ADD SWAP3 SWAP2 POP POP JUMP JUMPDEST PUSH4 0x4E487B71 PUSH1 0xE0 SHL PUSH1 0x0 MSTORE PUSH1 0x21 PUSH1 0x4 MSTORE PUSH1 0x24 PUSH1 0x0 REVERT JUMPDEST PUSH1 0x20 DUP2 MSTORE PUSH1 0x0 DUP3 MLOAD DUP1 PUSH1 0x20 DUP5 ADD MSTORE PUSH2 0x17CB DUP2 PUSH1 0x40 DUP6 ADD PUSH1 0x20 DUP8 ADD PUSH2 0x1756 JUMP JUMPDEST PUSH1 0x1F ADD PUSH1 0x1F NOT AND SWAP2 SWAP1 SWAP2 ADD PUSH1 0x40 ADD SWAP3 SWAP2 POP POP JUMP INVALID CALLDATASIZE ADDMOD SWAP5 LOG1 EXTCODESIZE LOG1 LOG3 0x21 MOD PUSH8 0xC828492DB98DCA3E KECCAK256 PUSH23 0xCC3735A920A3CA505D382BBC416464726573733A206C6F PUSH24 0x2D6C6576656C2064656C65676174652063616C6C20666169 PUSH13 0x6564A264697066735822122076 PUSH18 0x4FB3AB7F98D887C49544E0FD11001E631F06 EXTCODECOPY 0x29 PREVRANDAO SIGNEXTEND INVALID 0xFB DUP1 SWAP13 ADDMOD 0xB7 0xDA INVALID PUSH5 0x736F6C6343 STOP ADDMOD SLT STOP CALLER "
				},
				"gasEstimates": {
					"creation": {
						"codeDepositCost": "1247200",
						"executionCost": "infinite",
						"totalCost": "infinite"
					},
					"external": {
						"addDeposit()": "infinite",
						"entryPoint()": "infinite",
						"execute(address,uint256,bytes)": "infinite",
						"executeBatch(address[],bytes[])": "infinite",
						"getDeposit()": "infinite",
						"initialize(address)": "infinite",
						"nonce()": "2377",
						"owner()": "2382",
						"proxiableUUID()": "infinite",
						"upgradeTo(address)": "infinite",
						"upgradeToAndCall(address,bytes)": "infinite",
						"validateUserOp((address,uint256,bytes,bytes,uint256,uint256,uint256,uint256,uint256,bytes,bytes),bytes32,address,uint256)": "infinite",
						"withdrawDepositTo(address,uint256)": "infinite"
					},
					"internal": {
						"_authorizeUpgrade(address)": "infinite",
						"_call(address,uint256,bytes memory)": "infinite",
						"_initialize(address)": "infinite",
						"_onlyOwner()": "infinite",
						"_requireFromEntryPointOrOwner()": "infinite",
						"_validateAndUpdateNonce(struct UserOperation calldata)": "infinite",
						"_validateSignature(struct UserOperation calldata,bytes32,address)": "infinite"
					}
				},
				"methodIdentifiers": {
					"addDeposit()": "4a58db19",
					"entryPoint()": "b0d691fe",
					"execute(address,uint256,bytes)": "b61d27f6",
					"executeBatch(address[],bytes[])": "18dfb3c7",
					"getDeposit()": "c399ec88",
					"initialize(address)": "c4d66de8",
					"nonce()": "affed0e0",
					"owner()": "8da5cb5b",
					"proxiableUUID()": "52d1902d",
					"upgradeTo(address)": "3659cfe6",
					"upgradeToAndCall(address,bytes)": "4f1ef286",
					"validateUserOp((address,uint256,bytes,bytes,uint256,uint256,uint256,uint256,uint256,bytes,bytes),bytes32,address,uint256)": "0825d1fc",
					"withdrawDepositTo(address,uint256)": "4d44560d"
				}
			},
			"storageLayout": {
				"storage": [
					{
						"astId": 351,
						"contract": "src/SimpleAccount.sol:SimpleAccount",
						"label": "_initialized",
						"offset": 0,
						"slot": "0",
						"type": "t_uint8"
					},
					{
						"astId": 354,
						"contract": "src/SimpleAccount.sol:SimpleAccount",
						"label": "_initializing",
						"offset": 1,
						"slot": "0",
						"type": "t_bool"
					},
					{
						"astId": 2832,
						"contract": "src/SimpleAccount.sol:SimpleAccount",
						"label": "_nonce",
						"offset": 2,
						"slot": "0",
						"type": "t_uint96"
					},
					{
						"astId": 2834,
						"contract": "src/SimpleAccount.sol:SimpleAccount",
						"label": "owner",
						"offset": 0,
						"slot": "1",
						"type": "t_address"
					}
				],
				"types": {
					"t_address": {
						"encoding": "inplace",
						"label": "address",
						"numberOfBytes": "20"
					},
					"t_bool": {
						"encoding": "inplace",
						"label": "bool",
						"numberOfBytes": "1"
					},
					"t_uint8": {
						"encoding": "inplace",
						"label": "uint8",
						"numberOfBytes": "1"
					},
					"t_uint96": {
						"encoding": "inplace",
						"label": "uint96",
						"numberOfBytes": "12"
					}
				}
			},
			"userdoc": {
				"kind": "user",
				"methods": {
					"addDeposit()": {
						"notice": "deposit more funds for this account in the entryPoint"
					},
					"entryPoint()": {
						"notice": "return the entryPoint used by this account. subclass should return the current entryPoint used by this account."
					},
					"execute(address,uint256,bytes)": {
						"notice": "execute a transaction (called directly from owner, not by entryPoint)"
					},
					"executeBatch(address[],bytes[])": {
						"notice": "execute a sequence of transaction"
					},
					"getDeposit()": {
						"notice": "check current account deposit in the entryPoint"
					},
					"initialize(address)": {
						"notice": "change entry-point: an account must have a method for replacing the entryPoint, in case the the entryPoint is upgraded to a newer version."
					},
					"nonce()": {
						"notice": "return the account nonce. subclass should return a nonce value that is used both by _validateAndUpdateNonce, and by the external provider (to read the current nonce)"
					},
					"validateUserOp((address,uint256,bytes,bytes,uint256,uint256,uint256,uint256,uint256,bytes,bytes),bytes32,address,uint256)": {
						"notice": "Validate user's signature and nonce. subclass doesn't need to override this method. Instead, it should override the specific internal validation methods."
					},
					"withdrawDepositTo(address,uint256)": {
						"notice": "withdraw value from the account's deposit"
					}
				},
				"notice": "minimal account.  this is sample minimal account.  has execute, eth handling methods  has a single signer that can send requests through the entryPoint.",
				"version": 1
			}
		}
	}
}